:020000040000FA
:100000000002040000000000760B0000000B00005E
:100010001C0B0000AE0B0000920B0000D60A000083
:10002000380B0000D00A0000D60A0000D60A0000F3
:10003000D60A0000D60A0000D60A0000D60A000040
:10004000D60A0000D20B0000D60A0000D60A000033
:10005000D60A0000D60A0000D60A0000D60A000020
:10006000D60A0000D60A0000D60A0000D60A000010
:10007000D60A0000D60A0000D60A0000D60A000000
:10008000D60A0000D60A0000D60A0000D60A0000F0
:10009000D60A0000D60A0000D60A0000D60A0000E0
:1000A000D60A0000D60A0000D60A0000D60A0000D0
:1000B000D60A0000D60A0000D60A0000D60A0000C0
:1000C000D60A0000D60A0000D60A0000D60A0000B0
:1000D000D60A0000D60A0000D60A0000E00A000096
:1000E000D60A0000D60A0000D60A0000D60A000090
:1000F000D60A0000D60A0000D60A0000D60A000080
:10010000D60A0000D60A0000D60A0000D60A00006F
:10011000D60A0000D60A0000D60A0000D60A00005F
:10012000D60A0000D60A0000D60A0000D60A00004F
:10013000D60A0000D60A0000D60A0000D60A00003F
:10014000D60A0000D60A0000D60A0000D60A00002F
:10015000D60A0000D60A0000D60A0000D60A00001F
:10016000D60A0000D60A0000D60A0000D60A00000F
:10017000D60A0000D60A0000D60A0000D60A0000FF
:10018000D60A0000D60A0000D60A0000D60A0000EF
:10019000B605000080080000B4080000D60A000080
:1001A000D60A0000AC060000D60A0000E0060000F7
:1001B000D60A0000D60A0000D60A00001407000084
:1001C000480700007C070000D60A0000D60A00009D
:1001D000B0070000E8080000180800004C08000004
:1001E000D60A0000D60A0000D60A0000D60A00008F
:1001F000D60A0000D60A0000D60A0000D60A00007F
:10020000D60A0000D60A0000D60A0000D60A00006E
:10021000D60A0000D60A0000D60A0000D60A00005E
:10022000D60A0000D60A0000D60A0000D60A00004E
:10023000D60A0000D60A0000D60A0000D60A00003E
:10024000D60A0000D60A0000D60A0000D60A00002E
:10025000D60A0000D60A0000D60A0000D60A00001E
:10026000D60A0000D60A0000D60A0000D60A00000E
:10027000D60A0000D60A0000D60A0000D60A0000FE
:10028000D60A0000D60A0000D60A0000D60A0000EE
:10029000D60A0000D60A0000D60A0000D60A0000DE
:1002A000D60A0000D60A0000D60A0000D60A0000CE
:1002B000D60A0000D60A0000D60A0000D60A0000BE
:1002C000D60A0000D60A0000D60A0000D60A0000AE
:1002D000D60A0000D60A0000D60A0000D60A00009E
:1002E000D60A0000D60A0000D60A0000D60A00008E
:1002F000D60A0000D60A0000D60A0000D60A00007E
:10030000D60A0000D60A0000D60A0000D60A00006D
:10031000D60A0000D60A0000D60A0000D60A00005D
:10032000D60A0000D60A0000D60A0000D60A00004D
:10033000D60A0000D60A0000FFFFFF00FFFFFF0003
:10034000FFFFFF00FFFFFF00FFFFFF00FFFFFF00B9
:10035000FFFFFF00FFFFFF00FFFFFF00FFFFFF00A9
:10036000FFFFFF00FFFFFF00FFFFFF00FFFFFF0099
:10037000FFFFFF00FFFFFF00FFFFFF00FFFFFF0089
:10038000FFFFFF00FFFFFF00FFFFFF00FFFFFF0079
:10039000FFFFFF00FFFFFF00FFFFFF00FFFFFF0069
:1003A000FFFFFF00FFFFFF00FFFFFF00FFFFFF0059
:1003B000FFFFFF00FFFFFF00FFFFFF00FFFFFF0049
:1003C000FFFFFF00FFFFFF00FFFFFF00FFFFFF0039
:1003D000FFFFFF00FFFFFF00FFFFFF00FFFFFF0029
:1003E000FFFFFF00FFFFFF00FFFFFF00FFFFFF0019
:1003F000FFFFFF00FFFFFF00FFFFFF00FFFFFF0009
:100400000FB022000EFF26000E0188000000000041
:10041000000020000000E000020032000001200087
:100420002002880014000700EE0407000000E0002E
:1004300003003A00A07E25000100200002003700E2
:100440000000200001002000810F70000100320038
:100450000F000700000020000000E0000200320052
:1004600000000200000000008A6F0200000000008F
:100470000040DA000000FE00001720000000E0004D
:1004800002003200002020009001880000000600D9
:10049000A1028800800478000000EB001F003700F4
:1004A000E284440054A0B4009905BA00E2844400F8
:1004B00054A0B4009906BA00E284440054A0B400E9
:1004C0000006EB00476FDE00FD07B200AE018800BA
:1004D000636CE10003003A000AD801000000EB0061
:1004E0000E003700606CE10008003A00004DEB00A0
:1004F0000A05E800020039003420EC000AF0A000F0
:100500008B05E900F9FF3E00040037006168E10057
:10051000010032000086EB000B00070019C7BA008B
:100520001905BA000E04E00003003A000A00E000DA
:10053000DBFF3A0000000600FE07B200AE028800B2
:100540008A047800F5FF37000CD0A300E20F4D00BD
:100550001C003B0089027800354DBA000A05E8000E
:10056000020039003420EC000AF0A0008B05E900FD
:100570000F003200254DBA000A05E80002003900DC
:100580003420EC000AF0A0008B05E90008003200DE
:100590000C00E0000600320015CDBA000A05E800A4
:1005A000020039003420EC000AF0A0008B05E900BD
:1005B0008984E80054A0B4000B00E000E2FF3A0098
:1005C000000006009902BA00055D78008B05E9007D
:1005D000F7FF3200C82ADE00055D78008B05E900D0
:1005E000F3FF32000C00E000F1FF320019DDBA0029
:1005F000EEFF370034340400000000004E340400E5
:10060000000000002836040000000000463404000A
:1006100000000000363504000000000050340400E3
:10062000000000003E30040000000000A030040084
:100630000000000002310400000000004E31040000
:1006400000000000C032040000000000E632040098
:100650000000000096330400000000003E35040056
:1006600000000000FA31040000000000362F0400F2
:10067000000000003A2F0400000000003E2F04009C
:1006800000000000422F040000000000462F04007C
:1006900000000000482F040000000000982F040014
:1006A00000000000FE2F04000000000022300400C3
:1006B0000000000026300400000000002A30040082
:1006C000000000002E300400000000002C34040064
:1006D00000000000363404000000000078650400CB
:1006E000000000000C6D040000000000106D04000C
:1006F00000000000146D040000000000186D0400EC
:1007000000000000886E040000000000906E0400ED
:1007100000000000726E040000000000766E04000D
:10072000000000007A6E040000000000AC6E0400BF
:1007300000000000B46E040000000000966E04008B
:10074000000000009A6E0400000000009E6E04008D
:10075000000000000E6F040000000000166F04008F
:1007600000000000006F040000000000046F04009F
:1007700000000000086F040000000000382604009C
:10078000000000005425040000000000782404004C
:10079000000000001C1E040000000000141E0400E5
:1007A00000000000241E040000000000281E0400B9
:1007B000000000002C1E040000000000301E040099
:1007C00000000000C01D040000000000481E0400DE
:1007D00000000000601E040000000000961E0400DF
:1007E00000000000AE1E040000000000E41E040033
:1007F00000000000381F040000000000861F0400F5
:1008000000000000A81F040000000000C01F04003A
:1008100000000000D81F040000000000F01F0400CA
:100820000000000008200400000000002020040058
:1008300000000000382004000000000056200400E2
:10084000000000006E20040000000000EC20040006
:1008500000000000E8210400000000006A210400FC
:1008600000000000A81D040000000000901D04000E
:1008700000000000C822040000000000E022040084
:1008800000000000F8220400000000008E22040096
:1008900000000000A6220400000000006024040004
:1008A0000000000010230400000000006423040086
:1008B00000000000B8230400000000000C24040025
:1008C000000000004C250400000000003A2604004F
:1008D00000000000BC62040000000000EC620400A4
:1008E00000000000386204000000000034620400D0
:1008F000000000003C620400000000004E620400A2
:100900000000000052620400000000005862040071
:100910000000000066620400000000006C62040039
:100920000000000078620400000000007C62040007
:1009300000000000806204000000000092620400D9
:100940000000000096620400000000009C620400A9
:1009500000000000AC62040000000000C869040050
:1009600000000000AA6C0400000000009A6C040063
:1009700000000000746C0400000000006C6C0400B7
:1009800000000000706C0400000000007E6C040099
:1009900000000000606C040000000000666C0400B1
:1009A00000000000826C040000000000926C040053
:1009B00000000000AC6C0400000000003A6104007C
:1009C000000000000E6104000000000078600400D8
:1009D00000000000A060040000000000A860040007
:1009E00000000000B0600400000000005C60040033
:1009F00000000000C460040000000000F660040075
:100A00000000000006610400000000006E5B0400AE
:100A1000000000008A5B0400000000009C5B0400F2
:100A200000000000AA5B040000000000B45B0400AA
:100A300000000000BE5B040000000000CE5B04006C
:100A400000000000DE5B040000000000E25B040028
:100A500000000000E65B040000000000005C0400F1
:100A600000000000065C040000000000385C040088
:100A700000000000405C040000000000525C040024
:100A800000000000A45C0400000000000C5C0400F6
:100A900000000000426604000000000048660400F8
:100AA000000000004C6604000000000050660400D6
:100AB00000000000E04A040000000000504C040068
:100AC00000000000CA4B0400000000009A49040026
:100AD000000000008C450400000000008245040076
:100AE00000000000486E0400000000004A6E040090
:100AF00000000000526E0400000000004E6E040072
:100B000000000000506E0400000000004C6E040065
:100B100000000000A63B040000000000C43D0400EB
:100B2000000000004A3C040000000000B43B040048
:100B300000000000603C0400000000009A3F040038
:100B4000000000004A12040000000000DA11040056
:100B5000000000003416040000000000C21604006B
:100B6000000000008E1D0400000000003600F800A8
:100B7000809FBE00829FBE00849FBE00869FBE00F5
:100B80003200F8003400F80010002000A0018800B6
:100B90000020200000D0FE00508F80000000E00008
:100BA00001003200000001000A08E20007003D00D9
:100BB000A1608000428F80000200E000020032004D
:100BC0000000EB00020001000BE8A9000C28AB00BC
:100BD00007003200C1608000428F80000200E00008
:100BE0000200320010002000020001000C28A900C1
:100BF0000CA8AB000700320001618000428F80002A
:100C00000200E0000200320020002000020001008B
:100C10000CA8A9000CC8AB000700320011618000CD
:100C2000428F80000200E00002003200300020000D
:100C3000020001000CC8A9000CE8AB00070032005C
:100C400021618000428F80000200E000020032003B
:100C500040002000020001000CE8A9000D48AB0094
:100C60000700320051618000428F80000200E000E6
:100C70000200320050002000020001000D48A900CF
:100C80000D68AB000700320061618000428F800078
:100C90000200E000020032006000200002000100BB
:100CA0000D68A9000D88AB0007003200716180005B
:100CB000428F80000200E00002003200700020003D
:100CC000020001000D88A9000DA8AB00070032004A
:100CD00081618000428F80000200E000020032004B
:100CE00080002000020001000DA8A9000B68AB00E5
:100CF0000700320061608000428F80000200E00047
:100D00000200320090002000020001000B68A900E0
:100D10000B88AB000700320071608000428F8000BA
:100D20000200E00002003200A000200002000100EA
:100D30000B88A9000B48A9003400F9003200F90023
:100D40004F03BE004F02BE004F01BE004F00BE0069
:100D50003600F900004006003600F800809FBE0013
:100D6000829FBE00849FBE00869FBE003200F800B6
:100D70003400F80010002000A001880000202000AE
:100D800000D0FE00A1608000428F80000200E000E1
:100D9000020032000000EB00020001000BE8A90095
:100DA0003400F9003200F9004F03BE004F02BE00CC
:100DB0004F01BE004F00BE003600F90000400600A3
:100DC0003600F800809FBE00829FBE00849FBE0058
:100DD000869FBE003200F8003400F80010002000AA
:100DE000A00188000020200000D0FE00C16080002B
:100DF000428F80000200E00002003200100020005C
:100E0000020001000C28A9003400F9003200F900AA
:100E10004F03BE004F02BE004F01BE004F00BE0098
:100E20003600F900004006003600F800809FBE0042
:100E3000829FBE00849FBE00869FBE003200F800E5
:100E40003400F80010002000A001880000202000DD
:100E500000D0FE0001618000428F80000200E000AF
:100E60000200320020002000020001000CA8A900AE
:100E70003400F9003200F9004F03BE004F02BE00FB
:100E80004F01BE004F00BE003600F90000400600D2
:100E90003600F800809FBE00829FBE00849FBE0087
:100EA000869FBE003200F8003400F80010002000D9
:100EB000A00188000020200000D0FE001161800009
:100EC000428F80000200E00002003200300020006B
:100ED000020001000CC8A9003400F9003200F9003A
:100EE0004F03BE004F02BE004F01BE004F00BE00C8
:100EF0003600F900004006003600F800809FBE0072
:100F0000829FBE00849FBE00869FBE003200F80014
:100F10003400F80010002000A0018800002020000C
:100F200000D0FE0021618000428F80000200E000BE
:100F30000200320040002000020001000CE8A9007D
:100F40003400F9003200F9004F03BE004F02BE002A
:100F50004F01BE004F00BE003600F9000040060001
:100F60003600F800809FBE00829FBE00849FBE00B6
:100F7000869FBE003200F8003400F8001000200008
:100F8000A00188000020200000D0FE0051618000F8
:100F9000428F80000200E00002003200500020007A
:100FA000020001000D48A9003400F9003200F900E8
:100FB0004F03BE004F02BE004F01BE004F00BE00F7
:100FC0003600F900004006003600F800809FBE00A1
:100FD000829FBE00849FBE00869FBE003200F80044
:100FE0003400F80010002000A0018800002020003C
:100FF00000D0FE0061618000428F80000200E000AE
:101000000200320060002000020001000D68A9000B
:101010003400F9003200F9004F03BE004F02BE0059
:101020004F01BE004F00BE003600F9000040060030
:101030003600F800809FBE00829FBE00849FBE00E5
:10104000869FBE003200F8003400F8001000200037
:10105000A00188000020200000D0FE007161800007
:10106000428F80000200E000020032007000200089
:10107000020001000D88A9003400F9003200F900D7
:101080004F03BE004F02BE004F01BE004F00BE0026
:101090003600F900004006003600F800809FBE00D0
:1010A000829FBE00849FBE00869FBE003200F80073
:1010B0003400F80010002000A0018800002020006B
:1010C00000D0FE0081618000428F80000200E000BD
:1010D0000200320080002000020001000DA8A900DB
:1010E0003400F9003200F9004F03BE004F02BE0089
:1010F0004F01BE004F00BE003600F9000040060060
:101100003600F800809FBE00829FBE00849FBE0014
:10111000869FBE003200F8003400F8001000200066
:10112000A00188000020200000D0FE006160800047
:10113000428F80000200E000020032009000200098
:10114000020001000B68A9003400F9003200F90028
:101150004F03BE004F02BE004F01BE004F00BE0055
:101160003600F900004006003600F800809FBE00FF
:10117000829FBE00849FBE00869FBE003200F800A2
:101180003400F80010002000A0018800002020009A
:1011900000D0FE0071608000428F80000200E000FD
:1011A00002003200A0002000020001000B88A9000C
:1011B0003400F9003200F9004F03BE004F02BE00B8
:1011C0004F01BE004F00BE003600F900004006008F
:1011D0003600F800809FBE00829FBE00849FBE0044
:1011E000869FBE00889FBE003200F8003400F800E1
:1011F00010002000A00188000020200000D0FE0088
:10120000770EA800805222009216070060618000CD
:101210000D68A900C0792200FF290700E07B2200A9
:10122000E22F0700F0702200F211E30003003E00FD
:10123000F231EC0030742500B07D88002B330700BC
:10124000A0832200122A8100818322001192B9001A
:1012500030034200A0834A000602BE00E38322005E
:101260001303780011B3B9000602520087825A00B6
:101270000488BE00C12BDD004F20DE00008073001B
:1012800080097800904189000291B9000201410073
:10129000838149000300780000F0A7000080EA0085
:1012A000042A810004A2B9000402420085824A0097
:1012B0000501780002F0A7000281EA000001410068
:1012C000A241890021842200038422001394B900E2
:1012D00031024400A1824C000404BE006484220058
:1012E000140178001393B9000601540087815C0053
:1012F0008288BE00C11ADD004F10DE00008072003F
:10130000000A7800B0418900208122001004E0002A
:1013100098003A00123D8100604181000000E00029
:1013200003003D0013C0B300D17B22008348780046
:101330000008A3000400320013C0B300C17B2200E8
:101340008348780007003700C17B22001104E000C9
:1013500004003200A18222001100A100C17B220002
:101360008048EB00A18222000080EA009108600022
:10137000C08222000008EB00B03D81000028A300DD
:10138000010032001100A0000018A300020032008A
:10139000A18222001110A0000008A3000200320068
:1013A000A18222001120A0000038A3000200320018
:1013B000A08222001030A000B07A22001004E000C9
:1013C0000F0032000200E0000D003200F20F510069
:1013D0000B003200F30F510009003200F40F5100EE
:1013E00007003200F50F510005003200D07B2200CB
:1013F0001004E00002003A00A082220010F0A000D9
:10140000504181000000E00003003A0011C0B30029
:10141000D079220001487800308122001004E000D9
:101420000500320011C0B300C079220001487800E5
:10143000308122000048EB00408122001004E000CF
:10144000050032000040EB00C1792200804878009E
:101450004181220080487800B1408100C040810075
:10146000808F500007003200C0408100B1408100F1
:101470000080680003003B00E07922001040A200D9
:101480001050A0008081220010037800B64089002F
:1014900090007800E24081000100780000F0A70091
:1014A0000000EA0000F0A7000080EA00820F500070
:1014B00001003D00020078000100E00001003D0055
:1014C0000000EA0090388900703C81004100200053
:1014D000810F50001A0032000D003E001100200064
:1014E000810F50001600320041002000E10F500033
:1014F0001300390021002000810F5000100032003D
:1015000031002000810F50000C003A000C00370021
:1015100061002000810F50000900320051002000BE
:10152000E60F50000600390061002000E70F500070
:1015300003003200E80F500001003200610020007B
:1015400071418900873881004741890070388100E6
:10155000304189004142810021418900944181004C
:1015600014418900B541810005418900B6308100F0
:10157000D640890032310700770EA9003400F90007
:101580003200F9004F04BE004F03BE004F02BE0000
:101590004F01BE004F00BE003600F90000400600BB
:1015A0003600F800800020002E3007003600F800DA
:1015B000C8C8BF000080FB000010B0002930070041
:1015C0003600F800809FBE00829FBE00849FBE0050
:1015D000869FBE00D08E80000000E0000100320037
:1015E0000000010005A8A9004F03BE004F02BE0085
:1015F0004F01BE004F00BE003600F900004006005B
:101600003600F800809FBE00829FBE00849FBE000F
:10161000869FBE00C068A900200020002A30070075
:101620004F03BE004F02BE004F01BE004F00BE0080
:101630003600F900004006003600F800809FBE002A
:10164000829FBE00849FBE00869FBE00C608A90080
:10165000700020001C3007004F03BE004F02BE0088
:101660004F01BE004F00BE003600F90000400600EA
:101670003600F800809FBE00829FBE00849FBE009F
:10168000869FBE00C488AB0003003200C488A90056
:10169000A00020000C300700C4A8AB0003003200FB
:1016A000C4A8A9009000200007300700C508AB00BF
:1016B00003003200C508A900C00020000230070066
:1016C000C528AB0003003200C528A900D0002000C7
:1016D000FD2F0700C408AB0003003200C408A900B6
:1016E000B0002000F82F0700FFFF37003600F80099
:1016F000809FBE00829FBE00849FBE00869FBE006A
:10170000C028A9000000EB00EF2F07004F03BE0028
:101710004F02BE004F01BE004F00BE003600F90070
:10172000004006003600F800809FBE00829FBE0089
:10173000849FBE00869FBE00C088A90030002000A4
:10174000E12F07004F03BE004F02BE004F01BE0055
:101750004F00BE003600F900004006003600F800D9
:10176000809FBE00829FBE00849FBE00869FBE00F9
:10177000C08622008007780040882200000188008F
:10178000C048A90010002000CF2F07004F03BE0063
:101790004F02BE004F01BE004F00BE003600F900F0
:1017A000004006003600F800809FBE00829FBE0009
:1017B000849FBE00869FBE00F08F80000000E00086
:1017C000010032000000010000E8A9004F03BE0044
:1017D0004F02BE004F01BE004F00BE003600F900B0
:1017E00000400600000005008F1FD1001C0007000C
:1017F0008F87E9000000E00000000600809FEB00FA
:10180000170007008F87E9000000E00000000600D5
:10181000140020004D003700F4FF2F004B0037006C
:101820006022B800060220000000D0008180D200B3
:101830000482D2008582D2000000A0000202520081
:1018400083825A00030031000202420083824A0070
:101850000000A1000603E900F3FF3A0000000600C3
:10186000889FBE008A9FBE008C9FBE000404BE00FD
:101870000605BE00809FBE00829FBE0021000700BB
:10188000040678000800BE000A01BE001D00070023
:10189000840678004F03BE004F02BE008D4F7600D5
:1018A0007FB0970013003300F0FF2F008B8F6B0089
:1018B00006003B000D0666000C00A7000A0037007A
:1018C00007F0A600100020000A003700880F520021
:1018D000898F5A008A0F5B008B8F5B0003003900F1
:1018E0001000200001003E000000200007F0A700CB
:1018F0000000EA004F06BE004F05BE004F04BE00C8
:101900000000060005FF2700058261000700320085
:101910000428E10001003200240005000600070051
:1019200001003A0044000500040805000200070019
:10193000F9FF3A00140005006F8261008102700017
:10194000850271008502720000000600889FBE00BB
:101950008A9FBE00841F7800170007004F007800A0
:1019600011003300F0FF2F00838F6C0006003B0056
:10197000040565000A00A7000800370009F0A6006A
:101980001000200008003700820F5400838F5C0095
:10199000030039001000200001003E00000020007C
:1019A00009F0A7000000EA004F05BE004F04BE008A
:1019B0000000E000000006000004BE000600070072
:1019C0000003BE000405BE000200BE0002000700C6
:1019D000844F750000000600C70ADE00F107B20060
:1019E000F50FB20008003200E1CF420002003200E1
:1019F0000170A00024000500810F7000010032007A
:101A00000408050044000500810F700002003A0040
:101A1000140005008502E9000000400081C0480074
:101A2000FCFF3B000170A0002400050054250000CD
:101A3000782400001C1E0000141E0000241E00005C
:101A4000281E00002C1E0000301E0000C01D0000DB
:101A5000481E0000601E0000961E0000AE1E000022
:101A6000E41E0000381F0000861F0000A81F0000B1
:101A7000C01F0000D81F0000F01F00000820000059
:101A80002020000038200000562000006E200000BA
:101A9000EC200000E82100006A21000000000000A6
:101AA0000000000000000000000000000000000036
:101AB00000000000A81D0000901D0000C8220000CA
:101AC000E0220000F82200008E220000A622000082
:101AD000602400001023000064230000B8230000ED
:101AE0000C2400004C250000000000003A260000F5
:101AF000000000004634000036350000503400007D
:101B0000000000003E300000A03000000231000064
:101B10004E310000C0320000E63200009633000073
:101B20003E350000FA310000362F00003A2F000049
:101B30003E2F0000422F0000462F0000482F0000DB
:101B4000982F0000FE2F00002230000026300000F9
:101B50002A3000002E3000002C3400003634000003
:101B60007A8D00006E5B00008A5B00009C5B0000C9
:101B7000AA5B0000B45B0000BE5B0000CE5B00000F
:101B8000DE5B0000E25B00000000000000000000DF
:101B9000E65B0000005C0000065C0000385C0000B2
:101BA000405C0000525C0000A45C00000C5C000083
:101BB0000000000000000000000000000000000025
:101BC0000000000000000000BC620000EC620000A9
:101BD00038620000346200003C6200004E62000087
:101BE0005262000058620000666200006C620000F1
:101BF000786200007C620000806200009262000057
:101C0000966200009C620000AC62000001000000CF
:101C1000461100000000000000000000FFFF00006F
:101C20004A120000DA11000034160000C21600004B
:101C30008E1D0000000000000000000000000000F9
:101C40000000000000000000000000004D610000E6
:101C500079200000313700002032000030320000CF
:101C600035320000333A0000333400003A320000CD
:101C7000340000009A6C0000746C00006C6C000072
:101C8000706C00007E6C0000606C0000666C0000F0
:101C9000826C0000926C0000AC6C00000E610000D1
:101CA00078600000A0600000A8600000B060000044
:101CB0005C600000C4600000F66000000661000087
:101CC00000000000886E0000906E0000726E000040
:101CD000766E00007A6E000000000000AC6E00001E
:101CE000B46E0000966E00009A6E00009E6E0000BA
:101CF000000000000E6F0000166F0000006F000073
:101D0000046F0000086F0000000000000C00FA00E3
:101D1000889FBE008A9FBE008C9FBE008006780010
:101D20000605BE000404BE00A07090006FC06000F5
:101D300002C4B30002C660000C04E000420032009E
:101D4000E44F5000AE003200E84F500037003A0038
:101D50004D109000DD1090006D119000FD1190006D
:101D60000D1290009D1290002D139000BD13900055
:101D7000C4B79F00D5B79F00E6B79F00F7B79F0095
:101D80003D2A9000E10F5200170032004FB2970039
:101D9000DFB297006FB39700FFB3970097FE07007D
:101DA0000000E000210034000802BE000A03BE006B
:101DB0004FB09700DFB097006FB19700FFB1970069
:101DC0008EFE07000080EA00FF8C0A000000000081
:101DD0000C4078004F06BE004F05BE004F04BE0009
:101DE0000080FA00000006004FB29700DFB29700B3
:101DF0006FB39700FFB397007BFE07000000E00081
:101E00000A003D001CC0B3000802BE000A03BE0069
:101E10004FB09700DFB097006FB19700FFB1970008
:101E200071FE07000000E000E9FF34000046EB000F
:101E30000C4078004F06BE004F05BE004F04BE00A8
:101E40000080FA00000006000158A30036003200AE
:101E5000E24F5000BD003200E24F5000200036003B
:101E6000E44F500095003200E84F5000D8FF3A0090
:101E70004D109000DD1090006D119000FD1190004C
:101E80000D1290009D1290002D139000BD13900034
:101E9000BD2E9000E18F5600180132000400E100D1
:101EA0000588E1000690E1000798E100C8FF3400D2
:101EB0001CC0B3000820E10009A8E1000AB0E1005D
:101EC0000BB8E100D9FF35000C4078004F06BE008A
:101ED0004F05BE004F04BE000080FA00000006005F
:101EE000E14F5000BAFF3A008D6890000D609000FD
:101EF0003D299000E10F51001101320080CF5000C8
:101F0000B3FF34001CC0B300844F5000C7FF35003E
:101F10000C4078004F06BE004F05BE004F04BE00C7
:101F20000080FA0000000600E24F50007700320007
:101F3000E24F500020003600E44F50004B003200CA
:101F4000E84F5000A2FF3A004D109000DD109000C5
:101F50006D119000FD1190000D1290009D129000E7
:101F60002D139000BD139000BD2E9000E18F560000
:101F7000D10032000400E1000588E1000690E10094
:101F80000798E10092FF36001CC0B3000820E10072
:101F900009A8E1000AB0E1000BB8E100A3FF390095
:101FA0000C4078004F06BE004F05BE004F04BE0037
:101FB0000080FA0000000600E14F500084FF3A0064
:101FC0008D6890000D6090003D299000E10F510058
:101FD0007E00320080CF50007DFF36001CC0B30071
:101FE000844F500091FF39000C4078004F06BE002E
:101FF0004F05BE004F04BE000080FA00000006003E
:102000004D109000DD1090000D1290009D12900078
:102010003D299000E10F51005C0032000401BE0038
:1020200084BF9F0095BF9F00FBFD07000000E000FC
:102030000FBA97009FBA97007CFF34000801BE00DA
:102040000400BE00F4FD07000080EA00FF8C0A00D7
:10205000000000000C4078004F06BE004F05BE0097
:102060004F04BE000080FA00000006004D119000F1
:10207000DD1190000D1090009D1090003D2A900001
:10208000E10F52007F003200800F5100818F590014
:102090004FFF36001CC0B300880F5000898F5800D6
:1020A00062FF39000C4078004F06BE004F05BE00AD
:1020B0004F04BE000080FA00000006004D119000A1
:1020C000DD1190000D1090009D1090003D2A9000B1
:1020D000E10F520048003200800F5100818F5900FB
:1020E0003BFF34001CC0B300880F5000898F58009C
:1020F0004EFF35000C4078004F06BE004F05BE0075
:102100004F04BE000080FA0000000600CD109000D1
:102110000D1090003D299000E10F51004E0032005B
:10212000808F50002AFF36001CC0B300840F50007F
:102130003EFF39000C4078004F06BE004F05BE0040
:102140004F04BE000080FA0000000600CD10900091
:102150000D1090003D299000E10F51003300320036
:10216000808F50001AFF34001CC0B300840F500051
:102170002EFF35000C4078004F06BE004F05BE0014
:102180004F04BE000080FA00000006000401BE00FB
:1021900084BF9F0095BF9F009DFD07000000E000E9
:1021A0000FBA97009FBA970020FF3D001CC0B300F4
:1021B0000801BE000400BE0095FD07000000E0001D
:1021C00003FF34000046EB0019FF370080CF5000BA
:1021D000FFFE31001CC0B300844F500013FF3E00CF
:1021E0000C4078004F06BE004F05BE004F04BE00F5
:1021F0000080FA0000000600800F5100818F590016
:10220000F3FE3D001CC0B300880F5000898F5800BA
:1022100006FF3C000C4078004F06BE004F05BE0094
:102220004F04BE000080FA0000000600808F5000BE
:10223000E7FE3D001CC0B300840F5000FBFE3C00D5
:102240000C4078004F06BE004F05BE004F04BE0094
:102250000080FA0000000600808F5000DCFE310094
:102260001CC0B300840F5000F0FE3E000C4078000C
:102270004F06BE004F05BE004F04BE000080FA00AE
:1022800000000600800F5100818F5900D0FE310000
:102290001CC0B300880F5000898F5800E3FE3E0039
:1022A0000C4078004F06BE004F05BE004F04BE0034
:1022B0000080FA00000006000400E1000588E1004B
:1022C0000690E1000798E100C1FE31001CC0B30098
:1022D0000820E10009A8E1000AB0E1000BB8E10024
:1022E000D2FE3E000C4078004F06BE004F05BE00F7
:1022F0004F04BE000080FA00000006000400E10068
:102300000588E1000690E1000798E100B0FE3D007D
:102310001CC0B3000820E10009A8E1000AB0E100F8
:102320000BB8E100C1FE3C000C4078004F06BE0037
:102330004F05BE004F04BE000080FA0000000600FA
:1023400080CF5000A2FE3D001CC0B300844F50005F
:10235000B6FE3C000C4078004F06BE004F05BE00A4
:102360004F04BE000080FA00000006001001780053
:10237000828F50000B0032000200E00008003200A3
:10238000640140000200780092017800818F5100C2
:1023900004003200640141000300E000F9FF3A004C
:1023A000000005000100E000FDFF32001000900079
:1023B00000000600889FBE008A9FBE008C1F780028
:1023C000800178008099EB00F2024000050378005C
:1023D0000002EB000046EB0084197800845A780074
:1023E000868F5100FCFF3A00510898006044B80005
:1023F0006055B80008109800191098002A1098002D
:102400003B10980048109800591098006A109800E6
:102410007B109800041898002C70980024189800DD
:102420006033B80036189800471898005418980080
:102430006418980074189800042098002CC0980024
:1024400026209800372098004620980057209800B2
:102450004CC8980076209800072898006112B800B0
:102460001428980025289800110020003128980091
:102470006408980075089800422898001190800020
:10248000C00898004F0678004F05BE004F04BE00FC
:10249000000006001000FA00889FBE008A9FBE0060
:1024A0008C9FBE000004780020189000E60F5000BA
:1024B0000D003E00E50F5000D4003100E20F500047
:1024C00007013200E40F5000FA003200E10F500023
:1024D000260032004F06BE004F05BE004F04BE006E
:1024E0000080FA0000000600E70F50003B013200B8
:1024F000E80F5000F7FF3A0078189000E103200041
:10250000888040008008E800E8189000810F5000A3
:10251000F0FF39000000EB00701C9800A0032000C1
:10252000080040001080FB008000EB004821900074
:10253000D82190000000410081804900402498008B
:1025400051249800E00F5000E08F5800E1FF350063
:1025500020002000201C98004F06BE004F05BE0042
:102560004F04BE000080FA000000060078189000BA
:10257000E1032000888040008008E800E81890000F
:10258000810F5000520039000000EB00701C9800D1
:10259000A0032000080040001082FB008002EB0036
:1025A00038189000C8189000040240008582480046
:1025B000482990008001EB00820F5200838F5A005F
:1025C000040036006011B800321C9800431C9800CB
:1025D0006000B8008045EB0065032000888242005F
:1025E00016002000070020008B84FB000041EB0058
:1025F0000905E8000A0545000A054400F284440084
:10260000890444000282FB001A024200D8099000AB
:10261000861A4000879248001506BE003C1C9800B0
:102620004D1C980000804100144878000241E800E9
:10263000994F11000F00360038189000C81890000C
:102640000282FB001A024200D8099000861A40005C
:10265000879248001506BE003C1C98004D1C98004F
:1026600000804100144878000241E800994F1100B1
:10267000F1FF3E008B45E800387890008B4F50000A
:102680000A00360038189000C81890008B84FB00B0
:102690000041EB000905E8000A0545000A05440071
:1026A000F284440089044400D6FF370038189000B3
:1026B000C81890007821900088299000820F50005F
:1026C000838F58000200390010C0B30040CC98003E
:1026D00088189000287090006F406000E24F500012
:1026E00032013200E24F50003E003600E44F50000D
:1026F00036013200E84F500006003A003102BE00B9
:102700002103BE00E4B79F00F5B79F0086BF9F007E
:1027100097BF9F006FB29700FFB297000FBB970063
:102720009FBB97000800780078FD07000004E000D8
:102730001F003200C8CA90000504E0001C003200EF
:1027400028209000B8209000E00F5000E08F580043
:102750003901350038189000C8189000E00F50007B
:10276000E08F580027013200F81B90000700E000BE
:102770002C013A00A2032000080141001281FB0055
:102780008001EB0002005000838058004024980034
:102790005124980070002000201C98004F06BE00B5
:1027A0004F05BE004F04BE000080FA000000060086
:1027B0006FB09700FFB097000FB997009FB99700CF
:1027C00040149800511498006214980073149800F3
:1027D0004F06BE004F05BE004F04BE000080FA0049
:1027E00000000600E14F5000CAFF3A001182FB00D2
:1027F0008002EB006033B800E4B79F00F5B79F009C
:1028000086BF9F0097BF9F00C2FF370088189000C7
:10281000287090006F406000E24F5000DB003200F3
:10282000E24F500019003600E44F5000EE00320035
:10283000E84F500006003A003102BE002103BE00FE
:10284000A4B79F00B5B79F00C6B79F00D7B79F003A
:102850002FB29700BFB297004FB39700DFB3970036
:102860000800780029FD07000004E000B0003200F5
:1028700040002000201C98004F06BE004F05BE00FF
:102880004F04BE000080FA0000000600E14F500037
:10289000EFFF3A001182FB008002EB006033B800CA
:1028A000A4B79F00B5B79F00C6B79F00D7B79F00DA
:1028B000E7FF370000042000080040001008E8008F
:1028C000E0032000080040001008E8004F06BE00AA
:1028D0004F05BE004F04BE000080FA000000060055
:1028E00078189000E1032000888040008008E8000C
:1028F000E8189000810F5000300039000000EB0014
:10290000701C98008045EB00630320008881410023
:1029100016002000070020008B84FB000040EB0025
:102920000905E8000A0545000A054400F284440050
:10293000890444000081FB001A014100D80890007E
:10294000381A9000C81A90008619420087914A00F0
:102950001306BE003C1C98004D1C9800848040006B
:10296000924878000040E800994F5000F1FF39008C
:102970008B45E8003878900080CF5500E6FF39009D
:10298000A0032000080040001081FB008001EB0044
:1029900038189000C8189000020140008381480058
:1029A000482890008000EB00800F5100818F590073
:1029B000020036000000EB00201C980000042000FC
:1029C000080040001008E8004F06BE004F05BE009A
:1029D0004F04BE000080FA00000006007818900046
:1029E000E1032000888040008008E800E81890009B
:1029F000810F5000B7FE39000000EB00701C9800FA
:102A000038189000C8189000A20320000801410067
:102A10001282FB008002EB00040240008582480025
:102A2000482990008001EB00820F5200838F5A00EA
:102A3000010036006000B8008045EB00650320000F
:102A40008882420016002000070020008B84FB00D3
:102A50000041EB000905E8000A0545000A054400AD
:102A6000F2844400890444000282FB001A024200FE
:102A7000D8099000861A4000879248001506BE00CB
:102A80003C1C98004D1C98000080410014487800C0
:102A90000241E800994F51000F00310038189000B2
:102AA000C81890000282FB001A024200D809900068
:102AB000861A4000879248001506BE003C1C98000C
:102AC0004D1C980000804100144878000241E80045
:102AD000994F5100F1FF39008B45E80038189000FC
:102AE000C81890003879900082CF5500D7FF390080
:102AF00048219000D82190000000510081805900A9
:102B000028219000B8219000820F5000838F580038
:102B100014003E000000EB00201C98004F06BE0091
:102B20004F05BE004F04BE000080FA000000060002
:102B30002FB09700BFB097004FB19700DFB197005B
:102B4000401498005114980062149800731498006F
:102B50004F06BE004F05BE004F04BE000080FA00C5
:102B600000000600182A9000A82A900000004200E9
:102B700081804A00800F5100818F590055FE390035
:102B80000000EB00201C9800E4FF370011007800E3
:102B90006102B8006033B800A4B79F00B5B79F00CA
:102BA000C6B79F00D7B79F0029FF370011007800F4
:102BB0006102B8006033B800E4B79F00F5B79F002A
:102BC00086BF9F0097BF9F00D2FE37001102BE0054
:102BD0006033B800E4B79F00F5B79F0086BF9F0041
:102BE00097BF9F00CBFE37001102BE006033B800D4
:102BF000A4B79F00B5B79F00C6B79F00D7B79F0087
:102C000013FF3700A0032000080040001080FB00E5
:102C10008000EB00182E9000A82E900000005600B7
:102C200081805E00402498005124980070002000AC
:102C3000201C9800D9FE37004024980051249800A9
:102C40006033B800361C9800471C980080002000B4
:102C5000201C98004F06BE004F05BE004F04BE006A
:102C60000080FA0000000600407190008248780061
:102C7000307A90009440980040799000A2409800EB
:102C8000507A9000B440980060719000C240980063
:102C900070729000D440980000799000E240980053
:102CA000107A9000F44098002059900082489800D3
:102CB000305A900094489800500990006111B90072
:102CC0004019DE00A2489800500990006111B90037
:102CD0004819DE00B248980040C19000C2489800F0
:102CE00020219000B0219000481ADD004811DE003C
:102CF00002017200D248980060C19000E24898003A
:102D000070C29000F448980000C99000825098006A
:102D100040219000D0219000481ADD004811DE00CB
:102D2000020172009250980020C99000A2509800B1
:102D300030CA9000B450980020D19000C250980042
:102D400030D29000D450980040D19000E2509800CA
:102D500050D29000F450980040599000825898004A
:102D6000505A90009458980060599000A2589800CA
:102D700070589000B058980020C8B300C058980010
:102D8000D00105002F03B000889FBE008A9FBE00BF
:102D90008C9FBE008E1F78000004BE0002477800A2
:102DA000E34F51008D013600914090000140E90051
:102DB000E74F500089013E000000EB00201C980006
:102DC0008041EB00307C9800002498006000B8003F
:102DD000301C9800411C9800638144001281FB0064
:102DE0004811DD000982E8001482FB000401410063
:102DF000621C9800721C98006022B8006033B80012
:102E0000441498005514980066149800771498009C
:102E1000237C980022C0B30022C4980043CC9800C1
:102E20004024980051249800194190000204E000C9
:102E30003A02320083457800A30320008301440056
:102E4000A3AF9F00AED79F00E65EB9008C46780026
:102E5000644046000080FB00008044001040780081
:102E600065454600E14F50008B0132000004E00050
:102E700061013200E24F5000A7013200E34F5000E1
:102E800056013A000A85FB000A804400E300400036
:102E90009180FB00C808DD000080E8001080FB0086
:102EA0008080400010908000100078000000E0005A
:102EB0004A0132002DFD07000000E000470132000A
:102EC0000B87FB008E00E8008180400081004400F9
:102ED000900878000A8544004A4090000E0744009C
:102EE000205798002FAA970014414000227C980098
:102EF000A8C2900000C0420020C49800C8299000D9
:102F00000281FB00050009008281D8000180510088
:102F10008000EB00102C9800212C98006A46460097
:102F20008B45E800194090008B4F5000C6FF3E00D3
:102F30002FD797000C81FB00EBC046008180FB007F
:102F40006CC0460002814400124578002A74980043
:102F50008180440091407800E1CF5000250232008A
:102F60000104E00043023200E2CF50000C013200C5
:102F7000E3CF500019013A000080FB0000804400BC
:102F8000E30040009180FB00C808DD000080E800FD
:102F90001080FB00808040001090800010007800BE
:102FA0000000E0000D013200F0FC07000000E0002E
:102FB0000A01320010007800001C9800E64046002C
:102FC000A1D79F00EF466500E2CF560065023200B0
:102FD000E2CF5600C4013600E4CF56003E02320074
:102FE000E8CF5600FD003A002FD397000681FB0082
:102FF00002814400A2B79F0092439000E7E79F0040
:103000000780FB008000EB006011B800C819DD00EC
:103010004812DE00830172004811DD00480ADE001C
:1030200002017200C808DD004802DE008100720063
:103030004800DD00E0AF9F00F1AF9F0082B79F0026
:1030400093B79F00AFB29700A542900085EF9F0015
:103050000580FB008000EB006011B8008201780061
:1030600001017800800078000000EB006FAA970053
:10307000FFAA97000FB397009FB39700000042008C
:1030800081804A0002014B0083814B00A0AF9F006A
:10309000B1AF9F00C2AF9F00D3AF9F00AFB097000A
:1030A0001180FB008000EB006011B8002FAA970090
:1030B000BFAA97004FAB9700DFAB9700000242001A
:1030C00081824A0002034B0083834B00E4AF9F00E0
:1030D000F5AF9F0086B79F0097B79F00AFB29700EC
:1030E000B5429000A5EF9F000582FB008002EB0037
:1030F0006033B8000400BE000601BE00C811DD0048
:10310000C80DDE00838175004809DD00C805DE00BA
:1031100002817500C800DD000000EB006FAA970077
:10312000FFAA97000FB397009FB3970000004200DB
:1031300081804A0002014B0083814B00A0AF9F00B9
:10314000B1AF9F00C2AF9F00D3AF9F00AFB2970057
:10315000C5429000C5EF9F000580FB008000EB009A
:103160006011B8002FAA9700BFAA97004FAB970035
:10317000DFAB97000402BE000603400087834800CF
:10318000A4AF9F00B5AF9F00C6AF9F00D7AF9F0011
:10319000AFB29700D5429000E5EF9F000582FB009B
:1031A0008002EB006033B8000400BE000601BE00E0
:1031B000C809DD00C805DE00838175004801DD0017
:1031C0006000B8002FAA9700BFAA97004FAB9700E6
:1031D000DFAB97000000420081804A0002014B00F3
:1031E00083814B00E0AF9F00F1AF9F0082B79F004B
:1031F00093B79F00AFB29700E542900085F79F001C
:103200000582FB008002EB006033B8000400BE00C2
:103210000601BE00800178000001EB006000B800EC
:103220006FAA9700FFAA97000FB397009FB397006C
:103230000000420081804A0002014B0083814B0064
:10324000A0AF9F00B1AF9F00C2AF9F00D3AF9F0060
:10325000AFB29700754290000482FB008002EB0041
:103260006033B8000400BE000601BE00C801DD00E6
:103270000001EB006000B8002FAA9700BFAA9700DA
:103280004FAB9700DFAB97000000420081804A00FF
:1032900002014B0083814B00001498001114980028
:1032A00022149800331498000A04E00087013500C6
:1032B000287090000054A000207498006A464600D0
:1032C0000C81FB00028144000200E8001080FB003A
:1032D0008000EB00480ADD00C802DE0085027200B3
:1032E0004802DD001280FB008000EB000402400079
:1032F000858248000280E8001080FB008000EB001F
:10330000C000DD000000200004004000858048006F
:10331000630141001281FB008001EB00C811DD0058
:103320000200200000004100818049002024980014
:1033300031249800D824070070249800012C9800AC
:10334000644046000080FB00008044001080FB00C9
:10335000302C9800654646008C4F5700F40036002C
:103360000C80FB000080440016C0B300904F130097
:10337000BE00320099429000357C98001980FB0015
:10338000201C98000040EB004F0778004F06BE005D
:103390004F05BE004F04BE002F03B1000000060021
:1033A0000080FB0000804400E30040009180FB00AF
:1033B000C808DD000080E8001080FB00808040002D
:1033C00010908000100078000000E0000300320040
:1033D000E6FB07000000E000F7FE3A0010C0B30073
:1033E0004F0778004F06BE004F05BE004F04BE00D9
:1033F0002F03B100000006000A85FB000B87FB00CD
:103400000E02E80004024200040244008A824400E2
:103410000500E8001080FB008000EB004809DD009B
:10342000C801DE00830171004801DD001580FB004A
:103430008000EB00000A41000A8544004A409000E9
:103440000E074400205798002FAA9700144140000F
:10345000227C9800A8C2900000C0420020C49800BE
:10346000C82990000281FB00050009008281D80074
:10347000018051008000EB00102C9800212C980056
:103480006A4646008B45E800194090008B4F50007B
:103490006DFE3E00A6FE37000A85FB000A80440050
:1034A000E30040009180FB00C808DD000080E800D8
:1034B0001080FB00808040001E9080001E0078007D
:1034C0000000E000C5FF3200A8FB07000000E0009C
:1034D000C2FF3200100278009E01900013017800B4
:1034E000820F5200380032000200E000BBFF3200C1
:1034F000EC8041008101780011017800820F5200B8
:1035000031003200EC8040000200E000F9FF3A0098
:1035100010C0B300B2FF37000A85FB000A804400E8
:10352000E30040009180FB00C808DD000080E80057
:103530001080FB0080804000109080001000780018
:103540000000E000A5FF320088FB07000000E0005B
:10355000A2FF32000B87FB008E00E8008180400054
:1035600081004400800878000A8544004A409000A9
:103570000E074400205798002FAA970014414000DE
:10358000227C9800A8C2900000C0420020C498008D
:10359000C82990000281FB00050009008281D80043
:1035A000018051008000EB00102C9800212C980025
:1035B0006A4646008B45E800194090008B4F50004A
:1035C00021FE3E005AFE37000200E00083FF320079
:1035D0000B87FB000A8144008200E8009180FB0019
:1035E000C808DD001281FB0082804000530190007A
:1035F000020001008E00E80081804000810044004C
:10360000800878000000E00074FF32000A85440062
:103610004A4090000E074400205798002FAA9700B8
:1036200014414000227C9800A8C2900000C04200D3
:1036300020C49800C82990000281FB000500090001
:103640008281D800018051008000EB00102C98008E
:10365000212C98006A4646008B45E80019409000EE
:103660008B4F5000F8FD3E0031FE37008818900067
:10367000287090006F406000E24F50001701320048
:10368000E24F5000D5003600E44F500004013200F4
:10369000E84F500006003A003102BE002103BE0090
:1036A00094A79F00A5A79F00B6A79F00C7A79F004C
:1036B0001FA29700AFA297003FA39700CFA3970048
:1036C00044149800551498006614980077149800D4
:1036D00099429000357C98001980FB00201C9800CE
:1036E0000040EB0028FF3700E1CF56003BFF3A00D7
:1036F000AFD197000381FB00028144001282FB00DE
:103700008002EB006033B800041498001514980090
:103710002614980037149800E3FE370060C0B30009
:1037200051002000420020004CC0B30005FE3700CD
:1037300088189000287090006F406000E24F5000A1
:10374000C7003200E24F500018003600E44F50002E
:10375000B4003200E84F500006003A003102BE00CB
:103760002103BE00D4A79F00E5A79F00F6A79F00F6
:1037700087AF9F005FA29700EFA297007FA39700FB
:103780008FAB970044149800551498006614980065
:103790007714980099429000357C98001980FB00BE
:1037A000201C98000040EB00F7FE3700E14F50006E
:1037B000F0FF3A001182FB008002EB006033B8009A
:1037C000D4A79F00E5A79F00F6A79F0087AF9F00A3
:1037D0005FA29700EFA297007FA397008FAB97009F
:1037E00044149800551498006614980077149800B3
:1037F000E8FF37000085FB000A804400E30040003A
:103800009180FB00C808DD000080E8001080FB000C
:10381000808040001B9080001B0078000000E000CA
:10382000EEFE3200D1FA07000000E000EBFE3200AD
:10383000100278009B01900013017800840F510062
:10384000570032000200E000E4FE3200EC8041004C
:103850008101780011017800820F5200500032007F
:10386000EC8040000200E000F9FF3A0010C0B30015
:10387000DBFE37000080FB00008044008000E80091
:103880001181FB008001EB00481ADD00C812DE0048
:10389000850272004812DD008080E8001181FB0083
:1038A0008001EB00C011DD00020020000402410095
:1038B000858249001081FB008001EB00040141007A
:1038C00085814900021C9800BCFD3700AFD29700EB
:1038D0000DC642007AFE3700AFD297000582FB008A
:1038E000048244000401E8001281FB008001EB0027
:1038F000481BDD00C813DE00870373004813DD009A
:103900000481E8001281FB008001EB00C011DD00A2
:103910000200200006014100878149001483FB005A
:103920008003EB000203430083834B0063024200E9
:103930001481FB008001EB00C811DD0002002000B3
:1039400006014100878149000202BE006033B800D1
:103950000414980015149800261498003714980041
:1039600051FE37002FD297000481FB0002814400F2
:103970008201E8001382FB004822DD001281FB0077
:10398000020242008002EB006033B8000414980089
:1039900015149800261498003714980042FE37003A
:1039A0000200E0008DFE32000A8544008A00E80033
:1039B0009180FB00C808DD001A81FB008280400076
:1039C0005301900002000100001C98000000E0007C
:1039D00082FE32002875900078FD3700864F500037
:1039E00033FF3A001182FB008002EB006033B80025
:1039F00094A79F00A5A79F00B6A79F00C7A79F00F9
:103A00001FA29700AFA297003FA39700CFA39700F4
:103A10004414980055149800661498007714980080
:103A20002BFF37001102BE006033B800D4A79F00FF
:103A3000E5A79F00F6A79F0087AF9F005FA29700B2
:103A4000EFA297007FA397008FAB970044149800D4
:103A50005514980066149800771498004DFF3700AD
:103A6000110078006102B8006033B800D4A79F004D
:103A7000E5A79F00F6A79F0087AF9F005FA2970072
:103A8000EFA297007FA397008FAB97004414980094
:103A90005514980066149800771498003DFF37007D
:103AA0001102BE006033B80094A79F00A5A79F0035
:103AB000B6A79F00C7A79F001FA29700AFA29700BD
:103AC0003FA39700CFA39700441498005514980083
:103AD0006614980077149800FDFE370011007800F6
:103AE0006102B8006033B80094A79F00A5A79F00AB
:103AF000B6A79F00C7A79F001FA29700AFA297007D
:103B00003FA39700CFA39700441498005514980042
:103B10006614980077149800EDFE37000000050049
:103B2000E20F500006003200E30F500006003200A2
:103B3000E10F500005003A002BE3A8000300370016
:103B400061E3A8000100370097E3A8000000060029
:103B5000E20F500006003200E30F50000600320072
:103B6000E10F500005003A002BE3A90003003700E5
:103B700061E3A9000100370097E3A90000000600F7
:103B8000E20F500010003200E30F50001A00320024
:103B9000E10F500023003A0020210A002A03000010
:103BA000E28F500005003A00F0FC2F003203B6000F
:103BB0000040A000901988001A003700F0FC2F0088
:103BC0003223B6001700370020210A0060030000EE
:103BD000E28F500005003A00F0FC2F006803B600A9
:103BE0000040A000401B88000E003700F0FC2F00B2
:103BF0006823B6000B00370020210A00960300005E
:103C0000E28F500005003A00F0FC2F009E03B60042
:103C10000040A000F01C880002003700F0FC2F00DC
:103C20009E23B600000006002BE3A80061E3A80075
:103C300097E3A800000006002BE3A90061E3A900B8
:103C400097E3A90000000600501888000000060055
:103C500040188800000006003018880000000600A8
:103C6000E20F500006003200E30F50000600320061
:103C7000E10F500005003A00911A88000300370058
:103C8000411C880001003700F11D8800000006007B
:103C9000E20F500006003200E30F50000600320031
:103CA000E10F500005003A00711A88000300370048
:103CB000211C880001003700D11D8800000006008B
:103CC000E20F50000B003200E30F500010003200F2
:103CD000E10F500014003A00E1806000CD08DD00E3
:103CE0006019800000D0A100008070006019880079
:103CF0000D003700E1806000CD08DD00101B800062
:103D000000D0A10000807000101B88000600370062
:103D1000E1806000CD08DD00C01C800000D0A10063
:103D200000807000C01C880000000600E20F5000F8
:103D300006003200E30F500006003200E10F500091
:103D400005003A00611A880003003700111C880042
:103D500001003700C11D880000000600E20F50007E
:103D60000B003200E30F500010003200E10F500052
:103D700014003A00E3806000CA08DD00F03F2F0025
:103D80003003B60000807000801988000D003700F5
:103D9000E3806000CA08DD00F03F2F006603B60034
:103DA00000807000301B880006003700E380600050
:103DB000CA08DD00F03F2F009C03B60000807000B1
:103DC000E01C880000000600E20F500010003200E6
:103DD000E30F50001A003200E10F500023003A00B8
:103DE00081C04000AAA00A003003000000C070009B
:103DF000630060004A00DD00F13F2F00821980005F
:103E000082806000810070008119880017003700EF
:103E100081C04000AAA00A006603000000C0700034
:103E2000630060004A00DD00F13F2F00321B80007C
:103E30008280600081007000311B88000B00370019
:103E400081C04000AAA00A009C03000000C07000CE
:103E5000630060004A00DD00F13F2F00E21C80009B
:103E60008280600081007000E11C88000000060074
:103E7000E20F50000F003200E30F50001800320034
:103E8000E10F500020003A00BAA00A003003000001
:103E90006240600080C07000E3806000CA08DD00FE
:103EA000F03F2F003003B6000080700080198800BA
:103EB00015003700BAA00A006603000062406000E7
:103EC00080C07000E3806000CA08DD00F03F2F0072
:103ED0006603B60000807000301B88000A003700BF
:103EE000BAA00A009C0300006240600080C070001D
:103EF000E3806000CA08DD00F03F2F009C03B6009D
:103F000000807000E01C880000000600E20F5000F6
:103F100007003200E30F500008003200E10F5000AC
:103F200009003A00BAA00A00300300000700370079
:103F3000BAA00A006603000004003700BAA00A0015
:103F40009C030000010037000000EB0000000600A9
:103F5000E20F500006003200E30F5000060032006E
:103F6000E10F500005003A0031A3A800030037001C
:103F700067A3A800010037009DA3A8000000060069
:103F8000E20F500006003200E30F5000060032003E
:103F9000E10F500005003A003183A800030037000C
:103FA0006783A800010037009D83A8000000060079
:103FB000E20F500006003200E30F5000060032000E
:103FC000E10F500005003A0031A3A90003003700BB
:103FD00067A3A900010037009DA3A9000000060007
:103FE000E20F500006003200E30F500006003200DE
:103FF000E10F500005003A003183A90003003700AB
:104000006783A900010037009D83A9000000060016
:10401000E20F500006003200E30F500006003200AD
:10402000E10F500005003A00D11A88000300370064
:10403000811C880001003700311E88000000060046
:10404000E20F500006003200E30F5000060032007D
:10405000E10F500005003A00E11A88000300370024
:10406000911C880001003700411E880000000600F6
:10407000E20F500007003200E30F5000080032004A
:10408000E10F500008003A00D11A8800E11A8800B8
:1040900005003700811C8800911C88000200370051
:1040A000311E8800411E880000000600E20F50000B
:1040B00006003200E30F500006003200E10F50000E
:1040C00005003A00A11A880003003700511C88003F
:1040D00001003700011E880000000600E20F5000BA
:1040E00017003200E30F500028003200E10F5000AB
:1040F00038003A00E28F50000B00320003003E000F
:10410000E18F500033003A0005003700E38F500084
:1041100007003200E48F50002E003A0006003700FE
:1041200037E3A8002B00370037C3A8002900370069
:1041300037A3A800270037003783A80025003700E1
:10414000E28F50000B00320003003E00E18F500070
:1041500020003A0005003700E38F500007003200CE
:10416000E48F50001B003A00060037006DE3A80002
:10417000180037006DC3A800160037006DA3A80013
:10418000140037006D83A80012003700E28F500042
:104190000B00320003003E00E18F50000D003A009A
:1041A00005003700E38F500007003200E48F500015
:1041B00008003A0006003700A3E3A8000500370016
:1041C000A3C3A80003003700A3A3A8000100370081
:1041D000A383A80000000600E20F50001700320081
:1041E000E30F500028003200E10F500038003A0081
:1041F000E28F50000B00320003003E00E18F5000C0
:1042000033003A0005003700E38F5000070032000A
:10421000E48F50002E003A000600370037E3A90073
:104220002B00370037C3A9002900370037A3A900A6
:10423000270037003783A90025003700E28F5000A0
:104240000B00320003003E00E18F500020003A00D6
:1042500005003700E38F500007003200E48F500064
:104260001B003A00060037006DE3A9001800370074
:104270006DC3A900160037006DA3A9001400370014
:104280006D83A90012003700E28F50000B0032004E
:1042900003003E00E18F50000D003A00050037009A
:1042A000E38F500007003200E48F500008003A000E
:1042B00006003700A3E3A90005003700A3C3A90047
:1042C00003003700A3A3A90001003700A383A900BE
:1042D00000000600E20F500017003200E30F50000C
:1042E00028003200E10F500038003A00E28F500001
:1042F0000B00320003003E00E18F500033003A0013
:1043000005003700E38F500007003200E48F5000B3
:104310002E003A00060037002FC3A9002B003700FB
:104320002FA3A900290037002F83A90027003700F9
:104330002FE3A90025003700E28F50000B00320068
:1043400003003E00E18F500020003A0005003700D6
:10435000E38F500007003200E48F50001B003A004A
:104360000600370065C3A9001800370065A3A9003F
:10437000160037006583A9001400370065E3A90023
:1043800012003700E28F50000B00320003003E00A5
:10439000E18F50000D003A0005003700E38F500018
:1043A00007003200E48F500008003A000600370092
:1043B0009BC3A900050037009BA3A9000300370099
:1043C0009B83A900010037009BE3A90000000600C1
:1043D000E20F50001B003200E30F500030003200AB
:1043E000E10F500045003A00E28F50000C0032000F
:1043F00003003E00E18F500042003A000500370004
:10440000E38F500009003200E48F50003D003A0075
:1044100009003700EEA00A002E0300003E0037001E
:10442000DDA00A002E0300003B003700CCA00A00EC
:104430002E03000038003700701980004F00DE00A6
:1044400035003700E28F50000C00320003003E00C0
:10445000E18F50002D003A0005003700E38F500037
:1044600009003200E48F500028003A0009003700AC
:10447000EEA00A006403000027003700DDA00A0058
:104480006403000024003700CCA00A00640300008D
:1044900021003700201B80004F00DE001E00370087
:1044A000E28F50000C00320003003E00E18F50000C
:1044B00018003A0005003700E38F50000900320071
:1044C000E48F500013003A0009003700EEA00A0004
:1044D0009A03000010003700DDA00A009A030000D4
:1044E0000D003700CCA00A009A0300000A00370034
:1044F000D01C80004F00DE00070037000040EB00BA
:10450000050037000040EB00030037000040EB00DF
:10451000010037000040EB0000000600E20F5000F1
:1045200006003200E30F500006003200E10F500099
:1045300005003A002E63A800030037006463A8005A
:10454000010037009A63A80000000600E20F500047
:1045500007003200E30F500008003200E10F500066
:1045600009003A0044A00A002E03000007003700AB
:1045700044A00A00640300000400370044A00A00BD
:104580009A030000010037000040EB000000060025
:10459000E20F500006003200E30F50000600320028
:1045A000E10F500005003A00A11A8800030037000F
:1045B000511C880001003700011E88000000060021
:1045C000E20F500006003200E30F500006003200F8
:1045D000E10F500005003A00B11A880003003700CF
:1045E000611C880001003700111E880000000600D1
:1045F000E20F500006003200E30F500006003200C8
:10460000E10F500005003A00C11A8800030037008E
:10461000711C880001003700211E88000000060080
:10462000E20F500010003200E30F50001A00320079
:10463000E10F500023003A00E28F500006003200E4
:10464000E38F500006003200E18F50001D003A0059
:104650003503A8001B0037003523A80019003700D8
:104660003543A80017003700E28F500006003200E3
:10467000E38F500006003200E18F500011003A0035
:104680006B03A8000F0037006B23A8000D00370054
:104690006B43A8000B003700E28F50000600320089
:1046A000E38F500006003200E18F500005003A0011
:1046B000A103A80003003700A123A80001003700D0
:1046C000A143A80000000600E20F500010003200D5
:1046D000E30F50001A003200E10F500023003A00AF
:1046E000E28F500006003200E38F500006003200D7
:1046F000E18F50001D003A003503A9001B00370070
:104700003523A900190037003543A90017003700E9
:10471000E28F500006003200E38F500006003200A6
:10472000E18F500011003A006B03A9000F00370021
:104730006B23A9000D0037006B43A9000B00370065
:10474000E28F500006003200E38F50000600320076
:10475000E18F500005003A00A103A90003003700D3
:10476000A123A90001003700A143A9000000060011
:10477000E20F500010003200E30F50001A00320028
:10478000E10F500023003A00E28F50000600320093
:10479000E38F500006003200E18F50001D003A0008
:1047A00036A3A8001B00370036C3A8001900370045
:1047B00036E3A80017003700E28F500006003200F1
:1047C000E38F500006003200E18F500011003A00E4
:1047D0006CA3A8000F0037006CC3A8000D003700C1
:1047E0006CE3A8000B003700E28F50000600320097
:1047F000E38F500006003200E18F500005003A00C0
:10480000A2A3A80003003700A2C3A800010037003C
:10481000A2E3A80000000600E20F500010003200E2
:10482000E30F50001A003200E10F500023003A005D
:10483000E28F500006003200E38F50000600320085
:10484000E18F50001D003A0036A3A9001B0037007D
:1048500036C3A9001900370036E3A9001700370056
:10486000E28F500006003200E38F50000600320055
:10487000E18F500011003A006CA3A9000F0037002F
:104880006CC3A9000D0037006CE3A9000B003700D2
:10489000E28F500006003200E38F50000600320025
:1048A000E18F500005003A00A2A3A90003003700E1
:1048B000A2C3A90001003700A2E3A900000006007E
:1048C000E20F500006003200E30F500006003200F5
:1048D000E10F500005003A0038E3A800030037005C
:1048E0006EE3A80001003700A4E3A8000000060062
:1048F0002BE3A90061E3A90097E3A9002A23EF00B5
:104900006023EF009623EF005E23EF003E23EF00CD
:104910003C23EF002C23EF004E23EF005023EF0049
:104920005C23EF005A23EF003623EF003423EF001F
:104930004223EF004023EF003A23EF003823EF003B
:104940003223EF003023EF004A23EF004823EF002B
:104950005223EF004C23EF004623EF004423EF00E7
:104960002E23EF005423EF005623EF005823EF00CF
:104970009423EF007423EF007223EF006223EF0013
:104980008423EF008623EF009223EF009023EF00B3
:104990006C23EF006A23EF007823EF007623EF000B
:1049A0007023EF006E23EF006823EF006623EF0013
:1049B0008023EF007E23EF008823EF008223EF00A7
:1049C0007C23EF007A23EF006423EF008A23EF00BB
:1049D0008C23EF008E23EF00CA23EF00AA23EF0001
:1049E000A823EF009823EF00BA23EF00BC23EF00C9
:1049F000C823EF00C623EF00A223EF00A023EF009F
:104A0000AE23EF00AC23EF00A623EF00A423EF00BA
:104A10009E23EF009C23EF00B623EF00B423EF00AA
:104A2000BE23EF00B823EF00B223EF00B023EF0066
:104A30009A23EF00C023EF00C223EF00C423EF004E
:104A40001023EF000E23EF000223EF000423EF00FA
:104A50000C23EF001223EF001423EF001623EF00C6
:104A60001823EF001A23EF001C23EF000823EF00A8
:104A70000A23EF000623EF000023EF001E23EF00C0
:104A80002023EF002223EF002423EF002623EF0052
:104A90002823EF00000006000000E00001003200C3
:104AA000C08F880000000600C00020005019880058
:104AB000001B8800B01C88005E23EF003E23EF003F
:104AC0003C23EF0001002400611988004E23EF0011
:104AD0005023EF0002192000E21A8800D21A880041
:104AE00001302000B119880085002000A519880038
:104AF0004223EF004023EF00D11988004403200037
:104B0000C4198800901988000320200083198800A8
:104B10004A23EF004823EF005223EF004C23EF001D
:104B20004623EF004423EF002E23EF005423EF0031
:104B30005623EF005823EF009423EF007423EF0077
:104B40007223EF0016002400161B88008423EF0058
:104B50008623EF00921C8800821C8800611B88005D
:104B6000551B88007823EF007623EF00811B880017
:104B7000741B8800401B8800331B88008023EF00D3
:104B80007E23EF008823EF008223EF007C23EF00D9
:104B90007A23EF006423EF008A23EF008C23EF00D9
:104BA0008E23EF00CA23EF00AA23EF00A823EF0013
:104BB000C61C8800BA23EF00BC23EF00421E880009
:104BC000321E8800111D8800051D8800AE23EF00ED
:104BD000AC23EF00311D8800241D8800F01C8800E4
:104BE000E31C8800B623EF00B423EF00BE23EF00E0
:104BF000B823EF00B223EF00B023EF009A23EF00B9
:104C0000C023EF00C223EF00C423EF001023EF0006
:104C10000E23EF000223EF000423EF000C23EF002C
:104C20001223EF001423EF001623EF001823EF00E8
:104C30001A23EF001C23EF000823EF0040D02000D0
:104C4000501888000623EF000023EF001E23EF001A
:104C50002023EF002223EF002423EF002623EF0080
:104C60002823EF00806322008BFF0700000006006E
:104C700000000600E20F50000D003200E30F50006C
:104C800014003200E10F50001A003A000868AB002F
:104C900018003200C18F80000100E00002003200E5
:104CA00010002000010001000868A9001100370071
:104CB0000888AB000F003200C18F80000100E000C7
:104CC0000200320020002000010001000888A90035
:104CD0000800370008A8AB0006003200C18F800032
:104CE0000100E0000200320030002000010001005D
:104CF00008A8A900000006006011B8001200980082
:104D0000230098008000EB003100980052009800CA
:104D1000630098007100980012089800230898001A
:104D200031089800520898006308980071089800AC
:104D3000221098003310980011109800621098000B
:104D400073109800511098001218980023189800BA
:104D50000000060052042000020878009110200094
:104D6000410098000208980041089800A106200020
:104D70000110980041109800E20420000300200078
:104D80003218980043189800DBFF07000000060067
:104D90006011B80012009800230098008000EB001A
:104DA000310098006200980073009800000006002F
:104DB000B101200001087800D18B2100410098004A
:104DC00052012000030020000208980013089800F8
:104DD000EFFF0700000006006011B80052009800C5
:104DE000630098001200980023009800000006005D
:104DF00052782900030020007200980003089800F0
:104E0000320098004300980041002000010878001B
:104E1000F1FF0700000006008000EB0001087800A9
:104E2000110098006011B8006200980073009800AB
:104E3000220098003300980000000600D1D622001E
:104E400031089800A1CF2100011098006161250070
:104E50001110980091BA2000211098002122220000
:104E60002108980092AE2500030020000208980057
:104E7000130898004200980053009800E6FF0700CE
:104E8000000006006011B80052009800630098000E
:104E9000120098002300980000000600110920006D
:104EA0000108780092AE25000300200072009800EF
:104EB000030898003200980043009800F1FF0700B3
:104EC00000000600881F7800000478006E0044008F
:104ED000A0FF07008004200008004000B4FF070086
:104EE000E006200008004000ECFF0700C00520009D
:104EF00008004000BEFF0700000820000800400036
:104F0000CEFF07000000EB0040949800F1FE2F0058
:104F10005194980060949800400620007094980086
:104F20004F04780000000600881F78000004780015
:104F30006E00440070FF070080042000080040005D
:104F400093FF0700C005200008004000A2FF0700F3
:104F50000008200008004000AFFF0700E006200026
:104F600008004000C7FF07000000EB0040949800D5
:104F70004F04780000000600889FBE008A9FBE0094
:104F80008C9FBE008E1F780000077800410A9000B9
:104F900004A2B9000402420085824A00050178009B
:104FA00002F0A7000281EA00510B900006B3B9009D
:104FB0000603430087834B000702780004F0A70034
:104FC0000482EA0002014200122F98005E23900042
:104FD000EE239000CE2190000392B900040243001A
:104FE00085824B007E23900003B3B9000602520075
:104FF00087825A0054279800652798004128DD00D1
:105000004F21DE0002017000020378007227980031
:105010000E2A900004A2B9000402420085824A00D0
:105020000501780002F0A7000281EA00820F530018
:10503000120034002E299000BE2990006101410029
:10504000E0814900222F9800332F98004E2A9000CB
:10505000DE2A9000840F5100858F59000A00390024
:105060006011B800222F9800332F98004E919000C5
:105070000200A00042979800060037006011B800B7
:10508000222F9800332F98004E9190000200A1002B
:105090004297980031219200E90F51009B013A009C
:1050A00031919200E20F51001B003A006E299000EE
:1050B0009E0F110018003D00120020000300200088
:1050C000722F9800033798003E319000CE31900047
:1050D00061014100E0814900323798004337980070
:1050E0005E329000EE329000840F5100858F59009F
:1050F000220036006011B80032379800433798001C
:10510000722F9800033798004E9190000230A00053
:10511000429798001C0037003E319000CE3190003D
:10512000E00F5100E08F590014003200610141008E
:10513000E081490032379800433798007E2990007B
:105140008E31900061014100E0814900722F98008A
:10515000033798001E329000AE329000840F510049
:10516000858F5900050036006011B800323798006D
:1051700043379800722F9800033798004E919000A3
:105180000230A100429798009E0278001E1B9000FA
:10519000AE1B9000FE11900003BCB9000803530041
:1051A00089835B0003ADB9000601450087814D008E
:1051B000121F9800231F98000303780085017800D0
:1051C0004FB1DE0002F0A200868151004240AF00E4
:1051D00082017800031F98001E0290005E1B900061
:1051E000EE1B90003E19900002BCB9000804530069
:1051F00089845B0002A6B9000804460089844E0039
:10520000581F9800691F9800040178004FCCDE00F9
:1052100008F0A200090151004240AF0008017800E7
:10522000421F9800039CB9000804440089844C0084
:105230008901780003F0A7008381EA000294B90095
:105240000804440089844C000901780002F0A7009A
:105250000281EA000E1490009E14900003014100A8
:10526000FE0B90000791B9000201440083814C00BD
:105270002E14900007C4B900080351008983590017
:105280000617980017179800413CDD004F31DE00EB
:10529000020174002217980005ABB9000603430011
:1052A00087834B000701780002F0A7000281EA0023
:1052B00004A2B9000402420085824A0085017800F8
:1052C00003F0A7008381EA000E0B90009E0B900074
:1052D00002814100FE0290000591B90002014300E5
:1052E00083814B002E0B900005B3B90006025100DC
:1052F00087825900040F9800150F98004128DD009F
:105300004F21DE0002017000220F9800313192001F
:10531000E30F5100B7003A00F1B0900001F0A70090
:105320008100EA0001F0A7008180EA007E31900050
:10533000828F500018003D00120020000300200062
:10534000023F9800133F98004E399000DE399000DC
:1053500061014100E0814900423F9800533F9800BD
:105360006E3A9000FE3A9000840F5100858F5900EC
:10537000220036006011B800423F9800533F980069
:10538000023F9800133F9800CE9090000120A000AB
:10539000419798001C0037004E399000DE3990008C
:1053A000E00F5100E08F590014003200610141000C
:1053B000E0814900423F9800533F98000E39900029
:1053C0009E39900061014100E0814900023F980050
:1053D000133F98002E3A9000BE3A9000840F51007F
:1053E000858F5900050036006011B800423F9800D3
:1053F000533F9800023F9800133F9800CE909000D2
:105400000120A10041979800EE00900001F0A70054
:105410008180EA002E899000828F500057003D0065
:105420002E02900004A2B9000402420085824A00C4
:105430000501780002F0A7000281EA003E03900017
:1054400006B3B9000603430087834B008701780049
:1054500003F0A7008381EA00828341000787980058
:105460004E0190000291B900020141008381490080
:1054700003F0A7008381EA005E04900008C4B9002D
:105480000804440089844C000902780004F0A70055
:105490000482EA0003034200168798002E919000D0
:1054A0000191B90002014100838149001E919000E1
:1054B0000302410001A2B9000402420085824A00B1
:1054C0000E92900005014200528F98000792B90099
:1054D0000402420085824A0005017800658F980029
:1054E0003E8C900001C4B9000804440089844C003B
:1054F000498F980006CBB9000603430087834B0011
:10550000778F9800828F53001C003400050009003B
:105510000710D9000001780032979800120020008F
:105520000300200022879800338798006E81900046
:10553000FE81900061014100E0814900628798008E
:10554000738798000E8A90009E8A9000840F510005
:10555000858F5900240036006011B80062879800DA
:10556000738798002287980033879800CE90900028
:105570000140A000419798001E003700F1FF27006E
:10558000319798006E819000FE819000E00F5100ED
:10559000E08F59001400320061014100E0814900B0
:1055A00062879800738798002E819000BE819000DA
:1055B00061014100E081490022879800338798000B
:1055C0004E829000DE829000840F5100858F59003A
:1055D000050036006011B800628798007387980054
:1055E0002287980033879800CE9090000140A10058
:1055F00041979800EE9090008100E8006197980034
:105600007E919000828F5000400039008000EB00B6
:10561000619798004E119000DE1190002E129000BC
:10562000BE10900001A2B900040241008582490029
:105630006E1190000191B9000202520083825A005B
:105640004417980055179800412BDD004F21DE00CC
:1056500002017300621798004E0A9000DE0A900063
:105660002E0B9000BE08900001B3B9000603420063
:1056700087834A006E0A900001A2B9000403530018
:1056800085835B00460F9800570F9800413CDD0072
:105690004F32DE0004027400640F980044A2DE0062
:1056A000741F9800820F520012003D000E219000DE
:1056B0009E21900061014100E0814900022798008D
:1056C000132798002E229000BE229000840F5100D4
:1056D000858F59000A0039006000B8000027980043
:1056E00011279800CE9090000110A00041979800DB
:1056F000060037006011B8000227980013279800B1
:10570000CE9090000110A100419798004F077800BB
:105710004F06BE004F05BE004F04BE00000006004D
:10572000889FBE008A9FBE0011047800201290005E
:10573000B01290008011900003ABB9000602520035
:1057400087825A0003C5B9000401450085814D00D8
:105750002210980033109800030278008801780026
:105760004FA1DE0002F0A200848151004240AF0050
:1057700082017800131098001101900060129000CF
:10578000F0129000C013900007ACB900080252005C
:1057900089825A000795B9000403450085834D00AE
:1057A00066109800771098004FBBDE0006F0A2004C
:1057B000070151004240AF000601780052109800E6
:1057C000039BB9000603430087834B0087017800E1
:1057D00003F0A7008381EA000293B90006034300A7
:1057E00087834B000701780002F0A7000281EA00DE
:1057F000100B9000A00B900003014100800A900064
:105800000591B9000201430083814B00300B9000E9
:1058100005B3B900060251008782590014089800A8
:1058200025089800412BDD004F21DE0002017300A6
:10583000320898001102780004A2B9000402420064
:1058400085824A000501780002F0A7000281EA0083
:105850001103900006B3B9000603430087834B0091
:105860008700780001F0A7008180EA001003900013
:10587000A0039000028140001091B9000201430092
:1058800083814B003003900010B3B9000602510031
:10589000878259001400980025009800C128DD0077
:1058A0004F21DE0002817000320098004F05BE00DB
:1058B0004F04BE000000060050099000E00990006F
:1058C000300A9000C008900001A2B9000402410013
:1058D00085824900700990000191B90002025200CE
:1058E00083825A005408980065089800C128DD009A
:1058F0004F21DE0002817000720898005002900073
:10590000E002900030039000C000900001B3B900A5
:105910000603420087834A007002900001A2B9008A
:105920000403530085835B005600980067009800CD
:10593000C138DD004F32DE00048270007400980030
:1059400044A2DE0004189800820F520011003D00AE
:1059500010199000A019900061014100E0814900F8
:105960001218980023189800301A9000C01A90005E
:105970008040EB00840F5100858F590009003900E9
:105980006011B800121898002318980011C0B300D5
:10599000040037006011B80012189800231898000E
:1059A0008040EB000140780000000600889FBE00A8
:1059B0008A1F7800000578006101900002F0A700BE
:1059C0000281EA00AA099000828F5100560034003B
:1059D0002103900006B3B9000603430087834B0000
:1059E0008701780003F0A7008381EA00310390006B
:1059F00006B3B9000603430087834B000702780013
:105A000004F0A7000482EA00030D42004102900066
:105A100004A2B9000402420085824A008501780090
:105A200003F0A7008381EA005102900004A2B900AC
:105A30000402420085824A000503780006F0A700B0
:105A40000683EA0083014300130598002A1390009F
:105A500002B3B9000603430087834B001A1390007A
:105A60000703430002B3B9000603430087834B00DA
:105A70000A13900007024300540D98001AA3B900BE
:105A80000603430087834B0007027800670D9800E8
:105A90003A0C900002C4B9000804440089844C0008
:105AA000490D980003CBB9000603430087834B00E0
:105AB000770D9800870F52001B003D00050009007C
:105AC0000720D90000027800341598001200200049
:105AD0000300200022059800330598006A01900019
