:020000040000fa
:10000000f0ff032075e40100f51b0200f91b02005c
:10001000011c0200051c0200091c02000000000077
:10002000000000000000000000000000f71e0100ba
:10003000fd1b020000000000f71e0100f71e01007a
:10004000f71e0100f71e0100f71e0100f71e010058
:10005000f71e0100f71e0100f71e0100f71e010048
:10006000f71e0100f71e0100f71e0100f71e010038
:10007000f71e0100f71e0100f71e0100f71e010028
:10008000f71e0100f71e0100f71e0100f71e010018
:10009000f71e0100f71e0100f71e0100f71e010008
:1000a000f71e0100f71e0100f71e0100f71e0100f8
:1000b000f71e0100f71e0100f71e0100f71e0100e8
:1000c000f71e0100f71e0100f71e0100f71e0100d8
:1000d000f71e0100f71e0100f71e0100f71e0100c8
:1000e000f71e0100f71e01000000000000000000e4
:1000f00000000000f71e0100f71e0100f71e0100be
:10010000f71e0100f71e0100f71e0100f71e010097
:10011000f71e0100f71e0100f71e0100f71e010087
:10012000f71e0100f71e0100f71e0100f71e010077
:10013000f71e0100f71e0100f71e0100f71e010067
:10014000f71e0100f71e0100f71e0100f71e010057
:10015000f71e0100f71e0100f71e0100f71e010047
:10016000f71e0100f71e0100f71e0100f71e010037
:10017000f71e0100f71e0100f71e0100f71e010027
:10018000f71e0100f71e0100f71e0100f71e010017
:10019000f71e010021490100f71e0100f71e0100b2
:1001a000f71e0100f71e0100f71e0100f71e0100f7
:1001b000f71e0100f71e0100f71e0100f71e0100e7
:1001c000f71e0100f71e0100f71e0100f71e0100d7
:1001d000f71e0100f71e0100f71e0100f71e0100c7
:1001e000f71e0100f71e0100f71e0100f71e0100b7
:1001f000f71e0100f71e0100f71e0100f71e0100a7
:10020000f71e0100f71e0100f71e0100f71e010096
:10021000f71e0100f71e0100f71e0100995b0100a7
:10022000f71e0100f71e0100f71e0100f71e010076
:10023000f71e0100f71e0100f71e0100f71e010066
:10024000f71e0100f71e0100f71e0100f71e010056
:10025000f71e0100f71e0100f71e0100f71e010046
:04026000f71e010084
:020000040000fa
:10026400f8b500bff8bc08bc9e467047d50702002d
:10027400f8b500bff8bc08bc9e467047b107020041
:020000040000fa
:0802840044e400000100000049
:020000040000fa
:10028c00000000409841d73f0883ae3f26c4853f0d
:10029c00ca045d3fcb44343f00840b3f40c2e23e76
:1002ac0063ffb93e3f3b913eac75683e81ae3f3e2d
:1002bc0094e5163ebd1aee3dd14dc53da97e9c3d43
:1002cc001bad733dfdd84a3d2502223d6b28f93c00
:1002dc00a44bd03ca76ba73c49887e3c61a1553c04
:1002ec00c5b62c3c49c8033cc4d5da3b0cdfb13b4a
:1002fc00f4e3883b53e45f3bfddf363bc8d60d3b54
:10030c0087c8e43a0eb5bb3a349c923aca7d693a36
:10031c00a559403a992f173a79ffed3918c9c439c4
:10032c00498c9b39df487239acfe483982ad1f3994
:10033c003355f63891f5cc386d8ea338991f7a3831
:10034c00e4a85038202a27381ca3fd37a913d4372a
:10035c00957baa37b1da8037ca305737b07d2d3745
:10036c0031c1033719fbd936372bb0365851863685
:10037c00476d5c36d27e3236c4850836e781de3571
:10038c000873b435f0588a35693360353c0236351c
:10039c0034c50b35177ce134ae26b734c1c48c346c
:1003ac001556623472da37349e510d345cbbe2332d
:1003bc007217b833a5658d33b6a5623369d7373359
:1003cc0080fa0c33bd0ee232df13b732a7098c3240
:1003dc00d4ef603225c63532588c0a322942df31cf
:1003ec0055e7b331977b8831aafe5c3147703131c8
:1003fc0028d00531051eda309459ae308b8282300c
:10040c00a1985630899b2a30f68afe2f9b66d22ff4
:10041c00292ea62f4fe1792fbe7f4d2f2209212f98
:10042c00297df42e7edbc72ecb239b2eba556e2e48
:10043c00f270412e1a75142ed661e72dcb36ba2ddb
:10044c009cf38c2de8975f2d4f23322d7095042d46
:10045c00e6edd62c4c2ca92c3b507b2c4c594d2c1e
:10046c0012471f2c2319f12b10cfc22b6968942b28
:10047c00bde4652b9843372b8384082b07a7d92a17
:10048c00abaaaa2af08e7b2a5a534c2a66f71c2a4e
:10049c00927aed2958dcbd292f1c8e298c395e29c6
:1004ac00e1332e299e0afe282fbdcd28fe4a9d2819
:1004bc0070b36c28ebf53b28cd110b287306da27ab
:1004cc0036d3a8276d77772768f24527774314270b
:1004dc00e269e226f164b026e6337e26fdd54b2692
:1004ec00704a19267390e62537a7b325e48d80252d
:1004fc00a2434d2590c71925c918e6246136b224ac
:10050c00681f7e24e6d24924dd4f15244a95e0234a
:10051c0022a2ab2351757623bf0d4123496a0b23cd
:10052c00c789d522076b9f22cd0c6922d76d322249
:10053c00d88cfb217868c42157ff8c210950552198
:10054c0017591d21ff18e520318eac2013b77320ed
:10055c00fc913a20351d0120f856c71f723d8d1fa6
:10056c00bece521fe708181fe5e9dc1e9f6fa11ec7
:10057c00e997651e8160291e10c7ec1d28c9af1da7
:10058c004364721dc495341def5af61cf0b0b71cb1
:10059c00d394781c8503391cd0f9f81b5d74b81bf7
:1005ac00ae6f771b1ce8351bd7d9f31ae140b11a93
:1005bc000c196e1af45d2a1a000be6195a1ba119b4
:1005cc00ef895b19665115191c6cce1820d486184e
:1005dc002c833e189e72f5176f9bab172ff6601786
:1005ec00f77a15175f21c91677e07b16b4ae2d1676
:1005fc00e781de15284f8e15c80a3d1537a8ea1479
:10060c00f01997145e514214ba3eec13e8d09413cf
:10061c0050f53b13ab97e112c9a1851255fb27127c
:10062c008089c811a72e6711e3c9031181369e106a
:10063c005e4b361021dacb0f38ae5e0fa88bee0e68
:10064c00782d7b0eb243040ec670890d12460a0d2e
:10065c00273f860c4cbbfc0b35f46c0b79f0d50aa0
:10066c00f36e360a1ec68c095eadd608cada1008bf
:10067c00d4413607f0613e06caa518056a399a03bb
:10068c00000000000040d73faf3f863f5d3f343f46
:10069c000c3fe33eba3e913e683e403e173eee3d77
:1006ac00c53d9c3d743d4b3d223df93cd03ca73ca7
:1006bc007f3c563c2d3c043cdb3bb23b893b603bd6
:1006cc00373b0e3be53abc3a933a693a403a173a13
:1006dc00ee39c5399c39723949392039f638cd385b
:1006ec00a4387a3851382738fe37d437aa378137af
:1006fc0057372d370437da36b03686365c36323615
:10070c000936df35b4358a35603536350c35e1348c
:10071c00b7348d34623438340d34e333b8338d331d
:10072c00633338330d33e232b7328c3261323632c6
:10073c000b32df31b43188315d3131310631da3091
:10074c00ae30833057302b30ff2fd22fa62f7a2f7d
:10075c004d2f212ff42ec82e9b2e6e2e412e142e93
:10076c00e72dba2d8d2d602d322d052dd72ca92cd2
:10077c007b2c4d2c1f2cf12bc32b942b662b372b46
:10078c00092bda2aab2a7c2a4c2a1d2aed29be29f0
:10079c008e295e292e29fe28ce289d286d283c28de
:1007ac000b28da27a927772746271427e226b02615
:1007bc007e264c261926e725b42581254d251a259c
:1007cc00e624b2247e244a241524e123ac23762388
:1007dc0041230b23d6229f2269223222fc21c421e1
:1007ec008d2155211d21e520ad2074203b200120b9
:1007fc00c71f8d1f531f181fdd1ea11e661e291e2d
:10080c00ed1db01d721d351df61cb81c791c391c54
:10081c00f91bb81b771b361bf41ab11a6e1a2a1a5d
:10082c00e619a1195c191519ce1887183f18f51778
:10083c00ac1761171517c9167c162e16df158e15f9
:10084c003d15eb1497144214ec1395133c13e21260
:10085c0086122812c911671104119e103610cc0f84
:10086c005f0fef0e7b0e040e890d0a0d860cfd0b2f
:10087c006d0bd60a360a8d09d708110836073e06c5
:10088c0019059a0300000000404040403f3f3f3fa5
:10089c003f3f3e3e3e3e3e3e3d3d3d3d3d3d3c3c74
:1008ac003c3c3c3c3c3b3b3b3b3b3b3a3a3a3a3a8c
:1008bc003a393939393939383838383838383737a6
:1008cc0037373737363636363636353535353535be
:1008dc0034343434343433333333333332323232da
:1008ec00323231313131313130303030302f2f2ff5
:1008fc002f2f2f2e2e2e2e2e2e2d2d2d2d2d2c2c12
:10090c002c2c2c2c2b2b2b2b2b2a2a2a2a2a2a292f
:10091c002929292928282828282727272727262650
:10092c002626262625252525242424242423232372
:10093c002323222222222221212121202020202097
:10094c001f1f1f1f1e1e1e1e1d1d1d1d1c1c1c1cc3
:10095c001b1b1b1b1a1a1a1a1919191918181817f4
:10096c00171716161616151515141414131313122f
:10097c001211111110100f0f0e0e0e0d0d0c0b0b82
:10098c000a0a090807060504000000000000000020
:10099c0068be2800f87c5100da3b7a0036fba200d6
:1009ac0035bbcb00007cf400c03d1d019d00460111
:1009bc00c1c46e01548a97017f51c0016c1ae901c0
:1009cc0043e511022fb23a0257816302e5528c02c1
:1009dc000327b502dbfddd0295d706035cb42f03bc
:1009ec0059945803b77781039f5eaa033b49d303fd
:1009fc00b737fc033c2a2504f4204e040c1c770466
:100a0c00ad1ba0040320c9043829f20479371b0557
:100a1c00f24a4405cc636d05368296055ba6bf058c
:100a2c0067d0e80587001206e8363b06b773640604
:100a3c0021b78d065401b7067e52e006cdaa0907f0
:100a4c006f0a330793715c0767e085071c57af0784
:100a5c00e0d5d807e45c020857ec2b086b845508ea
:100a6c004f257f0836cfa8085082d208cf3efc080d
:100a7c00e7042609c9d44f09a8ae7909b992a3098c
:100a8c002e81cd093c7af709197e210af88c4b0a84
:100a9c0010a7750a97cc9f0ac4fdc90acc3af40a70
:100aac00e9831e0b52d9480b3f3b730beba99d0bf3
:100abc008e25c80b62aef20ba4441d0c8ee8470cbd
:100acc005b9a720c4a5a9d0c9728c80c8005f30c43
:100adc0043f11d0d21ec480d59f6730d2c109f0d93
:100aec00db39ca0da873f50dd7bd200eab184c0e13
:100afc006984770e5601a30eb98fce0ed82ffa0e3d
:100b0c00fbe1250f6ca6510f757d7d0f5f67a90f5b
:100b1c007764d50f0a75011065992d10d7d159102e
:100b2c00b11e86104280b210def6de10d7820b1199
:100b3c008224381135dc641146aa91110e8fbe1136
:100b4c00e68aeb112a9e181235c94512640c7312f1
:100b5c001868a012b1dccd12906afb121a1229137c
:100b6c00b4d35613c5af8413b4a6b213eeb8e013c6
:100b7c00dde60e14f0303d1497976b14431b9a145a
:100b8c0068bcc8147d7bf714f958261555555515b6
:100b9c0010718415a6acb3159a08e3156e85121660
:100bac00a8234216d1e3711674c6a1161fccd11618
:100bbc0062f50117d142321702b56217904c9317a8
:100bcc00150ac41733eef4178df92518ca2c5718cb
:100bdc0093888818980dba1889bceb181e961d19a5
:100bec000f9b4f191acc8119032ab41990b5e61929
:100bfc008d6f191ac9584c1a1c727f1a5ebcb21a26
:100c0c007038e61a37e7191b9fc94d1b98e0811bfa
:100c1c001a2db61b23b0ea1bb66a1f1cde5d541cd2
:100c2c00af8a891c41f2be1cb795f41c39762a1d7b
:100c3c00f994601d33f3961d2992cd1d2873041e63
:100c4c0088973b1ea900731ef7afaa1ee9a6e21ee9
:100c5c0001e71a1fcf71531fed488c1f046ec51f7f
:100c6c00cbe2fe1f08a938208ec272204231ad2083
:100c7c0019f7e7201b16232161905e2117689a2132
:100c8c007f9fd621f0381322d8365022bd9b8d225f
:100c9c003c6acb2211a50923104f48232d6b8723c7
:100cac007bfcc62330060724a38b47245290882450
:100cbc00e417ca2429260c251fbf4e25f4e69125de
:100ccc000ca2d52500f51926a6e45e261176a426dd
:100cdc009aaeea26e4933127e02b7927d47cc127fe
:100cec00628d0a2891645428d1099f280985ea2825
:100cfc00a1de3629891f84294c51d229197e212a3b
:100d0c00d8b0712a38f5c22ac957152b10e6682bb2
:100d1c00a2aebd2b46c1132c182f6b2cb00ac42cc1
:100d2c0055681e2d375e7a2dab04d82d8076372e64
:100d3c0059d1982e1d36fc2e7fc9612fa2b4c92f14
:100d4c00df253430c851a1305874113188d2843128
:100d5c004ebcfb313a8f7632eeb9f532d9c07933cd
:100d6c00b4440334cb0b9334870f2a350d91c9351a
:100d7c00e2397336a25229373625ef372cbec938e3
:100d8c00109ec139365ae73a96c6653c00000040c1
:100d9c000000290051007a00a300cc00f4001d01d2
:100dac0046016f019801c001e90112023b02640285
:100dbc008c02b502de020703300359038103aa0338
:100dcc00d303fc0325044e047704a004c904f204e5
:100ddc001b0544056d059705c005e90512063b0684
:100dec0064068e06b706e0060a0733075c0786071b
:100dfc00af07d90702082c0856087f08a908d308a2
:100e0c00fc08260950097a09a409ce09f709210a18
:100e1c004c0a760aa00aca0af40a1f0b490b730b78
:100e2c009e0bc80bf30b1d0c480c730c9d0cc80cc3
:100e3c00f30c1e0d490d740d9f0dca0df50d210ef1
:100e4c004c0e780ea30ecf0efa0e260f520f7d0ffe
:100e5c00a90fd50f01102e105a108610b310df10e9
:100e6c000c11381165119211bf11ec1119124612a7
:100e7c007312a012ce12fb12291357138513b3133e
:100e8c00e1130f143d146c149a14c914f71426159d
:100e9c0055158415b415e315131642167216a216c1
:100eac00d2160217321763179317c417f5172618a3
:100ebc0057188918ba18ec181e1950198219b41938
:100ecc00e719191a4c1a7f1ab31ae61a1a1b4e1b79
:100edc00821bb61beb1b1f1c541c8a1cbf1cf51c55
:100eec002a1d611d971dce1d041e3c1e731eab1ebc
:100efc00e31e1b1f531f8c1fc51fff1f39207320a0
:100f0c00ad20e82023215f219a21d72113225022e2
:100f1c008e22cb220a2348238723c7230724482465
:100f2c008924ca240c254f259225d6251a265f26fe
:100f3c00a426eb2632277927c1270b2854289f2873
:100f4c00eb2837298429d229212a722ac32a152b66
:100f5c00692bbe2b142c6b2cc42c1e2d7a2dd82d4a
:100f6c00372e992efc2e622fca2f3430a13011311e
:100f7c008531fc317732f6327a33033493342a35a7
:100f8c00ca3573362937ef37ca38c239e73a663c67
:100f9c0000400000000000000101010101010202fb
:100fac000202020203030303030304040404040403
:100fbc0004050505050505060606060606070707ca
:100fcc000707070808080808080809090909090992
:100fdc000a0a0a0a0a0a0b0b0b0b0b0b0c0c0c0c57
:100fec000c0c0d0d0d0d0d0d0e0e0e0e0e0e0f0f1d
:100ffc000f0f0f0f101010101011111111111112e1
:10100c0012121212121313131313141414141414a3
:10101c001515151515161616161616171717171764
:10102c00181818181819191919191a1a1a1a1a1a23
:10103c001b1b1b1b1c1c1c1c1c1d1d1d1d1d1e1edf
:10104c001e1e1e1f1f1f1f2020202020212121219a
:10105c00222222222323232324242424252525254c
:10106c0026262626272727272828282929292a2af9
:10107c002a2a2b2b2b2c2c2c2d2d2d2e2e2f2f2f9b
:10108c00303031313232323333343535363637381d
:10109c00393a3b3c4000000000000000bf2a24030a
:1010ac007cd9470649906a095ed38b0c2b27ab0f72
:1010bc006e10c8124414e2153cb8f8186a820b1c66
:1010cc007bf9191fc5a423225d0c282528b92628d5
:1010dc00eb341f2b620a112e4dc5fb3087f2de3329
:1010ec001320ba3632dd8c3970ba563cb749173feb
:1010fc00641ece4150cd7a44e6ec1c473315b449fe
:10110c00f3df3f4ca4e8bf4e94cc3351ef2a9b53f2
:10111c00d2a4f55554dd42589979825adf20b45c3b
:10112c00897cd75e2f38ec60ac01f2622589e864cb
:10113c001f81cf66809ea668a3986d6a5f29246c78
:10114c00140dca6db1025f6fc5cbe270842c557261
:10115c00d0ebb57344d304753caf4176da4e6c7763
:10116c0013848478b0238a795a057d7a9d035d7b3c
:10117c00edfb297cb1cee37c3f5f8a7de9931d7e3c
:10118c00fb559d7ec391097f8e36627fb336a77f58
:10119c008d87d87f8121f67fffffff7f8121f67f2e
:1011ac008d87d87fb336a77f8e36627fc391097f38
:1011bc00fb559d7ee9931d7e3f5f8a7db1cee37c1e
:1011cc00edfb297c9d035d7b5a057d7ab0238a79e2
:1011dc0013848478da4e6c773caf417644d3047533
:1011ec00d0ebb573842c5572c5cbe270b1025f6f36
:1011fc00140dca6d5f29246ca3986d6a809ea66835
:10120c001f81cf662589e864ac01f2622f38ec604f
:10121c00897cd75edf20b45c9979825a54dd4258c0
:10122c00d2a4f555ef2a9b5394cc3351a4e8bf4e6e
:10123c00f3df3f4c3315b449e6ec1c4750cd7a44f0
:10124c00641ece41b749173f70ba563c32dd8c391b
:10125c001320ba3687f2de334dc5fb30620a112eed
:10126c00eb341f2b28b926285d0c2825c5a4232276
:10127c007bf9191f6a820b1c3cb8f8184414e21550
:10128c006e10c8122b27ab0f5ed38b0c49906a09da
:10129c007cd94706bf2a24030000000041d5dbfca3
:1012ac008426b8f9b76f95f6a22c74f3d5d854f000
:1012bc0092ef37edbceb1deac44707e7967df4e3ec
:1012cc008506e6e03b5bdcdda3f3d7dad846d9d75d
:1012dc0015cbe0d49ef5eed1b33a04cf790d21cce9
:1012ec00eddf45c9ce2273c69045a9c349b6e8c007
:1012fc009ce131beb03285bb1a13e3b8cdea4bb6d4
:10130c000d20c0b35c1740b16c33ccae11d564acbe
:10131c002e5b0aaaac22bda767867da521df4ba355
:10132c00778328a1d1c7139f54fe0d9ddb76179ba5
:10133c00e17e3099806159975d679295a1d6db93d8
:10134c00ecf235924ffda0903b341d8f7cd3aa8dcf
:10135c0030144a8cbc2cfb8ac450be8926b19388ad
:10136c00ed7b7b8750dc7586a6fa828563fca284b4
:10137c001304d6834f311c83c1a07582176ce28194
:10138c0005aa62813d6ef68072c99d804dc9588058
:10139c00737827807fde0980010000807fde098062
:1013ac00737827804dc9588072c99d803d6ef68038
:1013bc0005aa6281176ce281c1a075824f311c8332
:1013cc001304d68363fca284a6fa828550dc75864e
:1013dc00ed7b7b8726b19388c450be89bc2cfb8add
:1013ec0030144a8c7cd3aa8d3b341d8f4ffda090ba
:1013fc00ecf23592a1d6db935d679295806159979b
:10140c00e17e3099db76179b54fe0d9dd1c7139f5f
:10141c00778328a121df4ba367867da5ac22bda7ce
:10142c002e5b0aaa11d564ac6c33ccae5c1740b100
:10143c000d20c0b3cdea4bb61a13e3b8b03285bb5e
:10144c009ce131be49b6e8c09045a9c3ce2273c613
:10145c00eddf45c9790d21ccb33a04cf9ef5eed121
:10146c0015cbe0d4d846d9d7a3f3d7da3b5bdcdd78
:10147c008506e6e0967df4e3c44707e7bceb1dea7e
:10148c0092ef37edd5d854f0a22c74f3b76f95f6d4
:10149c008426b8f941d5dbfc0000000000002403d1
:1014ac0048066a098c0cab0fc812e215f9180b1c14
:1014bc001a1f2322282526281f2b112efb30df3341
:1014cc00ba368c39563c173fce417a441c47b44946
:1014dc003f4cbf4e33519b53f5554258825ab35c27
:1014ec00d75eeb60f162e864cf66a6686d6a236c28
:1014fc00c96d5e6fe2705472b573047541766b778b
:10150c00847889797c7a5c7b297ce37c897d1d7e5f
:10151c009c7e097f617fa67fd87ff57fff7ff57f5b
:10152c00d87fa67f617f097f9c7e1d7e897de37cb1
:10153c00297c5c7b7c7a897984786b77417604751d
:10154c00b5735472e2705e6fc96d236c6d6aa668d8
:10155c00cf66e864f162eb60d75eb35c825a4258a6
:10156c00f5559b533351bf4e3f4cb4491c477a44fd
:10157c00ce41173f563c8c39ba36df33fb30112e37
:10158c001f2b2628282523221a1f0b1cf918e215bd
:10159c00c812ab0f8c0c6a09480624030000dcfc53
:1015ac00b8f996f674f355f038ed1eea07e7f5e353
:1015bc00e6e0ddddd8dadad7e1d4efd105cf21cc06
:1015cc0046c974c6aac3e9c032be86bbe4b84cb6e1
:1015dc00c1b341b1cdae65ac0baabea77ea54da3e0
:1015ec0029a1159f0f9d189b31995a979395dd93bf
:1015fc003792a2901e8fac8d4b8cfc8abf8995883c
:10160c007c8777868485a484d7831d837782e38146
:10161c006481f7809f805a8028800b8001800b802a
:10162c0028805a809f80f7806481e38177821d83b4
:10163c00d783a484848577867c879588bf89fc8a28
:10164c004b8cac8d1e8fa2903792dd9393955a974d
:10165c003199189b0f9d159f29a14da37ea5bea75f
:10166c000baa65accdae41b1c1b34cb6e4b886bbe8
:10167c0032bee9c0aac374c646c921cc05cfefd18e
:10168c00e1d4dad7d8dadddde6e0f5e307e71eeae8
:10169c0038ed55f074f396f6b8f9dcfc0000000058
:1016ac00000306090c101316191c1f2225282b2ebb
:1016bc00313336393c3f414447494c4e51535558d0
:1016cc005a5c5e60626466686a6b6d6f707173748d
:1016dc00757678797a7a7b7c7d7d7e7e7e7f7f7f46
:1016ec007f7f7f7f7e7e7e7d7d7c7b7a7a7978762c
:1016fc0075747371706f6d6b6a68666462605e5c42
:10170c005a585553514e4c494744413f3c39363356
:10171c00312e2b2825221f1c191613100c09060319
:10172c0000fdfaf7f4f0edeae7e4e1dedbd8d5d220
:10173c00cfcdcac7c4c1bfbcb9b7b4b2afadaba8eb
:10174c00a6a4a2a09e9c9a9896959391908f8d8c0e
:10175c008b8a888786868584838382828281818135
:10176c008181818182828283838485868687888a2f
:10177c008b8c8d8f9091939596989a9c9ea0a2a4f9
:10178c00a6a8abadafb2b4b7b9bcbfc1c4c7cacdc4
:10179c00cfd2d5d8dbdee1e4e7eaedf0f4f7fafde1
:0417ac00000000bf7a
:020000040000fa
:1017b0009fed010a704700bf17b7d1382de9f84fe8
:1017c000f548f64cf649c4f8ac0000f2022c00f2e1
:1017d000044840f28f20c4f82a01c4f842014ff0b7
:1017e0000d0001f5007384f860014ff0080a4ff016
:1017f0000309ec48a3640025b7ee006a40f6cd4229
:10180000012347f6ff77a4f816a784f818974ff03e
:101810000f0a40f26669c4f8bcc04ff4005e4ff492
:10182000804c40f2ae7684ed3b6ac4f82417c4f8cd
:10183000cc80c4f846e1a4f86e61c4f81c57a4f843
:101840002057c4f84250a4f86850c4f82e51a4f8a8
:101850005020a4f85620a4f85c20a4f87a20a4f81c
:101860008a20a4f89a20a4f85021a4f8627084f881
:101870006d3084f87ca084f88ca084f89ca0a4f837
:101880005ec1a4f86891c4e96a00c748dfedc77a71
:101890009fedc77ac4f83802c4f84802c4f8580269
:1018a00042f26666c5204ff0605b4ff4404ea4f8ec
:1018b0002263a4f836030e26a4f85603bd4884ed2f
:1018c000707ac4ed7e7ac4ed867ac4ed8a7a84f8a3
:1018d0007e31a4f88421a4f88a21a4f89091c4f858
:1018e000b05184f8b45184f8363784f8ca3284f899
:1018f000da32a4f81c53c4f83c5384f84053a4f8db
:1019000006e284f80862c4f868b2c4f878b2c4f891
:1019100088b2c4f898b2c4f8a8b2c4f8b8b2c4f88f
:101920003803c4f858031520a4f88074a4f8f00311
:1019300004f5836704f59a6087ed007adfed9e6a0f
:1019400084f8a064a4f8aee484f8b06401f2022e36
:1019500043f23336994fc4f874e404f5a568a4f84b
:10196000be6404f59c6ec0f800b041f69a16622081
:10197000c4f81075924f88ed006aceed006ac4f885
:101980005c5384f86053a4f82054a4f83c57c4f87e
:101990006e5484f87b54a4f88654a4f88c5484f8cc
:1019a0009134a4f89ec484f8c0a484f8f134c4f837
:1019b000145584f81855c4f86a55c4f89273c4f8dd
:1019c000a273a4f80c64c4f86665a4f80e0584f844
:1019d000ae3584f8633684f87a3643f2a403a4f86b
:1019e000903544f6cd436f4ea4f8fa35754bc4f8e4
:1019f000e065c4f8e465c4f8503704f5b9664ff003
:101a00000d07714ba4f838c484f84874dff8bce1c2
:101a1000a4f846c4a4f8f4054ff0400c4ff0804001
:101a2000a4f80026c4f856366ff0004201f50173a1
:101a300047f6b86801f206214ff6fd7b0627c4f889
:101a40005c36c4f8d6e6a4f8f2c63060c4f8bc260a
:101a5000a4f89655a4f89c95c4f8e85584f8ec557c
:101a600084f810a6c4f85457c4f85857a4f8685618
:101a7000c4f8c45684f8c856a4f8bc85a4f80eb6b9
:101a800084f8f476c4f8c026c4f8f856c4f80017f1
:101a9000a4f8fc56a4f8085720f03af804f1a8027c
:101aa00004f1b803c4f85c57c4f86057c4f864572d
:101ab000c4f86857c4f86c57a4f87057626704f507
:101ac000ae75c4f8843004f5d27204f1c803c4e9d9
:101ad0003f25c4f8943002f2c452f43304f5ee6b9f
:101ae00004f1780a04f14e0904f1880804f1540e57
:101af00004f5c771c4f8e430c4e935226e3b543aaa
:101b0000c4e9058e04f1980c04f5be7e04f15a0771
:101b100004f5c47604f59470c4f810b7c4f804a0b2
:101b200004f5a07b04f10c0ac4f80890e16304f109
:101b30001c0904f1dc01c4f8f830c4f8f42004f105
:101b40004003a2f5dd62c4e909c76663a063c4f877
:101b500004b1c4f808a1c4f80c91c4f8a4e0c4f816
:101b6000b4e0c4f8c4e0c4f81021c4f85811c4f8b3
:101b7000983104f5197104f16603c4f89c31c4f876
:101b8000f01104f5ec6302f23a72b63104f1e806a2
:101b900004f160001ce000bff88700000020002076
:101ba000102800209cc4200000004041cdcc8c4077
:101bb0000000000000680f0c00803b45cd4c0f0e6c
:101bc000717d8f82b80b7017ae078f02ff7f018087
:101bd00004f5c17704f5b37c04f5b67804f16c051f
:101be000c4f87821c4f8c01204f25e72c4f8c83197
:101bf000c4f8dc31c4f8703201f24a4104f55f7375
:101c000004f29c4b04f5d76a04f5e87904f51d7ecf
:101c1000c4f81461c4f8200104f5257604f5217098
:101c2000c4f82471c4f838c104f52d7704f5297c73
:101c3000c4f83c81c4f8a05104f5017804f5866528
:101c4000c4f87411c4f8cc21c4f8d821c4f86022b7
:101c5000c4f8803204f54d72a1f2e6310433c4f8c1
:101c60002cb7c4f830a7c4f80092c4f810e2c4f846
:101c70002062c4f83002c4f84072c4f850c2c4f8fc
:101c80009082c4f8e051c4f8a012c4f8b032c4f88d
:101c9000c42204f5457204f5487e04f5557604f532
:101ca0000d7004f5fa7704f5117c04f5097804f554
:101cb000157904f5057a04f5647304f20a41c4f851
:101cc000742304f57f7204f5687bc4f87053c4f87c
:101cd000d0e2c4f8d46204f53675c4f8e002c4f862
:101ce000e47204f5327004f23a76c4f8f0c204f5f6
:101cf000f277c4f8f48204f5f37cc4f8009304f599
:101d00003a7ec4f804a304f5427804f53e79c4f899
:101d10006c33c4f8781304f2144304f56d7a04f5b7
:101d20007171c4f81023c4f83023c4f8502304f2ae
:101d30003472c4f868b3c4f88c53c4f89c03c4f874
:101d4000ac63c4f8b073c4f8c0c3c4f8cce3c4f83f
:101d5000d083c4f8d493c4e9f633c4f8e033c4e9bb
:101d6000caaac4e9d211c4f8bc2304f26471c4f84d
:101d7000e43304f5b162c4f8e83304f5ed6304f527
:101d80007b7604f21e4704f5bf6c04f2645504f23e
:101d9000fe5004f2ac5e04f2444804f2cc4904f272
:101da0007a4ac4f82814c4f8c83404f2c45104f5bb
:101db0009e63c4f8ec2404f2ba5204f27c5bc4f8cb
:101dc0000464c4f82c7404f2844604f2ac47c4f8ea
:101dd00060c4c4f86454c4f86804c4f898e404f215
:101de000bc4004f28e55c4f8b88404f2dc5cc4f83c
:101df000d89404f2245ec4f8e8a404f27e4804f205
:101e0000f25904f2545ac4f80835c4f8201504f203
:101e1000945304f5e961c4f8a824c4f8002504f239
:101e20001472c4f8f8b4c4f8fc64c4f8047504f57a
:101e30008b66c4f83005c4f83455c4f838c5c4f806
:101e400050e5c4f85c85c4f86095c4f8f813c4f88c
:101e50003c35c4f84035c4f84435c4f84835c4f8b6
:101e60004c35c4f874a504f5ed63c4f8502434323d
:101e700004f2364704f24a7504f29a5c04f20c5eee
:101e800004f26c4804f28a4904f5926b04f2346a55
:101e900004f5c561c4f87835c4f82426c4f83c3686
:101ea000c4f8743604f21c62c4f8406404f2a463fb
:101eb00004f2d46604f2dc40c4f85474c4f88455c7
:101ec00004f5de6704f26665c4f8a4c5c4f8a8e5a5
:101ed00004f58c7c04f2546ec4f8d085c4f8d49513
:101ee000c4f8d8b5c4f808a6c4f8181604f26a7a7b
:101ef00004f20671c4f83026c4f8486604f5cf62cf
:101f000004f2e466c4f8843604f2626804f55f7390
:101f100004f5d16904f5d36bc4f880c6c4f8ace607
:101f2000c4f8b405c4f84c76c4f8705604f20c70ca
:101f300004f5c865c4f85016c4f8b016c4f8902665
:101f400004f27e31c4f8e026c4f8946604f5e96230
:101f5000c4f8a06604f20c67c4f8b486c4f8d0963e
:101f6000c4f844a704f23476c4f8ecb6c4f8883751
:101f70000433c4f88027c4f88c17c4f89037c4f829
:101f80007457c4f87c67c4f884a7c4f878771af04b
:101f9000a3fc20461ef06af804f110001ef066f85b
:101fa00004f120001ef062f804f130001bf02cfd5b
:101fb00004f14c001df006ff04f152001df002ff79
:101fc00004f158001df0fefe04f15e001df0fafe63
:101fd00004f164001df0f6fe04f16a001ef01cfb23
:101fe00004f170001cf0c0f804f180001cf0bcf893
:101ff00004f190001cf0b8f804f1a0001ef0d4f831
:1020000004f1b0001ef0d0f804f1c0001ef0ccf8ce
:1020100004f1d0001cf0e2fe04f1e0001bf02cff04
:1020200004f1f0001df0aef904f58e7019f054fbc8
:1020300004f59a7019f050fb04f5a6701df0c2fe6d
:1020400004f5aa701cf090f804f5b2701df0bafe09
:1020500004f5b5701df0b6fe04f5b8701df086faf3
:1020600004f5c0701df0aefe04f5c3701df0aafead
:1020700004f5c6701df0a6fe04f5ca7016f02cf922
:1020800004f5dc701df006f804f5e5601df06efa4d
:1020900004f5e2701df0eaff04f5ea701af086fd1f
:1020a00004f5f6701cf0fafa04f5fe701cf05cf80a
:1020b00004f503701cf0f2fa04f507701cf0eefa58
:1020c00004f50b701cf0eafa04f50f701cf0e6fa48
:1020d00004f513701cf0e2fa04f517701cf050f9c7
:1020e00004f51b701cf04cf904f51f701cf048f946
:1020f00004f523701cf044f904f527701cf040f936
:1021000004f52b701cf03cf904f52f701df02efa2d
:1021100004f533701df02afa04f537701ef074fcd4
:1021200004f53b701ef070fc04f53f701ef06cfc73
:1021300004f543701ff05efc04f546701df042fe8e
:1021400004f21e301df03efe04f5497016f004fa4c
:1021500004f5517016f000fa04f5597014f0aef859
:1021600004f562701cf0defa04f566701cf0dafa11
:1021700004f56a701df0a2ff04f56e701df09eff5d
:1021800004f5727011f04af804f57d701ff04cfbf5
:1021900004f580601df0b6fe04f581601df012feae
:1021a00004f582601cf076ff04f21c401df00afe6c
:1021b00004f224401ff03af804f5e7601df002fe37
:1021c00004f25c401bf020fc04f58f601ef024fa42
:1021d00004f27c401df0f6fd04f282401df0f2fd99
:1021e00004f591601df0eefd04f28e401ef014fa2d
:1021f00004f294401bf0b8ff04f2a4401bf0b4ffbb
:1022000004f2b4401bf0b0ff04f2c4401cf0b8f874
:1022100004f2d4401cf042fa04f2e4401df076f9d6
:1022200004f2f44016f092fd04f21c501bf024fe60
:1022300004f22c501df0a6f804f5ab6019f04cfa2e
:1022400004f5ae601df03aff04f234401df0bafd13
:1022500004f23c401bf088ff04f24c401df02effbe
:1022600004f5b0601ff0e0fa04f28c501df0aafdf6
:1022700004f292501df0a6fd04f5b3601df0a2fd1e
:1022800004f5b4601df072f904f5b6601df03afe75
:1022900004f5b7601df096fd04f5b8601cf0fafe79
:1022a00004f2cc5016f018f804f5be601df08afd5b
:1022b00004f2f6501df086fd04f2fc501df082fd84
:1022c00004f204601bf050ff04f214601ff092fb54
:1022d00004f5c4601ff0a8fa04f22c601ff0c0f8e7
:1022e00004f5e86017f0bcfb04f5c7601ff0ecf8dc
:1022f00004f244601bf088fb04f5cc601ef08cf9fe
:1023000004f264601df05efd04f26c601df02ef9b5
:1023100004f27c601cf062fd04f28c601cf05efd37
:1023200004f29c601ef0c2fe04f5d56015f0d4ffe7
:1023300004f2cc601cf0f6f904f2dc601ef07cfcc8
:1023400004f5dd601af0c8fa04f204701df03afddd
:1023500004f5f36001f0feff084b094a1b6802f523
:10236000587502f5e76402f5f36002f5fc615a6006
:102370001d601c6358639963bde8f88ffc2e002034
:102380004055000010b55f4c04f20c701af088fa4a
:1023900004f5b8701df0e0f804f1a0001df0eefea9
:1023a00004f1b0001df0eafe04f1c0001df0e6feed
:1023b00004f170001bf0c0fe04f180001bf0bcfeb5
:1023c00004f190001bf0b8fe20461df03bfe04f126
:1023d00010001df037fe04f120001df033fe04f163
:1023e000e0001bf033fd04f224401ef017ff04f55b
:1023f000ea701af095fb04f1d0001cf0cbfc04f558
:102400006a701df047fe04f5e86017f0f5fa04f273
:102410006c601df0a1f804f5aa701bf08dfe04f5a8
:102420007d701ff0f9f904f5c4601ff0f5f904f2ae
:10243000dc601ef0f3fb04f1f0001cf097ff04f5e4
:10244000497016f03bf804f214601ff0cdfa04f264
:102450008c601cf09ffc04f29c601ef01bfe04f5d7
:102460002f701df079f804f543701ff0bdfa04f2e7
:102470002c601ef0ebff04f27c601cf08bfc04f57a
:10248000dd601af00dfa04f566701cf03df904f5f4
:10249000b4601df061f804f204601bf04dfe04f519
:1024a000c7601ff007f804f2cc601cf02df904f2ad
:1024b00094401bf041fe04f244601bf08dfa04f5d9
:1024c000d56015f0c9fe04f5e5601df045f804f58a
:1024d0006e701df0dffd04f5517015f0efff04f58f
:1024e00033701df039f804f562701cf00df904f535
:1024f000597013f053fe04f5f360bde8104001f08d
:102500005fbf00bf0020002010b54b4c04f58e705b
:1025100019f0acf804f5ab6019f0a8f804f24c40df
:102520001df0b8fd04f130001bf056fa04f25c40d7
:102530001bf052fa04f23c401bf0fefd04f59a70c9
:1025400019f094f804f5ca7015f086fe04f2b44050
:102550001bf0f2fd04f21c501bf078fc04f2cc508e
:1025600015f07afe04f5e2701df06cfd04f22c50bb
:102570001cf0fcfe04f5fe701bf0defd04f5ae6001
:102580001df088fd04f517701bf0ecfe04f51b70c0
:102590001bf0e8fe04f523701bf0e4fe04f2a440f7
:1025a0001bf0cafd04f5b0601ff036f904f5f670b3
:1025b0001cf06af804f503701cf066f804f5077067
:1025c0001cf062f804f2e4401cf096ff04f2c440f0
:1025d0001bf0c8fe04f2f44016f076fb04f2d4407f
:1025e0001cf052f804f51f701bf0bcfe04f52770b8
:1025f0001bf0b8fe04f52b701bf0b4fe04f50b7055
:102600001cf042f804f50f701cf03ef804f513704e
:102610001cf03af804f537701ef0eaf904f53b7047
:102620001ef0e6f904f53f701ef0e2f904f5727051
:10263000bde8104010f046bd0020002010b5084c49
:10264000fff7a0fe238813b1013b238010bd0a23ae
:102650002380fff759ff2388013b238010bd00bf73
:04266000042f002023
:020000040000fa
:10266400ffffff7fffffff7fffffff7fffffff7f76
:10267400ffffff7fffffff7fffffff7fffffff7f66
:10268400ffffff7fffffff7fffffff7fffffff7f56
:10269400ffffff7fffffff7fffffff7fffffff7f46
:1026a400ffffff7fffffff7fffffff7fffffff7f36
:1026b400ffffff7fffffff7fffffff7fffffff7f26
:1026c400ffffff7fffffff7fffffff7fffffff7f16
:1026d400ffffff7fffffff7fffffff7fffffff7f06
:1026e400ffffff7fffffff7fffffff7fffffff7ff6
:1026f400ffffff7fffffff7fffffff7fffffff7fe6
:10270400ffffff7fffffff7fffffff7fffffff7fd5
:10271400ffffff7fffffff7fffffff7fffffff7fc5
:10272400ffffff7fffffff7fffffff7fffffff7fb5
:10273400ffffff7fffffff7fffffff7fffffff7fa5
:10274400ffffff7fffffff7fffffff7fffffff7f95
:10275400ffffff7fffffff7fffffff7fffffff7f85
:10276400ffffff7fffffff7fffffff7fffffff7f75
:10277400ffffff7fffffff7fffffff7fffffff7f65
:10278400ffffff7fffffff7fffffff7fffffff7f55
:10279400ffffff7fffffff7fffffff7fffffff7f45
:1027a400ffffff7fffffff7fffffff7fffffff7f35
:1027b400ffffff7fffffff7fffffff7fffffff7f25
:1027c400ffffff7fffffff7fffffff7fffffff7f15
:1027d400ffffff7fffffff7fffffff7fffffff7f05
:1027e400ffffff7fffffff7fffffff7fffffff7ff5
:1027f400ffffff7fffffff7fffffff7fffffff7fe5
:10280400ffffff7fffffff7fffffff7fffffff7fd4
:10281400ffffff7fffffff7fffffff7fffffff7fc4
:10282400ffffff7fffffff7fffffff7fffffff7fb4
:10283400ffffff7fffffff7fffffff7fffffff7fa4
:10284400ffffff7fffffff7fffffff7fffffff7f94
:10285400ffffff7fffffff7fffffff7fffffff7f84
:10286400ffffff7fc2be807f23f6027fee9e867e3f
:1028740021b20b7ee928927da0fc197dce26a37c93
:1028840023a12d7c7b65b97bd86d467b63b4d47a58
:102894006b33647a64e5f479e4c48679a2cc19795b
:1028a40078f7ad785f4043786ea2d977dc187177fa
:1028b400fb9e09773a30a37624c83d765d62d975cc
:1028c400a4fa7575d18c1375d414b274b38e517483
:1028d4008df6f1739648937318813573729cd87290
:1028e40017977c728e6d2172721cc7716fa06d7107
:1028f40044f61471c21abd70cc0a667053c30f70cb
:102904005c41ba6ff981656f4c82116f873fbe6e6f
:10291400e9b66b6ec2e5196e6ec9c86d565f786d07
:10292400f0a4286dc297d96c5b358b6c587b3d6cd9
:102934006267f06b2bf7a36b7428586b08f90c6b68
:10294400ba66c26a6c6f786a07112f6a7e49e669b3
:10295400d0169e69057756692b680f695ee8c868ca
:10296400c0f582687c8e3d68c5b0f867d85ab467f4
:10297400f98a7067733f2d679b76ea66cb2ea8664b
:1029840066666666d61b25668c4de465fff9a3650d
:10299400ae1f64651ebd2465dad0e5647559a7646d
:1029a40085556964aac32b6487a2ee63c6f0b1633c
:1029b40016ad75632bd63963c26afe629869c36229
:1029c40073d188621da14e6264d714621d73db61ea
:1029d4002073a26149d669617c9b31619ec1f96013
:1029e4009b47c260602c8b60e26e5460170e1e60c1
:1029f400fc08e85f905eb25fd60d7d5fd515485f39
:102a04009975135f302cdf5eac38ab5e239a775e2a
:102a1400af4f445e6c58115e7ab3de5dfd5fac5d12
:102a24001b5d7a5dfda9485dd145175dc72fe65c46
:102a34001167b55ce6ea845c7dba545c13d5245c0a
:102a4400e539f55b35e8c55b46df965b5e1e685b82
:102a5400c7a4395bcc710b5bbb84dd5ae4dcaf5a91
:102a64009a79825aff7fff7fff7fff7fff7fff7f7f
:102a7400ff7fff7fff7fff7fff7fff7fff7fff7f62
:102a8400ff7fff7fff7fff7fff7fff7fff7fff7f52
:102a9400ff7fff7fff7fff7fff7fff7fff7fff7f42
:102aa400ff7fff7fff7fff7fff7fff7fff7fff7f32
:102ab400ff7fff7fff7fff7fff7fff7fff7fff7f22
:102ac400ff7fff7fff7fff7fff7fff7fff7fff7f12
:102ad400ff7fff7fff7fff7fff7fff7fff7fff7f02
:102ae400ff7fff7fff7fff7fff7fff7fff7fff7ff2
:102af400ff7fff7fff7fff7fff7fff7fff7fff7fe2
:102b0400ff7fff7fff7fff7fff7fff7fff7fff7fd1
:102b1400ff7fff7fff7fff7fff7fff7fff7fff7fc1
:102b2400ff7fff7fff7fff7fff7fff7fff7fff7fb1
:102b3400ff7fff7fff7fff7fff7fff7fff7fff7fa1
:102b4400ff7fff7fff7fff7fff7fff7fff7fff7f91
:102b5400ff7fff7fff7fff7fff7fff7fff7fff7f81
:102b6400ff7fff7fff7f817f037f877e0c7e927dc7
:102b74001a7da37c2e7cb97b467bd57a647af57961
:102b840087791a79ae784378da7771770a77a376fa
:102b94003e76d97576751475b2745274f273937364
:102ba4003673d9727d722172c7716e711571bd70e1
:102bb40066701070ba6f666f126fbe6e6c6e1a6eae
:102bc400c96d786d296dda6c8b6c3d6cf06ba46b00
:102bd400586b0d6bc26a786a2f6ae6699e695669fa
:102be4000f69c96883683e68f967b46771672d67c0
:102bf400ea66a86666662566e465a4656465256577
:102c0400e664a76469642c64ef63b26376633a6331
:102c1400fe62c36289624f621562db61a2616a610e
:102c24003261fa60c2608b6054601e60e85fb25f1c
:102c34007d5f485f135fdf5eab5e785e445e115e6e
:102c4400df5dac5d7a5d495d175de65cb55c855c16
:102c5400555c255cf55bc65b975b685b3a5b0b5b1d
:102c6400de5ab05a825a00007f7f7f7f7f7f7f7f4a
:102c74007f7f7f7f7f7f7f7f7f7f7f7f7f7f7f7f60
:102c84007f7f7f7f7f7f7f7f7f7f7f7f7f7f7f7f50
:102c94007f7f7f7f7f7f7f7f7f7f7f7f7f7f7f7f40
:102ca4007f7f7f7f7f7f7f7f7f7f7f7f7f7f7f7f30
:102cb4007f7f7f7f7f7f7f7f7f7f7f7f7f7f7f7f20
:102cc4007f7f7f7f7f7f7f7f7f7f7f7f7f7f7f7f10
:102cd4007f7f7f7f7f7f7f7f7f7f7f7f7f7f7f7f00
:102ce4007f7f7f7f7f7f7f7f7f7f7f7f7e7e7d7df6
:102cf4007c7c7b7b7a7a7a79797878777777767641
:102d04007575757474747373727272717171707095
:102d1400706f6f6f6e6e6e6d6d6d6d6c6c6c6b6bda
:102d24006b6a6a6a6a696969696868686767676714
:102d34006666666665656565646464646363636347
:102d440063626262626161616161606060605f5f71
:102d54005f5f5f5e5e5e5e5e5d5d5d5d5d5d5c5c96
:102d64005c5c5c5b5b5b5b5b5b0000000000000029
:102d7400334f500b00000010148e9813669ea0165b
:102d84003b584c19e87ab61b11eaee1d00000020ee
:102d94009aedf02137efc623b3f88525281c312797
:102da400becaca2854ff542aa45bd12bcd3c412d62
:102db4001bcaa52e000000304ab8503176b09832b4
:102dc400948ed83328e5103539364236d1f56c3730
:102dd400008c91388956b0393caac93a23d4dd3bda
:102de400731aed3c63bdf73dd7f7fd3e000000408c
:102df400d907fe409b3df8411fccee4233dbe14353
:102e0400e98fd144d20cbe453e72a7466ede8d4793
:102e1400c36d7148e43a5249e55e304a65f10b4ba3
:102e2400b108e54bd6b9bb4cc118904d5038624e31
:102e3400672a324f000000503fc9cb507c95955112
:102e440056735d52b9702353ef9ae753a7fea95402
:102e540001a86a5593a2295675f9e65649b7a257af
:102e64003de65c581690155934becc599a79825a6d
:102e7400efca365b86bae95b61509b5c37944b5d65
:102e8400768dfa5d4643a85e91bc545f00000060f5
:102e94000214aa60cefe526164c6fa619470a16203
:102ea400fa0247630583eb63f9f58e64eb603165e1
:102eb400cdc8d265663273665aa21267291db167fe
:102ec4002ea74e68a844eb68b4f9866950ca216af3
:102ed4005ebabb6aa6cd546bd107ed6b726c846c81
:102ee40001ff1a6de1c2b06d5abb456ea1ebd96efc
:102ef400d5566d6f0000007018ea917000182371a8
:102f04008a8cb371754a43726d54d27212ad607378
:102f1400ee56ee7382547b743aa807757854937511
:102f24008d5b1e76bfbfa8764383327746a8bb77f6
:102f3400e4304478311fcc7834755379e634da7947
:102f44003a60607a15f9e57a53016b7bc57aef7bb9
:102f54003467737c5dc8f67cf79f797daeeffb7dab
:102f640026b97d7efbfdfe7ec0bf7f7fffffff7f16
:102f7400c0bf7f7ffbfdfe7e26b97d7eaeeffb7d6d
:102f8400f79f797d5dc8f67c3467737cc57aef7be7
:102f940053016b7b15f9e57a3a60607ae634da79a5
:102fa40034755379311fcc78e430447846a8bb7724
:102fb40043833277bfbfa8768d5b1e7678549375b2
:102fc4003aa8077582547b74ee56ee7312ad6073a3
:102fd4006d54d272754a43728a8cb371001823718e
:102fe40018ea917000000070d5566d6fa1ebd96e90
:102ff4005abb456ee1c2b06d01ff1a6d726c846cf0
:10300400d107ed6ba6cd546b5ebabb6a50ca216a78
:10301400b4f98669a844eb682ea74e68291db167e8
:103024005aa2126766327366cdc8d265eb60316509
:10303400f9f58e640583eb63fa0247639470a16229
:1030440064c6fa61cefe52610214aa6000000060f8
:1030540091bc545f4643a85e768dfa5d37944b5d10
:1030640061509b5c86bae95befca365b9a79825af7
:1030740034becc59169015593de65c5849b7a25751
:1030840075f9e65693a2295601a86a55a7fea954d4
:10309400ef9ae753b970235356735d527c9595515b
:1030a4003fc9cb5000000050672a324f5038624e5f
:1030b400c118904dd6b9bb4cb108e54b65f10b4b2b
:1030c400e55e304ae43a5249c36d71486ede8d477d
:1030d4003e72a746d20cbe45e98fd14433dbe143af
:1030e4001fccee429b3df841d907fe400000004052
:1030f400d7f7fd3e63bdf73d731aed3c23d4dd3baa
:103104003caac93a8956b039008c9138d1f56c374c
:103114003936423628e51035948ed83376b0983255
:103124004ab85031000000301bcaa52ecd3c412db9
:10313400a45bd12b54ff542abecaca28281c3127a9
:10314400b3f8852537efc6239aedf021000000205f
:1031540011eaee1de87ab61b3b584c19669ea01680
:10316400148e981300000010334f500b0000000021
:103174000000500b00109913a1164c19b61bef1d3b
:103184000020f121c72386253127cb28552ad12bae
:10319400412da62e003051319932d93311354236a2
:1031a4006d379238b039ca3ade3bed3cf83dfe3e0d
:1031b4000040fe40f841ef42e243d244be45a746f8
:1031c4008e4771485249304a0c4be54bbc4c904dec
:1031d400624e324f0050cc5096515d522353e85307
:1031e400aa546b552a56e756a3575d581659cd591c
:1031f400825a375bea5b9b5c4c5dfb5da85e555f66
:103204000060aa605361fb61a1624763ec638f6451
:103214003165d36573661367b1674f68eb68876977
:10322400226abc6a556bed6b846c1b6db16d466e86
:10323400da6e6d6f007092702371b4714372d27242
:103244006173ee737b74087593751e76a976337774
:10325400bc774478cc785379da79607ae67a6b7bf8
:10326400ef7b737cf77c7a7dfc7d7e7eff7e807fa6
:10327400ff7f807fff7e7e7efc7d7a7df77c737c82
:10328400ef7b6b7be67a607ada795379cc78447891
:10329400bc773377a9761e76937508757b74ee73c5
:1032a4006173d2724372b4712371927000706d6f46
:1032b400da6e466eb16d1b6d846ced6b556bbc6a3a
:1032c400226a8769eb684f68b16713677366d365d1
:1032d40031658f64ec634763a162fb615361aa604b
:1032e4000060555fa85efb5d4c5d9b5cea5b375bf1
:1032f400825acd5916595d58a357e7562a566b552d
:10330400aa54e85323535d529651cc500050324f87
:10331400624e904dbc4ce54b0c4b304a52497148bf
:103324008e47a746be45d244e243ef42f841fe40f1
:103334000040fe3ef83ded3cde3bca3ab0399238df
:103344006d3742361135d933993251310030a62eba
:10335400412dd12b552acb2831278625c723f1218e
:103364000020ef1db61b4c19a11699130010500b29
:1033740000000000000b101417191c1e2022242624
:1033840027292a2c2d2f30313334353637393a3b1f
:103394003c3d3e3f40414243444546474848494af4
:1033a4004b4c4d4e4e4f5051525253545555565707
:1033b4005858595a5b5b5c5d5d5e5f5f606161623a
:1033c40063636465656666676868696a6a6b6b6c83
:1033d4006d6d6e6e6f6f70717172727373747475dc
:1033e40076767777787879797a7a7b7b7c7c7d7d41
:1033f4007e7e7f7f7f7f7f7e7e7d7d7c7c7b7b7af4
:103404007a7979787877777676757474737372725b
:103414007171706f6f6e6e6d6d6c6b6b6a6a6968db
:10342400686766666565646363626161605f5f5e69
:103434005d5d5c5b5b5a5958585756555554535209
:103444005251504f4e4e4d4c4b4a494848474645c1
:1034540044434241403f3e3d3c3b3a3937363534a4
:103464003331302f2d2c2a2927262422201e1c19e3
:083474001714100b000000bf4b
:020000040000fa
:04347c00704700bfd6
:020000040000fa
:103480002de9f04f4168804693b0d0e91023d1e98f
:1034900000011ef0ebfbd8e90a2314f077ff8a46ff
:1034a000d8f808108146d8e91223d1e900011ef0ae
:1034b000ddfbd8e90c2314f069ff0f46d8f80c1097
:1034c000d8e914230646d1e900011ef0cffbd8e964
:1034d0000e2314f05bff002204460d4600234846ed
:1034e00051461df097ff002840f061815146484643
:1034f000cde9009a1ef01efbb8f81ca01ffa80fb55
:10350000da4540f24f8158461ef038fb02460b4622
:10351000dde900011ef0aafbcde90001da46002238
:103520000023304639461df075ff002840f04c81dd
:10353000304639461ef0fefab8f81eb01ffa80f980
:10354000cb4540f24d8148461ef018fb02460b4623
:10355000304639461ef08afbcde90201cb460022f7
:103560000023204629461df055ff002840f0268103
:10357000204629461ef0defab8f8206087b2be4227
:1035800040f2298138461ef0f9fa02460b462046e1
:1035900029461ef06bfbcde904013e46b8f82290a7
:1035a000b8f82650d8f8184019fb0baa15fb06a648
:1035b000b6b2771cbfb204ebc70292ed007b04ebfe
:1035c000c60306eb090cb9442f44d3e900ab04eb66
:1035d000c70704ebc90308938ded067b51ec170b6d
:1035e00097ed007b089f8ded0e7b97ed007b0ceb3c
:1035f000050e04ebce0e8ded0c7b9eed007b04ebf7
:10360000cc0c8ded107b9ced007b2e4404ebc606ac
:103610008ded087b96ed007b52465b468ded0a7b77
:103620001ef024fbdde9002314f0b0fe52465b4699
:103630000df0aafa524606460f465b46dde9080140
:103640001ef014fbdde9022314f0a0fe02460b4637
:10365000304639460df098fa524606460f465b460c
:10366000dde90a011ef002fbdde9042314f08efe01
:1036700002460b46304639460df086fadde908234e
:1036800006460f46dde90c011ef0f0fadde90623df
:103690001ef0ecfa52465b460df076fadde90023a7
:1036a00014f074fedde9022314f070fe02460b46ae
:1036b000304639460df068fadde90a2306460f4622
:1036c000dde910011ef0d2fadde908231ef0cefa82
:1036d00052465b460df058fadde9022314f056fe1f
:1036e000dde9042314f052fe02460b46304639460b
:1036f0000df04afadde90a2306460f46dde90e0120
:103700001ef0b4fadde906231ef0b0fa52465b461d
:103710000df03afadde9002314f038fedde9042368
:1037200014f034fe02460b46304639460df02cfab2
:103730004d4404ebc504dde9102306460f46d4e9e9
:1037400000011ef093fadde90e231ef08ffadde989
:103750000c231ef08bfadde906230df015fadde9e6
:103760000a230df011fadde908230df00dfa524697
:103770005b461ef07bfadde9002314f007fedde96d
:10378000022314f003fedde9042314f0fffd0246da
:103790000b46304639460df0f7f9c8e9040113b07d
:1037a000bde8f08f9fed127b8ded007bb7e69fedbe
:1037b000107b4ff0000a8ded007bb0e69fed0c7b97
:1037c00000268ded047be9e69fed097b4ff0000bb1
:1037d0008ded027bc3e69fed067b8ded047bdde680
:1037e0009fed037b8ded027bb9e600bfaff3008058
:1037f000000000000000000000230022c0e90423b4
:103800004ff4ea73038070476b2b40f27481838b13
:103810000b70838b1b0a4b70c38b8b70c38b1b0a83
:10382000cb70038c0b71038c1b0a4b71438c8b7117
:10383000438c1b0acb71838c0b72838c1b0a4b72db
:10384000c38c8b72c38c1b0acb72836a0b73836a23
:103850001b0a4b73438d8b7390f82b30cb73c36a69
:103860000b74c36a1b0a4b74c38d8b7490f82f3092
:10387000cb74036b0b75036b1b0a4b75438e8b75f7
:1038800090f83330cb75436b0b76436b1b0a4b764a
:10389000c38e8b7690f83730cb76836b0b77836b48
:1038a0001b0a4b77438f8b7790f83b30cb77c36bfa
:1038b00081f82030c36b1b0a81f82130c38f81f857
:1038c000223090f83f3081f82330036c81f82430a7
:1038d000036c1b0a81f82530b0f8423081f826309d
:1038e00090f8433081f82730436c81f82830436cde
:1038f0001b0a81f82930b0f8463081f82a3090f858
:10390000473081f82b30836c81f82c30836c1b0a94
:1039100081f82d30b0f84a3081f82e3090f84b30d5
:1039200081f82f30c36c81f83030c36c1b0a81f8ea
:103930003130b0f84e3081f8323090f84f3081f8a5
:103940003330036d81f83430036d1b0a81f8353054
:10395000b0f8523081f8363090f8533081f8373073
:10396000436d81f83830436d1b0a81f83930b0f867
:10397000563081f83a3090f8573081f83b30836dfb
:1039800081f83c30836d1b0a81f83d30b0f85a3025
:1039900081f83e3090f85b3081f83f30c36d81f89c
:1039a0004030c36d1b0a81f84130b0f85e3081f8b9
:1039b000423090f85f3081f84330036e81f8443034
:1039c000036e1b0a81f84530b0f8623081f846304a
:1039d00090f8633081f84730436e81f84830436e89
:1039e0001b0a81f84930b0f8663081f84a3090f807
:1039f000673081f84b30836e81f84c30836e1b0a40
:103a000081f84d30b0f86a3081f84e3090f86b3064
:103a100081f84f30c36e81f85030c36e1b0a81f8b5
:103a20005130b0f86e3081f8523090f86f3081f834
:103a30005330036f81f85430036f1b0a81f85530ff
:103a4000b0f8723081f8563090f8733081f8573002
:103a5000436f81f85830436f1b0a81f85930b0f832
:103a6000763081f85a3090f8773081f85b30836f88
:103a700081f85c30836f1b0a81f85d30b0f87a30d2
:103a800081f85e3090f87b3081f85f30c36f81f849
:103a90006030c36f1b0a81f86130b0f87e3081f866
:103aa000623090f87f3081f86330d0f8803081f850
:103ab0006430d0f880301b0a81f86530b0f882306d
:103ac00081f8663090f8833081f86730d0f8843020
:103ad00081f86830d0f884301b0a81f86930b0f87a
:103ae000863081f86a3090f8873081f86b306c232b
:103af0001380002070470120704700bf6c2a01d05e
:103b00000120704703460a78487802eb00222de92d
:103b1000f00f9a83c8788a7802eb0022da8348791a
:103b20000a7902eb00221a84c8798a7902eb002212
:103b30005a84487a0a7a02eb00229a84c87a8a7aee
:103b400002eb0022da8491f80d8091f80ea04fea82
:103b500018604fea0a454fea08224fea1a4491f8e2
:103b60000f8091f80ca052194ff0000b40eb0404a9
:103b700012eb0a004fea08620d7c91f811a044eba9
:103b80000b044fea182880184ff0000244eb080895
:103b9000801848eb05084fea0a24801891f812a013
:103ba00048eb0408cc7c80184fea0a4a48eb0a0a22
:103bb000240686184aeb0407c3e90a6791f81580c2
:103bc0008e7d4fea186435044fea08204fea164c00
:103bd00091f817800e7d401944eb0c0c4fea0865f4
:103be00080194ff000074ceb070c4fea18244019de
:103bf00091f8188091f819a0ce7e4ceb040480183f
:103c000044eb080491f81a8080184fea0a2a96b00b
:103c100044eb0a0a4fea084880184aeb08083606bf
:103c20008018009048eb060001909ded007b83ed2d
:103c30000c7b91f81d808e7f91f821a035044fea0e
:103c400018644fea08204fea164c91f81f800e7f47
:103c5000401944eb0c0c4fea086580194ff000073f
:103c60004ceb070c4fea1824401991f8208091f88a
:103c700023604ceb0404801844eb080491f8228084
:103c800080184fea0a2a44eb0a0a4fea08488018cb
:103c90004aeb080836068018029048eb06000390ad
:103ca0009ded027b83ed0e7b91f8258091f82660d7
:103cb00091f829a035044fea18644fea08204fea2a
:103cc000164c91f8278091f82460401944eb0c0cb5
:103cd0004fea086580194ff000074ceb070c4feadc
:103ce0001824401991f8288091f82b604ceb0404bb
:103cf000801844eb080491f82a8080184fea0a2ab9
:103d000044eb0a0a4fea084880184aeb08083606ce
:103d10008018049048eb060005909ded047b83ed30
:103d2000107b91f82d8091f82e6091f831a0350428
:103d30004fea18644fea08204fea164c91f82f809a
:103d400091f82c60401944eb0c0c4fea086580197f
:103d50004ff000074ceb070c4fea1824401991f87c
:103d6000308091f833604ceb0404801844eb080475
:103d700091f8328080184fea0a2a44eb0a0a4fea87
:103d8000084880184aeb080836068018069048eb69
:103d9000060007909ded067b83ed127b91f8358040
:103da00091f8366091f839a035044fea18644fea6b
:103db00008204fea164c91f8378091f8346040198a
:103dc00044eb0c0c4fea086580194ff000074cebf0
:103dd000070c4fea1824401991f8388091f83b609d
:103de0004ceb0404801844eb080491f83a808018e6
:103df0004fea0a2a44eb0a0a4fea084880184aebbd
:103e0000080836068018089048eb060009909dedda
:103e1000087b83ed147b91f83d8091f83e6091f82a
:103e200041a035044fea18644fea08204fea164cc7
:103e300091f83f8091f83c60401944eb0c0c4fea3c
:103e4000086580194ff000074ceb070c4fea182467
:103e5000401991f8408091f843604ceb04048018bd
:103e600044eb080491f8428080184fea0a2a44eb98
:103e70000a0a4fea084880184aeb080836068018f4
:103e80000a9048eb06000b909ded0a7b83ed167bb4
:103e900091f8458091f8466091f849a035044feac1
:103ea00018644fea08204fea164c91f8478091f8c1
:103eb0004460401944eb0c0c4fea086580194ff040
:103ec00000074ceb070c4fea1824401991f8488082
:103ed00091f84b604ceb0404801844eb080491f813
:103ee0004a8080184fea0a2a44eb0a0a4fea084837
:103ef00080184aeb0808360680180c9048eb06003c
:103f00000d909ded0c7b83ed187b91f84d8091f821
:103f10004e6091f851a035044fea18644fea08202a
:103f20004fea164c91f84f8091f84c60401944ebe1
:103f30000c0c4fea086580194ff000074ceb070c9a
:103f40004fea1824401991f8508091f853604cebd7
:103f50000404801844eb080491f8528080184fea5a
:103f60000a2a44eb0a0a4fea084880184aeb080874
:103f7000360680180e9048eb06000f909ded0e7be4
:103f800083ed1a7b91f8558091f856604fea1864da
:103f900035044fea08204fea164c91f8578091f803
:103fa0005460401944eb0c0c4fea086580194ff03f
:103fb00000074ceb070c4fea1824401991f8588081
:103fc00091f859a091f85b604ceb0404801844eb25
:103fd000080491f85a8080184fea0a2a44eb0a0a2a
:103fe0004fea084880184aeb0808360680181090f7
:103ff00048eb060011909ded107b83ed1c7b91f842
:104000005d8091f85e604fea082035044fea18643d
:10401000401991f85f804fea164591f85c6044ebd7
:10402000050c002780194fea08664ceb07054fea9c
:10403000182491f8607091f86180801945eb0404b0
:1040400091f86260801847eb04044fea0828801852
:1040500044eb08044fea064891f86360801844eb8b
:10406000080436068018129044eb060013909ded6c
:10407000127b83ed1e7b91f8656091f866803502b6
:104080004fea18444fea08404fea166c91f86780ef
:1040900091f8646028184ceb040c002785194fea4e
:1040a00008604ceb07064fea18242d1891f8698038
:1040b00091f8680046eb0404ad1840eb040491f855
:1040c0006a60ad184fea082844eb080491f86b8049
:1040d000ad184fea0646104646eb04044fea08685e
:1040e000aa18149244eb080215929ded147b83edff
:1040f000207b16b0bde8f00f704700bf01390329df
:104100000bd8dfe801f00806040210307047c068e1
:10411000704780687047406870470020704700bf54
:020000040000fa
:10412000f8b51f4690f84c30014613f04000164693
:1041300003f00f041cd0042c50d0082c36d1d1e948
:10414000102391f87400d1e90e4501281946104654
:104150002b46224659d01df041f940b132463b462c
:10416000204629461cf0d2fd003018bf0120f8bdc2
:104170009b0604f1ff341bd5072cf8d801a353f894
:1041800024f000bf01430000df4200006f41000047
:10419000c34200006f4100006f4100006f4100000a
:1041a0009b420000f1ee10fa00f1b4800020f8bd4f
:1041b000072cfbd801a353f824f000bf874200006e
:1041c00069420000ad4100004f420000ad410000d7
:1041d000ad410000ad4100002742000091f874306d
:1041e00091ed107ad1ed0e7a012b06ee902ab4ee05
:1041f000e77ad7d0f1ee10fad8ddf4eee67af1eef8
:1042000010faacbf01200020f8bd1df003f9002812
:10421000add032463b46204629461cf059fd0030c1
:1042200018bf0120f8bd91f874000128d1e91045ac
:10423000d1e90e2300f08280ab4208bfa242b5d282
:10424000bb4208bfb2422cbf01200020f8bd91f84c
:1042500074200b6c886b012a0ed08342a6d9b04221
:1042600034bf00200120f8bd91f87420b1f840302f
:10427000088f012ab6b2f0d1834297d2b0428cbfe8
:1042800000200120f8bd91f8742091f8403091f899
:104290003800012af6b2e0d1eee791f874c0bcf123
:1042a000010fd1e91045d1e90e233bd0a24273ebb7
:1042b0000501bff65cafb242bb41acbf012000209c
:1042c000f8bd91f874400a6c8b6b012c10d09a42a7
:1042d0007ff74dafb342b4bf00200120f8bd91f885
:1042e0007440b1f94020b1f93830012c36b2eed12a
:1042f0009a42bff63cafb342ccbf00200120f8bdcc
:1043000091f8744091f9402091f93830012c76b23f
:10431000ddd1ede7f4eee67af1ee10fa94bf01207c
:104320000020f8bd944275eb0301bff620af964222
:1043300077eb0303acbf01200020f8bd9d4208bf0e
:104340009442bff433af9f4208bf96422cbf012076
:104350000020f8bd02464ff6ff7300f1240170b44f
:1043600022f8043b0c46002342f8043ba24201f829
:10437000013bf9d1104a114c1168c4620025002498
:104380004ff400520126c0e90e45c0e9104580f8ff
:1043900074608364a0f84c30c0e91433836580f8fe
:1043a0005c30c0e9183380f86830c3660267026386
:1043b00070bc8862704700bffc2e00200000002007
:1043c000f8b590f84d30013b0446072b2cd8dfe8b8
:1043d00013f08000b7002b00f000fb00fb002c0066
:1043e0006900d2e9006732463b462046fff798fe57
:1043f000002800f0438194f86830002b00f03e81e3
:10440000236e002bc0f24381236d002b00f0398115
:10441000b4f85820002a40f0388194f854209b1ab0
:104420006366072384f84d30f8bdb0f85830b0f813
:104430005620591c9a42a0f85810f5d8016d90f8f2
:1044400054300b440022b3f5005f964688bf1146f6
:10445000a0f858201746002304eb070c1a4604eb7b
:10446000870700e0216d7d68e06a4e1c2665aa562c
:10447000425401339cf82410dab29142f2d80ef182
:10448000010e94f85530216d5ffa8ef7bb42e2d8e9
:10449000d4e91823591a914200f2c680002384f807
:1044a0004d30f8bdb0f85830b0f85620591c9a423b
:1044b000a0f85810b8d8416e90f8543000220b4440
:1044c00093424366a0f85820aedb022380f84d30bb
:1044d000f8bdb0f85830b0f85620591c9a42a0f8f0
:1044e000581000f28680016d90f854300b44002281
:1044f000b3f5005f4ff0000ea0f8582084bf0265ae
:1045000011467746002304eb070c1a4604eb870795
:1045100000e0216d7d68e06a4e1c2665aa56425473
:1045200001339cf82410dab29142f2d80ef1010e58
:1045300094f855305ffa8ef7bb4253d9216de1e70d
:10454000b0f85830b0f85620591c9a42a0f85810cc
:1045500029d800239e46a0f858301f46002304ebbc
:10456000070c1a4604eb8707216d7d68e06a4e1c34
:104570002665aa56425401339cf82410dab29142bf
:10458000f2d80ef1010e94f855305ffa8ef7bb4267
:10459000e4d894f85430226d1344b3f5005f84bf1f
:1045a000002384f84d30b4f85a300133a4f85a305f
:1045b000f8bdb0f85a20b0f8583001320133a0f8f5
:1045c0005a20a0f85830f8bd90f84c30826c03f0b7
:1045d0000f03013b072b4ed8dfe803f047444d4162
:1045e0004d4d4d35e36e226d9a4224bf012384f870
:1045f000683094f84c30a26c03f00f03013b072b9a
:1046000036d801a151f823f0414600003b46000096
:1046100071460000354600007146000071460000fa
:1046200071460000e3430000236f19448a42fff4ff
:10463000fbae33e716680027d5e616880027d2e6da
:1046400016780027cfe6d2e9006732463b4620467f
:10465000fff766fd90b1042384f84d30f8bd16686d
:104660000027f2e716880027efe716780027ece727
:1046700000260027b7e600260027e6e7c4e9106712
:10468000f8bd94f85420236f9b1a6366c9e6002195
:1046900008226366216584f84d20f8bd1c2b52d991
:1046a00090f84d300b7090f855304b70b0f8563094
:1046b0008b70b0f856301b0acb70036d0b71036d15
:1046c0001b0a4b71b0f852308b7190f85330cb719c
:1046d000c36a0b72c36a1b0a4b72c38d8b7290f84c
:1046e0002f30cb72036e0b73036e1b124b73b0f93a
:1046f00062308b7390f96330cb73436e0b74436eef
:104700001b124b74b0f966308b7490f96730cb7420
:10471000036f0b75036f1b0a4b75b0f872308b7506
:1047200090f87330cb75036b0b76036b1b0a4b76db
:10473000438e8b7690f83330cb7683201d23087719
:104740000020138070470120704700bf2de9f04f13
:10475000032a87b035d94b78013b072b31d8002687
:1047600080f84d6080f85560a0f85a6006658b7837
:104770000392ca7880f8546004460d460020002158
:1047800003eb0223c4e910019bb20222a4f85630c5
:10479000a4f8583084f86860666684f85c206b780a
:1047a000002b00f033824ff0040800bf15f80870aa
:1047b00008f10103dbb2032f03d8dfe807f0ab6693
:1047c00047070127384607b0bde8f08f05eb030a1d
:1047d000b24f9af803309af802103a6801eb0321bd
:1047e000506b89b20df1160206f05af80028e8d194
:1047f0003b68bdf816205b6b03ebc2035ffa86f9da
:104800005a6804eb890312685a60a1449af804209c
:1048100089f8242094f8543094f85c101344dbb2e7
:1048200011444ff40052b2fbf3f203fb02f284f89e
:104830005430226784f85c1001366978f2b208f1ce
:1048400006039142dbb27ad99846afe705eb030a3b
:10485000924f9af803309af802103a6801eb03215c
:10486000106b89b20df1160206f01af80028a8d1d3
:104870003b68bdf816201b6b5ffa86f903ebc20399
:1048800004eb89025b685360bfe7dff810b215f8ec
:104890000390dbf8002005eb030a10689af8021079
:1048a0009af803209af8013001eb022109eb032961
:1048b00089b20df116021ffa89f906f019f80028dd
:1048c00080d1dbf80020bdf816101368506803eba8
:1048d000c1030df116025b680093198806f084f895
:1048e00000287ff46fafdbf80010bdf81620496890
:1048f000009b02eb420201ebc20218464946536993
:1049000098475ffa86f904eb8903586000287ff422
:104910007caf57e705eb030aea5c9af802309af895
:1049200001009af803101b0403eb00235ffa86f9d9
:10493000134404eb890203eb0163536065e7994676
:1049400008f1070108f10803c9b2dbb24a46aa5cc4
:1049500084f84c206f5c032f3ff633afdfe807f09d
:1049600090553a022b444d4edf789978326801eb2e
:104970000721506b89b20df1160205f091ff002856
:104980007ff41faf3368bdf816105b6b94f84c20b2
:1049900003ebc1035b681b68a36402f00f0609f117
:1049a0000603711edbb207293ff60baf01a050f8da
:1049b00021f000bfc54b0000b34b0000c34700000f
:1049c000934b0000c3470000c3470000c3470000eb
:1049d000a14a00002b44314edf789978326801eb10
:1049e0000721106b89b20df1160205f059ff00285e
:1049f0007ff4e7ae3368bdf816101b6b94f84c20bb
:104a000003ebc1035b68a364c7e7244e15f803807a
:104a100032682b4410689978da7893f801a001eb9a
:104a2000022189b20df1160205f062ff00287ff421
:104a3000c9ae3268bdf816101368506803ebc103a5
:104a40000df11602d3f804b0bbf8001005f0ccff4e
:104a500000287ff4b7ae3268bdf81630526803eb19
:104a6000430302ebc30308eb0a2189b258465b6992
:104a70009847a06400283ff4a5ae94f84c208ce73a
:104a8000e918e85c8b784e78c9781b0403eb0623a1
:104a9000034403eb0163a3647fe700bffc2e002007
:104aa000ef180021787897f802a0cde900014feacd
:104ab000002c00984fea0a411ceb010c4fea106ee3
:104ac0004fea1a4a4eeb0a0ee85c97f803a01ceb7b
:104ad000000c4ff000014fea0a684eeb01004fea6c
:104ae0001a2a1ceb08084ff0000e40eb0a0c39792b
:104af000787997f806a018eb0e084ceb010c000231
:104b000018eb0e084ceb000c4fea0a4097f807a090
:104b100018eb0e014ceb00004fea0a6a11eb0e0194
:104b200040eb0a00c4e90e10120674d494f84c301d
:104b300009f10a0943f020035ffa89f984f84c303f
:104b400005eb090315f8090059789a78db7800eb32
:104b5000012000eb024000eb0360206605f062fede
:104b600009f10403dbb2e066eb5c039a84f874306d
:104b700009f105095ffa89f3934228d2eb5c012b16
:104b800025d06b7884f855302b7884f84d30002789
:104b900018e6e818ef5c817890f801c0c078090445
:104ba00001eb0c21394401eb00610020c4e90e1037
:104bb000bae7e918e85c497800eb0120c117c4e9bd
:104bc0000e01b1e7e85c0021c4e90e01ace794f8fe
:104bd0004c30a26c03f00f03013b072b13d8dfe826
:104be00003f00f0c120912121204d2e90023c4e9d7
:104bf0001023c6e712680023f9e712880023f6e7be
:104c000012780023f3e700220023f0e70422914604
:104c1000062305219be603eb06095ffa89f98fe776
:044c200000207047b9
:020000040000fa
:104c24002de9f04f4268036d12689a4295b01fdb7c
:104c3400436d9a4240f339828268836d12686ff043
:104c440000489a42c4461bda084b0a931d46c268c0
:104c5400036e12689a4220db436e9a4240f3db8172
:104c64006ff000430b9319461ae000bf0100008067
:104c7400dff81481c4468268836d12689a42e3dbcc
:104c8400c36d9a4240f3ef81c2686ff000430a9308
:104c94001d461268036e9a42deda3b4b0b931946ab
:104ca40090f9183090f91960078db0f82aa090f99e
:104cb4001ab0b0f82ee0b0f82c90428e049635412c
:104cc4004cfa03fcbc44554441fa0bf1144615fb61
:104cd4000ec5494411fb045189b24d1c4269c76990
:104ce40052f821a00c94adb208ea070c52f8254002
:104cf4000d9267460c9a0894cdf81cc0a4eb0a0cdc
:104d040001eb0e048cfb078900940026c3f12004f8
:104d14000027cde902670eeb050c114427460994e0
:104d240015441446009acdf84cc002eb040e28fa40
:104d340003f20292029c664609fa07fc6246144397
:104d440002940d9c54f82520119254f821200692c7
:104d540054f82620109254f82e201292009a0a99a0
:104d640054f822200592026a0b9c1140426a009179
:104d7400b3f1200c04ea020408d4029a49fa0cfca8
:104d840042ea0c02029201e001000080059a049daf
:104d9400a2eb0a064a461a410392dde90289009a07
:104da40086fb0267c5f120020a9218eb0a0807fa8b
:104db40002fe009a49ebea79cde9028990464fea6e
:104dc400e279069a2946b1f1200c26fa05f5a2eb00
:104dd4000a0658bf47fa0cfccbf1200286fb046795
:104de40045ea0e05cde90e890b9207fa02f858bf81
:104df40045ea0c05109a029926fa0bfc059e4cea2a
:104e0400080c4feae479a046cde90289a2eb060832
:104e1400089aa8eb0208079a6d18d044bbf1200e3b
:104e240088fb028958bf47fa0efe099a049958bfb5
:104e34004cea0e0c1ceb050528fa03f6b3f1200727
:104e440009fa02fc46ea0c0658bf49fa07f70f9a1a
:104e540058bf3e4306fb02f7009a49fa03fc02fbe3
:104e64000c7ca6fb02670a9a674407fa02f826fa42
:104e740001fc129a069e4cea080ca2eb0608059a5d
:104e8400a8eb0208009ab1f1200ed04488fb0289f5
:104e940058bf47fa0efe0a9a049f58bf4cea0e0cfc
:104ea4001ceb050509fa02fc049a28fa07f6203fd0
:104eb40046ea0c0658bf49fa07f749fa02fc039a76
:104ec40058bf3e4306fb02f704fb0c7c0b9aa6fb7f
:104ed4000467674407fa02f826fa0bfc119a069e47
:104ee4004cea080ca2eb0608089aa8eb0208079af9
:104ef400bbf1200ed04488fb028958bf47fa0efe4e
:104f0400099a58bf4cea0e0c1ceb050528fa03f667
:104f1400b3f1200709fa02fc46ea0c0658bf49fa25
:104f240007f7039a58bf3e4349fa03fc06fb02f70e
:104f340004fb0c7c0b9aa6fb0467674407fa02f88f
:104f440026fa0bfc139a0c9ebbf1200e58bf47faad
:104f54000efe4cea080c324458bf4cea0e0c96463e
:104f64000d9a1ceb050c52f82e50129aad1a119a98
:104f7400ad1a109aad1a089a1544069a1544059a62
:104f84001544079aa5eb0a0888fb0289099ab3f12c
:104f9400200709fa02f528fa03f646ea050658bf7f
:104fa40049fa07f70f9d009a58bf3e4306fb05f5e3
:104fb40049fa03f302fb0353a6fb02671f44049a56
:104fc4000a9b26fa02f107fa03f31943049bb2f190
:104fd400200558bf47fa05f547fa03f2039b58bf6b
:104fe400294301fb03f304fb0232a1fb04450b9ba1
:104ff400154405fa03f124fa0bf2bbf1200342ea4b
:1050040001025cbf45fa03f31a4312eb0c0202617e
:1050140015b0bde8f08fc16cc76b90f94240b2eb9c
:1050240001094feae27363ebe17a4a4653464fead9
:10503400e77bcde9002309fb0bf1dde9009a07fbcf
:105044000a11a9fb07230b44c4f1200722fa04f137
:1050540003fa07f7203c41ea07015cbf43fa04f472
:1050640021430b911ce6856b816c90f94140b2ebb6
:1050740001094feae2734feae57763ebe17a09fb52
:1050840007f105fb0a11a9fb05230b44c4f1200118
:1050940022fa04f503fa01f1203c45ea01055cbf5c
:1050a40043fa04f425430a95d1e5446c456b90f921
:1050b4004010b2eb04084feae2734feae57763eb82
:1050c400e47908fb07f4a8fb052305fb0944234402
:1050d400c1f1200422fa01fc03fa04f420394cea59
:1050e400040c5cbf43fa01f14cea010ce046c2e552
:1050f4004ff4e97200230280036170474d2b40f2a4
:105104000081037e0b70437e4b70837e8b70c3697a
:10511400cb70c3691b0a0b71c38b4b71c37f8b713b
:10512400036acb71036a1b0a0b72438c4b7290f8af
:1051340023308b72436acb72436a1b0a0b73c38c92
:105144004b7390f827308b73038dcb73038d1b0a3d
:105154000b74438d4b74438d1b0a8b74838dcb74fa
:10516400838d1b0a0b75c38d4b75c38d1b0a8b7501
:10517400038ecb75038e1b0a0b76438e4b76438ec0
:105184001b0a8b76436bcb76436b1b120b77b0f900
:1051940036304b7790f937308b77836bcb77836bd3
:1051a4001b1281f82030b0f93a3081f8213090f99f
:1051b4003b3081f82230c36b81f82330c36b1b1260
:1051c40081f82430b0f93e3081f8253090f93f3031
:1051d40081f8263090f8403081f8273090f841303b
:1051e40081f8283090f8423081f82930436c81f8f6
:1051f4002a30436c1b1281f82b30b0f9463081f809
:105204002c3090f9473081f82d30836c81f82e30a2
:10521400836c1b1281f82f30b0f94a3081f830309a
:1052240090f94b3081f83130c36c81f83230c36c63
:105234001b1281f83330b0f94e3081f8343090f9d4
:105244004f3081f83530036d81f83630036d1b1211
:1052540081f83730b0f9523081f8383090f9533052
:1052640081f83930436d81f83a30436d1b1281f86f
:105274003b30b0f9563081f83c3090f9573081f822
:105284003d30836d81f83e30836d1b1281f83f30d1
:10529400b0f95a3081f8403090f95b3081f84130f0
:1052a400c36d81f84230c36d1b1281f84330b0f9ed
:1052b4005e3081f8443090f95f3081f84530036ef8
:1052c40081f84630036e1b1281f84730b0f9623022
:1052d40081f8483090f9633081f84930436e81f8a1
:1052e4004a30436e1b1281f84b30b0f9663081f8b6
:1052f4004c3090f9673081f84d304e2313800020f4
:1053040070470120704700bf4e2a01d0012070472a
:105314000b7830b403764b7843768b7883764b796d
:105324000d79cc788a791b0403eb0523234403eb22
:105334000263c3614b7a0d7acc798a7a1b0403eb3e
:105344000523234403eb026303624b7b0d7bcc7a7e
:105354008a7b1b0403eb0523234403eb02634362b0
:105364000a7ccb7b03eb022303858a7c4b7c03eb17
:10537400022343850a7dcb7c03eb022383858a7d4c
:105384004b7d03eb0223c3850a7ecb7d03eb022313
:1053940003868a7e4b7e03eb022343864b7f0d7f7d
:1053a400cc7e8a7f1b0403eb0523234403eb0263b7
:1053b400436391f8213091f82050cc7f91f822205a
:1053c4001b0403eb0523234403eb0263836391f87b
:1053d400253091f8245091f8234091f826201b049d
:1053e40003eb0523234403eb0263c36391f82730e3
:1053f40080f8403091f8283080f8413091f8293015
:1054040080f8423091f82c3091f82b5091f82a40d2
:1054140091f82d201b0403eb0523234403eb0263c3
:10542400436491f8303091f82f5091f82e4091f860
:1054340031201b0403eb0523234403eb0263836441
:1054440091f8343091f8335091f8324091f8352086
:105454001b0403eb0523234403eb0263c36491f8a9
:10546400383091f8375091f8364091f839201b04c0
:1054740003eb0523234403eb0263036591f83c30fb
:1054840091f83b5091f83a4091f83d201b0403eb0e
:105494000523234403eb0263436591f8403091f8fc
:1054a4003f5091f83e4091f841201b0403eb052343
:1054b400234403eb0263836591f8443091f843502d
:1054c40091f8424091f845201b0403eb0523234443
:1054d40003eb0263c36591f8483091f8475091f8a3
:1054e400464091f849201b0403eb0523234403ebb6
:1054f4000263036691f84c3091f84b5091f84a409e
:1055040091f84d201b0403eb0523234403eb0263b2
:10551400436630bc00207047013903290bd8dfe80b
:1055240001f00806040210307047c06870478068b4
:0c5534007047406870470020704700bfbf
:020000040000fa
:105540003f000000c1a70000190602002506020066
:1055500039060200510602001100000039e1010085
:1055600069e1010075e1010095e10100b1e101008f
:10557000b60000004d14020061140200c5a700002f
:10558000cda700006d1402001300000089e60100a1
:105590009de60100a9e60100cde60100f5e6010067
:1055a0006100000059820100d9820100f1820100ee
:1055b0002d83010069830100c100000065e3010043
:1055c00081e301008de30100b1e30100d9e30100b3
:1055d000d00000004dde010079de010085de010013
:1055e000a9de0100d1de0100b11300009510020018
:1055f000ad100200c5a70000cda70000b910020041
:105600009100000059f501006df5010079f50100e8
:105610008df501009df50100c3120000c5300100a9
:105620001d320100293201004932010061320100be
:1056300031000000c1a70000c5fd0100d1fd01003f
:10564000edfd010009fe0100ef000000e919020074
:10565000f5190200c5a70000cda70000011a02003d
:10566000910c0000bd840100598501007185010085
:105670009d850100c58501009f000000f9f401002f
:105680000df5010019f501002df501003df50100b2
:105690005100000009e7010025e7010031e70100a2
:1056a00055e7010075e70100a10000007d0102003f
:1056b000a9010200c5a70000cda70000b5010200a6
:1056c000a10c0000c98c01004d8d0100698d010005
:1056d000958d0100bd8d010081000000d9d9010028
:1056e00009da010019da01003dda01005dda010092
:1056f000c1010000f9990100619a0100719a01004d
:10570000b19a0100e59a0100a10100006db6010007
:10571000d9b60100e9b6010019b7010045b701008b
:1057200053130000f1090200090a0200c5a7000096
:10573000cda70000150a02008113000095000200a9
:10574000bd000200c5a70000cda70000c9000200ef
:10575000e051000021cb0100adcb0100c5a7000046
:10576000cda70000bdcb010033000000c1a70000a1
:1057700095f00100a1f00100c5f00100f1f0010079
:10578000a1130000a1c80100d9c8010005c901008a
:1057900025c9010065c9010031130000b5140200dc
:1057a000c9140200c5a70000cda70000d51402004f
:1057b000b80000001918020029180200c5a700004f
:1057c000cda7000035180200910100006df3010023
:1057d00085f30100c5a70000cda7000091f30100eb
:1057e000f05100009d610100bd620100c5a70000ed
:1057f000cda70000cd62010061130000450002004a
:105800006d000200c5a70000cda7000079000200ce
:10581000211300001d0c0200390c0200c5a7000076
:10582000cda70000450c020043010000c1a7000005
:1058300005ff01000dff0100cda7000049ff010099
:10584000711300001d1202002d120200c5a70000f6
:10585000cda70000391202005113000095ed0100a0
:10586000dded0100c5a70000cda70000e9ed0100b6
:10587000ffff0000c1430000554300009d460000ab
:105880004d470000214c0000000000000000000017
:105890000000000000000000000000000000000008
:1058a000010000000c270020020000000020002062
:1058b0000300000010200020040000002020002031
:1058c0000500000030200020060000004c200020d1
:1058d000070000005220002008000000582000208f
:1058e000090000005e2000200a0000006420002063
:1058f0000b0000006a2000200c0000007020002037
:105900000d000000802000200e00000090200020ec
:105910000f000000a020002010000000b020002098
:1059200011000000c020002012000000d020002044
:1059300013000000e020002014000000f0200020f0
:10594000150000001c21002016000000342100205a
:10595000170000004c2100201800000054210020f6
:1059600019000000642100201a0000006a210020b4
:105970001b000000702100201c000000802100207e
:105980001d000000862100201e0000008c21002048
:105990001f0000009421002020000000b8210020fa
:1059a000210000002827002022000000c421002040
:1059b00023000000d421002024000000ec2100205e
:1059c00025000000fc210020260000000c22002001
:1059d000270000001c220020280000002c220020ac
:1059e000290000003c2200202a0000004c22002058
:1059f0002b0000005c2200202c0000006c22002004
:105a00002d0000007c2200202e0000008c220020af
:105a10002f0000009c22002030000000ac2200205b
:105a200031000000bc22002032000000cc22002007
:105a300033000000dc22002034000000ec220020b3
:105a400035000000fc220020360000000c2300205e
:105a50003700000018230020380000001e2300201b
:105a600039000000242300203a00000044230020d5
:105a70003b000000642300203c000000882300203d
:105a80003d000000982300203e000000a8230020d5
