:020000040000FA
:10000000F8FF032071760000D9790000DF79000045
:10001000EB790000F1790000F779000000000000A2
:100020000000000000000000000000001F6B000046
:10003000E5790000000000001F6B00001F6B00004E
:100040001F6B00001F6B00001F6B00001F6B000088
:100050001F6B00001F6B00001F6B00001F6B000078
:100060001F6B00001F6B00001F6B00001F6B000068
:100070001F6B00001F6B00001F6B00001F6B000058
:100080001F6B00001F6B00001F6B00001F6B000048
:100090001F6B00001F6B00001F6B00001F6B000038
:1000A0001F6B00001F6B00001F6B00001F6B000028
:1000B0001F6B00001F6B00001F6B00001F6B000018
:1000C0001F6B00001F6B00001F6B00001F6B000008
:1000D0001F6B00001F6B00001F6B00001F6B0000F8
:1000E0001F6B00001F6B00000000000000000000FC
:1000F000000000001F6B00001F6B00001F6B000062
:100100001F6B00001F6B00001F6B00001F6B0000C7
:100110001F6B00001F6B00001F6B00001F6B0000B7
:100120001F6B00001F6B00001F6B00001F6B0000A7
:100130001F6B00001F6B00001F6B00001F6B000097
:100140001F6B00001F6B00001F6B00001F6B000087
:100150001F6B00001F6B00001F6B00001F6B000077
:100160001F6B00001F6B00001F6B00001F6B000067
:100170001F6B00001F6B00001F6B00001F6B000057
:100180001F6B00001F6B00001F6B00001F6B000047
:100190001F6B0000F14F00001F6B00001F6B000081
:1001A0001F6B00001F6B00001F6B00001F6B000027
:1001B0001F6B00001F6B00001F6B00001F6B000017
:1001C0001F6B00001F6B00001F6B00001F6B000007
:1001D0001F6B00001F6B00001F6B00001F6B0000F7
:1001E0001F6B00001F6B00001F6B00001F6B0000E7
:1001F0001F6B00001F6B00001F6B00001F6B0000D7
:100200001F6B00001F6B00001F6B00001F6B0000C6
:100210001F6B00001F6B00001F6B0000C94C00002B
:100220001F6B00001F6B00001F6B00001F6B0000A6
:100230001F6B00001F6B00001F6B00001F6B000096
:100240001F6B00001F6B00001F6B00001F6B000086
:100250001F6B00001F6B00001F6B00001F6B000076
:100260001F6B0000F8B500BFF8BC08BC9E46704785
:10027000C9770000F8B500BFF8BC08BC9E467047BF
:10028000A577000058590000010000002DE9F04357
:1002900083B0CDE9002390F84C2002F00F0312F058
:1002A000400F60D0042B05D0082B29D0002003B0CC
:1002B000BDE8F08390ED107AD0ED0E7ADDED006AA6
:1002C00090F87430012B0DD0B4EEE77AF1EE10FA0D
:1002D00040F33681F4EEE67AF1EE10FAACBF01207D
:1002E0000020E4E7B4EEE77AF1EE10FA40F126815F
:1002F000F4EEE67AF1EE10FA94BF01200020D6E782
:100300000346D0E91001D3E90E67DDE9008993F8CF
:100310007430012B13D032463B4607F0F9FA00281F
:1003200000F012814FF0010442464B4630463946F8
:1003300007F0B4FA08B94FF00004E0B2B7E732466C
:100340003B4607F001FB002800F0FC804FF0010461
:1003500042464B463046394607F082FA08B94FF01C
:100360000004E0B2A3E712F0200F79D0013B072B85
:1003700000F2EC80DFE813F008002200EA003C0005
:10038000EA00EA00EA00530090F9402090F9383082
:100390009DF9004090F87410012907D09A4240F36B
:1003A000D980A342B4BF0020012080E79A4280F2A6
:1003B000CF80A342CCBF0020012078E7B0F94020D5
:1003C000B0F93830BDF9004090F87410012907D019
:1003D0009A4240F3C380A342B4BF0020012066E7E5
:1003E0009A4280F2B980A342CCBF002001205EE790
:1003F000026C836B009C90F87410012907D09A421C
:1004000040F3B080A342B4BF002001204FE79A42DE
:1004100080F2A680A342CCBF0020012047E7D0E9AC
:100420001045D0E90E23DDE9006790F8741001292A
:100430000AD0A24273EB050180F29880B242BB4120
:10044000ACBF0120002032E7944275EB030180F23B
:100450008B80964277EB0303ACBF0120002026E798
:10046000013B072B00F28480DFE803F0041C823399
:100470008282824890F8402090F838309DF8004001
:1004800090F87410012906D09A4275D9A34234BF5E
:10049000002001200BE79A426CD2A3428CBF0020BF
:1004A000012004E7B0F84020038FBDF8004090F829
:1004B0007410012906D09A4262D9A34234BF0020A9
:1004C0000120F4E69A4259D2A3428CBF00200120B9
:1004D000EDE6026C836B009C90F87410012906D045
:1004E0009A4251D9A34234BF00200120DFE69A424C
:1004F00048D2A3428CBF00200120D8E6D0E91045A5
:10050000D0E90E23DDE9006790F8741001290AD0C4
:10051000AB4208BFA2423BD2BB4208BFB2422CBF93
:1005200001200020C3E69D4208BF94422ED29F4284
:1005300008BF96422CBF01200020B8E60020B6E696
:100540000020B4E60020B2E60020B0E60020AEE6CF
:100550000020ACE60020AAE60020A8E60020A6E6DF
:100560000020A4E60020A2E60020A0E600209EE6EF
:1005700000209CE600209AE6002098E6002096E6FF
:10058000002094E6002092E6002090E600208EE60F
:1005900000208CE690F84C3003F00F03013B072B52
:1005A00015D8DFE803F00408140C14141410836C3D
:1005B000187800217047836C188800217047836C7D
:1005C000186800217047836CD3E900017047002050
:1005D00000217047F0B50027BE46734600EB870642
:1005E000C519C16A026D541C04657468E4568C54C4
:1005F0000133DBB295F824209A42F2D80137FFB2DA
:1006000090F85530BB42E8D8F0BDB8B110B40446FC
:10061000038899420DD09BB1002301339BB204EBB8
:10062000C30034F833208A4203D0002AF5D10020D9
:1006300001E039B140685DF8044B70470020704715
:100640000020F8E70020F6E710B403464FF6FF72EB
:1006500023F8042B00F124042146002243F8042B44
:1006600001F8012BA342F9D1164BC36200220023EB
:10067000C0E90E23C0E910230023836480F84C30C6
:1006800080F84D30036580F8543080F85530A0F87C
:100690005630A0F85830A0F85A3080F85C30036625
:1006A000436680F86830C3664FF400530367012245
:1006B00080F874200363044B1B6898625DF8044B58
:1006C000704700BFA800002000260020F8B50446AF
:1006D00090F84D30013B072B00F2F180DFE813F07A
:1006E00043001300EF00080032003200CB00B400DA
:1006F000B0F85A300133A0F85A30B0F8583001330E
:10070000A0F85830F8BDB0F858305A1CA0F858205E
:10071000B0F856209A4205D9B4F85A300133A4F8FB
:100720005A30F8BD0023A0F85830FFF753FF94F873
:100730005430226D1344B3F5005F84BF002384F866
:100740004D30E9E7FFF726FF06460F4602460B4607
:100750002046FFF79BFD18B1042384F84D30F8BD07
:10076000C4E91067F8BDB0F858305A1CA0F85820FA
:10077000B0F856209A4240D80023A0F8583090F89C
:100780005430026D1344B3F5005F84BF002303654A
:100790000027BE46734604EB8706E519E16A226D21
:1007A000501C20657068C05688540133DBB295F840
:1007B00024209A42F2D80137FFB294F85530BB4258
:1007C000E8D8226DE36E9A4217D3012384F868308B
:1007D0002046FFF7DFFE06460F4602460B46204640
:1007E000FFF754FDC0B1236E002B18DB236D13B34C
:1007F000B4F85820D2B1636622E02046FFF7CAFE63
:1008000006460F4602460B462046FFF73FFD18B14D
:1008100094F86830002BE6D1C4E91067F8BD636630
:1008200000232365082384F84D30F8BD94F8542044
:100830009B1A636604E094F85420236F9B1A636646
:10084000072384F84D30F8BDB0F858305A1CA0F892
:100850005820B0F856209A4231D80023A0F85830DA
:1008600090F85430426E13444366002B27DB02237A
:1008700080F84D30F8BDB0F858305A1CA0F8582018
:10088000B0F856209A421AD80023A0F8583090F8B1
:100890005430026D1344B3F5005F84BF0023036539
:1008A000FFF798FE636E226D9B1A226E934203D966
:1008B000216F0B449A4202D3002384F84D30F8BDD7
:1008C00090F84D300B7090F855304B70B0F85630B2
:1008D0008B70B0F856301B0ACB70036D0B71036D33
:1008E0001B0A4B71B0F852308B7190F85330CB71BA
:1008F000C36A0B72C36A1B0A4B72C38D8B7290F86A
:100900002F30CB72036E0B73036E1B124B73B0F957
:1009100062308B7390F96330CB73436E0B74436E0C
:100920001B124B74B0F966308B7490F96730CB743E
:10093000036F0B75036F1B0A4B75B0F872308B7524
:1009400090F87330CB75036B0B76036B1B0A4B76F9
:10095000438E8B7690F83330CB7682230B771D2035
:1009600070472DE9F04F85B0032A40F218824B788A
:10097000013BDBB2072B00F2188203920D460446BE
:10098000002380F84D3080F85530A0F85A300365C8
:10099000C978AA7802EB012292B2A0F85620A0F8FA
:1009A000582000200021C4E9100184F854300222AC
:1009B00084F85C2084F8683063666B78002B00F064
:1009C000AF804FF004080027DFF810A44FF4005B5D
:1009D00091E0AB195978AA5D02EB012292B2029222
:1009E000DAF8002000921068DA78997801EB022199
:1009F00089B2FFF70AFE8646002800F0D2810088FF
:100A0000009949680B88984210D0002B00F0C981EA
:100A1000002301339BB203EB430201EBC20C31F81C
:100A20003220904204D0002AF3D1BAE118468C4615
:100A3000002800F0B681BCF1000F00F0B281DCF8B4
:100A4000143002997046984704EB870358600028D9
:100A500033D1A6E1DAF800301868AB19DA78997862
:100A600001EB022189B2FFF7D0FD002800F0A3813D
:100A700004EB8702506020E0DAF800301868AB1908
:100A8000DA78997801EB022189B2FFF7BEFD0028E0
:100A900000F09481026804EB87035A600DE004EBD8
:100AA0008701AA19507893781B0403EB0023A85DF3
:100AB0000344D27803EB02634B602E443279E3198E
:100AC00083F8242094F854301344DBB284F8543073
:100AD00094F85C100A4484F85C209BFBF3F203FB5F
:100AE00002F3236708F106085FFA88F80137FFB2BE
:100AF0006B78BB4216D915F8089008F10106F6B2DA
:100B0000B9F1030F00F2548101A353F829F000BF9B
:100B10009F0A0000D3090000550A0000790A00006E
:100B20004FF0040815F8083084F84C3008F1010340
:100B3000DBB215F8039008F10206F6B2B9F1030F23
:100B400000F23F81DFE809F062024151A34BD3F884
:100B500000A0DAF80000AB19DA78997801EB0221ED
:100B600089B2FFF752FD0746002800F01A8100887D
:100B7000DAF804100B88984210D0002B00F0118195
:100B8000002301339BB203EB430201EBC20E31F8A9
:100B90003220904204D0002AF3D102E118468E465A
:100BA000002800F0FE80BEF1000F00F0FA80AB19C3
:100BB0005B78A95D01EB0321DEF8143089B2384679
:100BC0009847A06400282DD1EBE0844B1B6818687F
:100BD0002E44F378B17801EB032189B2FFF715FDBC
:100BE000002800F0F180A0641CE07C4B1B681868B2
:100BF0002E44F378B17801EB032189B2FFF705FDAC
:100C0000002800F0E4800368A3640BE0AA1951787F
:100C100093781B0403EB0123A95D0B44D27803EB0B
:100C20000263A36408F10603DBB294F84C2002F0DF
:100C30000F0E0EF1FF31072900F2CC80DFE801F042
:100C4000043CCA45CACACA54E85C0021C4E90E0182
:100C500012F0800F03BF42F0200284F84C2008F10C
:100C60000A0803EB0E085FFA88F805EB08035A78C8
:100C700015F8080000EB02209A7800EB0240DB78C0
:100C800000EB0360206606F0A8FBE06608F10403B1
:100C9000DBB2EB5C84F8743008F105085FFA88F386
:100CA000039A9A426DD9EB5C012B6FD12046FFF776
:100CB00071FCC4E9100169E0E9184978E85C00EBCF
:100CC0000120C117C4E90E01C2E7E818467881780F
:100CD000090401EB0621EE5C3144C07801EB0061B0
:100CE000A1630021E163B3E705EB030C9CF801006D
:100CF000002706029CF802A000214FEA0A40801952
:100D0000794115F803A04FF0000B1AEB000A4BEBEA
:100D1000010B9CF803600021300610EB0A0041EB48
:100D20000B0100269CF8047010EB060941EB070A42
:100D3000CDE9009A9CF805A04FEA0A21DDE9009A66
:100D400019EB06094AEB010ACDE9009A9CF806A0C6
:100D50004FEA0A41DDE9009A19EB06094AEB010A5C
:100D6000CDE9009A9CF807A04FEA0A61DDE9009AF4
:100D700019EB06094AEB010A48465146C4E90E013F
:100D800066E72046FFF706FCC4E910016B7884F89B
:100D900055302B7884F84D304FF0000901E04FF0CA
:100DA0000109484605B0BDE8F08F4FF00109F8E7AA
:100DB0004FF00109F5E74FF00109F2E74FF00109A3
:100DC000EFE74FF00109ECE74FF00109E9E74FF0D9
:100DD0000109E6E74FF00109E3E700BF0026002024
:100DE0000020704780B584B000AF87ED010AD7EDD1
:100DF000017AF5EEC07AF1EE10FA06DD97ED010A00
:100E000006F0FCFD87ED030A02E04FF00003FB60F3
:100E1000FB6807EE903AB0EE670A1037BD4680BD1A
:100E200080B483B000AF87ED010A97ED017AD7ED6A
:100E3000017A67EE277AB0EE670A0C37BD465DF897
:100E4000047B704780B485B000AF87ED010AC7ED21
:100E5000000A97ED017AD7ED007A77EE677AC7ED51
:100E6000037AD7ED037A9FED157AF4EEC77AF1EEA7
:100E700010FA08DDD7ED037A9FED117A77EEC77A85
:100E8000C7ED037A10E0D7ED037A9FED0E7AF4EE0A
:100E9000C77AF1EE10FA07D5D7ED037A9FED087AFD
:100EA00077EE877AC7ED037AFB6807EE903AB0EEEB
:100EB000670A1437BD465DF8047B7047DB0F494075
:100EC000DB0FC940DB0F49C080B485B000AFF860CC
:100ED00087ED020AC7ED010AFB6893ED007AD7EDB2
:100EE000027A77EE277A97ED017AB4EEE77AF1EE9F
:100EF00010FA0ADDFB6893ED007AD7ED027A77EEFF
:100F0000277AFB68C3ED007A1BE0FB6893ED007A5B
:100F1000D7ED027A77EE677A97ED017AB4EEE77A49
:100F2000F1EE10FA0AD5FB6893ED007AD7ED027A5C
:100F300077EE677AFB68C3ED007A02E0FB687A68B7
:100F40001A6000BF1437BD465DF8047B704780B45B
:100F500085B000AF78607B68FB60104B5A68FB6817
:100F60001A600E4B9A68FB685A600D4B5A68FB6812
:100F7000DA600C4B1B8807EE903AB8EE677A7B6814
:100F8000D3ED107A67EE277AFB68C3ED047A00BFD1
:100F90001437BD465DF8047B704700BFC4240020B1
:100FA000A0250020C625002080B483B000AF786063
:100FB0007B68094A1A60084B93ED087ADFED076AEF
:100FC000C7EE267A7B68C3ED017A00BF0C37BD46B9
:100FD0005DF8047B704700BFE024002000F07F45EF
:100FE00080B582B000AF78607B68164A5A647B682F
:100FF0003C331846FFF7D8FF124B4FF07E525A622F
:101000007B68DB6B1B6A0F4A93620F4802F04AFF52
:101010000E4805F0B9FF0E4805F06CF80D4805F0D4
:1010200037FA0D4805F04CF90C4802F04DF80C4821
:1010300000F088FF034B01225A7000BF0837BD46FD
:1010400080BD00BFF02100201C2200208022002053
:101050006C2200205C2200204C2200208C220020E8
:101060004022002080B584B000AF78607B685B6C64
:10107000FB60FB68002B06D0FB685B7883F0010304
:10108000DBB2002B02D07868FFF7AAFF0F4802F00E
:1010900091FF0F4805F094FF0E4805F053F80E48F5
:1010A00005F01EFA0D4805F033F90D4802F096F8E8
:1010B0000C4800F097FF0C4B00229A70FB6801224D
:1010C0001A7000BF1037BD4680BD00BF1C22002033
:1010D000802200206C2200205C2200204C22002074
:1010E0008C22002040220020F021002080B584B016
:1010F00000AF78607B685B6CFB60FB68002B02D004
:10110000786800F05AFA0E4802F06FFF0D4805F0BB
:1011100072FF0D4805F031F80C4805F0FCF90C4859
:1011200005F011F90B4802F074F80B4800F075FF58
:10113000FB6800221A7000BF1037BD4680BD00BF9B
:101140001C220020802200206C2200205C22002033
:101150004C2200208C22002040220020B0B52DED32
:10116000028B98B002AF78604FF00003BB614FF084
:1011700000037B617B685B6C7B657B6814333B653C
:101180007868FFF7E4FE7A683B6D3A64FB633B6C7A
:101190001A68FB6B1A603B6CD3ED007A9FED8E7A78
:1011A00027EE877A3B6CD3ED017ADFED8C6A67EE30
:1011B000A67A77EE277AFB6BC3ED017A7B6D03F19C
:1011C0009C00396D3B6D03F108043B6D18333A6D9B
:1011D0001C3207F10C05019200932B46224602F0C7
:1011E0002CF87B6D9B78012B54D0022B00F0BC8037
:1011F000002B40F001817B6D03F12C007B6DD3ED62
:10120000097A7B6D03F114017B6D03F118027B6D8C
:1012100003F10C047B6D103300932346B0EE670A94
:1012200002F0F7FE034687F84F307B6D1A697B6D3D
:10123000DA6197F84F30032B1ED17B6D03F17C02EE
:101240007B6DD3ED057AB0EE670A104604F0A9FF76
:101250007B6DD3ED037A3B6D93ED067AF0EE470A92
:10126000B0EE670AFFF7EEFDF0EE407A7B6DC3ED5E
:10127000087A7B6D01229A707B6DD3ED037A07F1BA
:10128000140207F1180311461846B0EE670A02F07F
:10129000F1FBB2E03B6D93ED067A7B6DD3ED087AFE
:1012A00077EE277AC7ED027A07F10803184602F0B5
:1012B000C2FC7B6D2033DFED4A0A9FED4A0A1846D7
:1012C000FFF702FE7B6DD3ED087A9FED477AF4EECF
:1012D000C77AF1EE10FA10D57B6DD3ED087A9FED49
:1012E000437AF4EEC77AF1EE10FA06DD7B6D4FF02B
:1012F00000021A627B6D02229A70D7ED027A07F122
:10130000140207F1180311461846B0EE670A02F0FE
:10131000B1FB7B68D3ED047A7B6D1C331946B0EECC
:10132000670A334805F07BFE7B6D93ED077A7B6D92
:10133000D3ED097A67EE277A7B6DC3ED077A7B6D73
:1013400003F17C027B6DD3ED077A3B6D93ED077A59
:101350007B6D14331946F0EE470AB0EE670A10466B
:1013600004F042FF00BF48E03B6DD3ED067A07F181
:10137000140207F1180311461846B0EE670A02F08E
:1013800079FB7B68D3ED047A7B6D1C331946B0EE94
:10139000670A174805F043FE7B6D93ED077A7B6D76
:1013A000D3ED097A67EE277A7B6DC3ED077A7B6D03
:1013B00003F17C027B6DD3ED077A3B6D93ED077AE9
:1013C0007B6D14331946F0EE470AB0EE670A1046FB
:1013D00004F00AFF11E000BF3ACD133F3ACD933F2E
:1013E00000000000ACC52737B3CE010CB3CE018C92
:1013F0008022002084F9223F00BF386DB9697A69E4
:101400003B6D1033B86279623A62FB61BB6A93ED5F
:10141000007AD7ED087A27EE277ABB6AD3ED016A06
:10142000D7ED097A66EEA77A77EE277AFB69C3EDE6
:10143000007ABB6AD3ED007AB1EE677AD7ED097A0C
:1014400027EE277ABB6AD3ED016AD7ED087A66EEFC
:10145000A77A77EE277AFB69C3ED017A7B68D3ED33
:10146000037A1FED1C7A67EE877AC7ED127A7B6DDF
:1014700003F15C027B6DD3ED067A3B6D93ED047A4C
:101480007B6D0433194697ED121AF0EE470AB0EE61
:10149000670A104604F08EFF97ED120AFFF7C0FCB2
:1014A000B0EE408A7B6DD3ED017AB0EE670AFFF7AC
:1014B000B7FCF0EE407A78EE677AB0EE670AFFF795
:1014C00091FC87ED110A7B6D03F16C027B6DD3ED0E
:1014D000057A3B6D93ED057A7B6D0833194697EDE0
:1014E000111AF0EE470AB0EE670A104605F04AF806
:1014F0007B6D181DB9697A693B6D0833B8637963F0
:101500003A63FB62BB6B93ED007AD7ED0C7A27EE62
:10151000277ABB6BD3ED016AD7ED0D7A66EEA77A19
:1015200077EE677AFB6AC3ED007ABB6B93ED007AC6
:10153000D7ED0D7A27EE277ABB6BD3ED016AD7ED95
:101540000C7A66EEA77A77EE277AFB6AC3ED017A0A
:101550007B6D03F150007B68D3ED037A3B6D08335C
:10156000054A1946B0EE670A00F06BFD00BF583718
:10157000BD46BDEC028BB0BDC825002080B483B051
:1015800000AF786000BF0C37BD465DF8047B704744
:1015900080B485B000AF78607B685B6CFB60FB68F3
:1015A000D3ED097AF1EE677AFB68C3ED097A00BFE3
:1015B0001437BD465DF8047B704780B582B000AF3C
:1015C00078600B4805F060FD0A4804F04BFE0A48BD
:1015D00005F018F8094804F02DFF094801F098FFBC
:1015E000084800F0B1FF00BF0837BD4680BD00BF0E
:1015F000802200206C2200205C2200204C2200204F
:101600008C2200204022002000000000350AC93C46
:1016100087FB483D3FA9963D23BDC83D9EB2FA3D9C
:101620006440163EAA102F3EACC5473E035C603EA8
:10163000C0CF783E9B8E883E3CA0943EED9AA03E63
:10164000D97CAC3E2844B83E07EFC33EC07BCF3EBA
:101650007DE8DA3E6A33E63EF35AF13E205DFC3E19
:10166000419C033FA1F5083FD6390E3F2768133F41
:10167000BB7F183FD87F1D3F9467223F5936273FD5
:101680004AEB2B3FC285303FF704353F4068393F76
:10169000F7AE3D3F73D8413FFCE3453F0BD1493F97
:1016A0000A9F4D3F404D513F38DB543F5A48583F09
:1016B00021945B3F06BE5E3F93C5613F54AA643FE1
:1016C000D36B673FAB096A3F66836C3FA1D86E3F1F
:1016D0000709713F4414733F05FA743F06BA763F19
:1016E000F453783F9BC7793FBA147B3F2E3B7C3F36
:1016F000B43A7D3F2B137E3F72C47E3F664E7F3FE0
:1017000007B17F3F46EC7F3F0000803F46EC7F3FC4
:1017100007B17F3F664E7F3F72C47E3F2B137E3FF3
:10172000B43A7D3F2E3B7C3FBA147B3F9BC7793F49
:10173000F453783F06BA763F05FA743F4414733F7A
:101740000709713FA1D86E3F66836C3FAB096A3FC2
:10175000D36B673F54AA643F93C5613F06BE5E3FAB
:1017600021945B3F5A48583F38DB543F404D513F2E
:101770000A9F4D3F0BD1493FFCE3453F73D8413FA2
:10178000F7AE3D3F4068393FF704353FC285303FF3
:101790004AEB2B3F5936273F9467223FD87F1D3FA6
:1017A000BB7F183F2768133FD6390E3FA1F5083F8E
:1017B000419C033F205DFC3EF35AF13E6A33E63E16
:1017C0007DE8DA3EC07BCF3E07EFC33E2844B83EFB
:1017D000D97CAC3EED9AA03E3CA0943E9B8E883EC8
:1017E000C0CF783E035C603EACC5473EAA102F3E9A
:1017F0006440163E9EB2FA3D23BDC83D3FA9963DCA
:1018000087FB483D350AC93C00000000350AC9BCC9
:1018100087FB48BD3FA996BD23BDC8BD9EB2FABD9A
:10182000644016BEAA102FBEACC547BE035C60BEA6
:10183000C0CF78BE9B8E88BE3CA094BEED9AA0BE61
:10184000D97CACBE2844B8BE07EFC3BEC07BCFBEB8
:101850007DE8DABE6A33E6BEF35AF1BE205DFCBE17
:10186000419C03BFA1F508BFD6390EBF276813BF3F
:10187000BB7F18BFD87F1DBF946722BF593627BFD3
:101880004AEB2BBFC28530BFF70435BF406839BF74
:10189000F7AE3DBF73D841BFFCE345BF0BD149BF95
:1018A0000A9F4DBF404D51BF38DB54BF5A4858BF07
:1018B00021945BBF06BE5EBF93C561BF54AA64BFDF
:1018C000D36B67BFAB096ABF66836CBFA1D86EBF1D
:1018D000070971BF441473BF05FA74BF06BA76BF17
:1018E000F45378BF9BC779BFBA147BBF2E3B7CBF34
:1018F000B43A7DBF2B137EBF72C47EBF664E7FBFDE
:1019000007B17FBF46EC7FBF000080BF46EC7FBFC2
:1019100007B17FBF664E7FBF72C47EBF2B137EBFF1
:10192000B43A7DBF2E3B7CBFBA147BBF9BC779BF47
:10193000F45378BF06BA76BF05FA74BF441473BF78
:10194000070971BFA1D86EBF66836CBFAB096ABFC0
:10195000D36B67BF54AA64BF93C561BF06BE5EBFA9
:1019600021945BBF5A4858BF38DB54BF404D51BF2C
:101970000A9F4DBF0BD149BFFCE345BF73D841BFA0
:10198000F7AE3DBF406839BFF70435BFC28530BFF1
:101990004AEB2BBF593627BF946722BFD87F1DBFA4
:1019A000BB7F18BF276813BFD6390EBFA1F508BF8C
:1019B000419C03BF205DFCBEF35AF1BE6A33E6BE14
:1019C0007DE8DABEC07BCFBE07EFC3BE2844B8BEF9
:1019D000D97CACBEED9AA0BE3CA094BE9B8E88BEC6
:1019E000C0CF78BE035C60BEACC547BEAA102FBE98
:1019F000644016BE9EB2FABD23BDC8BD3FA996BDC8
:101A000087FB48BD350AC9BC0000803F46EC7F3FDC
:101A100007B17F3F664E7F3F72C47E3F2B137E3FF0
:101A2000B43A7D3F2E3B7C3FBA147B3F9BC7793F46
:101A3000F453783F06BA763F05FA743F4414733F77
:101A40000709713FA1D86E3F66836C3FAB096A3FBF
:101A5000D36B673F54AA643F93C5613F06BE5E3FA8
:101A600021945B3F5A48583F38DB543F404D513F2B
:101A70000A9F4D3F0BD1493FFCE3453F73D8413F9F
:101A8000F7AE3D3F4068393FF704353FC285303FF0
:101A90004AEB2B3F5936273F9467223FD87F1D3FA3
:101AA000BB7F183F2768133FD6390E3FA1F5083F8B
:101AB000419C033F205DFC3EF35AF13E6A33E63E13
:101AC0007DE8DA3EC07BCF3E07EFC33E2844B83EF8
:101AD000D97CAC3EED9AA03E3CA0943E9B8E883EC5
:101AE000C0CF783E035C603EACC5473EAA102F3E97
:101AF0006440163E9EB2FA3D23BDC83D3FA9963DC7
:101B000087FB483D350AC93C00000000350AC9BCC6
:101B100087FB48BD3FA996BD23BDC8BD9EB2FABD97
:101B2000644016BEAA102FBEACC547BE035C60BEA3
:101B3000C0CF78BE9B8E88BE3CA094BEED9AA0BE5E
:101B4000D97CACBE2844B8BE07EFC3BEC07BCFBEB5
:101B50007DE8DABE6A33E6BEF35AF1BE205DFCBE14
:101B6000419C03BFA1F508BFD6390EBF276813BF3C
:101B7000BB7F18BFD87F1DBF946722BF593627BFD0
:101B80004AEB2BBFC28530BFF70435BF406839BF71
:101B9000F7AE3DBF73D841BFFCE345BF0BD149BF92
:101BA0000A9F4DBF404D51BF38DB54BF5A4858BF04
:101BB00021945BBF06BE5EBF93C561BF54AA64BFDC
:101BC000D36B67BFAB096ABF66836CBFA1D86EBF1A
:101BD000070971BF441473BF05FA74BF06BA76BF14
:101BE000F45378BF9BC779BFBA147BBF2E3B7CBF31
:101BF000B43A7DBF2B137EBF72C47EBF664E7FBFDB
:101C000007B17FBF46EC7FBF000080BF46EC7FBFBF
:101C100007B17FBF664E7FBF72C47EBF2B137EBFEE
:101C2000B43A7DBF2E3B7CBFBA147BBF9BC779BF44
:101C3000F45378BF06BA76BF05FA74BF441473BF75
:101C4000070971BFA1D86EBF66836CBFAB096ABFBD
:101C5000D36B67BF54AA64BF93C561BF06BE5EBFA6
:101C600021945BBF5A4858BF38DB54BF404D51BF29
:101C70000A9F4DBF0BD149BFFCE345BF73D841BF9D
:101C8000F7AE3DBF406839BFF70435BFC28530BFEE
:101C90004AEB2BBF593627BF946722BFD87F1DBFA1
:101CA000BB7F18BF276813BFD6390EBFA1F508BF89
:101CB000419C03BF205DFCBEF35AF1BE6A33E6BE11
:101CC0007DE8DABEC07BCFBE07EFC3BE2844B8BEF6
:101CD000D97CACBEED9AA0BE3CA094BE9B8E88BEC3
:101CE000C0CF78BE035C60BEACC547BEAA102FBE95
:101CF000644016BE9EB2FABD23BDC8BD3FA996BDC5
:101D000087FB48BD350AC9BC00000000350AC93C44
:101D100087FB483D3FA9963D23BDC83D9EB2FA3D95
:101D20006440163EAA102F3EACC5473E035C603EA1
:101D3000C0CF783E9B8E883E3CA0943EED9AA03E5C
:101D4000D97CAC3E2844B83E07EFC33EC07BCF3EB3
:101D50007DE8DA3E6A33E63EF35AF13E205DFC3E12
:101D6000419C033FA1F5083FD6390E3F2768133F3A
:101D7000BB7F183FD87F1D3F9467223F5936273FCE
:101D80004AEB2B3FC285303FF704353F4068393F6F
:101D9000F7AE3D3F73D8413FFCE3453F0BD1493F90
:101DA0000A9F4D3F404D513F38DB543F5A48583F02
:101DB00021945B3F06BE5E3F93C5613F54AA643FDA
:101DC000D36B673FAB096A3F66836C3FA1D86E3F18
:101DD0000709713F4414733F05FA743F06BA763F12
:101DE000F453783F9BC7793FBA147B3F2E3B7C3F2F
:101DF000B43A7D3F2B137E3F72C47E3F664E7F3FD9
:101E000007B17F3F46EC7F3F80B584B000AF87EDE0
:101E1000010AD7ED017AF5EEC07AF1EE10FA06DD8F
:101E200097ED010A05F0EAFD87ED030A02E04FF0A5
:101E30000003FB60FB6807EE903AB0EE670A1037CC
:101E4000BD4680BD80B582B000AF87ED010AC7ED09
:101E5000000A97ED017AD7ED017A27EE277AD7EDC0
:101E6000006AD7ED007A66EEA77A77EE277AB0EEB1
:101E7000670AFFF7C9FFF0EE407AB0EE670A08374D
:101E8000BD4680BD80B483B000AF78600B467B80D8
:101E900013463B807B68B3F90030B7F900209A42C3
:101EA00003DA7B683A881A8009E07B68B3F900306E
:101EB000B7F902209A4202DD7B687A881A8000BF57
:101EC0000C37BD465DF8047B704780B500AF02F06B
:101ED000B5FF03469BB2184680BD80B582B000AF07
:101EE0007860FFF7F2FF03461A467B681A807B682A
:101EF00026225A807B684FF07E525A6000BF083716
:101F0000BD4680BD80B485B000AF87ED010A0346B1
:101F10007B80B7F9023007EE903AF8EEE77A97ED5A
:101F2000017A67EE277AC7ED037AD7ED037AFDEEE3
:101F3000E77A17EE903A1BB218461437BD465DF8A3
:101F4000047B704780B584B000AF78607B68244A1A
:101F50009A60234BFB607868FFF7BFFF7B681B88A4
:101F60001AB2FB685A807B685B880C339BB21AB24A
:101F7000FB689A80FB68B3F902309AB2FB68B3F948
:101F800004309BB2D31A9BB21AB2FB68DA807B682A
:101F90005A68FB689A60FB68B3F9063007EE903A1E
:101FA000B8EEE77AFB68B3F9043007EE903AF8EE42
:101FB000E77A77EE677AC7ED027AFB68B3F9023009
:101FC00007EE903AB8EEE77AD7ED026AC6EE877A66
:101FD000FB68C3ED037A00BF1037BD4680BD00BF6C
:101FE000B025002080B584B000AF78607B689B6826
:101FF000FB60FB68002B06D0FB685B7883F0010375
:10200000DBB2002B02D07868FFF79CFFFB6801224F
:102010001A7000BF1037BD4680BD80B584B000AFD8
:1020200078607B689B68FB60FB68002B02D0786857
:1020300000F08AFAFB6800221A7000BF1037BD4614
:1020400080BD90B595B000AFF86087ED020A796069
:102050003A60FB689B687B647B6C1B78002B00F00C
:102060006F827B68D3ED007A7B6893ED017AF0EEA6
:10207000470AB0EE670AFFF7E5FE87ED100A7B6CB2
:1020800093ED037AD7ED027A27EE277ADFEDB76A70
:10209000C7EE267AC7ED0F7AD7ED106A97ED0F7A63
:1020A000C6EE877AC7ED127A7B6CD3ED027A97ED94
:1020B000127AB4EEE77AF1EE10FA02DD7B6C9B68DF
:1020C000BB647B6893ED007AD7ED127A67EE276ADE
:1020D00097ED0F7AC6EE877AC7ED0E7A7B6893ED9F
:1020E000017AD7ED127A67EE276A97ED0F7AC6EE7E
:1020F000877AC7ED0D7A7B6B3B63D7ED0E7A9FED48
:102100009B7A27EE877AD7ED0D7A77EE677AB6EE6F
:10211000007A67EE877AC7ED0B7AD7ED0C7AB1EECD
:10212000677AD7ED0B7A77EE677AC7ED0A7AD7ED43
:102130000B7AF5EEC07AF1EE10FA19D5D7ED0A7ADE
:10214000F5EEC07AF1EE10FA03D5052387F84F308B
:1021500027E0D7ED0C7AF5EEC07AF1EE10FA03D84D
:10216000022387F84F301CE0012387F84F3018E036
:10217000D7ED0A7AF5EEC07AF1EE10FA03DB002310
:1021800087F84F300DE0D7ED0C7AF5EEC07AF1EE1E
:1021900010FA03D8042387F84F3002E0032387F8AE
:1021A0004F3097F84F30052B00F2A98101A252F869
:1021B00023F000BFCD2100005B220000EB220000D5
:1021C000712300000124000081240000D7ED0B7A68
:1021D000F1EE677A7B6CB3F902301846B0EE670A0D
:1021E000FFF790FE0346FB84D7ED0A7AF1EE677A9B
:1021F0007B6CB3F902301846B0EE670AFFF782FE37
:102200000346BB847B6CB3F902309AB2FB8CD31AC1
:102210009AB2BB8CD31A9BB21AB23B681C1D1046F3
:10222000B6EE000AFFF76EFE034623803B680433D8
:10223000B3F900309AB2BB8C13449BB21AB23B681C
:102240001A803B68B3F900309AB2FB8C13449AB2FF
:102250003B68023312B21A8052E1D7ED0A7AF1EEEE
:10226000677A7B6CB3F902301846B0EE670AFFF765
:1022700049FE03467B84D7ED0C7AF1EE677A7B6CDE
:10228000B3F902301846B0EE670AFFF73BFE03468B
:102290003B847B6CB3F902309AB27B8CD31A9AB22E
:1022A0003B8CD31A9BB21AB23B689C1C1046B6EE0C
:1022B000000AFFF727FE034623803B680233B3F989
:1022C00000309AB23B8C13449AB23B68043312B28A
:1022D0001A803B680433B3F900309AB27B8C134404
:1022E0009BB21AB23B681A800AE17B6CB3F90230E8
:1022F000184697ED0B0AFFF705FE0346FB837B6C40
:10230000B3F90230184697ED0C0AFFF7FBFD0346C0
:10231000BB837B6CB3F902309AB2FB8BD31A9AB2AF
:10232000BB8BD31A9BB21AB23B681C1D1046B6EE8B
:10233000000AFFF7E7FD034623803B680433B3F947
:1023400000309AB2BB8B13449AB23B68023312B28C
:102350001A803B680233B3F900309AB2FB8B134406
:102360009BB21AB23B681A80CAE000BFD7B3DD3F08
:10237000D7ED0C7AF1EE677A7B6CB3F90230184630
:10238000B0EE670AFFF7BEFD03467B83D7ED0B7AFD
:10239000F1EE677A7B6CB3F902301846B0EE670A4B
:1023A000FFF7B0FD03463B837B6CB3F902309AB272
:1023B0007B8BD31A9AB23B8BD31A9BB21BB21846B3
:1023C000B6EE000AFFF79EFD03461A463B681A80E8
:1023D0003B68B3F900309AB23B8B13449AB23B6826
:1023E000023312B21A803B680233B3F900309AB25A
:1023F0007B8B13449AB23B68043312B21A807FE09D
:102400007B6CB3F90230184697ED0C0AFFF77AFDA2
:102410000346FB827B6CB3F90230184697ED0A0A3B
:10242000FFF770FD0346BB827B6CB3F902309AB2B2
:10243000FB8AD31A9AB2BB8AD31A9BB21BB2184634
:10244000B6EE000AFFF75EFD03461A463B681A80A7
:102450003B68B3F900309AB2BB8A13449AB23B6826
:10246000043312B21A803B680433B3F900309AB2D5
:10247000FB8A13449AB23B68023312B21A803FE0DF
:102480007B6CB3F90230184697ED0A0AFFF73AFD64
:1024900003467B827B6CB3F90230184697ED0B0A3A
:1024A000FFF730FD03463B827B6CB3F902309AB2F2
:1024B0007B8AD31A9AB23B8AD31A9BB21AB23B6870
:1024C0009C1C1046B6EE000AFFF71CFD0346238055
:1024D0003B680233B3F900309AB23B8A13449BB293
:1024E0001AB23B681A803B68B3F900309AB27B8A13
:1024F00013449AB23B68043312B21A8000E000BF62
:102500007B6CB3F904107B6CB3F906301A4638685B
:10251000FFF7B8FC3B68981C7B6CB3F904107B6C2C
:10252000B3F906301A46FFF7ADFC3B68181D7B6C0B
:10253000B3F904107B6CB3F906301A46FFF7A2FC1E
:1025400000BF5437BD4690BD80B483B000AF786003
:1025500000BF0C37BD465DF8047B704780B483B084
:1025600000AF0023FB71104B5B8B9BB203F00703A2
:10257000BB80BB88002B10D00B4B80221A760A4BF5
:1025800007225A8302E0084B9B6AFB71064B1B7EB5
:10259000DBB203F00403042BF5D000BF0C37BD46BB
:1025A0005DF8047B704700BF0020014180B400AF9C
:1025B0000F4B104A1A600E4B4FF622029A810C4BB9
:1025C0004FF440325A6000BF094BDB69002BFBD14E
:1025D000074B1B68064A43F00203136000BF044B1D
:1025E000DB69002BFBD100BFBD465DF8047B704763
:1025F000002001410401104080B400AF024B184696
:10260000BD465DF8047B704700879303F0B587B043
:1026100000AF786039600023FB7500233B61002325
:10262000FB607B68002B00F0DB807B681B68002B65
:1026300000F0D6803B68002B02D1FFF7DDFF386049
:102640007B681B681B013A689A421AD37B681B6837
:102650004FF000044FF000004FF00001210541EA67
:10266000133118053B684FF000041A46234605F065
:1026700087F903460C46C3F580333B610023FB60BA
:1026800051E07B681B68DB003A689A421AD37B688A
:102690001B684FF000044FF000004FF00001E10410
:1026A00041EA5331D8043B684FF000041A462346F0
:1026B00005F066F903460C46C3F580333B610223FF
:1026C000FB6030E07B681A6813465B0013443A688D
:1026D0009A4228D37B681B6819464FF000020B46CC
:1026E0001446DD1844EB04062B4634465B1842EBD7
:1026F00004044FF000014FF00002220442EA1342AA
:1027000019040B461446184621463B684FF0000456
:102710001A46234605F034F903460C46C3F58033C8
:102720003B610423FB60314B1B68304A23F00203FA
:10273000136000BF2D4BDB69002BFBD12B4B3A699B
:1027400092B29A817B685B68022B18D1274B1B6879
:1027500023F0706323F46043FA68520392B2234972
:1027600013430B60214B5B6823F047027B68996839
:102770007B68DB680B431D4913434B601EE01B4B1A
:102780001B6823F0706323F46043FA68520392B22B
:102790001343164A43F080731360144B5B6823F4B1
:1027A000015323F007037A6892681A437B68DB6859
:1027B0001A437B685B680D4913434B6000BF0B4BAA
:1027C000DB69002BFBD1094B1B68084A43F002036D
:1027D000136000BF054BDB69002BFBD10123FB75A8
:1027E000FB7D18461C37BD46F0BD00BF00200141EF
:1027F00080B582B000AF084B5B8B9BB203F0070340
:10280000FB80FB88002B01D0FFF7A8FEFB88184651
:102810000837BD4680BD00BF0020014180B400AF35
:102820000A4B1B6803F00203002B0AD1074B1B68FD
:10283000064A43F00203136000BF044BDB69002B20
:10284000FBD100BFBD465DF8047B7047002001410D
:1028500080B400AF0A4B1B6803F00203002B0AD0C0
:10286000074B1B68064A23F00203136000BF044BAA
:10287000DB69002BFBD100BFBD465DF8047B7047D0
:102880000020014180B400AF074B5B68064A43F467
:102890008033536000BF044BDB69002BFBD100BFCA
:1028A000BD465DF8047B70470020014180B400AF55
:1028B000074B5B68064A23F48033536000BF044B28
:1028C000DB69002BFBD100BFBD465DF8047B704780
:1028D0000020014180B487B000AF786039600023E8
:1028E000FB757B68FB607B68BB6000233B617B689A
:1028F000002B25D01EE000BF154B1B7EDBB203F082
:102900000103002BF8D0124B5B6803F00703012B87
:1029100006D0FA683B6913441A780D4B9A6206E0B8
:102920003B695B00BA6813441A88094B9A623B6999
:1029300001333B613A693B689A42DCD30123FB7562
:10294000FB7D18461C37BD465DF8047B704700BF11
:102950000020014180B483B000AF0023FB71084B1D
:102960001B7EDBB203F00103012B01D10123FB71BC
:10297000FB7918460C37BD465DF8047B704700BFF5
:102980000020014180B483B000AF786000BF084BE5
:102990001B7EDBB203F00103002BF8D07B689AB2F8
:1029A000034B9A6200BF0C37BD465DF8047B70474D
:1029B0000020014180B483B000AF0023FB71084BBD
:1029C0001B7EDBB203F00203022B01D10123FB715A
:1029D000FB7918460C37BD465DF8047B704700BF95
:1029E0000020014180B400AF074B5B68064A43F406
:1029F0000033536000BF044BDB69002BFBD100BFE9
:102A0000BD465DF8047B70470020014180B400AFF3
:102A1000074B5B68064A23F40033536000BF044B46
:102A2000DB69002BFBD100BFBD465DF8047B70471E
:102A30000020014180B588B000AF78603960002384
:102A4000FB777B687B617B683B610023BB61002374
:102A5000FB817B68002B38D0FFF780FD29E000BFA9
:102A60001C4B1B7EDBB203F00403002BF8D0194B88
:102A70005B8B9BB203F00703FB81FB89002B1DD10D
:102A8000144B5B6803F00703012B07D0114B996AC5
:102A90007A69BB691344CAB21A7007E00D4B996A90
:102AA000BB695B003A6913448AB21A80BB6901337F
:102AB000BB61BA693B689A42D1D300E000BF3A6873
:102AC000BB699A4201D10123FB77FB7F184620376F
:102AD000BD4680BD0020014180B483B000AF00231B
:102AE000FB71084B1B7EDBB203F00403042B01D106
:102AF0000123FB71FB7918460C37BD465DF8047B5A
:102B0000704700BF0020014180B400AF034B9B6AB7
:102B10001846BD465DF8047B704700BF00200141A8
:102B200080B400AF044B40F204521A8000BFBD468F
:102B30005DF8047B704700BF0040004180B586B05F
:102B400000AFF860B9607A607B687B61BA687969C8
:102B5000F86804F095FF012318461837BD4680BD7C
:102B600080B483B000AF0346FB800A4B1B889BB246
:102B70001BB223F030031AB2B7F9063013431AB26E
:102B8000044B92B21A8000BF0C37BD465DF8047B3F
:102B9000704700BF0040004180B586B000AF78604C
:102BA00039600023BB753B683B61194B1B889BB2A6
:102BB00003F03003FB81174B00221A803B6803F0BF
:102BC0000F03002B02D00023BB751BE02020FFF772
:102BD000C7FF0023FB750CE0FB7D9B007A68134464
:102BE0001A683B691A603B6904333B61FB7D013322
:102BF000FB75FB7D032BEFD9FB891846FFF7B0FF70
:102C00000123BB75BB7D18461837BD4680BD00BF8C
:102C100000400041CE25002080B586B000AF78602E
:102C200039600023BB753B683B61194B1B889BB225
:102C300003F03003FB81174B00221A803B6803F03E
:102C40000703002B02D00023BB751BE01020FFF709
:102C500087FF0023FB750CE0FB7D9B007A68134423
:102C60001A683B691A603B6904333B61FB7D0133A1
:102C7000FB75FB7D012BEFD9FB891846FFF770FF31
:102C80000123BB75BB7D18461837BD4680BD00BF0C
:102C900000400041CE25002080B485B000AF7860B0
:102CA00039603B68BB600E4B00221A800023FB603A
:102CB0000CE0FB689B007A6813441A68BB681A60D2
:102CC000BB680433BB60FB680133FB60FB687F2B90
:102CD000EFD9012318461437BD465DF8047B7047D1
:102CE000CE25002080B483B000AF78600B4B00226B
:102CF0001A800B4A7B685361094B1B889BB203F017
:102D00003003002B03D1064B4AF203529A80012371
:102D100018460C37BD465DF8047B7047CE25002071
:102D20000040004180B485B000AF786039603B68F6
:102D3000BB60144B00221A800023FB600CE0FB6890
:102D40009B007A6813441A68BB681A60BB68043336
:102D5000BB60FB680133FB60FB687F2BEFD90A4B3C
:102D60001B889BB203F03003002B03D1064B4AF2C1
:102D700003529A80012318461437BD465DF8047B40
:102D8000704700BFCE2500200040004180B483B0D2
:102D900000AF7860084B00221A80084A7B685361B4
:102DA000064B4AF201529A80012318460C37BD4661
:102DB0005DF8047B704700BFCE2500200040004135
:102DC00080B588B000AF786039603B687B617B6814
:102DD0003B610023FB733B681E4A934234D93B6836
:102DE0001D4A934230D81D4B00221A800023BB613C
:102DF00025E00023FB610CE03B691A687B691A60DF
:102E00007B6904337B613B6904333B61FB690133BC
:102E1000FB61FB69032BEFD9BB691A0110493B68C1
:102E200013444B610E4B4AF204529A8000BF00F0EB
:102E300073F80346002BFAD1BB690133BB61BB6950
:102E40001F2BD6D90123FB73FB7B18462037BD46C9
:102E500080BD00BFFF3F800000408000CE250020E5
:102E60000040004180B485B000AF78600023FB7360
:102E70007B680D4A93420FD97B680C4A93420BD86A
:102E80000B4B00221A800B4A7B685361094B4FF4AD
:102E900025429A800123FB73FB7B18461437BD46FD
:102EA0005DF8047B704700BFFF3F80000042800058
:102EB000CE2500200040004180B483B000AF0C4B11
:102EC0001B8AFB800B4B1B889AB2FB8813439AB278
:102ED000084B1A80064B074A128892B21A82054B99
:102EE0001B889BB218460C37BD465DF8047B7047C3
:102EF00000400041CE25002080B483B000AF054BD8
:102F00005B8AFB80FB8818460C37BD465DF8047B66
:102F1000704700BF0040004180B400AF074B5B8AA0
:102F20009BB203F00103002B0CBF01230023DBB293
:102F30001846BD465DF8047B704700BF0040004165
:102F400080B483B000AF7860064A7B685361054B5C
:102F50004AF211529A8000BF0C37BD465DF8047BDF
:102F6000704700BF0040004180B483B000AF78607C
:102F7000064A7B685361054B4AF212529A8000BFA1
:102F80000C37BD465DF8047B704700BF0040004130
:102F900080B400AF034B9B691846BD465DF8047BC7
:102FA000704700BF0040004180B400AF044B4AF2BC
:102FB00016529A8000BFBD465DF8047B704700BF83
:102FC0000040004180B400AF064BDB6A03F004030D
:102FD000002B14BF01230023DBB21846BD465DF869
:102FE000047B70470040004180B483B000AF054BC4
:102FF000DB6A7B607B6818460C37BD465DF8047B56
:10300000704700BF0040004180B400AF074B1B8AEF
:103010009BB203F48073002B14BF01230023DBB2A7
:103020001846BD465DF8047B704700BF0040004174
:1030300080B400AF044B4AF217529A8000BFBD46DD
:103040005DF8047B704700BF0040004180B400AFD2
:10305000044B4AF232529A8000BFBD465DF8047BB1
:10306000704700BF0040004180B400AF054B002214
:103070001A80054B4AF233529A8000BFBD465DF874
:10308000047B7047CE2500200040004180B483B00F
:1030900000AF78607B68084A1A607B68074A5A600C
:1030A0007B68074A9A607B68064ADA6000BF0C3783
:1030B000BD465DF8047B7047E024002014AEE74075
:1030C00017B751380000FA4380B584B000AF78607C
:1030D0007B683E4A1A613D4BFB607868FFF7D6FF7C
:1030E0007B681B685A68FB681A637B689A68FB6890
:1030F000DA627B681B68D3ED026AFB6893ED0B7A9A
:10310000C6EE877AFB68C3ED0D7A7B681B681B6887
:10311000BB607B681B68D3ED077A97ED027A67EE98
:10312000277AC7ED027AD7ED027A37EEA77ADFED7C
:10313000286AC7EE267AC7ED027AD7ED027A9FEDAC
:10314000257A27EE877AF7EE006AC6EE877AC7ED12
:10315000027AFB68D3ED0B6AFB6893ED0B7AD7ED2F
:10316000027A37EE277AC6EE877AFB68C3ED0E7ACD
:103170007B6893ED017ADFED186AC6EE877AFB680B
:10318000C3ED117A7B681B68D3ED007A9FED117A4D
:1031900027EE877AFB68D3ED0B7A27EE277ADFEDEF
:1031A0000C6AC7EE267AFB68C3ED127AFB684FF013
:1031B0007E52DA63FB684FF07E521A64FB6801228C
:1031C0005A7000BF1037BD4680BD00BFAC23002041
:1031D00000007042DB0FC9400040D84480B584B085
:1031E00000AF78607B681B69FB60FB68002B06D032
:1031F000FB685B7883F00103DBB2002B02D07868B8
:10320000FFF762FFFB6801221A7000BF1037BD464E
:1032100080BD80B584B000AF78607B681B69FB60BF
:10322000FB68002B02D0786800F072F9FB6800227E
:103230001A7000BF1037BD4680BD80B588B000AFA2
:10324000F860B9607A603B60FB681B69BB61BB6971
:103250001B78002B00F045814FF00003FB614FF01D
:1032600000037B614FF000033B61BB695B69FB615D
:10327000BB6893ED007ABB69D3ED0C7A67EE277AD1
:1032800097ED077A77EE677AC7ED077ABB6893ED1B
:10329000007ABB69D3ED077A37EE677ABB69D3ED65
:1032A0000D7A67EE277A97ED077A77EE677AC7EDA2
:1032B000077ABB6993ED017ABB69D3ED0E6ABB69EE
:1032C000D3ED017A97ED076A76EE677A66EEA77A14
:1032D00077EE277ABB69C3ED017ABB699B69FB6115
:1032E000BB6893ED017ABB69D3ED0C7A67EE277A60
:1032F00097ED077A77EE677AC7ED077ABB6893EDAB
:10330000017ABB69D3ED087A37EE677ABB69D3EDF2
:103310000D7A67EE277A97ED077A77EE677AC7ED31
:10332000077ABB6993ED027ABB69D3ED0E6ABB697C
:10333000D3ED027A97ED076A76EE677A66EEA77AA2
:1033400077EE277ABB69C3ED027A7B681A68BB699E
:103350005A617B685A68BB699A61BB681A68BB6925
:10336000DA61BB685A68BB691A62BB69D3ED0A7A35
:1033700007F1100207F1140311461846B0EE670A70
:1033800000F078FBBB6993ED017AD7ED047A67EE24
:10339000277AC7ED077ABB6993ED027AD7ED057AF4
:1033A00067EE277A97ED077A77EE277AC7ED077AE7
:1033B000BB6993ED037ABB69D3ED0F6ABB69D3EDAB
:1033C000037A97ED076A76EE677A66EEA77A77EE6C
:1033D000277ABB69C3ED037ABB69D3ED017AB1EEFD
:1033E000677AD7ED057A67EE277AC7ED077ABB696A
:1033F00093ED027AD7ED047A67EE277A97ED077A94
:1034000077EE277AC7ED077ABB6993ED047ABB693B
:10341000D3ED0F6ABB69D3ED047A97ED076A76EEB8
:10342000677A66EEA77A77EE277ABB69C3ED047AEE
:10343000BB69D3ED047AF5EEC07AF1EE10FA0FDD38
:10344000BB6993ED117ABB69D3ED046ABB69D3ED17
:10345000037A76EEE77A67EE277AC7ED077A0EE011
:10346000BB6993ED117ABB69D3ED046ABB69D3EDF7
:10347000037A76EEA77A67EE277AC7ED077ABB69FB
:1034800093ED097ABB69D3ED106ABB69D3ED097A74
:1034900097ED076A76EE677A66EEA77A77EE277A77
:1034A000BB69C3ED097ABB6993ED0A7ABB69D3EDB9
:1034B000126ABB69D3ED097A66EEA77A77EE277AAE
:1034C000BB69C3ED0A7ABB692833184600F0B3FB29
:1034D000BB695A6AFB6A1A60BB699A6ABB6A1A605E
:1034E0000AE0F86800F014F8FB6A4FF000021A6076
:1034F000BB6A4FF000021A60BB695A683B681A60E9
:10350000BB699A683B685A6000BF2037BD4680BDE2
:1035100080B485B000AF78607B681B69FB60FB6896
:103520004FF00002DA61FB684FF000021A62FB689C
:103530004FF000025A61FB684FF000029A6100BF31
:103540001437BD465DF8047B704700BF08B5022202
:103550000272C268212151704368984708BD08B5BE
:10356000C3685B78052B2DD8DFE803F0030E141A2F
:103570002026154A126800211173C2685370022375
:1035800003724368984708BD0F4B1B6801221A73EA
:103590000023F2E70C4B1B6802221A730023ECE7AE
:1035A000094B1B6803221A730023E6E7064B1B68CE
:1035B00004221A730023E0E7034B1B6805221A73E9
:1035C0000023DAE72223D8E70026002008B5C268E6
:1035D00000215170C26804490968097B9170032277
:1035E00002724368984708BD00260020A0B130B49D
:1035F00004460388994213D053B1002301339BB290
:1036000004EBC30534F8330088420AD00028F5D112
:1036100040231370002009E04323137000207047FB
:1036200005460029F4D068680023137030BC704749
:1036300008B502220272C26851704368984708BDFB
:10364000F0B583B00546C368274A126810689A78B7
:10365000597801EB02210DF1070289B2FFF7C6FF8D
:103660009DF8071021BB204B19684B6823B30688CF
:103670004B681B88B34224D04B681B881BB30023C4
:1036800001339BB24C6803EB4302D70034F832405D
:10369000B44204D04C6834F83220002AF0D14B6890
:1036A000DB5B93B941212846FFF7C2FF03B0F0BDB1
:1036B0002846FFF7BDFFF9E744212846FFF7B8FF8A
:1036C000F4E70027EBE70027E9E74B68E9681F44C8
:1036D000FB680231984702302872EB6800225A706A
:1036E0006B6828469847E1E700260020F0B583B0D4
:1036F0000546C3689A785C7804EB0224A4B2434B75
:103700001B6818680DF107022146FFF76FFF9DF84F
:103710000710002940D13D4B1A689368C3B19368E4
:103720001B88A3423DD093681B88002B3BD000230D
:1037300001339BB29168DE0031F83310A14204D00E
:10374000916831F833100029F2D193689B5B63BB19
:103750005368002B39D0068853681B88B34239D090
:1037600053681B88002B37D0002301339BB2546869
:1037700003EB4301CF0034F83140B44204D0546825
:1037800034F831100029F0D15368DB5B33BB4121A1
:103790002846FFF74DFF02E02846FFF749FF03B038
:1037A000F0BD0026D1E70026CFE793682A7A033AD6
:1037B000E9681E447368D2B2033198470028EED0FE
:1037C00042212846FFF734FFE9E744212846FFF766
:1037D0002FFFE4E70027D7E70027D5E753682A7AC9
:1037E000033AE9681F443B69D2B20331984720B1DC
:1037F00014212846FFF71CFFD1E702232B72EB6848
:1038000000225A706B6828469847C8E700260020B7
:1038100070B5437A2D2B40F2AE802E230372C2681E
:1038200000235370C26805219170C268D370C268CA
:10383000574B1B68198C1171C1681A8CC2F307228F
:103840004A71C268417A9171C1682022CA71C16807
:1038500082240C72C1684D244C72C16861248C7240
:10386000C1687224CC72C1680A73C2683321517373
:10387000C16832228A73C4683021E173C56831247B
:103880002C74C56839266E74C568AC74C468E2745B
:10389000C4682275C26851755A6A002A6FD0C2681E
:1038A000596A09789175C268596A4978D175C268B0
:1038B000596A89781176C268596A09795176C2685D
:1038C000596A49799176C268596AC979D176C268CC
:1038D000596A097A1177C268596A497A5177C26878
:1038E000596A897A9177C268596AC97AD177C26868
:1038F000596A097B82F82010C268596A897B82F86C
:103900002110C2685B6ADB7B82F82230C268204BE0
:103910001B68197B82F82310C268D98982F82410A9
:10392000C168DA89C2F3072281F82520C2681969C3
:1039300082F82610C1681A69120A81F82720C16826
:103940001A69120C81F82820C1681A69120E81F8D0
:103950002920C26882F82A30C268190A82F82B101E
:10396000C268190C82F82C10C2681B0E82F82D3028
:103970004368984770BD1521FFF75AFE70BD22239A
:103980002D21C268D154013B152BFAD1BEE700BFEF
:1039900000260020054A131F6832054943F8041F1A
:1039A0009342FBD1014B0361704700BFF02200201E
:1039B0004D3500000369054A1A60054A5A60054AF8
:1039C0009A60054A9A64054A5A64704711380000A3
:1039D000CD3500005F350000ED36000041360000B7
:1039E00080B485B000AF87ED010AD7ED017AF5EE1E
:1039F000C07AF1EE10FA06D5D7ED017AF1EE677ACA
:103A0000C7ED037A01E07B68FB60FB6807EE903A44
:103A1000B0EE670A1437BD465DF8047B704780B589
:103A200084B000AF87ED010AC7ED000A97ED000AE8
:103A3000FFF7D6FFB0EE407ADFED0C7AB4EEE77A0E
:103A4000F1EE10FA08DDD7ED016A97ED007AC6EEC7
:103A5000877AC7ED037A01E0054BFB60FB6807EE50
:103A6000903AB0EE670A1037BD4680BDB3CE010C68
:103A70007C6FFC7280B58AB000AF87ED030AB86036
:103A80007960FB683B6107F11003184600F0D3F83A
:103A9000D7ED047A9FED347A67EE877AC7ED047A22
:103AA000D7ED047AFCEEE77A17EE903A3B623B6A78
:103AB00001337B627B6AFF2B01D900237B623B6A67
:103AC00007EE903AF8EE677A9FED287A67EE877AEC
:103AD000C7ED077A97ED037AD7ED077A77EE677A25
:103AE0009FED217A67EE877AC7ED047A204A3B6A18
:103AF0009B0013441B68BB611D4A7B6A9B001344F7
:103B00001B687B6197ED057AD7ED067A37EE677A09
:103B1000D7ED047A27EE277AD7ED067A77EE277A63
:103B2000BB68C3ED007A134A3B6A9B0013441B68D1
:103B3000BB61104A7B6A9B0013441B687B6197ED55
:103B4000057AD7ED067A37EE677AD7ED047A27EE55
:103B5000277AD7ED067A77EE277A7B68C3ED007A6D
:103B600000BF2837BD4680BD83F92242DB0FC93C28
:103B700008160000081A000080B485B000AFF86095
:103B8000B9607A60FB681A68BB6813447A689A4225
:103B900006DDFB681A68BB681A44FB681A6010E00F
:103BA000FB681A68BB68D31A7A689A4206DAFB681F
:103BB0001A68BB68D21AFB681A6002E0FB687A6870
:103BC0001A6000BF1437BD465DF8047B704780B5AE
:103BD00082B000AF786039607B685B88002B02D0D0
:103BE000012B10D023E07B681B7883F00103DBB24C
:103BF000002B19D03B6898477B6800229A807B682D
:103C000001225A8010E07B689B8801339AB27B685E
:103C10009A807B689B88C72B08D97B6800229A8092
:103C20007B6800225A8001E000BF00E000BF00BFB7
:103C30000837BD4680BD80B483B000AF78607B6834
:103C4000D3ED007A9FED157AF4EEC77AF1EE10FA13
:103C50000ADB7B68D3ED007A9FED107A77EEC77AA6
:103C60007B68C3ED007A12E07B68D3ED007AF5EE55
:103C7000C07AF1EE10FA00D409E07B68D3ED007A47
:103C80009FED067A77EE877A7B68C3ED007A00BFF6
:103C90000C37BD465DF8047B704700BFDB0FC940A1
:103CA00080B487B000AFF8600B467A60FB72FB68A7
:103CB000FA7A1A700023FB7525E0FA7DFB7A9A42A6
:103CC0000ED2FB7DDB007A68D118FB7DFA68DB0041
:103CD000134404330A4692E8030083E803000FE02C
:103CE000FB7DFA68DB00134404334FF000021A60D6
:103CF000FB7DFA68DB00134408334FF000021A60C2
:103D0000FB7D0133FB75FB7D092BD6D900BF1C372A
:103D1000BD465DF8047B704780B586B000AF786023
:103D200087ED000A4FF00003FB604FF000037B615A
:103D30007B680433BB60BB68D3ED007A97ED007AF3
:103D4000B4EEE77AF1EE10FA03D8BB685B687B61EA
:103D500072E07B681B7803F10053013BDB00BA681B
:103D60001344D3ED007A97ED007AB4EEE77AF1EEE2
:103D700010FA0ADB7B681B7803F10053013BDB0080
:103D8000BA6813445B687B6156E00023FB744EE025
:103D9000FB7CDB00BA681344D3ED007A97ED007A20
:103DA000B4EEE77AF1EE10FA3EDDFB7C0133DB0086
:103DB000BA68134493ED017AFB7CDB00BA681344C4
:103DC000D3ED017A77EE676AFB7C0133DB00BA68DA
:103DD000134493ED007AFB7CDB00BA681344D3ED07
:103DE000007A77EE677AF0EE670AB0EE660AFFF7C0
:103DF00016FE87ED030AFB7CDB00BA68134493EDE3
:103E0000017AFB7CDB00BA681344D3ED007AD7ED6E
:103E1000006A76EEE76AD7ED037A66EEA77A77EE68
:103E2000277AC7ED057A07E0FB7C0133FB747B68DA
:103E30001B78FA7C9A42ABD37B6907EE903AB0EEDE
:103E4000670A1837BD4680BD80B483B000AF786084
:103E50007B68104A1A607B680F4ADA617B684FF012
:103E600080425A607B684FF080429A607B684FF0D6
:103E70008042DA607B68094A1A617B684FF08042B1
:103E80005A617B68064A9A6100BF0C37BD465DF8EF
:103E9000047B7047E024002017B751380000A04091
:103EA0000000FA4380B584B000AF78607B683E4A7A
:103EB0001A623D4BFB607868FFF7C6FF7B68DA68E3
:103EC000FB689A607B689A68FB685A607B68D3EDF0
:103ED000016A7B6893ED077AC6EE877AB6EE007AC0
:103EE00077EE877AC7ED027AD7ED027AFCEEE77AB1
:103EF00017EE902AFB685A627B68D3ED046A7B68F0
:103F000093ED077AC6EE877AC7ED027A7B68D3ED28
:103F1000066A97ED027AC6EE877AFB68C3ED047AEB
:103F20007B68D3ED056A7B6893ED077AC6EE877AE6
:103F3000B6EE007A77EE877AC7ED027AD7ED027A8D
:103F4000FCEEE77A17EE902AFB681A637B689A69A1
:103F5000FB681A627B681B68D3ED007A9FED137AC9
:103F600027EE877ADFED126AC7EE267AC7ED027A6E
:103F70007B6893ED077AD7ED027A67EE277AFB68C4
:103F8000C3ED057AFB684FF00002DA61FB684FF081
:103F900000029A61FB6800229A70FB6801225A7045
:103FA00000BF1037BD4680BD74240020DB0FC94020
:103FB0000000704280B584B000AF78607B681B6AF7
:103FC000FB60FB68002B06D0FB685B7883F0010385
:103FD000DBB2002B02D07868FFF764FFFB68012298
:103FE0001A7000BF1037BD4680BD80B584B000AFE9
:103FF00078607B681B6AFB60FB68002B02D07868E6
:1040000000F012F9FB6800221A7000BF1037BD469D
:1040100080BD80B588B000AF786187ED040AF96093
:10402000BA607B600023FB777B691B6ABB61BB695D
:104030001B78002B00F0E480BB699B78012B4FD0EC
:10404000022B00F09F80002B40F0D080BB695B6B9F
:104050005A1CBB695A63BB695A6BBB695B6A5B08D4
:104060009A4211D8BB6993ED017AD7ED047A67EED5
:10407000277AFB68C3ED007ABB684FF000021A6034
:10408000BB69674ADA6125E0BB695A6BBB695B6A49
:104090009A4219D8BB6993ED017AD7ED047A67EE9D
:1040A000277AFB68C3ED007ABB684FF000021A6004
:1040B000D7ED047AF1EE677A9FED5A7A67EE877A48
:1040C000BB69C3ED077A05E0BB6901229A70BB6941
:1040D00000225A63BB691C331846FFF7ACFD86E02B
:1040E000BB695B6B5A1CBB695A63BB695B6B07EEB0
:1040F000903AB8EE677ABB69D3ED047A67EE277A17
:10410000BB69C3ED067ABB6993ED087ABB69D3ED51
:10411000067AB4EEE77AF1EE10FA05D8BB69002210
:104120005A63BB6902229A70BB6993ED067AD7ED98
:10413000047A67EE277ABB69C3ED067ABB6993ED13
:10414000077ABB69D3ED066ABB69D3ED057A66EEE3
:10415000A77A77EE277ABB69C3ED077ABB691C3370
:104160001846FFF768FDBB684FF000021A60BB6994
:1041700093ED017AD7ED047A67EE277AFB68C3EDF9
:10418000007A34E0BB691A6BBB695B6B591CBB6975
:104190005963BB695B6B9A4204D8BB6900225A63BE
:1041A0000323FB77BB6993ED077ABB69D3ED066AFE
:1041B000BB69D3ED057A66EEA77A77EE277ABB69FD
:1041C000C3ED077ABB691C331846FFF734FDBB68A3
:1041D0004FF000021A60BB6993ED017AD7ED047AC3
:1041E00067EE277AFB68C3ED007A00E000BFBB6989
:1041F000DA697B681A60BB699A69BB6A1A600AE06F
:10420000786900F011F87B684FF000021A60BB6A11
:104210004FF000021A60FB7F18462037BD4680BD74
:10422000DB0F4940DB0FC93F80B485B000AF786039
:104230007B681B6AFB60FB6800229A70FB684FF08A
:1042400000029A61FB684FF00002DA61FB6800220D
:104250005A6300BF1437BD465DF8047B704700BF4A
:1042600080B485B000AF03463960FB710023FB7357
:104270000D4B1A6BFB79103322FA03F303F00103A1
:10428000002B09D10849FB793A6822F07F421C33A0
:1042900041F823200123FB73FB7B18461437BD46EE
:1042A0005DF8047B704700BF0060014180B500AF3E
:1042B00000F0C4FD03469BB2184680BD80B500AF38
:1042C0000B4B1B78002B08D10A48FCF7CBFE02F001
:1042D00045FC074B01221A7007E00648FCF706FF71
:1042E00002F050FC024B00221A7000BF80BD00BFDC
:1042F00098250020A822002080B500AF054B1B7830
:10430000002B04D10448FDF743F902F04FFC00BF35
:1043100080BD00BF98250020A822002080B500AFF6
:1043200002F08DFC03461A460A4B1A700A490948E6
:10433000FFF74DFC02F098FC03461A46074B1A7033
:1043400007490648FFF743FC0648FDF717F900BF89
:1043500080BD00BF80250020BD42000088250020D0
:10436000F9420000A822002080B500AF012000F033
:1043700085FC072000F05EFC124B1B6819461248B2
:1043800002F043FC012000F067FC02F02BFC0D4B17
:104390001B6819460D4802F045FC02F029FC02F0AA
:1043A0002EFC02F0EFFB0A4803F08CF8094802F0FB
:1043B00063F9094802F0ACFF0848FCF711FE00BFA2
:1043C00080BD00BF9425002009440000E1430000A7
:1043D000E0240020C4240020A0250020A8220020E2
:1043E00080B582B000AF786039600648FCF7F8FD10
:1043F00000F014F902F0C6FB02F0E6FB00BF08373C
:10440000BD4680BDA822002080B584B000AF034621
:104410003960FB71012000F031FC072000F00AFC3C
:1044200000F0ECFB03461A46104B1A8001F082F8AC
:1044300003461A460E4B1A800E4802F035F9034621
:10444000FB73FB7B032B05D10B4B1B6819460B48F9
:1044500002F0DBFB02F098FE072000F0EBFB0120EE
:1044600000F0FAFB00BF1037BD4680BDC02500201C
:10447000C2250020C424002094250020814400008F
:1044800080B586B000AF03463960FB71012000F0B3
:10449000F5FB072000F0CEFB00F0B0FB03461A4608
:1044A000454B1A8001F046F803461A46434B1A80E2
:1044B0004FF4C0510C2000F017FB4FF4C051022004
:1044C00000F0AEFF072000F0B5FB012000F0D6FBA6
:1044D00000F038FB3A4802F035F93A48FCF73EFE66
:1044E00007F10C0300221A609A80FFF7DFFE0346F3
:1044F000FB82354BB3F900309BB2FA8AD31A9BB2D8
:10450000BB81324BB3F900309BB2FA8AD31A9BB20B
:10451000FB812F4BB3F900309BB2FA8AD31A9BB2BE
:104520003B82BB8919460020FFF79AFE03467B7544
:10453000FB8919460120FFF793FE03461A467B7D4F
:1045400013407B753B8A19460220FFF789FE03461C
:104550001A467B7D13407B751E4802F0EFFE00F08B
:10456000E9FF03461A461C4B1A8000F047FB03463E
:104570001A461A4B1A804FF4C051002000F0B4FACA
:104580004FF4C051002000F04BFF072000F052FB19
:10459000012000F061FB02F0F7FD114B1B680133B5
:1045A0000F4A1360072000F045FB012000F054FB88
:1045B00000BF1837BD4680BDC0250020C2250020A1
:1045C000C4240020A8220020C8250020CA250020DD
:1045D000CC250020A0250020C4250020C6250020D1
:1045E0009025002080B582B000AF0A4B7B60D7EDEC
:1045F000017AFCEEE77A17EE902A074B1B689A4285
:1046000004D8054B00221A60FFF788FE00BF083768
:10461000BD4680BD0000A0419025002080B500AFC0
:10462000034802F0A9FE0348FCF7C7FF00BF80BDA6
:10463000A0250020A82200200123C3760023837632
:104640007047552903D0022901D0137070470348E1
:104650000170437004231370704700BFEC250020E5
:104660002DE9F84F04460025A04F00F11A0607E097
:104670005521217765776069036898470123A37600
:10468000E37E012B69D16069C3689847002864D034
:10469000A37E052B5ED801A252F823F071460000DC
:1046A000B5460000D1460000ED460000234700005B
:1046B00031470000217A237F0B4423776069036828
:1046C000984702233246217A2046FFF7BAFFD7E700
:1046D000217E237F0B442377606903689847032377
:1046E0003246217E2046FFF7ACFFC9E7627FE168D2
:1046F0008B5C207F0344237760690368895C98475B
:10470000617F4A1C237A9A42E068ACBF05230323E9
:104710003246415C2046FFF794FF637F01336377A5
:10472000AEE760690368294698477B78A376A7E7D8
:10473000237F552B0BD0022B09D060690368217FA2
:104740009847606943699847E576657698E7DB4363
:104750002377F2E7E576657692E700251327634E27
:1047600047E0552845D1552323770123637640E060
:10477000C0B1637A83420DD300F1550323772072D1
:1047800065770223224602F8193F01462046FFF7CB
:1047900058FF2EE06576E3681D7015212046FEF770
:1047A00047FF26E0657624E0237E834201D06576CC
:1047B0001FE0237F03442377032304F119020146FA
:1047C0002046FFF73EFF14E0237F03442377637FF7
:1047D000E268D054637F0133DBB26377227A9A4276
:1047E00094BF0523032304F1190201462046FFF775
:1047F00028FFE37E002B56D1606983689847002824
:1048000051D0606943689847637E052B49D801A25F
:1048100052F823F06347000071470000A9470000E9
:10482000C94700002D4800006548000010B97378A2
:104830006376DEE73378552B01D06576D9E7637A66
:10484000834207D300F15503237720726577022353
:104850006376CEE76576E3681D7015212046FEF786
:10486000E7FEC6E7237F552B09D0022B07D0237F15
:10487000834207D039462046FEF7DAFEB9E7DB432C
:104880002377F4E7E3681B781A2B05D8226952F8DE
:10489000233020469847ACE721212046FEF7C8FE8A
:1048A000A7E76576A5E7124B1B689A6A22B19B6A57
:1048B00093F84D30042B01D0BDE8F88F606903698F
:1048C00098470B4B1A68936A93F85C30043398420C
:1048D00007DB916A936AB1F85810B3F856309942E1
:1048E00008D2024A536801335360E5E7EC25002003
:1048F00000260020936A4FF00008A3F858806069F2
:1049000003680221984760692C4D2B689A6A0368F6
:1049100092F85C10984760690368217E9847606947
:104920002B689A6A036892F85A10984760692B6856
:104930009B6AB3F85A100368090A98472B68996A6A
:104940009A6A9B6A91F85C600236217E0E4492F866
:104950005A201644B3F85AB006EB1B265FFA86FBC2
:10496000C2462F4655464FEA88093B689B6A4B442E
:104970005B685E5D60690368314698475E445FFA34
:1049800086FB0135ADB23A68936A434493F824300C
:10499000AB42EAD808F101081FFA88F8936A93F845
:1049A00055304345DED8BBF1020F6069036814BF80
:1049B0005946FD219847BDE8F88F00BF002600202A
:1049C000C16042720376044B0360044B43600023D2
:1049D000C3764376704700BF614600003946000049
:1049E00080B400AF294B01221A8000BF274B1B6BFC
:1049F00003F00103012BF9D04FF080131B689B08D3
:104A00001BB203F007031AB24FF080131B681B0A96
:104A10009BB21B011BB203F070031BB213431AB20B
:104A20004FF080131B685B099BB21B021BB203F49F
:104A3000E0631BB213431AB2144B92B2A3F848209E
:104A4000124B4FF400721A80104B0322DA720F4B94
:104A500003221A720D4B4FF4C0529A800B4B002266
:104A6000DA800A4B072283F82E20084B012283F8B4
:104A70002D20064B02229A7000BF044B1B6B002BAB
:104A8000FBD100BFBD465DF8047B7047001C0043AE
:104A900080B400AF084B1B889BB2074A43F0020367
:104AA0009BB2138000BF044B1B6B002BFBD100BFDC
:104AB000BD465DF8047B7047001C004380B400AF26
:104AC000084B1B889BB2074A23F002039BB213805A
:104AD00000BF044B1B6B002BFBD100BFBD465DF834
:104AE000047B7047001C004380B485B000AF0346D0
:104AF0000A46FB711346BB80114B9B88FB81FB89E7
:104B000023F4F85323F01F03FB81FB799AB2BB888F
:104B100013439BB21AB2B7F90E3013431BB2FB8199
:104B2000074AFB89938000BF054B1B6B03F004030E
:104B3000042BF9D000BF1437BD465DF8047B7047E5
:104B4000001C004380B400AF0A4B1B7DDBB2094A56
:104B500043F00203DBB2137500BF064B1B6B03F47B
:104B60000063B3F5006FF8D000BFBD465DF8047B6D
:104B7000704700BF001C004380B483B000AF034601
:104B80000A46FB801346BB80084AFB889381074A8C
:104B9000BB88D38100BF054B1B6B002BFBD100BF33
:104BA0000C37BD465DF8047B704700BF001C004316
:104BB00080B483B000AF0346FB710F4BDB889BB220
:104BC0000D4A23F4E0639BB2D3800B4BDB889BB28E
:104BD0001AB2FB791B021BB213431AB2064B92B2F4
:104BE000DA8000BF044B1B6B002BFBD100BF0C37DE
:104BF000BD465DF8047B7047001C004380B400AFE5
:104C0000044BB3F840309BB21846BD465DF8047BB8
:104C1000704700BF001C004380B400AF044BB3F8E2
:104C200044309BB21846BD465DF8047B704700BF18
:104C3000001C004380B483B000AF0346FB71054AFB
:104C4000FB7982F82E3000BF0C37BD465DF8047B3F
:104C5000704700BF001C004380B483B000AF034620
:104C6000FB71054AFB7982F82D3000BF0C37BD4639
:104C70005DF8047B704700BF001C004380B483B024
:104C800000AF0346FB71054AFB7982F82C3000BF68
:104C90000C37BD465DF8047B704700BF001C004325
:104CA00080B483B000AF78603960064A7B681360D7
:104CB000044A3B68536000BF0C37BD465DF8047B77
:104CC000704700BFDC25002080B582B000AF0E4BDE
:104CD00093F82E30DBB203F00103FB710A4B012283
:104CE00083F82E20094B1B68002B08D0074B5B680C
:104CF0003B60064B1B68FA7939681046984700BF3D
:104D00000837BD4680BD00BF001C0043DC250020E5
:104D100080B400AF234B01221A6000BF214B9B6877
:104D200003F00103002BF9D11E4B4FF480521A609F
:104D30001C4B00225A611B4B5A691A491A4B1343E8
:104D40004B61184B0522DA63164B00225A64154B4F
:104D500000229A64134B0022DA64124B00221A6577
:104D6000104B00225A650F4B00229A650D4B40F202
:104D7000DC521A640B4B9B690A4A43F0FF039361B0
:104D8000084B4FF400429A62064B48F238121A62FE
:104D900000BF044B9B68002BFBD100BFBD465DF8F4
:104DA000047B704700600141000F262680B400AFED
:104DB000084B1B68074A43F00203136000BF054B12
:104DC0009B6803F00203002BF9D100BFBD465DF8DC
:104DD000047B70470060014180B400AF084B1B6842
:104DE000074A23F00203136000BF054B9B6803F0E2
:104DF0000203002BF9D100BFBD465DF8047B70476C
:104E00000060014180B485B000AF78600023FB737F
:104E1000094B1B6B03F08003002B06D1064A7B680D
:104E200023F07F43D3660123FB73FB7B18461437C3
:104E3000BD465DF8047B70470060014180B400AF5F
:104E400000BF074B9B6803F08003002BF9D1044B94
:104E50001B6C23F07F431846BD465DF8047B70470A
:104E60000060014180B483B000AF03460A46FB7185
:104E70001346BB710B4B5B690A4A9BB25361094BEA
:104E80005A69FB791906BB791B0403F47F030B43B2
:104E9000044913434B6100BF0C37BD465DF8047BEA
:104EA000704700BF0060014180B485B000AF034689
:104EB0000A46FB711346BB710023FB730C4B1B6B43
:104EC00003F02003002B0CD1FB799AB2BB799BB283
:104ED0001B029BB2064913439BB2A1F86430012325
:104EE000FB73FB7B18461437BD465DF8047B7047A7
:104EF0000060014180B400AF0E4B5B79DBB20D4A1C
:104F000063F07F03DBB2537100BF0A4B9B6803F071
:104F10000403042BF9D000BF064B5B79DBB203F02E
:104F2000E003002BF8D1034B5B6B1846BD465DF8E0
:104F3000047B70470060014180B483B000AF7860AB
:104F4000084A7B6823F07F43536300BF054B9B688F
:104F500003F01003002BF9D100BF0C37BD465DF8FC
:104F6000047B70470060014180B400AF094B5B795E
:104F7000DBB2084A43F06003DBB2537100BF054B5C
:104F80009B6803F00403002BF9D100BFBD465DF818
:104F9000047B70470060014180B400AF034B0122E5
:104FA0009A6200BFBD465DF8047B70470060014116
:104FB00080B400AF034B01225A6200BFBD465DF8CA
:104FC000047B70470060014180B483B000AF78601B
:104FD0003960064A7B681360044A3B68536000BF2F
:104FE0000C37BD465DF8047B704700BFE425002008
:104FF00080B582B000AF0D4B5B687B600C4BDB6A09
:105000009BB23B600A4B4FF6FF72DA62084BDB6AD9
:10501000064B1B68002B04D0044B1B68796838686A
:10502000984700BF0837BD4680BD00BFE42500207B
:1050300000600141F8B5C1688A78CB781B0403EBA6
:1050400002234A7813440A7903EB0263027A063A90
:10505000D2B24979B2FBF1F401FB142414F0FF0F32
:1050600009D1022925D0042909D0012936D01421DB
:10507000FEF7DEFAF8BD1421FEF7DAFAF8BD920861
:105080003BD0043B013A91B289000A310624C6683C
:1050900035196F78AA78120402EB0722365D324484
:1050A000ED7802EB056243F8042F0434A142EED1FF
:1050B00023E0520821D0023B013A92B25200093259
:1050C0000721C5686C1814F8014C6D5C04EB0524CD
:1050D00023F8024F02319142F3D10EE092B262B155
:1050E000591E013A13FA82F2C3F10703C4680C4453
:1050F000E45C01F8014F8A42F8D102230372C368CD
:1051000000225A7043689847F8BD70B5C26851795B
:105110008C1C437A9C4255DC9478D3781B0403EBB7
:10512000042354782344147903EB04639279022A0C
:1051300021D0042A03D0012A2FD0142143E08EB2BB
:105140000022002E36D0C46814441D68A570C468BF
:1051500014441D682D0AE570C46814445D882571E7
:10516000C468144453F8045B2D0E6571043292B286
:10517000B242E8D31EE08EB20022DEB1C46814440D
:105180001D88A570C468144433F8025B2D0AE570CD
:10519000023292B2B242F1D30CE08EB256B1013E6D
:1051A000B6B20336022213F8015BC468A55401327B
:1051B000B242F8D102310172C36800225A704368CA
:1051C000984770BD1521FEF733FA70BDF8B5064655
:1051D000C1688A78CB781B0403EB02234A78134416
:1051E0000A79120698189F5A204B1C6863681B881E
:1051F000BB422AD063681B8853B3002301339BB2A0
:10520000656803EB43024FEAC20E35F83250BD42E7
:1052100004D0656835F83220002AEFD1636833F88E
:105220000E30C3B16368327A053A9E44DEF810301E
:10523000D2B20531984798B902233372F36800223D
:105240005A70736830469847F8BD4FF0000EE5E796
:105250004FF0000EE2E741213046FEF7E9F9F8BDD4
:1052600014213046FEF7E4F9F8BD00BF0026002007
:10527000F8B50646C1688A78CB781B0403EB022395
:105280004A7813440A79120698189F5A1B4B1C68D7
:1052900063681B88BB4226D063681B8833B3002336
:1052A00001339BB2656803EB43024FEAC20E35F847
:1052B0003250BD4204D0656835F83220002AEFD163
:1052C000636833F80E30A3B163689E44DEF80C3097
:1052D0000231984702303072F36800225A707368C6
:1052E00030469847F8BD4FF0000EE9E74FF0000E4A
:1052F000E6E741213046FEF79BF9F8BD0026002085
:105300000369034A5A62034ADA61034A1A62704720
:105310000B51000071520000CD5100000369014A99
:105320009A6270473550000080B400AF254B0122CF
:105330001A8000BF234B1B6B03F00103012BF9D034
:105340004FF080131B681B0C1BB203F007031AB24B
:105350004FF080131B689B0D9BB21B011BB203F027
:1053600070031BB213431AB24FF080131B68DB0C9F
:105370009BB21B021BB203F4E0631BB213431AB2CD
:10538000104B92B2A3F848200E4B20221A800D4BEE
:105390000322DA720B4B03221A720A4B4FF4C052EB
:1053A0009A80084B0022DA80064B072283F82E20D1
:1053B00000BF044B1B6B002BFBD100BFBD465DF84B
:1053C000047B70470020004380B400AF084B1B886B
:1053D0009BB2074A43F002039BB2138000BF044B09
:1053E0001B6B002BFBD100BFBD465DF8047B7047F3
:1053F0000020004380B400AF084B1B889BB2074AD3
:1054000023F002039BB2138000BF044B1B6B002BE5
:10541000FBD100BFBD465DF8047B70470020004310
:1054200080B485B000AF03460A46FB711346BB80CB
:10543000114B9B88FB81FB8923F4F85323F01F0356
:10544000FB81FB799AB2BB8813439BB21AB2B7F9BE
:105450000E3013431BB2FB81074AFB89938000BFC8
:10546000054B1B6B03F00403042BF9D000BF14376A
:10547000BD465DF8047B70470020004380B400AF58
:105480000A4B1B7DDBB2094A43F00203DBB2137502
:1054900000BF064B1B6B03F40063B3F5006FF8D03D
:1054A00000BFBD465DF8047B704700BF002000438D
:1054B00080B483B000AF03460A46FB801346BB802E
:1054C000084AFB889381074ABB88D38100BF054BFC
:1054D0001B6B002BFBD100BF0C37BD465DF8047B76
:1054E000704700BF0020004380B483B000AF034684
:1054F000FB710F4BDB889BB20D4A23F4E0639BB238
:10550000D3800B4BDB889BB21AB2FB791B021BB218
:1055100013431AB2064B92B2DA8000BF044B1B6BE6
:10552000002BFBD100BF0C37BD465DF8047B7047F4
:105530000020004380B400AF044BB3F840309BB26E
:105540001846BD465DF8047B704700BF002000434D
:1055500080B400AF044BB3F844309BB21846BD464C
:105560005DF8047B704700BF0020004380B483B027
:1055700000AF0346FB71054AFB7982F82E3000BF6D
:105580000C37BD465DF8047B704700BF0020004328
:1055900080B483B000AF0346FB71054AFB7982F803
:1055A0002D3000BF0C37BD465DF8047B704700BF4F
:1055B0000020004380B483B000AF0346FB71054A6E
:1055C000FB7982F82C3000BF0C37BD465DF8047BB8
:1055D000704700BF0020004380B483B000AF0C4B85
:1055E00093F82E30DBB203F00103002B14BF01232C
:1055F0000023FB71FB79002B03D0054B012283F8BC
:105600002E20FB7918460C37BD465DF8047B7047A9
:105610000020004380B400AF404B012283F84220B9
:105620003E4B012283F848203C4B012283F84C205A
:105630003A4B012283F84D20384B012283F8522047
:10564000364B012283F83120344B012283F8342079
:10565000324B222283F83620304B062283F8392041
:105660002E4B4FF04062C3F880202C4B012283F870
:10567000C0202A4B012283F8C820284B002283F83F
:10568000DA20264B002283F8DB20244B012283F80A
:10569000B020224B012283F8B420204B002283F853
:1056A000BD201E4B012283F84A211C4B012283F8A6
:1056B0004B211A4B012283F84C21184B012283F80D
:1056C0004E21164B012283F84F21144B012283F8FF
:1056D0005021124B012283F85121104B552283F89F
:1056E00035210E4B052283F836210C4B552283F8C9
:1056F00037210A4B662283F83821084B022283F8AF
:10570000C821064B022283F8C921044B002283F8EA
:10571000B42100BFBD465DF8047B704700800041A6
:1057200080B483B000AF78607B681B6A18460C3782
:10573000BD465DF8047B704780B485B000AFF8606B
:10574000B9607A60FB681A69BB68DB4302EA03014F
:10575000BA687B681A40FB680A431A6100BF1437B5
:10576000BD465DF8047B704780B483B000AF7860BD
:105770007B681B6918460C37BD465DF8047B704793
:1057800080B483B000AF786039607B683A689A6112
:1057900000BF0C37BD465DF8047B704780B483B012
:1057A00000AF786039607B683A685A6100BF0C3797
:1057B000BD465DF8047B704780B483B000AF78606D
:1057C00039607B683A68DA6100BF0C37BD465DF826
:1057D000047B704780B483B000AF786039607B6829
:1057E0003A685A6000BF0C37BD465DF8047B7047CD
:1057F00080B483B000AF786039607B683A689A60A3
:1058000000BF0C37BD465DF8047B704780B487B09D
:1058100000AF03460A46FB8013467B717B793B61F0
:10582000FB885B099BB203F5020303F58073DB0180
:10583000FB60FB8803F01F03BB60FA68BB685B0872
:10584000134493F83030DBB27B61BB6803F0010393
:10585000002B07D07B6923F0F0023B691B01134347
:105860007B6105E07B6923F00F033A6913437B6199
:10587000FA68BB685B087969C9B213440A4683F8C1
:105880003020FA68BB68134440331B78DBB2FA68F7
:1058900043F00103D9B2BB68134440330A461A707F
:1058A00000BF1C37BD465DF8047B704780B485B0EF
:1058B00000AF0346FB80FB885B099BB203F5020344
:1058C00003F58073DB01FB60FB8803F01F03BB6003
:1058D000FA68BB68134440331B78DBB2FA6823F0E4
:1058E0000103D9B2BB68134440330A461A7000BFA3
:1058F0001437BD465DF8047B704700BF80B500AF2C
:10590000FFF79CFA03469BB2184680BD80B582B073
:1059100000AF78607B680D4A1A607B684FF0804268
:105920005A607B680A4A9A607B684FF08042DA606E
:105930007B68084A1A61FFF7E1FF03461A467B6855
:105940009A8200BF0837BD4680BD00BF17B75138E7
:105950000000FA430AD7A33C80B584B000AF78605A
:105960004FF00003FB600023BB607B68284A9A610C
:105970007B689B69BB607868FFF7C8FF7B68D3EDE5
:10598000016A7B6893ED007AC6EE877AC7ED037AE9
:10599000D7ED037AFCEEE77A17EE902ABB685A61DE
:1059A0007B689A68BB68DA617B68D3ED036A7B68C1
:1059B00093ED007AC6EE877AC7ED037AD7ED037AC6
:1059C000FCEEE77A17EE902ABB68DA627B68D3EDCB
:1059D000046A7B6893ED007AC6EE877AC7ED037A96
:1059E000D7ED037AFCEEE77A17EE902ABB685A638C
:1059F000BB685B6B5A08BB681A637B689A8ABB6892
:105A00001A87BB6801225A7000BF1037BD4680BD9F
:105A10003824002080B584B000AF78607B689B6933
:105A2000FB60FB68002B06D0FB685B7883F001030A
:105A3000DBB2002B02D07868FFF78EFFFB680122F3
:105A40001A7000BF1037BD4680BD80B584B000AF6E
:105A500078607B689B69FB60FB68002B02D07868EC
:105A600000F09FF8FB6800221A7000BF1037BD4697
:105A700080BD80B588B000AF786187ED040AC7EDBE
:105A8000030AB9607A603B600023FB777B699B69FE
:105A9000BB61BB691B78002B79D0BB699B78012B5C
:105AA00002D0022B38D077E097ED037AD7ED047A55
:105AB00027EE277ABB69D3ED077AB4EEE77AF1EEE9
:105AC00010FA0BDDBB695B685A1CBB695A60BB6985
:105AD0005B68C82B05D90123FB7702E0BB69002274
