:020000040000FA
:100000000002040000000000000900007608000063
:100010009608000040090000200900006209000065
:10002000B6080000620900006209000062090000D1
:100030006209000062090000620900006209000014
:100040006209000062090000620900006209000004
:1000500062090000620900006209000062090000F4
:1000600062090000620900006209000062090000E4
:1000700062090000620900006209000062090000D4
:1000800062090000620900006209000062090000C4
:1000900062090000620900006209000062090000B4
:1000A00062090000620900006209000062090000A4
:1000B0006209000062090000620900006209000094
:1000C0006209000062090000620900006209000084
:1000D0006209000062090000620900005008000087
:1000E0006209000062090000620900006209000064
:1000F0006209000062090000620900006209000054
:100100006209000062090000620900006209000043
:100110006209000062090000620900006209000033
:100120006209000062090000620900006209000023
:100130006209000062090000620900006209000013
:100140006209000062090000620900006209000003
:1001500062090000620900006209000062090000F3
:1001600062090000620900006209000062090000E3
:1001700062090000620900006209000062090000D3
:1001800062090000620900006209000062090000C3
:100190000607000062090000120800006209000062
:1001A0006209000096070000620900006209000071
:1001B0006209000062090000620900006209000093
:1001C0006209000062090000620900006209000083
:1001D0006209000062090000D40700006209000003
:1001E0006209000062090000620900006209000063
:1001F0006209000062090000620900006209000053
:100200006209000062090000620900006209000042
:100210006209000062090000620900006209000032
:100220006209000062090000620900006209000022
:100230006209000062090000620900006209000012
:100240006209000062090000620900006209000002
:1002500062090000620900006209000062090000F2
:1002600062090000620900006209000062090000E2
:1002700062090000620900006209000062090000D2
:1002800062090000620900006209000062090000C2
:1002900062090000620900006209000062090000B2
:1002A00062090000620900006209000062090000A2
:1002B0006209000062090000620900006209000092
:1002C0006209000062090000620900006209000082
:1002D0006209000062090000620900006209000072
:1002E0006209000062090000620900006209000062
:1002F0006209000062090000620900006209000052
:100300006209000062090000620900006209000041
:100310006209000062090000620900006209000031
:100320006209000062090000620900006209000021
:100330006209000062090000FFFFFF00FFFFFF00ED
:10034000FFFFFF00FFFFFF00FFFFFF00FFFFFF00B9
:10035000FFFFFF00FFFFFF00FFFFFF00FFFFFF00A9
:10036000FFFFFF00FFFFFF00FFFFFF00FFFFFF0099
:10037000FFFFFF00FFFFFF00FFFFFF00FFFFFF0089
:10038000FFFFFF00FFFFFF00FFFFFF00FFFFFF0079
:10039000FFFFFF00FFFFFF00FFFFFF00FFFFFF0069
:1003A000FFFFFF00FFFFFF00FFFFFF00FFFFFF0059
:1003B000FFFFFF00FFFFFF00FFFFFF00FFFFFF0049
:1003C000FFFFFF00FFFFFF00FFFFFF00FFFFFF0039
:1003D000FFFFFF00FFFFFF00FFFFFF00FFFFFF0029
:1003E000FFFFFF00FFFFFF00FFFFFF00FFFFFF0019
:1003F000FFFFFF00FFFFFF00FFFFFF00FFFFFF0009
:100400006FF522000EFF26000E018800000000009C
:10041000000020000000E000020032000001200087
:100420002002880014000700A80307000000E00075
:1004300003003A0060AD2A000100200002003700EE
:100440000000200001002000810F70000100320038
:100450000F000700000020000000E0000200320052
:100460000000020000000000A8B10200000000002F
:100470000040DA000000FE00C01724000000E00089
:1004800002003200002020009001880000000600D9
:10049000A1028800800478000000EB001F003700F4
:1004A000E284440054A0B4009905BA00E2844400F8
:1004B00054A0B4009906BA00E284440054A0B400E9
:1004C0000006EB00476FDE00FD07B200AE018800BA
:1004D000636CE10003003A000AD801000000EB0061
:1004E0000E003700606CE10008003A00004DEB00A0
:1004F0000A05E800020039003420EC000AF0A000F0
:100500008B05E900F9FF3E00040037006168E10057
:10051000010032000086EB000B00070019C7BA008B
:100520001905BA000E04E00003003A000A00E000DA
:10053000DBFF3A0000000600FE07B200AE028800B2
:100540008A047800F5FF37000CD0A300E20F4D00BD
:100550001C003B0089027800354DBA000A05E8000E
:10056000020039003420EC000AF0A0008B05E900FD
:100570000F003200254DBA000A05E80002003900DC
:100580003420EC000AF0A0008B05E90008003200DE
:100590000C00E0000600320015CDBA000A05E800A4
:1005A000020039003420EC000AF0A0008B05E900BD
:1005B0008984E80054A0B4000B00E000E2FF3A0098
:1005C000000006009902BA00055D78008B05E9007D
:1005D000F7FF3200C82ADE00055D78008B05E900D0
:1005E000F3FF32000C00E000F1FF320019DDBA0029
:1005F000EEFF3700C2B104000000000004A40400B4
:1006000000000000A2A4040000000000F2A3040007
:100610000000000090A40400000000000EA40400EC
:1006200000000000529F0400000000007C9F0400B6
:1006300000000000A69F040000000000CA9F040004
:100640000000000006A20400000000002AA204002E
:100650000000000054A304000000000028A00400D3
:10066000000000002EA1040000000000329E0400E3
:10067000000000003A9E040000000000429E0400BA
:10068000000000004A9E040000000000529E04008A
:10069000000000005A9E0400000000008A9E040032
:1006A00000000000E49E040000000000189F040009
:1006B00000000000209F040000000000289F0400AC
:1006C00000000000309F040000000000BEA30400F2
:1006D00000000000D6A3040000000000ECC50400E8
:1006E00000000000FAC5040000000000C0C50400BE
:1006F00000000000C8C5040000000000D0C50400D0
:100700000000000072C604000000000080C6040063
:100710000000000048C604000000000050C60400AD
:100720000000000058C604000000000030C60400AD
:10073000000000003EC604000000000004C60400E3
:10074000000000000CC604000000000014C60400F5
:10075000000000009A76040000000000B07404005D
:1007600000000000B4750400000000002E6A0400C0
:1007700000000000226A0400000000003A6A040041
:1007800000000000466A040000000000526A0400F5
:10079000000000005E6A04000000000078690400A8
:1007A000000000008C6A040000000000BA6A040027
:1007B00000000000186B040000000000466B0400FD
:1007C00000000000AA6B040000000000386C040068
:1007D00000000000B46C040000000000F66C04008F
:1007E000000000001C6D040000000000426D0400C9
:1007F00000000000686D0400000000008E6D040021
:1008000000000000BC6D040000000000EA6D040060
:1008100000000000246E040000000000526E04007E
:1008200000000000F66E0400000000003E700400AE
:10083000000000009A6F04000000000052690400EC
:10084000000000002C690400000000002872040071
:1008500000000000567204000000000084720400D2
:1008600000000000A871040000000000CE71040028
:10087000000000008A74040000000000B27204004E
:100880000000000028730400000000009E730400B4
:1008900000000000147404000000000088760400CA
:1008A00000000000A276040000000000E2B0040096
:1008B0000000000018B1040000000000D8AF0400E0
:1008C00000000000D0AF040000000000E0AF040012
:1008D00000000000F6AF040000000000FEAF0400BE
:1008E0000000000012B004000000000038B0040056
:1008F0000000000050B004000000000064B00400DC
:10090000000000006CB004000000000074B004009F
:10091000000000008AB004000000000092B0040053
:1009200000000000A6B0040000000000C4B00400F5
:1009300000000000DABC04000000000022A804004F
:100940000000000042A804000000000058A80400B5
:100950000000000076A80400000000008CA804003D
:1009600000000000A0A8040000000000C0A80400CF
:1009700000000000E2A8040000000000EAA8040053
:1009800000000000F2A804000000000018A9040004
:100990000000000030A9040000000000A2A904002B
:1009A00000000000B8A9040000000000D4A9040061
:1009B0000000000066AA04000000000048A904002E
:1009C0000000000030C20400000000003AC2040031
:1009D0000000000044C20400000000004EC20400F9
:1009E0000000000058C204000000000062C20400C1
:1009F000000000008E9704000000000066970400CD
:100A000000000000DA9D040000000000EA9D0400E0
:100A100000000000229E0400000000002085040069
:100A20000000000044880400000000008E870400DD
:100A300000000000E88104000000000010770400BE
:100A40000000000052770400000000000C81040048
:100A5000000000008A80040000000000C87B040041
:100A6000000000003C7D040000000000487E0400FF
:100A700000000000007B040000000000327A040047
:100A80000000000010C404000000000020C40400A6
:100A9000000000002CC404000000000038C4040062
:100AA0000000000004890400000000008AC6040061
:100AB0000000000094C6040000000000A8C6040066
:100AC00000000000C0C6040000000000DEBF0400FB
:100AD000000000001AC004000000000024C0040050
:100AE0000000000040C00400000000005CC00400E2
:100AF000000000001EB704000000000010B8040051
:100B0000000000002EB80400000000004AB80400F5
:100B10000000000066B804000000000048AE0400B9
:100B200000000000ECAE04000000000000AF040074
:100B30000000000040AF040000000000ACAF040063
:100B4000000000002EC804000000000036C80400A9
:100B5000000000000C89040000000000228904004D
:100B60000000000040C804000000000052C804005B
:100B7000000000005AC804000000000064C804001F
:100B80000000000096C3040000000000A6C304009B
:100B900000000000B0C3040000000000C4C3040053
:100BA00000000000D6C304000000000008C80400D4
:100BB0000000000012C80400000000001CC804006F
:100BC000000000007AC504000000000084C5040095
:100BD000000000009CC5040000000000B6C5040031
:100BE00000000000FEC60400000000000AC7040068
:100BF0000000000014C7040000000000A2AC0400C4
:100C000000000000C8AD040000000000D8AD0400E2
:100C100000000000F8AD0400000000001CAE04005D
:100C200000000000AEB504000000000088B604001B
:100C300000000000A6B6040000000000CEB60400CC
:100C400000000000FAB60400000000007AC10400B1
:100C50000000000094C10400000000009EC10400D8
:100C600000000000BEC1040000000000E2C104005A
:100C7000000000009EBE040000000000CEBE040084
:100C800000000000DCBE040000000000FCBE040008
:100C90000000000020BF040000000000AAA404001F
:100CA00000000000E2A604000000000032A70400DB
:100CB0000000000082A7040000000000E2A704007A
:100CC000000000008AB80400000000000AB9040017
:100CD000000000001EB90400000000004EB904002E
:100CE000000000008AB9040000000000E0BC04001D
:100CF0000000000056BD04000000000062BD0400BA
:100D0000000000008ABD040000000000BABD04001D
:100D10000000000094C4040000000000C0C40400EF
:100D200000000000CAC4040000000000D4BD04009C
:100D30000000000056BE04000000000066BE040073
:100D400000000000B6B904000000000054BA04001E
:100D50000000000072BA0400000000008EBA040017
:100D600000000000AABA0400000000005CC70400F4
:100D7000000000006EC704000000000078C70400F7
:100D800000000000C6B2040000000000C0B3040070
:100D900000000000D2B304000000000044C40400BE
:100DA0000000000070C40400000000007AC40400C9
:100DB000000000002EC704000000000040C704002F
:100DC000000000004AC70400000000006AC20400DE
:100DD00000000000AEC2040000000000B8C2040021
:100DE0000000000000550400000000002C54040026
:100DF000000000003858040000000000425A0400BF
:100E0000000000005C620400000000003600F800F2
:100E1000809FBE00829FBE00849FBE00869FBE0052
:100E20003200F8003400F80010002000A001880013
:100E30000020200000D0FE000200FA0000818000A7
:100E40000000E0000200320000818000000001008C
:100E50005140800000002800008060000000E00099
:100E60000A003200A1608000010F7800108180002C
:100E70000000E00004003200128180009E00780033
:100E80000000EB00020001000BE8A90061408000B7
:100E900000002100008060000000E0000A00320035
:100EA00071618000010F7800108180000000E00077
:100EB00004003200128180009E00780010002000A3
:100EC000020001000D88A9005140800000002100AF
:100ED000008060000000E0000A00320071608000C5
:100EE000010F7800108180000000E0000400320053
:100EF000128180009E007800200020000200010086
:100F00000B88A9000B48A9000080FA003400F90002
:100F10003200F9004F03BE004F02BE004F01BE0079
:100F20004F00BE003600F900004006003600F80011
:100F3000809FBE00829FBE00849FBE00869FBE0031
:100F40003200F8003400F80010002000A0018800F2
:100F50000020200000D0FE000200FA00A160800006
:100F6000010F7800108180000000E00004003200D2
:100F7000128180009E0078000000EB00020001005A
:100F80000BE8A9000080FA003400F9003200F900F3
:100F90004F03BE004F02BE004F01BE004F00BE0017
:100FA0003600F900004006003600F800809FBE00C1
:100FB000829FBE00849FBE00869FBE003200F80064
:100FC0003400F80010002000A0018800002020005C
:100FD00000D0FE000200FA0071618000010F78006D
:100FE000108180000000E0000400320012818000C7
:100FF0009E00780010002000020001000D88A9006A
:101000000080FA003400F9003200F9004F03BE00FE
:101010004F02BE004F01BE004F00BE003600F90077
:10102000004006003600F800809FBE00829FBE0090
:10103000849FBE00869FBE003200F8003400F80096
:1010400010002000A00188000020200000D0FE0039
:101050000200FA0071608000010F780010818000AA
:101060000000E00004003200128180009E00780041
:1010700020002000020001000B88A9000080FA0077
:101080003400F9003200F9004F03BE004F02BE00E9
:101090004F01BE004F00BE003600F90000400600C0
:1010A0003600F800809FBE00829FBE00849FBE0075
:1010B000869FBE000000FA00B08080000000E000C3
:1010C00002003200B08080000000010005A8A900E5
:1010D0000080FA004F03BE004F02BE004F01BE0069
:1010E0004F00BE003600F900004006003600F80050
:1010F000809FBE00829FBE00849FBE00869FBE0070
:101100000000FA00C068A900200020001B60070052
:101110000080FA004F03BE004F02BE004F01BE0028
:101120004F00BE003600F900004006003600F8000F
:10113000809FBE00829FBE00849FBE00869FBE002F
:101140000000FA00C608A900700020000B6007002C
:101150000080FA004F03BE004F02BE004F01BE00E8
:101160004F00BE003600F900004006003600F800CF
:10117000809FBE00829FBE00849FBE00869FBE00EF
:101180000000FA0020468000700060000000E000CF
:1011900003003200C488A900A0002000F75F070008
:1011A0002146800000102000008060000000E00068
:1011B00003003200C508A900C0002000EF5F07004F
:1011C0002146800000202000008060000000E00038
:1011D00003003200C528A900D0002000E75F070007
:1011E00020468000610060000000E0000300320043
:1011F000C408A900B0002000E05F0700FFFF37002F
:101200003600F800809FBE00829FBE00849FBE0013
:10121000869FBE000000FA00C028A9000000EB0075
:10122000D65F07000080FA004F03BE004F02BE00E9
:101230004F01BE004F00BE003600F900004006001E
:101240003600F800809FBE00829FBE00849FBE00D3
:10125000869FBE000000FA00C088A9003000200070
:10126000C65F07000080FA004F03BE004F02BE00B9
:101270004F01BE004F00BE003600F90000400600DE
:101280003600F800809FBE00829FBE00849FBE0093
:10129000869FBE000000FA00BF5F0700C048A9009B
:1012A00010002000B55F07000080FA004F03BE0069
:1012B0004F02BE004F01BE004F00BE003600F900D5
:1012C000004006000040DA000000FE0000000500BB
:1012D0008F1FD100180307008F87E9000000E0008E
:1012E00000000600809FEB00130307008F87E900D2
:1012F0000000E00000000600810378007200070093
:101300000001BE006000B8000478A30013003A009A
:101310006220E10015003E000D0039008301D1007C
:101320000281D3008180D3008301D1000281D300E8
:101330008180D3008301D1000281D3008180D3005A
:101340000538B000C42ADD00F300B20083817200CA
:1013500007F0A70003F0A0000000060083FF2700AD
:10136000020020006110B900F9FF370003FF2700D9
:10137000F7FF3700140020006A033700F4FF2F0046
:10138000680337000003BE004F0007006011B8007B
:101390000470A70007F0A1006509B1001B0032002E
:1013A00012003500860220000628E1000800350002
:1013B000F3FF2700F2FF2F006110B9000700E000E3
:1013C00018003B00030028006000B8000200050080
:1013D00000004000818048000201490083814900EB
:1013E0008502E900FAFF3A0008003700F88F420052
:1013F00002003C008000EB00000005008100D100ED
:101400000080D3008502E800FCFF3A000700E000FE
:1014100004003B0060001000E0801800600119002B
:10142000E0811900000006000001BE002600070050
:101430000470A70003F0A1006509B1001600320096
:101440000D0035006828E10006003500F0FF2F0090
:10145000F1FF27000300E00013003B00010028001B
:101460000000050000004000818048008502E9007E
:10147000FCFF3A0008003700F88F420002003C00F1
:101480008000EB00000005008100D1000080D30047
:101490008502E800FCFF3A000300E00002003B0088
:1014A00060001000E0801800000006004F89DE0098
:1014B00082017800360337006011B800440337001A
:1014C0006011B8006D033700C70ADE00F107B200F3
:1014D000F50FB20008003200E1CF420002003200F6
:1014E0000170A00024000500810F7000010032008F
:1014F0000408050044000500810F700002003A0056
:10150000140005008502E9000000400081C0480089
:10151000FCFF3B000170A000240005001400FA004D
:10152000889FBE008A9FBE008C9FBE000005BE0043
:101530000206BE00680047000C90BE000A90BE0084
:10154000B80207006400E1001A00320016003E00F5
:101550006100E1001A0032006E049000FE04900069
:101560000E0B90009E0B90006011B8009E0590003D
:101570000B38B100D5012000828171006101640047
:101580008703D1000683D3008984D3000884D30065
:101590008502E900F8FF3A00670307000DF0A70095
:1015A00001F0A000DA02370001FC27000000200053
:1015B000FAFF370001F8270000002000F7FF37008E
:1015C0006000B800F5FF37006022B8000602200076
:1015D0000000D0008180D2000482D2008582D20037
:1015E0000000A0000202520083825A000300310072
:1015F0000202420083824A000000A1000603E900C3
:10160000F3FF3A00000006008C9FBE008A9FBE00D8
:10161000889FBE00CA0007000B056D008A05780090
:101620000C40E10008003A000900E00082003A00A6
:101630000AF0A1000C047800F3012000F2FF2F0053
:101640006110B9007C0037000C48E10004003A004A
:10165000870007000900E00077003A00F4FF370038
:101660000800E000740032000900E00002003A00C7
:101670007F00070070003700ED3F20008D8454008C
:10168000090444008A1F7800881F7800871F7800AB
:10169000861F7800851F7800841F7800CB19DD0035
:1016A000C515DE008B8571004B11DD00450DDE0098
:1016B0000A057100CB08DD00C504DE0089847000D6
:1016C0004B04DD000440B8000546B8008C804000A3
:1016D00060814E00044EB8008C8040000D0149002E
:1016E0008001EB000318AD000456B8000C01410066
:1016F0008D8149000002EB000420AD000646B800D1
:101700000C0141008D81490060024A00054EB8007D
:101710000C0141008D81490060024A000556B80065
:101720008C8141000D024A008002EB000528AD00CB
:101730000746B8008C8141000D024A00E0824A0051
:10174000064EB8008C8141000D024A00E0824A003A
:101750004F0678000C5EB8008C8141000D024A00F3
:10176000E0824A000656B8000C0242008D824A0010
:101770000003EB000630AD00074EB8000C0242003B
:101780008D824A0060034B004F0678000C5EB80063
:101790000C0242008D824A0060034B000756B800DD
:1017A0008C8242000D034B008003EB000738AD0034
:1017B0004F0678000C5EB8008C8242000D034B008F
:1017C000E0834B004F0678000C5EB8000C0343002A
:1017D0008D834B004F0478004F0578000748A30025
:1017E0000A003A00000040008180480002014900E0
:1017F0008381490004024A0085824A0006034B00A7
:1018000087834B000804E900F4FF370003067800E3
:1018100080807000828070000100320061067600D6
:1018200087017800060178008500780004007800C0
:1018300088047800780037008D0037008C06460059
:1018400002003A000000A600000006006000480008
:10185000E080480060014900E08149000350A60093
:10186000000006008301D1000804E8000000060023
:101870000002FD008102FD000203FD008303FD0064
:101880008804FD008A05FD00000006007048E100A4
:101890001A0039007D0320000D48E1000A003900DC
:1018A00081057000830671008C8575008D8575003B
:1018B0000006EB001CD8E700610676006000B80067
:1018C0006011B800000006007048E1000B0039000C
:1018D0008C0578000006780001007800820078000E
:1018E000030178008001EB0013D8E7006106760061
:1018F000F0845400F4FF3A00000006006160E1004B
:101900000C48AD00F08514008B06DD000966DE0092
:101910000D0676008B0EDD000900DE000D00700064
:101920008B16DD008908DE008D8070008B1EDD00C7
:101930000911DE000D0171008919DE0000000600AA
:101940000D002800FC7F20000D856100441CDE0096
:10195000EF8161000C046400010032000340A0002C
:101960008D856300C43CDE00EF8363008C846400DB
:10197000010032000740A0000C40E10006003A00E0
:10198000EF8661008286760081867600808676000A
:1019900001003200180037000C48E10007003A004F
:1019A000EF866300868676008586760084867600DC
:1019B00002003200AEFF07000F0037000348A3000B
:1019C00005003A00810670008286760083867600E4
:1019D000010032000804E8000748A30005003A00AF
:1019E00085067200868676008786760001003200C2
:1019F0008904E80000000600CF047800CF057800D5
:101A00001B00370000027800810278000203780092
:101A100083037800880478000CF0A70087FF070094
:101A2000FD7F20000D40E100040035000D0478002A
:101A30006000B8006011B8000D0037000800E00039
:101A40000B003C0004007800850078000601780057
:101A500087017800E18414008CFF07000CF0A700D8
:101A600076FF07000004EB000340A7000804E8002D
:101A70004444DD006FC56100880175004F04BE005D
:101A80004F05BE004F06BE0000000600038368003D
:101A90000700280007036300470ADE000480A10056
:101AA000C71ADE000580A100F70F20000720E10023
:101AB000420032000728E10040003200889FBE004B
:101AC0008A9FBE008C1F7800F107B200F307B200B6
:101AD0000400E000640032000170A0000500E00096
:101AE000680032000370A00085054200EB07B100DA
:101AF0000204B8000302B8008484440060854A00F0
:101B0000020AB800848444000A854A00030AB80027
:101B100004054500040033000804D0008984D20085
:101B20000A85D2008B05E9006158E1003D003500CF
:101B30000210200009016100030820008981610072
:101B4000F70720008783640008867300C84CDE0016
:101B5000C853DD00878474004855DE000300E000B0
:101B60000600320082037600040032008904E80097
:101B700060054D000A88A3000C003A00F70F200012
:101B80000758E10044003D000A70A100C75DDD0078
:101B90000A8575008A007300090078004F067800F6
:101BA0004F05BE004F04BE00000006000A05D1002C
:101BB0008984D3008B05E800F0FF3700881F780088
:101BC0000604780090000700070278000001FD007D
:101BD0008101FD008C0007008702780085037200F8
:101BE0000778A300050032000001FD008101FD001F
:101BF0009F0007004F047800000006008503720074
:101C00000748A30003003200F0FF2F00F1FF270078
:101C1000F8FF37000000200001F8270088807000DE
:101C2000F4FF3700880178004848DD0080817100AA
:101C30004848DE00C850DD0001007000C850DE00DA
:101C4000060478000B0178001600070088807000F9
:101C5000D2FF37000500E000050032001700200029
:101C60003A0007009DFF370081037000F9FF3A003A
:101C7000860078004F0678004F05BE004F04BE0076
:101C80000000050083037100F9FF320027002000E7
:101C90002E00070094FF370001F8270086807000AF
:101CA000F4FF37000100E00026003200610111005E
:101CB0007810E10023003C006022B8007010E100C1
:101CC0000400350080027800010078008000EB00FD
:101CD000700151000200E00009003400700311009F
:101CE000062ADD00822ADE008603DD00878272007C
:101CF0000200DE00860BDD00070070008208DE00B7
:101D000084817100F4FF27000482620084817100E5
:101D100004002800848262006102600005F0A600D1
:101D20000000060004827100070032000000E80095
:101D3000E0804800000006000002BE006000B8001D
:101D4000EFFF37006000B80000000600889FBE006B
:101D50000004EB006138E10016003A000100E000E9
:101D600008003A00C800DE004800DD0088002000BE
:101D70000100E00003003A00C800DE004800DD007A
:101D8000680444008184CF00E984540006003400D4
:101D90008908DD00F08314008703DE00878070006F
:101DA0000900DD0009044400610214004F04BE0074
:101DB000000006000300E00008003A00C811DE0041
:101DC0004811DD00880020000300E00003003A0015
:101DD000C811DE004811DD00680444008384CF0090
:101DE000E9845400060034008919DD00F0831400F2
:101DF0008713DE00878171000911DD0009044400AA
:101E0000E1021400E9FF37002700200001F0A700DD
:101E100017002000470BDE00F60FB200040032006E
:101E20000643E8000A0032004702B3000000060043
:101E300001037800F607B2000603700002003A00C2
:101E40000703B300000006008702B300000006008D
:101E500001037800F607B2000603700002003200AA
:101E60000770A000000006000760A0000000060048
:101E70000478A300040032000578A30003003200B8
:101E80000168A30001003A000200BE000160A0004A
:101E900000000600889FBE008A9FBE008C1F78004D
:101EA0000006EB00E00F5000E08F5800E00F5900F3
:101EB000E08F590007003D006044B8006055B8004D
:101EC0000000540081805C0002015D0083815D00A0
:101ED0001C002000E00F5200E08F5A00E00F5B0072
:101EE000E08F5B0007003D006044B8006055B8001B
:101EF0000402540085825C0006035D0087835D0058
:101F00000C00A2003A0107000C00E00006003200BD
:101F10006022B8006033B8000000520081805A008F
:101F200002015B0083815B004F0678004F05BE0015
:101F30004F04BE0000000600889FBE008A9FBE00BE
:101F40008C9FBE000404BE000605BE00809FBE003C
:101F5000829FBE0021000700040678000800BE0032
:101F60000A01BE001D000700840678004F03BE0072
:101F70004F02BE008D4F76007FB0970013003300F4
:101F8000F0FF2F008B8F6B0006003B000D066600F4
:101F90000C00A7000A00370007F0A6001000200080
:101FA0000A003700880F5200898F5A008A0F5B00A1
:101FB0008B8F5B00030039001000200001003E0001
:101FC0000000200007F0A7000000EA004F06BE0056
:101FD0004F05BE004F04BE000000060005FF2700AD
:101FE00005826100070032000428E1000100320090
:101FF000240005000600070001003A004400050027
:102000000408050002000700F9FF3A00140005006B
:102010006F8261008102700085027100850272008A
:1020200000000600800078005002BE005003BE0091
:102030004439DE00F700B200F37F200003016100A5
:10204000090032000218E10016003A008501720012
:1020500083017300838173000008200015003A009B
:1020600040002000130037008501720083017300D7
:102070008381730005003A0004A8BE0006A8BE00D4
:10208000100020000B0037000201E90004024200AA
:1020900085824A0006034B0087834B000748A30054
:1020A000F9FF32000740A00004A8BE0006A8BE0049
:1020B0002000200080009800920098000000060098
:1020C000680447000294BE000094BE00FC04470070
:1020D0008694BE008494BE0009007800D1FF0700FA
:1020E00008007800CFFF070099007800814F70004A
:1020F0000B003B000800BE000B0107004F00B100C1
:1021000003003700F3FF2700F2FF2F006110B90032
:102110004F06BE004F05BE004F04BE000080FA000F
:1021200000000600889FBE008A9FBE00841F7800C2
:10213000A70007004F00780011003300F0FF2F00C8
:10214000838F6C0006003B00040565000A00A700B1
:102150000800370009F0A600100020000800370032
:10216000820F5400838F5C000300390010002000B0
:1021700001003E000000200009F0A7000000EA0076
:102180004F05BE004F04BE000000E0000000060046
:10219000881F7800030478000300E00007003D007A
:1021A00060001000E080180060011900E081190053
:1021B00002003B0001F02D00030037002F00070054
:1021C00008F0A70001F0A0004F047800000006000E
:1021D000889FBE00008270000402710004827100BA
:1021E0002400320036432000C50020008383CF0046
:1021F0000A0039000541B1008283CF000700390091
:102200000541B1008183CF00040039000541B100D0
:102210008083CF00010039000541B10085C3530020
:102220006022B800120032000A003B008482720073
:10223000610260008301D1000281D3008180D3005C
:102240000080D3000603E8008743E800F7FF3A0068
:10225000070037000000400081804800020149006B
:10226000838149000603E9008743E900F9FF3A004A
:10227000810007004F04BE0000000600889FBE00DA
:102280008A9FBE0000827000040271000482710007
:10229000260032000004BE000200BE006011B8003B
:1022A0006B092000950220000182CF000A0039004E
:1022B0000541B1000082CF00070039000541B1009F
:1022C0000982CF00040039000541B1000882CF0027
:1022D000010039000541B1000542520012003200F0
:1022E0000A003B0082817100610164008100D1001D
:1022F0000080D3008984D3000884D3008B05E800D4
:102300000442E800F7FF3A000700370008044400E1
:1023100089844C0000004800818048008B05E9005A
:102320000442E900F9FF3A00030007004F05BE0030
:102330004F04BE00000006008100200061805500AF
:102340000B003D000B00200061FE2F000100E100AA
:102350001D00340082817100610164008904D10094
:102360000884D3000000E800FAFF3A007100200062
:102370006100640003007000020060000900320088
:1023800061044400E0844C000988A5000500320087
:102390008B05E8006808E10002003A008904D100DA
:1023A0000884D300F20F20000258E10005003D0030
:1023B000C75DDD00F907B20089807500080078006C
:1023C000000006000BF827008B00780000000500D5
:1023D0000004BE003CFC07000003BE000405BE0074
:1023E0000200BE0038FC0700844F750000000600A4
:1023F000889FBE008A9FBE008C9FBE000404B80068
:102400000506B8008904460060854E000606B8003F
:102410000A054600E0854E000706B8008B05460019
:10242000040EB800890446000A854E00E0854D0080
:10243000050EB8000A0546008B854E00060EB80052
:102440008B0546000416B8000A0546008B854E0031
:102450000516B8008B054600041EB8008B05460023
:102460000800BE000A01BE004F06BE004F05BE00B8
:102470004F04BE0000000600180020005700200096
:10248000080453000D003D000600200097FC2F00BB
:102490000740E1001E003400848272006102600087
:1024A0008301D1000281D3008180D3000080D3005A
:1024B0000804E800F8FF3A004700200061046000CB
:1024C00005047400040464000D0032006100400043
:1024D000E080480060014900E081490003B8A500A0
:1024E000070032000603E8006538E10004003A0006
:1024F0008301D1000281D3008180D3000080D3000A
:10250000F87F20000830E100030035000803780060
:102510006000B8006011B8004433DD00F300B20081
:102520008301730000000600E48240001078A300DD
:1025300007003200640240001178A3003400BE009E
:102540001401BE00040032000330A70000000600A2
:102550003500BE001501BE000330A00000000600DB
:1025600000030000060900000C1000001316000014
:10257000191C00001F220000252800002B2E00003F
:1025800031330000363900003C3F00004144000078
:10259000474900004C4E00005153000055580000C0
:1025A0005A5C00005E600000626400006668000023
:1025B0006A6B00006D6F00007071000073740000A2
:1025C00075760000787900007A7A00007B7C000044
:1025D0007D7D00007E7E00007E7F00007F7F00000A
:1025E0007F7F00007F7F00007E7E00007E7D0000F8
:1025F0007D7C00007B7A00007A790000787600000C
:102600007574000073710000706F00006D6B000046
:102610006A68000066640000626000005E5C0000A2
:102620005A58000055530000514E00004C4900001C
:1026300047440000413F00003C39000036330000B1
:10264000312E00002B280000252200001F1C000056
:1026500019160000131000000C090000060300000A
:1026600000FD0000FAF70000F4F00000EDEA0000C1
:10267000E7E40000E1DE0000DBD80000D5D2000076
:10268000CFCD0000CAC70000C4C10000BFBC00001D
:10269000B9B70000B4B20000AFAD0000ABA80000B5
:1026A000A6A40000A2A000009E9C00009A98000032
:1026B0009695000093910000908F00008D8C000093
:1026C0008B8A0000888700008686000085840000D1
:1026D00083830000828200008281000081810000EB
:1026E00081810000818100008282000082830000DD
:1026F000838400008586000086870000888A0000A9
:102700008B8C00008D8F000090910000939500004D
:10271000969800009A9C00009EA00000A2A40000D1
:10272000A6A80000ABAD0000AFB20000B4B7000037
:10273000B9BC0000BFC10000C4C70000CACD000082
:10274000CFD20000D5D80000DBDE0000E1E40000BD
:10275000E7EA0000EDF00000F4F70000FAFD0000E9
:1027600000000000000000002403000048060000F4
:102770006A0900008C0C0000AB0F0000C8120000BA
:10278000E2150000F91800000B1C00001A1F0000E1
:102790002322000028250000262800001F2B00000F
:1027A000112E0000FB300000DF330000BA360000BD
:1027B0008C390000563C0000173F0000CE4100005D
:1027C0007A4400001C470000B44900003F4C000060
:1027D000BF4E0000335100009B530000F555000030
:1027E00042580000825A0000B35C0000D75E00002F
:1027F000EB600000F1620000E8640000CF660000BA
:10280000A66800006D6A0000236C0000C96D00001E
:102810005E6F0000E270000054720000B5730000AB
:1028200004750000417600006B770000847800009A
:10283000897900007C7A00005C7B0000297C000024
:10284000E37C0000897D00001D7E00009C7E00006E
:10285000097F0000617F0000A67F0000D87F000094
:10286000F57F0000FF7F0000F57F0000D87F0000AB
:10287000A67F0000617F0000097F00009C7E0000B1
:102880001D7E0000897D0000E37C0000297C0000A3
:102890005C7B00007C7A000089790000847800006D
:1028A0006B7700004176000004750000B5730000EE
:1028B00054720000E27000005E6F0000C96D0000FD
:1028C000236C00006D6A0000A6680000CF6600005F
:1028D000E8640000F1620000EB600000D75E0000D9
:1028E000B35C0000825A000042580000F555000019
:1028F0009B53000033510000BF4E00003F4C0000CE
:10290000B44900001C4700007A440000CE4100009A
:10291000173F0000563C00008C390000BA3600001A
:10292000DF330000FB300000112E00001F2B0000E1
:102930002628000028250000232200001A1F00007E
:102940000B1C0000F9180000E2150000C81200007E
:10295000AB0F00008C0C00006A0900004806000064
:102960002403000000000000DCFC0000B8F90000B7
:1029700096F6000074F3000055F0000038ED0000FA
:102980001EEA000007E70000F5E30000E6E00000B3
:10299000DDDD0000D8DA0000DAD70000E1D4000065
:1029A000EFD1000005CF000021CC000046C9000097
:1029B00074C60000AAC30000E9C0000032BE0000D7
:1029C00086BB0000E4B800004CB60000C1B30000B4
:1029D00041B10000CDAE000065AC00000BAA0000C4
:1029E000BEA700007EA500004DA3000029A10000A5
:1029F000159F00000F9D0000189B000031990000FA
:102A00005A97000093950000DD9300003792000074
:102A1000A29000001E8F0000AC8D00004B8C0000C7
:102A2000FC8A0000BF890000958800007C870000B8
:102A30007786000084850000A4840000D78300000E
:102A40001D83000077820000E381000064810000A4
:102A5000F78000009F8000005A800000288000005E
:102A60000B800000018000000B8000002880000027
:102A70005A8000009F800000F78000006481000001
:102A8000E3810000778200001D830000D7830000EF
:102A9000A484000084850000778600007C87000005
:102AA00095880000BF890000FC8A00004B8C000064
:102AB000AC8D00001E8F0000A29000003792000035
:102AC000DD930000939500005A97000031990000B3
:102AD000189B00000F9D0000159F000029A1000019
:102AE0004DA300007EA50000BEA700000BAA0000B9
:102AF00065AC0000CDAE000041B10000C1B30000E4
:102B00004CB60000E4B8000086BB000032BE0000F6
:102B1000E9C00000AAC3000074C6000046C9000056
:102B200021CC000005CF0000EFD10000E1D400006F
:102B3000DAD70000D8DA0000DDDD0000E6E00000B2
:102B4000F5E3000007E700001EEA000038ED000092
:102B500055F0000074F3000096F60000B8F900008C
:102B6000DCFC00000000000000000000000000008D
:102B7000BF2A0000240300007CD9000047060000A3
:102B8000499000006A0900005ED300008B0C000031
:102B90002B270000AB0F00006E100000C8120000D1
:102BA00044140000E21500003CB80000F8180000D2
:102BB0006A8200000B1C00007BF90000191F000056
:102BC000C5A40000232200005D0C000028250000A1
:102BD00028B9000026280000EB3400001F2B00005D
:102BE000620A0000112E00004DC50000FB300000FD
:102BF00087F20000DE33000013200000BA36000028
:102C000032DD00008C39000070BA0000563C000034
:102C1000B7490000173F0000641E0000CE410000CD
:102C200050CD00007A440000E6EC00001C47000094
:102C300033150000B4490000F3DF00003F4C0000F2
:102C4000A4E80000BF4E000094CC00003351000007
:102C5000EF2A00009B530000D2A40000F5550000AD
:102C600054DD00004258000099790000825A0000AB
:102C7000DF200000B45C0000897C0000D75E00000B
:102C80002F380000EC600000AC010000F262000090
:102C900025890000E86400001F810000CF66000065
:102CA000809E0000A6680000A39800006D6A0000E6
:102CB0005F290000246C0000140D0000CA6D0000A4
:102CC000B10200005F6F0000C5CB0000E2700000A1
:102CD000842C000055720000D0EB0000B57300009A
:102CE00044D30000047500003CAF000041760000B2
:102CF000DA4E00006C770000138400008478000036
:102D0000B02300008A7900005A0500007D7A000097
:102D10009D0300005D7B0000EDFB0000297C0000AE
:102D2000B1CE0000E37C00003F5F00008A7D000020
:102D3000E99300001D7E0000FB5500009D7E000011
:102D4000C3910000097F00008E360000627F000002
:102D5000B3360000A77F00008D870000D87F0000F9
:102D600081210000F67F0000FFFF0000FF7F0000D0
:102D700081210000F67F00008D870000D87F0000D1
:102D8000B3360000A77F00008E360000627F00008F
:102D9000C3910000097F0000FB5500009D7E0000EC
:102DA000E99300001D7E00003F5F00008A7D000067
:102DB000B1CE0000E37C0000EDFB0000297C0000A8
:102DC0009D0300005D7B00005A0500007D7A000035
:102DD000B02300008A79000013840000847800008A
:102DE000DA4E00006C7700003CAF00004176000036
:102DF00044D3000004750000D0EB0000B573000060
:102E0000842C000055720000C5CB0000E270000069
:102E1000B10200005F6F0000140D0000CA6D0000D9
:102E20005F290000246C0000A39800006D6A000078
:102E3000809E0000A66800001F810000CF66000091
:102E400025890000E8640000AC010000F262000087
:102E50002F380000EC600000897C0000D75E000085
:102E6000DF200000B45C000099790000825A000065
:102E700054DD000042580000D2A40000F5550000C7
:102E8000EF2A00009B53000094CC00003351000057
:102E9000A4E80000BF4E0000F3DF00003F4C00003C
:102EA00033150000B4490000E6EC00001C470000A8
:102EB00050CD00007A440000641E0000CE410000A6
:102EC000B7490000173F000070BA0000563C0000F0
:102ED00032DD00008C39000013200000BA360000FB
:102EE00087F20000DE3300004DC50000FB3000001B
:102EF000620A0000112E0000EB3400001F2B0000BE
:102F000028B90000262800005D0C000028250000DC
:102F1000C5A40000232200007BF90000191F000057
:102F20006A8200000B1C00003CB80000F81800008A
:102F300044140000E21500006E100000C8120000EA
:102F40002B270000AB0F00005ED300008B0C0000AD
:102F5000499000006A0900007CD900004706000083
:102F6000BF2A000024030000000000000000000051
:102F700041D50000DBFC000084260000B8F9000009
:102F8000B76F000095F60000A22C000074F300005B
:102F9000D5D8000054F0000092EF000037ED00009B
:102FA000BCEB00001DEA0000C447000007E700007A
:102FB000967D0000F4E3000085060000E6E00000D6
:102FC0003B5B0000DCDD0000A3F30000D7DA00006B
:102FD000D8460000D9D7000015CB0000E0D400008F
:102FE0009EF50000EED10000B33A000004CF0000CF
:102FF000790D000021CC0000EDDF000045C9000084
:10300000CE22000073C6000090450000A9C3000056
:1030100049B60000E8C000009CE1000031BE00009D
:10302000B032000085BB00001A130000E3B80000B6
:10303000CDEA00004BB600000D200000C0B3000038
:103040005C17000040B100006C330000CCAE000003
:1030500011D5000064AC00002E5B00000AAA00003D
:10306000AC220000BDA70000678600007DA500001F
:1030700021DF00004BA300007783000028A100009F
:10308000D1C70000139F000054FE00000D9D0000FA
:10309000DB760000179B0000E17E00003099000005
:1030A00080610000599700005D6700009295000064
:1030B000A1D60000DB930000ECF200003592000086
:1030C0004FFD0000A09000003B3400001D8F000069
:1030D0007CD30000AA8D0000301400004A8C000050
:1030E000BC2C0000FB8A0000C4500000BE89000018
:1030F00026B1000093880000ED7B00007B87000074
:1031000050DC000075860000A6FA000082850000F1
:1031100063FC0000A284000013040000D6830000BA
:103120004F3100001C830000C1A000007582000028
:10313000176C0000E281000005AA00006281000017
:103140003D6E0000F680000072C900009D80000006
:103150004DC90000588000007378000027800000EF
:103160007FDE0000098000000100000000800000F8
:103170007FDE0000098000007378000027800000D7
:103180004DC900005880000072C900009D800000F9
:103190003D6E0000F680000005AA0000628100007C
:1031A000176C0000E2810000C1A0000075820000E1
:1031B0004F3100001C83000013040000D683000080
:1031C00063FC0000A2840000A6FA000082850000D3
:1031D00050DC000075860000ED7B00007B8700005E
:1031E00026B1000093880000C4500000BE89000092
:1031F000BC2C0000FB8A0000301400004A8C000048
:103200007CD30000AA8D00003B3400001D8F00001D
:103210004FFD0000A0900000ECF20000359200008D
:10322000A1D60000DB9300005D67000092950000CE
:103230008061000059970000E17E00003099000095
:10324000DB760000179B000054FE00000D9D00007F
:10325000D1C70000139F00007783000028A1000061
:1032600021DF00004BA30000678600007DA5000061
:10327000AC220000BDA700002E5B00000AAA0000DF
:1032800011D5000064AC00006C330000CCAE00002F
:103290005C17000040B100000D200000C0B300002A
:1032A000CDEA00004BB600001A130000E3B800009E
:1032B000B032000085BB00009CE1000031BE000080
:1032C00049B60000E8C0000090450000A9C3000016
:1032D000CE22000073C60000EDDF000045C90000EB
:1032E000790D000021CC0000B33A000004CF0000AB
:1032F0009EF50000EED1000015CB0000E0D40000E8
:10330000D8460000D9D70000A3F30000D7DA0000A8
:103310003B5B0000DCDD000085060000E6E000000D
:10332000967D0000F4E30000C447000007E70000BA
:10333000BCEB00001DEA000092EF000037ED00003A
:10334000D5D8000054F00000A22C000074F3000057
:10335000B76F000095F6000084260000B8F9000061
:1033600041D50000DBFC0000000000000000000070
:103370000000000000000000010100000101000049
:10338000010100000202000002020000020200002F
:103390000303000003030000030300000404000013
:1033A00004040000040400000405000005050000FA
:1033B00005050000050600000606000006060000E0
:1033C00006070000070700000707000007080000C5
:1033D00008080000080800000808000009090000AB
:1033E00009090000090900000A0A00000A0A000091
:1033F0000A0A00000B0B00000B0B00000B0B000077
:103400000C0C00000C0C00000C0C00000D0D00005A
:103410000D0D00000D0D00000E0E00000E0E000040
:103420000E0E00000F0F00000F0F00000F0F000026
:103430001010000010100000101100001111000009
:1034400011110000111200001212000012120000EF
:1034500012130000131300001313000014140000D3
:1034600014140000141400001515000015150000B8
:10347000151600001616000016160000161700009C
:103480001717000017170000181800001818000080
:103490001819000019190000191900001A1A000063
:1034A0001A1A00001A1A00001B1B00001B1B000048
:1034B0001C1C00001C1C00001C1D00001D1D000029
:1034C0001D1D00001E1E00001E1E00001E1F00000D
:1034D0001F1F00001F2000002020000020200000EF
:1034E00021210000212100002222000022220000D0
:1034F00023230000232300002424000024240000B0
:10350000252500002525000026260000262600008F
:10351000272700002727000028280000282900006E
:10352000292900002A2A00002A2A00002B2B00004B
:103530002B2C00002C2C00002D2D00002D2E000027
:103540002E2F00002F2F00003030000031310000FE
:1035500032320000323300003334000035350000D1
:103560003636000037380000393A00003B3C000096
:103570004000000000000000290000005100000091
:103580007A000000A3000000CC000000F40000005E
:103590001D010000460100006F01000098010000BD
:1035A000C0010000E9010000120200003B0200001F
:1035B000640200008C020000B5020000DE02000080
:1035C00007030000300300005903000081030000DE
:1035D000AA030000D3030000FC0300002504000040
:1035E0004E04000077040000A0040000C90400009D
:1035F000F20400001B050000440500006D050000FA
:1036000097050000C0050000E90500001206000053
:103610003B060000640600008E060000B7060000AE
:10362000E00600000A070000330700005C07000006
:1036300086070000AF070000D9070000020800005D
:103640002C080000560800007F080000A9080000B0
:10365000D3080000FC080000260900005009000003
:103660007A090000A4090000CE090000F709000053
:10367000210A00004C0A0000760A0000A00A00009F
:10368000CA0A0000F40A00001F0B0000490B0000EA
:10369000730B00009E0B0000C80B0000F30B000032
:1036A0001D0C0000480C0000730C00009D0C000075
:1036B000C80C0000F30C00001E0D0000490D0000B6
:1036C000740D00009F0D0000CA0D0000F50D0000F4
:1036D000210E00004C0E0000780E0000A30E00002A
:1036E000CF0E0000FA0E0000260F0000520F00005F
:1036F0007D0F0000A90F0000D50F00000110000091
:103700002E1000005A10000086100000B3100000B8
:10371000DF1000000C1100003811000065110000DE
:1037200092110000BF110000EC11000019120000FE
:103730004612000073120000A0120000CE1200001A
:10374000FB1200002913000057130000851300002E
:10375000B3130000E11300000F1400003D1400003B
:103760006C1400009A140000C9140000F714000043
:10377000261500005515000084150000B415000042
:10378000E315000013160000421600007216000038
:10379000A2160000D2160000021700003217000027
:1037A0006317000093170000C4170000F51700000E
:1037B000261800005718000089180000BA180000E9
:1037C000EC1800001E1900005019000082190000BA
:1037D000B4190000E7190000191A00004C1A000083
:1037E0007F1A0000B31A0000E61A00001A1B00003E
:1037F0004E1B0000821B0000B61B0000EB1B0000EC
:103800001F1C0000541C00008A1C0000BF1C00008C
:10381000F51C00002A1D0000611D0000971D00001E
:10382000CE1D0000041E00003C1E0000731E0000A0
:10383000AB1E0000E31E00001B1F0000531F000012
:103840008C1F0000C51F0000FF1F00003920000072
:1038500073200000AD200000E820000023210000BC
:103860005F2100009A210000D721000013220000F0
:10387000502200008E220000CB2200000A2300000C
:103880004823000087230000C7230000072400000E
:103890004824000089240000CA2400000C250000F0
:1038A0004F25000092250000D62500001A260000B2
:1038B0005F260000A4260000EB260000322700004F
:1038C00079270000C12700000B28000054280000C1
:1038D0009F280000EB280000372900008429000001
:1038E000D2290000212A0000722A0000C32A000009
:1038F000152B0000692B0000BE2B0000142C0000CB
:103900006B2C0000C42C00001E2D00007A2D00003E
:10391000D82D0000372E0000992E0000FC2E00004C
:10392000622F0000CA2F000034300000A1300000D8
:103930001131000085310000FC31000077320000B9
:10394000F63200007A3300000334000093340000A4
:103950002A350000CA350000733600002937000000
:10396000EF370000CA380000C2390000E73A000013
:10397000663C000000400000000000000000000065
:1039800068BE000028000000F87C00005100000024
:10399000DA3B00007A00000036FB0000A2000000C5
:1039A00035BB0000CB000000007C0000F4000000EC
:1039B000C03D00001D0100009D0000004601000008
:1039C000C1C400006E010000548A0000970100008D
:1039D0007F510000C00100006C1A0000E9010000E6
:1039E00043E50000110200002FB200003A0200007F
:1039F0005781000063020000E55200008C020000C5
:103A000003270000B5020000DBFD0000DD0200001E
:103A100095D70000060300005CB400002F030000EF
:103A20005994000058030000B7770000810300009C
:103A30009F5E0000AA0300003B490000D303000082
:103A4000B7370000FC0300003C2A000025040000FA
:103A5000F42000004E0400000C1C0000770400005D
:103A6000AD1B0000A004000003200000C9040000FA
:103A700038290000F2040000793700001B0500001F
:103A8000F24A000044050000CC6300006D05000010
:103A900036820000960500005BA60000BF0500000E
:103AA00067D00000E8050000870000001206000053
:103AB000E83600003B060000B77300006406000013
:103AC00021B700008D06000054010000B706000079
:103AD0007E520000E0060000CDAA000009070000A9
:103AE0006F0A000033070000937100005C070000BC
:103AF00067E00000850700001C570000AF070000CA
:103B0000E0D50000D8070000E45C000002080000D7
:103B100057EC00002B0800006B84000055080000E3
:103B20004F2500007F08000036CF0000A8080000E5
:103B300050820000D2080000CF3E0000FC080000C8
:103B4000E704000026090000C9D400004F09000066
:103B5000A8AE000079090000B9920000A309000096
:103B60002E810000CD0900003C7A0000F70900001A
:103B7000197E0000210A0000F88C00004B0A0000AA
:103B800010A70000750A000097CC00009F0A0000F3
:103B9000C4FD0000C90A0000CC3A0000F40A00008D
:103BA000E98300001E0B000052D90000480B000002
:103BB0003F3B0000730B0000EBA900009D0B0000D1
:103BC0008E250000C80B000062AE0000F20B000062
:103BD000A44400001D0C00008EE80000470C00000B
:103BE0005B9A0000720C00004A5A00009D0C000015
:103BF00097280000C80C000080050000F30C0000AE
:103C000043F100001D0D000021EC0000480D0000F4
:103C100059F60000730D00002C1000009F0D0000ED
:103C2000DB390000CA0D0000A8730000F50D00008C
:103C3000D7BD0000200E0000AB1800004C0E0000A5
:103C400069840000770E000056010000A30E0000FA
:103C5000B98F0000CE0E0000D82F0000FA0E000031
:103C6000FBE10000250F00006CA60000510F0000D2
:103C7000757D00007D0F00005F670000A90F000048
:103C800077640000D50F00000A75000001100000E5
:103C9000659900002D100000D7D1000059100000D8
:103CA000B11E00008610000042800000B21000002B
:103CB000DEF60000DE100000D78200000B110000CD
:103CC000822400003811000035DC0000641100007F
:103CD00046AA0000911100000E8F0000BE110000E6
:103CE000E68A0000EB1100002A9E00001812000076
:103CF00035C9000045120000640C0000731200007A
:103D000018680000A0120000B1DC0000CD12000015
:103D1000906A0000FB1200001A1200002913000034
:103D2000B4D3000056130000C5AF00008413000098
:103D3000B4A60000B2130000EEB80000E0130000CB
:103D4000DDE600000E140000F03000003D1400001D
:103D5000979700006B140000431B00009A140000AA
:103D600068BC0000C81400007D7B0000F714000050
:103D7000F9580000261500005555000055150000A3
:103D80001071000084150000A6AC0000B3150000FF
:103D90009A080000E31500006E850000121600006E
:103DA000A823000042160000D1E3000071160000B5
:103DB00074C60000A11600001FCC0000D116000040
:103DC00062F5000001170000D14200003217000028
:103DD00002B5000062170000904C0000931700002D
:103DE000150A0000C417000033EE0000F4170000AD
:103DF0008DF9000025180000CA2C0000571800009B
:103E00009388000088180000980D0000BA18000080
:103E100089BC0000EB1800001E9600001D19000070
:103E20000F9B00004F1900001ACC00008119000000
:103E3000032A0000B419000090B50000E619000044
:103E40008D6F0000191A0000C95800004C1A0000BC
:103E50001C7200007F1A00005EBC0000B21A000055
:103E600070380000E61A000037E70000191B000058
:103E70009FC900004D1B000098E00000811B00005E
:103E80001A2D0000B61B000023B00000EA1B000042
:103E9000B66A00001F1C0000DE5D0000541C00001C
:103EA000AF8A0000891C000041F20000BE1C000027
:103EB000B7950000F41C0000397600002A1D0000B0
:103EC000F9940000601D000033F30000961D00000F
:103ED00029920000CD1D000028730000041E000080
:103EE000889700003B1E0000A9000000731E000020
:103EF000F7AF0000AA1E0000E9A60000E21E0000C5
:103F000001E700001A1F0000CF710000531F0000DE
:103F1000ED4800008C1F0000046E0000C51F00006B
:103F2000CBE20000FE1F000008A9000038200000BE
:103F30008EC200007220000042310000AD2000005F
:103F400019F70000E72000001B16000023210000E5
:103F5000619000005E210000176800009A210000B7
:103F60007F9F0000D6210000F038000013220000DF
:103F7000D836000050220000BD9B00008D220000BA
:103F80003C6A0000CB22000011A5000009230000BC
:103F9000104F0000482300002D6B00008723000015
:103FA0007BFC0000C6230000300600000724000050
:103FB000A38B0000472400005290000088240000DA
:103FC000E4170000CA240000292600000C25000088
:103FD0001FBF00004E250000F4E600009125000000
:103FE0000CA20000D525000000F5000019260000F5
:103FF000A6E400005E26000011760000A426000062
:104000009AAE0000EA260000E49300003127000089
:10401000E02B000079270000D47C0000C1270000BD
:10402000628D00000A2800009164000054280000FE
:10403000D10900009F28000009850000EA2800003F
:10404000A1DE000036290000891F0000842900003D
:104050004C510000D2290000197E0000212A0000E6
:10406000D8B00000712A000038F50000C22A000014
:10407000C9570000152B000010E60000682B000057
:10408000A2AE0000BD2B000046C10000132C0000B2
:10409000182F00006B2C0000B00A0000C42C000098
:1040A000556800001E2D0000375E00007A2D0000CC
:1040B000AB040000D82D000080760000372E0000F1
:1040C00059D10000982E00001D360000FC2E000083
:1040D0007FC90000612F0000A2B40000C92F0000BA
:1040E000DF25000034300000C8510000A13000007E
:1040F000587400001131000088D2000084310000A3
:104100004EBC0000FB3100003A8F00007632000008
:10411000EEB90000F5320000D9C00000793300008C
:10412000B444000003340000CB0B000093340000C3
:10413000870F00002A3500000D910000C9350000EE
:10414000E239000073360000A25200002937000057
:1041500036250000EF3700002CBE0000C9380000F3
:10416000109E0000C1390000365A0000E73A0000F6
:1041700096C60000653C0000000000000040000002
:1041800040400000404000003F3F00003F3F000033
:104190003F3F00003E3E00003E3E00003E3E00002D
:1041A0003D3D00003D3D00003D3D00003C3C000029
:1041B0003C3C00003C3C00003C3B00003B3B000022
:1041C0003B3B00003B3A00003A3A00003A3A00001C
:1041D0003A39000039390000393900003938000017
:1041E0003838000038380000383800003737000011
:1041F000373700003737000036360000363600000B
:104200003636000035350000353500003535000004
:104210003434000034340000343400003333000000
:1042200033330000333300003232000032320000FA
:1042300032320000313100003131000031310000F4
:104240003030000030300000302F00002F2F0000F1
:104250002F2F00002F2E00002E2E00002E2E0000EB
:104260002E2D00002D2D00002D2D00002C2C0000E7
:104270002C2C00002C2C00002B2B00002B2B0000E2
:104280002B2A00002A2A00002A2A00002A290000DE
:1042900029290000292900002828000028280000DA
:1042A00028270000272700002727000026260000D7
:1042B00026260000262600002525000025250000D2
:1042C00024240000242400002423000023230000D1
:1042D00023230000222200002222000022210000CD
:1042E00021210000212000002020000020200000CB
:1042F0001F1F00001F1F00001E1E00001E1E0000CA
:104300001D1D00001D1D00001C1C00001C1C0000C9
:104310001B1B00001B1B00001A1A00001A1A0000C9
:1043200019190000191900001818000018170000CA
:1043300017170000161600001616000015150000CD
:1043400015140000141400001313000013120000D1
:104350001211000011110000101000000F0F0000DA
:104360000E0E00000E0D00000D0C00000B0B0000E7
:104370000A0A000009080000070600000504000002
:104380000000000000400000D73F0000AF3F0000E9
:10439000863F00005D3F0000343F00000C3F0000FE
:1043A000E33E0000BA3E0000913E0000683E00007F
:1043B000403E0000173E0000EE3D0000C53D0000FD
:1043C0009C3D0000743D00004B3D0000223D00007C
:1043D000F93C0000D03C0000A73C00007F3C0000FE
:1043E000563C00002D3C0000043C0000DB3B00007C
:1043F000B23B0000893B0000603B0000373B0000FF
:104400000E3B0000E53A0000BC3A0000933A000081
:10441000693A0000403A0000173A0000EE39000007
:10442000C53900009C39000072390000493900008C
:1044300020390000F6380000CD380000A438000014
:104440007A3800005138000027380000FE3700009D
:10445000D4370000AA37000081370000573700002A
:104460002D37000004370000DA360000B0360000B7
:10447000863600005C360000323600000936000047
:10448000DF350000B43500008A35000060350000DB
:10449000363500000C350000E1340000B734000070
:1044A0008D34000062340000383400000D34000008
:1044B000E3330000B83300008D33000063330000A5
:1044C000383300000D330000E2320000B732000044
:1044D0008C32000061320000363200000B320000E6
:1044E000DF310000B4310000883100005D31000090
:1044F0003131000006310000DA300000AE3000003B
:1045000083300000573000002B300000FF2F0000E8
:10451000D22F0000A62F00007A2F00004D2F0000A0
:10452000212F0000F42E0000C82E00009B2E00005A
:104530006E2E0000412E0000142E0000E72D00001A
:10454000BA2D00008D2D0000602D0000322D0000DE
:10455000052D0000D72C0000A92C00007B2C0000AA
:104560004D2C00001F2C0000F12B0000C32B00007D
:10457000942B0000662B0000372B0000092B000055
:10458000DA2A0000AB2A00007C2A00004C2A000036
:104590001D2A0000ED290000BE2900008E29000020
:1045A0005E2900002E290000FE280000CE28000011
:1045B0009D2800006D2800003C2800000B2800000A
:1045C000DA270000A927000077270000462700000F
:1045D00014270000E2260000B02600007E2600001E
:1045E0004C26000019260000E7250000B425000035
:1045F000812500004D2500001A250000E62400005A
:10460000B22400007E2400004A240000152400008B
:10461000E1230000AC2300007623000041230000CA
:104620000B230000D62200009F2200006922000018
:1046300032220000FC210000C42100008D21000076
:10464000552100001D210000E5200000AD200000E4
:10465000742000003B20000001200000C71F000064
:104660008D1F0000531F0000181F0000DD1E0000FA
:10467000A11E0000661E0000291E0000ED1D0000A6
:10468000B01D0000721D0000351D0000F61C00006A
:10469000B81C0000791C0000391C0000F91B000048
:1046A000B81B0000771B0000361B0000F41A000046
:1046B000B11A00006E1A00002A1A0000E619000064
:1046C000A11900005C19000015190000CE180000A7
:1046D000871800003F180000F5170000AC17000015
:1046E0006117000015170000C91600007C160000B5
:1046F0002E160000DF1500008E1500003D1500008D
:10470000EB1400009714000042140000EC130000AA
:10471000951300003C130000E21200008612000016
:1047200028120000C91100006711000004110000E8
:104730009E10000036100000CC0F00005F0F00003C
:10474000EF0E00007B0E0000040E0000890D00003B
:104750000A0D0000860C0000FD0B00006D0B000030
:10476000D60A0000360A00008D090000D7080000B4
:1047700011080000360700003E0600001905000081
:104780009A0300000000000000000000004000004C
:1047900098410000D73F000008830000AE3F0000B2
:1047A00026C40000853F0000CA0400005D3F0000F1
:1047B000CB440000343F0000008400000B3F0000A9
:1047C00040C20000E23E000063FF0000B93E00006E
:1047D0003F3B0000913E0000AC750000683E0000C9
:1047E00081AE00003F3E000094E50000163E000050
:1047F000BD1A0000EE3D0000D14D0000C53D000097
:10480000A97E00009C3D00001BAD0000733D000030
:10481000FDD800004A3D000025020000223D0000B6
:104820006B280000F93C0000A44B0000D03C0000C5
:10483000A76B0000A73C0000498800007E3C0000F8
:1048400061A10000553C0000C5B600002C3C0000F2
:1048500049C80000033C0000C4D50000DA3B00005A
:104860000CDF0000B13B0000F4E30000883B0000D7
:1048700053E400005F3B0000FDDF0000363B00001A
:10488000C8D600000D3B000087C80000E43A0000D5
:104890000EB50000BB3A0000349C0000923A0000C4
:1048A000CA7D0000693A0000A5590000403A0000A6
:1048B000992F0000173A000079FF0000ED39000041
:1048C00018C90000C4390000498C00009B39000061
:1048D000DF48000072390000ACFE000048390000DB
:1048E00082AD00001F39000033550000F63800008B
:1048F00091F50000CC3800006D8E0000A338000058
:10490000991F00007A380000E4A800005038000029
:10491000202A0000273800001CA30000FD370000FB
:10492000A9130000D4370000957B0000AA370000CF
:10493000B1DA000080370000CA30000057370000AD
:10494000B07D00002D37000031C1000003370000AA
:1049500019FB0000D9360000372B0000B0360000EC
:104960005851000086360000476D00005C3600009C
:10497000D27E000032360000C485000008360000F8
:10498000E7810000DE35000008730000B435000048
:10499000F05800008A3500006933000060350000DF
:1049A0003C0200003635000034C500000B35000025
:1049B000177C0000E1340000AE260000B734000090
:1049C000C1C400008C3400001556000062340000A1
:1049D00072DA0000373400009E5100000D340000F0
:1049E0005CBB0000E233000072170000B833000027
:1049F000A56500008D330000B6A5000062330000FD
:104A000069D700003733000080FA00000C33000043
:104A1000BD0E0000E2320000DF130000B7320000DC
:104A2000A70900008C320000D4EF000060320000C3
:104A300025C6000035320000588C00000A32000004
:104A400029420000DF31000055E70000B3310000CB
:104A5000977B000088310000AAFE00005C31000056
:104A6000477000003131000028D0000005310000FF
:104A7000051E0000DA30000094590000AE3000003E
:104A80008B82000082300000A198000056300000A8
:104A9000899B00002A300000F68A0000FE2F0000EB
:104AA0009B660000D22F0000292E0000A62F0000D8
:104AB0004FE10000792F0000BE7F00004D2F000065
:104AC00022090000212F0000297D0000F42E0000A3
:104AD0007EDB0000C72E0000CB2300009B2E0000D1
:104AE000BA5500006E2E0000F2700000412E00004A
:104AF0001A750000142E0000D6610000E72D00009A
:104B0000CB360000BA2D00009CF300008C2D000075
:104B1000E89700005F2D00004F230000322D0000B9
:104B200070950000042D0000E6ED0000D62C00007A
:104B30004C2C0000A92C00003B5000007B2C0000F6
:104B40004C5900004D2C0000124700001F2C0000A3
:104B500023190000F12B000010CF0000C22B000031
:104B600069680000942B0000BDE40000652B000084
:104B700098430000372B000083840000082B0000BE
:104B800007A70000D92A0000ABAA0000AA2A00004B
:104B9000F08E00007B2A00005A5300004C2A0000CF
:104BA00066F700001C2A0000927A0000ED29000040
:104BB00058DC0000BD2900002F1C00008E290000D9
:104BC0008C3900005E290000E13300002E2900002E
:104BD0009E0A0000FE2800002FBD0000CD28000026
:104BE000FE4A00009D28000070B300006C28000001
:104BF000EBF500003B280000CD1100000B28000061
:104C000073060000DA27000036D30000A827000052
:104C10006D7700007727000068F20000452700004C
:104C20007743000014270000E2690000E22600003C
:104C3000F1640000B0260000E63300007E2600008C
:104C4000FDD500004B260000704A00001926000028
:104C500073900000E625000037A70000B325000090
:104C6000E48D000080250000A24300004D250000D7
:104C700090C7000019250000C9180000E6240000B4
:104C800061360000B2240000681F00007E2400008E
:104C9000E6D2000049240000DD4F0000152400008A
:104CA0004A950000E023000022A20000AB23000090
:104CB0005175000076230000BF0D00004123000065
:104CC000496A00000B230000C7890000D5220000BC
:104CD000076B00009F220000CD0C0000692200003D
:104CE000D76D000032220000D88C0000FB210000AC
:104CF00078680000C421000057FF00008C210000EC
:104D00000950000055210000175900001D21000026
:104D1000FF180000E5200000318E0000AC200000EC
:104D200013B7000073200000FC9100003A2000003F
:104D3000351D000001200000F8560000C71F0000CC
:104D4000723D00008D1F0000BECE0000521F00000B
:104D5000E7080000181F0000E5E90000DC1E000065
:104D60009F6F0000A11E0000E9970000651E000073
:104D700081600000291E000010C70000EC1D00002B
:104D800028C90000AF1D000043640000721D000030
:104D9000C4950000341D0000EF5A0000F61C00000E
:104DA000F0B00000B71C0000D3940000781C000095
:104DB00085030000391C0000D0F90000F81B00003A
:104DC0005D740000B81B0000AE6F0000771B000090
:104DD0001CE80000351B0000D7D90000F31A0000C2
:104DE000E1400000B11A00000C1900006E1A00002A
:104DF000F45D00002A1A0000000B0000E619000014
:104E00005A1B0000A1190000EF8900005B19000087
:104E100066510000151900001C6C0000CE1800003F
:104E200020D40000861800002C8300003E180000EB
:104E30009E720000F51700006F9B0000AB1700008A
:104E40002FF6000060170000F77A00001517000029
:104E50005F210000C916000077E000007B1600000B
:104E6000B4AE00002D160000E7810000DE15000042
:104E7000284F00008E150000C80A00003D150000F4
:104E800037A80000EA140000F01900009714000091
:104E90005E51000042140000BA3E0000EC13000016
:104EA000E8D000009413000050F500003B13000010
:104EB000AB970000E1120000C9A1000085120000BC
:104EC00055FB00002712000080890000C811000077
:104ED000A72E000067110000E3C9000003110000C5
:104EE000813600009E1000005E4B0000361000006E
:104EF00021DA0000CB0F000038AE00005E0F00008A
:104F0000A88B0000EE0E0000782D00007B0E000044
:104F1000B2430000040E0000C6700000890D0000BE
:104F2000124600000A0D0000273F0000860C00001A
:104F30004CBB0000FC0B000035F400006C0B0000C3
:104F400079F00000D50A0000F36E0000360A000078
:104F50001EC600008C0900005EAD0000D6080000EF
:104F6000CADA000010080000D44100003607000033
:104F7000F06100003E060000CAA500001805000010
:104F80006A3900009A0300000000000000000000E1
:104F9000000B000010140000171900001C1E000078
:104FA0002022000024260000272900002A2C0000CF
:104FB0002D2F000030310000333400003536000062
:104FC000373900003A3B00003C3D00003E3F000006
:104FD00040410000424300004445000046470000B5
:104FE00048480000494A00004B4C00004D4E00006C
:104FF0004E4F000050510000525200005354000028
:10500000555500005657000058580000595A0000E6
:105010005B5B00005C5D00005D5E00005F5F0000A8
:10502000606100006162000063630000646500006D
:10503000656600006667000068680000696A000035
:105040006A6B00006B6C00006D6D00006E6E0000FE
:105050006F6F0000707100007172000072730000C9
:105060007374000074750000767600007777000096
:1050700078780000797900007A7A00007B7B000064
:105080007C7C00007D7D00007E7E00007F7F000034
:105090007F7F00007F7E00007E7D00007D7C000021
:1050A0007C7B00007B7A00007A7900007978000030
:1050B0007877000077760000767500007474000041
:1050C000737300007272000071710000706F000055
:1050D0006F6E00006E6D00006D6C00006B6B000069
:1050E0006A6A000069680000686700006666000080
:1050F0006565000064630000636200006161000098
:10510000605F00005F5E00005D5D00005C5B0000B2
:105110005B5A0000595800005857000056550000CF
:10512000555400005352000052510000504F0000EF
:105130004E4E00004D4C00004B4A00004948000014
:10514000484700004645000044430000424100003B
:10515000403F00003E3D00003C3B00003A3900006B
:10516000373600003534000033310000302F0000A6
:105170002D2C00002A2900002726000024220000F0
:10518000201E00001C19000017140000100B000066
:105190000000000000000000500B000000100000A4
:1051A00099130000A11600004C190000B61B000066
:1051B000EF1D000000200000F1210000C7230000C7
:1051C0008625000031270000CB280000552A00006A
:1051D000D12B0000412D0000A62E00000030000061
:1051E0005131000099320000D93300001135000020
:1051F000423600006D37000092380000B0390000E0
:10520000CA3A0000DE3B0000ED3C0000F83D000023
:10521000FE3E000000400000FE400000F84100009B
:10522000EF420000E2430000D2440000BE4500000F
:10523000A74600008E470000714800005249000058
:10524000304A00000C4B0000E54B0000BC4C000055
:10525000904D0000624E0000324F000000500000F0
:10526000CC500000965100005D5200002353000016
:10527000E8530000AA5400006B5500002A560000B5
:10528000E7560000A35700005D58000016590000C3
:10529000CD590000825A0000375B0000EA5B000035
:1052A0009B5C00004C5D0000FB5D0000A85E000000
:1052B000555F000000600000AA600000536100001C
:1052C000FB610000A162000047630000EC63000086
:1052D0008F64000031650000D36500007366000034
:1052E00013670000B16700004F680000EB68000022
:1052F00087690000226A0000BC6A0000556B00004C
:10530000ED6B0000846C00001B6D0000B16D0000AF
:10531000466E0000DA6E00006D6F00000070000045
:105320009270000023710000B4710000437200000D
:10533000D272000061730000EE7300007B74000005
:1053400008750000937500001E760000A976000025
:1053500033770000BC77000044780000CC78000070
:1053600053790000DA790000607A0000E67A0000E4
:105370006B7B0000EF7B0000737C0000F77C00007B
:105380007A7D0000FC7D00007E7E0000FF7E000034
:10539000807F0000FF7F0000807F0000FF7E000014
:1053A0007E7E0000FC7D00007A7D0000F77C00001E
:1053B000737C0000EF7B00006B7B0000E67A00004E
:1053C000607A0000DA79000053790000CC780000A0
:1053D00044780000BC77000033770000A976000015
:1053E0001E76000093750000087500007B740000B5
:1053F000EE73000061730000D2720000437200007F
:10540000B471000023710000927000000070000071
:105410006D6F0000DA6E0000466E0000B16D000096
:105420001B6D0000846C0000ED6B0000556B0000EC
:10543000BC6A0000226A000087690000EB68000077
:105440004F680000B167000013670000736600003A
:10545000D3650000316500008F640000EC6300003C
:1054600047630000A1620000FB610000536100007F
:10547000AA60000000600000555F0000A85E000008
:10548000FB5D00004C5D00009B5C0000EA5B0000DF
:10549000375B0000825A0000CD5900001659000009
:1054A0005D580000A3570000E75600002A56000090
:1054B0006B550000AA540000E8530000235300007D
:1054C0005D52000096510000CC50000000500000DA
:1054D000324F0000624E0000904D0000BC4C0000B6
:1054E000E54B00000C4B0000304A00005249000020
:1054F000714800008E470000A7460000BE4500002E
:10550000D2440000E2430000EF420000F8410000F6
:10551000FE40000000400000FE3E0000F83D00009C
:10552000ED3C0000DE3B0000CA3A0000B03900004C
:10553000923800006D37000042360000113500003F
:10554000D9330000993200005131000000300000D2
:10555000A62E0000412D0000D12B0000552A00008E
:10556000CB2800003127000086250000C72300005B
:10557000F121000000200000EF1D0000B61B00001C
:105580004C190000A1160000991300000010000043
:10559000500B0000000000000000000000000000B0
:1055A000334F0000500B000000000000001000000E
:1055B000148E000098130000669E0000A0160000E4
:1055C0003B5800004C190000E87A0000B61B0000B0
:1055D00011EA0000EE1D00000000000000200000A5
:1055E0009AED0000F021000037EF0000C623000014
:1055F000B3F8000085250000281C000031270000BA
:10560000BECA0000CA28000054FF0000542A00004F
:10561000A45B0000D12B0000CD3C0000412D000018
:105620001BCA0000A52E0000000000000030000092
:105630004AB800005031000076B0000098320000F7
:10564000948E0000D833000028E5000010350000DB
:105650003936000042360000D1F500006C370000FA
:10566000008C00009138000089560000B03900001D
:105670003CAA0000C93A000023D40000DD3B000032
:10568000731A0000ED3C000063BD0000F73D000010
:10569000D7F70000FD3E00000000000000400000C1
:1056A000D9070000FE4000009B3D0000F8410000CB
:1056B0001FCC0000EE42000033DB0000E14300009D
:1056C000E98F0000D1440000D20C0000BE4500006C
:1056D0003E720000A74600006EDE00008D4700000D
:1056E000C36D000071480000E43A00005249000018
:1056F000E55E0000304A000065F100000B4B000041
:10570000B1080000E54B0000D6B90000BB4C00001A
:10571000C1180000904D000050380000624E00009B
:10572000672A0000324F0000000000000050000017
:105730003FC90000CB5000007C950000955100004F
:10574000567300005D520000B97000002353000042
:10575000EF9A0000E7530000A7FE0000A9540000E4
:1057600001A800006A55000093A20000295600001D
:1057700075F90000E656000049B70000A257000086
:105780003DE600005C58000016900000155900002E
:1057900034BE0000CC5900009A790000825A000003
:1057A000EFCA0000365B000086BA0000E95B00002B
:1057B000615000009B5C0000379400004B5D0000CE
:1057C000768D0000FA5D000046430000A85E0000F0
:1057D00091BC0000545F0000000000000060000069
:1057E00002140000AA600000CEFE0000526100001A
:1057F00064C60000FA61000094700000A16200001D
:10580000FA0200004763000005830000EB6300001C
:10581000F9F500008E640000EB60000031650000C7
:10582000CDC80000D265000066320000736600003B
:105830005AA2000012670000291D0000B167000095
:105840002EA700004E680000A8440000EB6800008E
:10585000B4F900008669000050CA0000216A000007
:105860005EBA0000BB6A0000A6CD0000546B0000C9
:10587000D1070000ED6B0000726C0000846C00002A
:1058800001FF00001A6D0000E1C20000B06D0000D1
:105890005ABB0000456E0000A1EB0000D96E00006D
:1058A000D55600006D6F0000000000000070000081
:1058B00018EA000091700000001800002371000039
:1058C0008A8C0000B3710000754A0000437200002A
:1058D0006D540000D272000012AD00006073000031
:1058E000EE560000EE730000825400007B7400004E
:1058F0003AA8000007750000785400009375000076
:105900008D5B00001E760000BFBF0000A87600007F
:10591000438300003277000046A80000BB770000F8
:10592000E430000044780000311F0000CC78000013
:105930003475000053790000E6340000DA79000085
:105940003A600000607A000015F90000E57A000076
:10595000530100006B7B0000C57A0000EF7B000064
:1059600034670000737C00005DC80000F67C000016
:10597000F79F0000797D0000AEEF0000FB7D000086
:1059800026B900007D7E0000FBFD0000FE7E0000C9
:10599000C0BF00007F7F0000FFFF0000FF7F00000E
:1059A000C0BF00007F7F0000FBFD0000FE7E000006
:1059B00026B900007D7E0000AEEF0000FB7D0000F8
:1059C000F79F0000797D00005DC80000F67C0000B4
:1059D00034670000737C0000C57A0000EF7B000094
:1059E000530100006B7B000015F90000E57A000010
:1059F0003A600000607A0000E6340000DA790000C6
:105A00003475000053790000311F0000CC7800008D
:105A1000E43000004478000046A80000BB77000096
:105A20004383000032770000BFBF0000A87600006B
:105A30008D5B00001E760000785400009375000016
:105A40003AA8000007750000825400007B74000033
:105A5000EE560000EE73000012AD0000607300000F
:105A60006D540000D2720000754A000043720000BD
:105A70008A8C0000B3710000001800002371000040
:105A800018EA0000917000000000000000700000A3
:105A9000D55600006D6F0000A1EB0000D96E00002C
:105AA0005ABB0000456E0000E1C20000B06D00006E
:105AB00001FF00001A6D0000726C0000846C000091
:105AC000D1070000ED6B0000A6CD0000546B000074
:105AD0005EBA0000BB6A000050CA0000216A0000E4
