:020000040000FA
:10000000F0FF0320B1DF010017FA010037FB010008
:100010001B0C02007B0E0200831302000000000094
:10002000000000000000000000000000BBF3010021
:10003000E703020000000000BBF30100BBF3010076
:10004000BBF30100BBF30100BBF30100BBF30100F4
:10005000BBF30100BBF30100BBF30100BBF30100E4
:10006000BBF30100BBF30100BBF301009D2D0200B7
:10007000BBF30100BBF30100BBF30100BBF30100C4
:10008000BBF30100BBF30100BBF30100BBF30100B4
:10009000BBF30100BBF30100BBF30100BBF30100A4
:1000A000BBF30100BBF30100BBF30100BBF3010094
:1000B000BBF30100BBF30100BBF3010007490200E1
:1000C000BBF30100BBF30100BBF30100BBF3010074
:1000D000BBF30100BBF30100BBF30100BBF3010064
:1000E000BBF30100BBF301000000000000000000B2
:1000F00000000000BBF30100BBF30100BBF30100F3
:10010000BBF30100BBF30100BBF30100BBF3010033
:10011000BBF30100BBF30100BBF30100BBF3010023
:10012000BBF30100BBF30100BBF30100BBF3010013
:10013000BBF30100BBF30100BBF30100BBF3010003
:10014000BBF30100BBF30100BBF30100BBF30100F3
:10015000BBF30100BBF30100000000000000000041
:10016000000000000000000000000000000000008F
:100170000000000000000000BBF30100BBF3010021
:10018000BBF30100BBF30100BBF30100BBF30100B3
:1001900000000000BBF30100BBF30100BBF3010052
:1001A000BBF30100BBF30100BBF30100BBF3010093
:1001B000BBF30100BBF30100BBF30100BBF3010083
:1001C000BBF30100BBF30100BBF30100BBF3010073
:1001D000BBF30100BBF30100BBF30100BBF3010063
:1001E000BBF30100BBF30100BBF30100C92D02000A
:1001F000BBF30100BBF30100BBF30100BBF3010043
:10020000BBF301000000000000000000BBF3010090
:10021000BBF30100BBF30100BBF30100613D020031
:10022000BBF30100BBF30100BBF30100BBF3010012
:10023000BBF30100BBF30100BBF30100BBF3010002
:10024000BBF30100BBF30100BBF30100BBF30100F2
:10025000BBF30100BBF30100BBF30100BBF30100E2
:10026000F8B500BFF8BC08BC9E46704739190200BB
:10027000F8B500BFF8BC08BC9E46704715190200CF
:100280000C67010001000000FFD8FFE000104A46A3
:10029000494600010101006000600000FFE100220A
:1002A0004578696600004D4D002A000000080001F5
:1002B0000112000300000001000100000000000026
:1002C000FFDB0043000201010201010202020202FF
:1002D00002020203050303030303060404030507E4
:1002E0000607070706070708090B0908080A080791
:1002F000070A0D0A0A0B0C0C0C0C07090E0F0D0C4B
:100300000E0B0C0C0CFFDB00430102020203030383
:10031000060303060C0807080C0C0C0C0C0C0C0C48
:100320000C0C0C0C0C0C0C0C0C0C0C0C0C0C0C0C0D
:100330000C0C0C0C0C0C0C0C0C0C0C0C0C0C0C0CFD
:100340000C0C0C0C0C0C0C0C0C0CFFC0001108015C
:100350002301E003012200021101031101FFC40087
:100360001F00000105010101010101000000000062
:100370000000000102030405060708090A0BFFC478
:1003800000B5100002010303020403050504040084
:1003900000017D0102030004110512213141061301
:1003A000516107227114328191A1082342B1C11514
:1003B00052D1F02433627282090A161718191A25CD
:1003C000262728292A3435363738393A43444546D2
:1003D0004748494A535455565758595A63646566B5
:1003E0006768696A737475767778797A83848586A5
:1003F0008788898A92939495969798999AA2A3A4AC
:10040000A5A6A7A8A9AAB2B3B4B5B6B7B8B9BAC2D7
:10041000C3C4C5C6C7C8C9CAD2D3D4D5D6D7D8D9FC
:10042000DAE1E2E3E4E5E6E7E8E9EAF1F2F3F4F53C
:10043000F6F7F8F9FAFFC4001F01000301010101FA
:100440000101010101000000000000010203040598
:10045000060708090A0BFFC400B5110002010204D7
:1004600004030407050404000102770001020311DC
:1004700004052131061241510761711322328108AE
:10048000144291A1B1C109233352F0156272D10A0D
:10049000162434E125F11718191A262728292A3598
:1004A000363738393A434445464748494A53545504
:1004B000565758595A636465666768696A737475F4
:1004C000767778797A82838485868788898A9293F9
:1004D0009495969798999AA2A3A4A5A6A7A8A9AA25
:1004E000B2B3B4B5B6B7B8B9BAC2C3C4C5C6C7C843
:1004F000C9CAD2D3D4D5D6D7D8D9DAE2E3E4E5E66F
:10050000E7E8E9EAF2F3F4F5F6F7F8F9FAFFDA00CA
:100510000C03010002110311003F00FDFCA28A2818
:1005200000A28A2800A28A2800A28A2800A28A287B
:1005300000A28A2800A28A2800A28A2800A28A286B
:1005400000A28A2800A28A2800A28A2800A28A285B
:1005500000A28A2800A29189038AF963FE0A49FF52
:10056000000564F02FFC1393F659D43E28DE69FA97
:100570009FC40B1B3D50686B6FE1D749923BD27112
:10058000E55C4F9296E01E096C9C90029271401FB0
:1005900053199550B13855EA4F6A6DB5DC7790AC78
:1005A00091B2BA48A19594860C0F4208E2BF097E29
:1005B00019A7EDC1FF000729F8421F11C9E32D1744
:1005C000F671FD9875D9A6B7861D0EE92FB51D5990
:1005D0006195A29636F2D92E252B2C4CA7CD6B789F
:1005E000C86C88E41D7F5F3F61EFD9D3C3BFB1AF53
:1005F000ECD3E18F841E19F126A7E26B1F8736A387
:100600004B171A9DDC7717E818995526D8004C2C03
:100610008362E0623D80702803D8A8A01CD1400509
:1006200026EF9B14B5F257FC16CBFE0A216FFF0094
:1006300004CDFF00827E78CBE20DB4D6EBE2EBC8AE
:100640009745F0ADBBE375C6A571954700F0442909
:10065000E64EC0F0442475602803E32FDA93FE0EC3
:10066000D0F01FEC97FF000524F18FC25D5FC0F74B
:100670007E26F86BE14B8874AB8F14E857A1AFED81
:10068000EFD109BBC5B3E1278A395962F9648D817D
:1006900086561E606503F50BF65AFDA7FC0FFB6638
:1006A0007C09D07E257C37D70788FC17E25595B4A6
:1006B000ED405ACD6BE7F9533C120F2E644914AC50
:1006C000B1BA10CA3943D7AD7F139FB1B7ECBDE2C1
:1006D000BFDBFF00F6BCF06FC2FF000ECB25C78961
:1006E0003E206ADF676BC9F3318130D35CDDC9928C
:1006F0000B88A149666E7244679CD7F6CBF093E1F4
:100700008F847F642FD9F742F08F87E18F43F057B2
:10071000C3FD1A3B2B6573BBECF6B6F1E0BBB7F13A
:100720003100B33756624F534E316DD9132928A784
:10073000293B2477C1B3457E747C30FF0082E549B4
:100740001FC43D4E2F16785BCEF0A5D5E4874EBA78
:10075000D39B17B616FB8EC12C6DF2CA71824AB2BA
:1007600011CF0D5F70FC17FDA1FC1FFB43F864EA7D
:10077000DE0CF10586B96A8079A222526B62738120
:100780002C4E04919383C3A8AFA1CEB84F35CA9223
:100790009E368B8C5DBDEDE3AF9AD9F933E4786F6B
:1007A0008F722CF5B865D5D4A6AF78BD25A7549E19
:1007B000AD79ABA3B6A2A3F30E29D1B6E5AF9D3EAA
:1007C000C075145140051451400514514005145191
:1007D0004005145140051451400514514005145171
:1007E0004005145140051451400514514005145161
:1007F0004005145140051451400514514005145151
:100800004005145140051451400514514005145140
:100810004005145148028A09AF9E3FE0A59FF05160
:10082000DF0AFF00C1313F675BCF88DE2CF0FF009D
:100830008BBC45630B79105B687A73DC6E98E36858
:100840009A6C7976C849C799290B9E06E6C2960725
:10085000D0C5C0FC6BE4CFF8280FFC1637E13FECA5
:1008600017F043C5DE2F9EE2EBE20DE783350B3D2B
:100870002353D1BC32E97571A7DDDDA33DB4774EBA
:100880000ECB60EA870CFD4E00049C551FD80BFE72
:100890000AD1F097FE0AD9FB35EBFAB780752934F7
:1008A000FF0011D9E952A6BBE18BF7D9A9686D22E7
:1008B000CE885F6B22C88E236659227C60804C6D87
:1008C000903F393FE0C9ED16DB5DF81FFB407F68C4
:1008D0005AC37DFF0015168B215B9412624586E892
:1008E00087C367E60C720E320F73D80390FDB4BE57
:1008F0003B7FC1403FE0A49FB24FC45F8A9AFDBFD7
:10090000FC32CFECEBE19F0F5D6B2BA5AB98B5AF45
:10091000112C6B98E1CE12E9BCC70AA59BECF16DD6
:100920007C8597183EC9FF0006DE7EC2DA27ED53AC
:10093000FF0006FE78E3C15E2E0D368FF173C43AD8
:10094000AF97BB3FE862210C31489CE72B3C2CDC85
:10095000119E9EE7E98FF83A3FE26AFC3AFF008277
:100960002AFC568BCC9A39BC4D71A4E8B6E6390204
:10097000E4BEA10492039E4831432020727E993543
:10098000A9FF000440F11784FF0062DFF820F7C1DF
:100990002D6BC75E21D1BC21E1DB7F0FCBACDDEA43
:1009A0005AADDC76B6D17DB6F2E2E972CC40C9131D
:1009B0000C01CB67B93401F853FB0178BFF6BDF8E1
:1009C00003FB46F8A3F60CF86BF11ACFE176ADE223
:1009D000BF13DC2DE5C5D95864B69E0B66690DBD05
:1009E000C619A1F3E0851B11E1DCA205605886FD64
:1009F000C7FF00826E7FC13C7C01FF000404F80544
:100A0000E3CF177C46F8DB75A9378C1EDAEFC4FA02
:100A1000D788AED6CF4B17311942B428E5A4695F09
:100A2000CD2A49667936AFCB918AFCEBFF0082D2A2
:100A3000FC1387FE0A31F12BE17FED91FB11CBAA6C
:100A4000F8F35D8FC48BE1CD4E7D134F962BCB7D9C
:100A500052CA48DACAE9A19955D46D5192E8014DBC
:100A60008CD804D7AFFC16FF00836FBE367FC1431E
:100A70003E25D9FC52FDBC3E2D6B5ACDEB13243ED6
:100A80000ED2AE90FD915B398849162DED53842529
:100A90002DD0E71CB03CD007ED57823C67A67C42C6
:100AA000F09E99AE68B7B06A5A3EB36915F585EC09
:100AB0000DBA3BB82540E9229F465607F1AD6AE4DE
:100AC000FE07FC11F0BFECE1F09B41F03F8334B531
:100AD000D1BC2FE18B45B1D36C9657945B44A49065
:100AE000BB9D998F24F249EB5D6500365195FC6BF7
:100AF000F952FF0083AEFF00E0A47FF0D8DFB7CB50
:100B00007C37F0FDF7DA3C0BF04FCDD2A1685FF7F0
:100B100057DAACA2337D37BF96C8B00CE40F25CAB4
:100B20009C3927F7D3FE0B75FF00051687FE099D3C
:100B3000FF0004F6F1878F2D6E608FC65A820D1369
:100B4000C276EF82D36A53FCAB2053905618FCC98F
:100B5000C83C110E3AB007F91BFD8B7F653F157F2E
:100B6000C1403F6BFF0005FC2DF0FCB2CDE22F1F12
:100B70006ADE4497B366636D161A6BABB932417186
:100B800014292CADCE4EC3CE4D007EE47FC19AFF1A
:100B900000F04E0FF8443E19F8A3F698F135829B09
:100BA000EF166FF0EF835A45F9A2B286565BEB95CC
:100BB000EC7CC9D1610782BF6697A87E3EF9FF0031
:100BC00082CD7ED31FF080FC23B2F879A5DC15D549
:100BD0003C65996FCA1C3416313A92A7FEBABE170B
:100BE000DD5241ED5F4FFC2DF871E0FF00D91BF69F
:100BF0007FD1FC2FA1C30E83E09F87BA3C7656C1FC
:100C0000DBE5B5B5B78F1B9DBBB601666EAC493D44
:100C1000EBF17BF6A1F8F577FB4DFC75D77C65759C
:100C2000E6247AA4DB6C6173FF001E96A802449F41
:100C3000F7C804FF00B4CC7B9CFE99E17F0EFF0057
:100C400068E69F5AACAF4E8DA4FB397D95F2DFE488
:100C5000BB9F8AF8E1C61FD9191BC0D095AB622F84
:100C600015DD42DEFBFB9DBE6FB11FC0DFD9A7C6FD
:100C7000DFB4A4DAD41E0BD1DB589BC3F6AB777577
:100C8000109D213876DAA8A5C852ED8621491908A9
:100C9000DEC0E0D95F789BE06FC40F321935AF0832
:100CA000F8A3476DAC479967796C4F620E1803E85B
:100CB0007823D6BEFEFF0082457ED1DF09BE1BFC35
:100CC0002BFF00844EEB585D13C71AB5EC9757EF16
:100CD000A8A7910DF365844914B92842C600C31032
:100CE00049DC71CD7D83F1D3F664F037ED33E1F566
:100CF000B1F1A787ECF5858C1FB3DCF315D5AE7089
:100D00007314C9875CE0640383DC11C57E859D781C
:100D100095572FCDAAE0B31C2B787BD9696935D5BF
:100D2000EBA493E8B4D0FC8F877C19C3E6D9150CEB
:100D3000C728C7258BB73492778A6DDD45B8FBD0BD
:100D4000925BB77D7A1F137EC57FF0575F16F8A3BD
:100D5000C69A0F82FC71A1378AEEF5ABA8EC6DB58F
:100D60004D3152DEF03B1201960C08DC0EA590A628
:100D70000293B4D7E8C2C8178E7AE057CA3FB28F41
:100D8000FC12DB41FD973F684BCF1A5BEBD73AF57E
:100D90009DBDA343A35ADDDB84B8D364932B2B34CE
:100DA0008A76C8767CAA4229019B39EB5E4FFF0008
:100DB0000720FF00C14EAEBFE09B5FB01DE7FC22E5
:100DC000BAB49A4FC50F89131D13C2D3C2C04D6266
:100DD00014A3DDDE2E47FCB28582A9FE192688D732
:100DE000E3FC698AC9ABE3D4F24872D3714DEE9744
:100DF00033DD24F6B6DA697D958FE84F0DB03C45BA
:100E000085CB1D3E25A9CF5549A8ECDA8ADAF25FD9
:100E100015DDDABEB6B5CFD085955CF14EAFE753A0
:100E2000FE09C1FF00079578A3C13F62F0DFED2DF9
:100E3000E15FF84C2CB223FF0084C3C3904569A93D
:100E4000C639F9AE2C805826E48F9A130950A7E4CE
:100E5000726BF74FF649FDB8FE13FEDDBF0F4F8AE8
:100E60003E1278F341F1C68F195139B19192E6C51E
:100E70009B3B56E2DE40B35BB1DAC42CA8A48048A9
:100E800018AF913F423D628A28A0028A28A0028AB8
:100E900028A0028A28A0028A28A0028A28A0028A02
:100EA00028A0028A28A0028A28A0028A28A0028AF2
:100EB00028A0028A28A0028A28A0028A28A0028AE2
:100EC00028A0028A28A0028A28A0028A28A0028AD2
:100ED00009C57CD5FF00050BFF0082B4FC11FF00A3
:100EE0008261693A3CDF163C512E9BA8788B2DA578
:100EF000E95656525DDEDEC6AE8924AA8830A89B2C
:100F0000B259D941C103278A00FA50B608F7AC2D6F
:100F100017E27787FC51E22D5F47D2B5CD2352D53A
:100F2000F4068D353B2B6BB49AE34E2EBBD04D1A95
:100F300092D1EE5E46E0322AC35C5BF8C7C3424BF7
:100F40003BC59ACF54B6DD6F756B28DB247221DB6D
:100F5000246EB91C82086E4720F35FC7E7FC137B41
:100F60004AFDA33F66CF11FC50FDA0BE08EAD25F48
:100F7000EB5F03755B4B5F19E8C92FDAAF355B0B8D
:100F80009B974669615DDF69B76920224642590631
:100F9000640542EEA00FDCDFF83A6BE2A7ED11FB2F
:100FA0003D7EC6DE1BF88FF04FC75AA7847C33E125
:100FB0009D5D22F1B41A6C312DC491CD2C22CAE36F
:100FC000CF23CC4896E17CA744237FDA9036541097
:100FD0007EC2FF0082767ED87E1BFF00829EFEC10D
:100FE0007E12F88D1D8D95C58F8CB4C92CF5ED261C
:100FF00064134505D29682EED64461864DCAE391CC
:10100000864607A1AF1AFF00827C7FC1497E0BFF95
:1010100000C17D3F633F11785EFEDED6DB59D5F41B
:101020006934AF1BF82A7B8FF49B3496354966816F
:10103000880D25BEE71E5CC065580076B0C57E668B
:101040007FC105BF694BDFF8228FFC14D7E30FEC9B
:101050008BF1A35ED3F44F0BEA1772DD58EB1A95B0
:10106000CA5AD85ADD5BDBB5C4375B98ED8E3BCBF3
:10107000131B7CCC30C912FDE38A00F72FF828E758
:10108000FC1B61E2AF80FF00161BF680FD85B5AB4F
:10109000BF007C40D1CC974FE10B5BB10C570D2BBF
:1010A0000597EC32CCDE5A2B23CA5ADA5CC4CBF259
:1010B000A05E10F9CFFC1943F1AB43D38FC76F8704
:1010C00097D70B67E2DD4AF2C35B82CDE31179B0BB
:1010D00044934536D5000528EEBF28E80F418E7EA3
:1010E00094F8C7FF000756FC37D5BF699F0BFC3447
:1010F000F803E02F157C74BAD4B5586CF54D5F4EEB
:10110000B79ADAD6DE02E048D6B118CCD70CA3776E
:101110002CB1C636E4338AEA3E1CFF00C1BD9FF005
:10112000A97FE0B59ABFED47E0FF008803C1FE1339
:10113000BEB93AC2F85F4FD3C99AEAEEE6178EFEFF
:10114000091DDB62412C8C66E0120CAC8154286ACC
:1011500000E77FE0ED4F833F137F684FD84FC03EDD
:101160000FF86FE0FD7BC6171A978E6DA4BEB6D23E
:101170006269A440209921DC8A092A64940C9202B5
:10118000E3278E47CF7FB2B7FC1B2BF1BBF6CF8B8B
:10119000C1DAF7ED9FF1535A5D07C27A7C1A768D5A
:1011A000E04D32ED256D3ED228C451C01E33F67B92
:1011B0005011533E4AB3363E620F35FBBC63C83D07
:1011C00079F7AF39FDA73F6B7F86BFB17FC36B8FC8
:1011D000177C51F1A683E09F0EDBE7FD2752B8DABA
:1011E000F70C3FE59C3128324F274F9225673E94FC
:1011F000015FF64FFD8DFE19FEC37F0B61F067C2E4
:10120000DF08E9BE0FF0EC6FE6BC16BB9E4B994FB2
:1012100006496472CF239F5627D0714DFDABFF0066
:101220006D7F853FB0D7C376F167C5AF1CE87E07F9
:10123000D0FE610BDFCA5AE2F5971B92DEDE30D397
:101240005C38DC094891D8039C62BE31FF0087837B
:101250007ED35FF053706CFF00656F8763E14FC30F
:101260002BE8F29F187E24596D7BA8CFFCB5D2B431
:101270007605A7CE094966DD1303865438CFA87ECC
:10128000C9BFF0442F85BF03FE24C5F13BE22EA168
:10129000AF7C7FF8DACABE7F8DFC752FDBA581D7C6
:1012A000240B3B462D05AC6A49D81433A0380F8275
:1012B0006803CB13FE0B01FB47FC6F58FC79F0531E
:1012C000F637F1878AFE08E9BBA49EFF00C49ACCDA
:1012D0003A17893C51090009B4BB07DCDB23FF0046
:1012E000580B799E7A90ABE5B64D7D0FFB0C7FC114
:1012F0005C3E09FEDF17B71A0F84FC4177A0FC4261
:10130000D34B26ABE05F145A3691E24D2A4504BA1E
:101310003DACB8F33681B99A1322A83F3107207D3E
:101320003461563DFF003AF01FDB2FFE099FF07F2E
:10133000F6E57B1BEF1AF86E5B5F1768BF368FE22E
:10134000FD06EA4D2BC49A338FBAD6F7D09120C749
:101350003847DC993F76803F9D0FF83B0BFE0A1F14
:1013600073FB5B7FC141A6F867A55C49FF00085F7E
:10137000C0FF003348854828B77AA4A236BE9882B9
:10138000013B191205CE47EE59978939E2FF00E07B
:10139000DBCFF82967C13FF8263FED4BE24F147CC5
:1013A0005EF0FEBD34FE24D3A2D1B4AF12E9F18BBE
:1013B000A4F0D42CECF7264B603CC71295B71BE386
:1013C000CBAAC6C0236F38FD5DFDBD7FE0981F131B
:1013D00024F0D7D8FE337C3AB3FDB7BE1C69F1F9CF
:1013E000363E25D12387C3BF177C2B08C60F991E15
:1013F000D8756555555D991248DF3B29C1AFC95F66
:1014000089FF00F042F5F8D363AC6BDFB247C42B21
:101410007F8E169A2867D6BC0DA95B7F61FC40F0D1
:10142000B6D608F1DD69D36D336C9328CF0E016118
:10143000F2AB0E6803FAAAF809FB4A7C37FDB27ECC
:101440001547E27F877E2CF0EF8F7C2BA82989AE91
:1014500074F9D6E2307F8A2953EF46FEA922861D11
:10146000C5780FED2BFF00047AF00FC5F5B8D4BC9A
:101470001F27FC207AE484B95B743369D70DFED44E
:101480001B87979F58CAF5C906BF91CF825FB447A3
:10149000C5EFF827F7C6A9756F05F88BC5BF0C7C9B
:1014A0006DA3CBE4DDC51EFB49D5973986E6DE4149
:1014B000B64519398E6461CF22BF6C7FE09B9FF0E7
:1014C0007975BDD369FE19FDA73C2BF65627CA3E98
:1014D00035F0CDB968FBFCF756032C31C65A0273C0
:1014E000DA215EA6539D63B2CADEDF0351C1F96CF7
:1014F000FD56CFE68F0F3EE1ACB33AA1F56CCE8C32
:101500006A47A5D6ABD1AD57C9A3A9FDA3BF62EF6A
:10151000885FB2F5E49FF09668327F65EFDB1EAD21
:1015200068DF68B09471FC6398CF2389029F4CD721
:1015300073FB13FEDB5F177E1AF8E741F08F856FB0
:101540007FE124B1D5AEA3B3B5D0F54732C00B1CB3
:101550007C92637C4064B1DA7185C906BF547E0118
:101560007ED17F0E3F6C5F85F1F89BE1EF8AFC3BFB
:10157000E3CF0AEA0A63375A7DC2DCC59E86395337
:10158000AA30EE8EA187715CD781BF608F861F0B5A
:101590007E3A47F103C3BA02E8FAD4504B0A416FCE
:1015A000215B28DA41B5A5484E423EDDCBF26061B1
:1015B000DB8EF5FA9FFC452C3E3F2EA985CE70AA06
:1015C00073E57CAD2BC5CADA5D3D63EA9BF2B1F8E9
:1015D0006FFC40EC5E579B52C6F0EE3654A9F32EDA
:1015E00064DB5251BEB66B4969A5A4BD6E7B214632
:1015F000C0E95FC79FFC1C35FF000521FF00878FF6
:10160000FF00C144BC45A9E89A835E7C3AF0267C81
:1016100039E15556CC5243111E7DD0F5F3E70EE16A
:10162000BFE798881CEDAFDF9FF83997FE0A4DFFA2
:10163000000C07FF0004ECD5B49D0F516B2F889F61
:1016400016BCDF0E680623896D60C2FDBAE87FD73D
:10165000381F6023959278CF6AFE6DBFE0907FF0CF
:101660004FCBDFF82987EDF1E07F85F1ACF0E8376B
:1016700013B6A7E25BC881FF0041D2ADF0F70D9130
:10168000CAB49F2C28DDA4993B57E307F471EF5FA0
:101690000BFF00E0D94FDA33E3DFFC13F7C1DF1DA6
:1016A0007C0B6BA3F8867F16C12EA09E0E79C59683
:1016B000AEB64242B05C44D3110CBE6C6AD304DEB9
:1016C0008DB0C7B448CFB47C61E1BF157C54FD83B5
:1016D000FE3C35C69D75E35F853F123C2F2F952854
:1016E0005F3F49D52C0B2AB797221DAE1594A92A26
:1016F000C30CA47041AFED7FF6A4FDA07C17FB00E6
:10170000FEC8FE29F885AF476DA4F83FE1BE8BE720
:1017100025A418850AC6AB15B59C23A2B49218A1BE
:101720008D718DD228AFE297E35FC5AF1CFEDE1F3F
:10173000B546B5E2ED6FCFF1078FBE266BA6568694
:101740000524CF73712048ADE1524E11729146B914
:10175000F955557B5007EC3FFC1387FE0F2EF137F0
:1017600083FEC7E1BFDA5FC2E7C5B67954FF0084E4
:10177000C7C3904569A8C5D72D716202C136491FFC
:1017800034261DA14FC8E4F1FBA7FB24FEDBBF09F3
:10179000BF6E9F873FF0957C24F1D687E38D1A3288
:1017A000A276B19192E2C59B76D5B8B7902CD6ECD3
:1017B00076B10B2A292012062BF9DDFDB1FF00E0DE
:1017C000CE8F8E3F05BE1969BE23F85BE22D1FE266
:1017D000B5F2E9B04BAD78742AE9BA8DA5D796BEBB
:1017E0007ADABC8FE55D46AFE63025A290AE1423D1
:1017F000B633F963F0B7E3078F7F64EF8B49AF78B7
:1018000037C43E22F0278CB4199EDFED9A6DD49632
:101810007796AEA76C9131520E3230C8D907182096
:10182000D007F78A1C134B5F0CFF00C1BDDFB54723
:10183000C76FDB4FFE09E5A2FC48F8ED2E8977A9BA
:101840006BB7B709A0DF5A69CB6375AA5844E62F76
:10185000B55CC719112B3CC928511C71A94456DA33
:1018600043027EE663814005145140051451400552
:1018700014514005145140051451400514514005C0
:1018800014514005145140051451400514514005B0
:10189000145140051451400514514005145145C0E0
:1018A00028A28CD201A64E3D69A6701B1FCEBF3365
:1018B0007FE0E9CFDAB7E2DFEC7FFF0004F4D27C0F
:1018C00049F09FC59AA783EE355F12C3A26B57BA42
:1018D0007DAA35C0B59ADE6601263F35B9DE806F38
:1018E0004193BB0194E09F9CBFE0881FF070C788C4
:1018F0003C2DE32D17F673FDAD8DD787BC62D6F670
:1019000071F863C5FAB7C9FDA91DC450BD9C378CD9
:101910001719922911E3BB2E5640E371C90ECC0C66
:10192000AFDB2BFE0EAEF8ABFB13FF00C14B3C450B
:10193000F0F3C61F05F45B5F007846E8D85F69AB3B
:10194000A8BB6B37B191BE3BE86E71E50DC8C8E22C
:101950002F2CA900A9704EE1EA1FF053DD67E0CFFC
:10196000FC1C77FF0004B1D6BC49F03F5EB7D7BE80
:10197000237C2D8BFE121B2D16E13C8D6B4CCF175B
:1019800016B3C05B20491C6DB5D772334436B366BD
:10199000BCE3FE0F09FF0082753F8BFE1D7863F6E6
:1019A00099F09D946DAA784CA697E2868D049E7559
:1019B000ABBA0B5B8239DC237254F18DAE09E05770
:1019C000967C14FF00824659FF00C1447F666F0574
:1019D0007ED87FB1478A17E0AFC6DB5F35B5EF0829
:1019E000DADD793A547ADC042DC4568F93F63594B7
:1019F000E655864DF034773129112EEA00FAFBFEC8
:101A00000D31FF00828F9FDAC7F6209BE12F88AF50
:101A1000249BC71F04BCAB2579DB325F6912BC86EF
:101A2000D5BDFC9DAD01FEEAA439E5B9FCD3FD9519
:101A30007F6AEF8E5FF04EAFF82BEFED59F0EFF6C7
:101A40007EF86B0FC49F881E3CD7B51D3AC2C6E016
:101A5000A4D169CB05F4D70B76E21D8AC1639586C4
:101A60000C91202E0BE4A85AF19FD833E2FF00C757
:101A70006FF82557FC167B41D63C6DF0FF00C596EC
:101A8000BE30BBD51F4FF167866CB480B36B563741
:101A9000402CED04502F97281B927468BE42E8A496
:101AA0001C135FB6BFB3E7FC116FC7DE04FF0082F3
:101AB000FF007C46FDAB6F35DD174BF02EA1713971
:101AC000D2B4B2BF68BFD5C5D698904AE4A055B786
:101AD000549F246E05D8260839DE403F343C61FF10
:101AE000000410FDB63FE09FFA669BFB4FF81351D0
:101AF000D19BE2A596AAFA8EABE16F055AA472E9D2
:101B0000B0C92C7B5228210B0DCC2CCC4496D1C6CD
:101B100015517A38CEDFD06F8E7FF043EBEFF82D82
:101B2000FD8FC17F8BBFB4268579F033E24687A451
:101B3000C9A478DF45D26486F66F12C0855AD9D21F
:101B400050DB6D48733B6C6591D5660849D809FD3B
:101B50006710AA9CF7F5AE3BE3C7ED03E07FD9839E
:101B6000E1C5F78BFE2178AF42F0678634FC79FA45
:101B700096AD7696D0066FBA80B1F9DD8F0A8B9656
:101B800063C004D0070FFB1A7FC13CBE0F7FC13F6B
:101B9000BC11FD87F0A7C0FA3F85E191025D5E228E
:101BA00079D7F7C4779AE1F323F249C13B4678022B
:101BB000BAEFDA1BF69EF87BFB23FC32BAF187C43E
:101BC000BF18685E0AF0CD9B08DAFB54B910A3B9C0
:101BD000E91C6BF7A490E0E110331C700E2BE1FBC5
:101BE000AFF82A7FC73FF828D492695FB197C2DF68
:101BF000B3782E794C2FF19BE23DBCBA6787C20CBB
:101C0000867D3B4F651737A78650C542A3A812466D
:101C100001C8EE3F67BFF821BF81745F8976FF007E
:101C200013BE3EF8A35DFDA7BE3146C654D7BC67C0
:101C30001AFF0064696C4F2BA7E90A4DADB47C29EB
:101C400000890AB286429D2803833FF0528FDA232F
:101C5000FE0A51BAC7F642F867FF00088FC3DBA639
:101C6000D83E32FC49B66B5B09E3E9E6697A5B0F63
:101C70003AEB386DB23A98C1187442457A37ECC9DC
:101C8000FF000436F873F0EFE25C3F13FE316B9A0D
:101C9000E7ED25F1A3196F15F8E3135AD9364F165E
:101CA0003A6EE6B6B58C705062468C8F91D4122B8A
:101CB000EDAF2867BFE7D29CA368A0041D6968A2A6
:101CC000800A28A2801AE370AF9C7F6D2FF8255FF1
:101CD000C1DFDBAB50B4D6BC59A0DD687E3CD24836
:101CE0007D27C71E17BD7D1BC4DA4385DAAD1DE411
:101CF00038670172024A1D003C283835F48514010A
:101D0000F8CFFB7AFF00C1353E29DBF87459FC7926
:101D1000F86367FB6F7C33D360F2ACFC6BE14B681C
:101D20007C3DF173C2D08DA14BA2111EAAAA02A6BE
:101D3000C525E420C8E0722BF29BE257FC10C57E5B
:101D400039687AA78ABF643F88D63F1FB47D295A75
:101D50006D57C1B7308D1FC79E1801951A3BAD3A1C
:101D600062A66D92131992200332FC8A4106BFAE1F
:101D7000F6855BD7F3AF99FF006D6FF824C7C1AF4D
:101D8000DB87C436BE28D7B47D4FC27F1334919D04
:101D90002BC7FE0FBE6D17C4FA5B850AACB7517F27
:101DA000ADDA80A859D64550CDB40273401FC93F63
:101DB000EC05A8FED09F08BF6DFF000C7843E0BE85
:101DC000B1E2DF00FC5AD735887448ED10C96722AC
:101DD000CCCDB4A5E4122ED6890166759919428638
:101DE0002578AFED7BC19A75FE87E12D2ECB56D4B9
:101DF0009B5AD52D2D2286F35136E96E6FE6540B92
:101E000024E634F963DEC0B6C5E1776074AFCCDF99
:101E100010780BF684FF00827C7C6FF0EFC46F8A31
:101E20001F0AFC3DFB66687E0A82E21D37E25F8482
:101E3000B43B7D33E28786ADA588C322CF600ECD4B
:101E4000417CB7F24790E1CA0924720921BA6FDBDD
:101E500097FE0A48DFB7EFFC12AFE254DFB175FF1F
:101E600000FC2D0F889AB5A2E937BA4E9D325978F9
:101E700083C316B2B98EEE796C2E0C7702411ACB61
:101E800012044259E40E9BD572403F02BFE0E10FBD
:101E9000F82911FF008291FF00C144BC49ACE8BAA7
:101EA000835E7C3BF0483E1CF0980DFBB96DE23F31
:101EB000BFBA5EC7CF9F7B83D7CBF287F0D7ED4FFA
:101EC000FC1A3FFF0004DF3FB2D7EC3D73F18BC437
:101ED000167E4F8C7E37797776CB2C7896C74585E2
:101EE0009C5AA8CF4F3D99E73838646B7CF2BC7E92
:101EF0000FFF00C1277FE09ABAF7EDF9FF00051B3D
:101F0000F0AFC1CD634BD5745B0B3BA7BEF188B975
:101F1000824B6B8D2B4EB6F9EE15D480F1C8E76C71
:101F20000B919124E84E0648FEBD3F6ADFDA47C1B7
:101F3000FF00F04FFF00D91BC59F1175E8ED74BF7E
:101F400008FC39D1BCE4B3802C08DB02C56D6708FE
:101F5000036AB492B430C600C6E9145007E227FC05
:101F60001E59FF0005241AB788FC2DFB31785F52FB
:101F7000530E93E5F897C6EB0B7267740DA7D9BFA4
:101F8000A6D8D9AE194E73E75B371B79F1DFF83469
:101F90001BFE09C1FF000D15FB606A9F1D3C4569D2
:101FA000E6F85FE0E6D4D25658F7477BAD4F1B0406
:101FB00023B1FB345994F75792023A57E607C5AF5D
:101FC00089FE39FDBA3F6A3D63C51AB09BC43F1014
:101FD0003E276BC67686DD706E6EEE650B1C112992
:101FE000276A82C91A2E7E550A3B57F657FF00040E
:101FF000AEFD83B4BFF826EFEC29E04F84F62D6FD9
:1020000071A868B686E75CBD85768D47539CF997C5
:1020100032E7AB0DEDB109E4471C63B01401E45F96
:10202000F07077FC1493FE1DBFFF0004EBF126B1A6
:10203000A36A31D9FC42F1B67C3BE145CFEF23B82E
:1020400094626B95E08FDC425E404F1BFCB1FC5507
:10205000FCAFFF00C137BF625D6FFE0A2DFB6BF85E
:1020600017E12E8D24B6EDE2ABFF00F8995F2AEE62
:102070003A758C4A65BAB839E32B1239504FCCE522
:1020800057AB0AFA8BFE0E66FF0082917FC37EFF7C
:1020900000C144B54D2742D456F3E1EFC26F33C3BC
:1020A000BA0B44DBA3B99F2A6F6E871FC73A6C0730
:1020B0009CA4087BE2BF50BFE0CEFF00F8271FFCC6
:1020C000293FD9975CFDA13C4366ABE20F8AB9D3A7
:1020D000BC3C254C4B67A45BCCEB24839C8FB44E5B
:1020E00099E47296D130E1F2403F613E1D7C3DD1D2
:1020F000FE11F80743F0B7876C20D2FC3FE1DB18F4
:1021000034CD36CE1CF976B6F0A08E38C679E154BF
:102110000C9E78CD7CEDFB31EB307ED0DFB427C454
:102120000FDA0354BEB74F03F8761B9F04F80AE298
:10213000790476F169D6B36759D54B12005B9BEBF6
:1021400071107718F274B8DD0EC9C96FA1BC7DF1AA
:1021500027C3FF000D346FED0F126B5A568762CC08
:102160002313DFDCA411B31FE10588C9F615F3259D
:10217000BFFC13CBE1EFC42F807E20F077C2EF8845
:102180001AC68BF09BC6EF6B6BA9786F4ED446A92D
:10219000A0C162978935F59E9E8CC5EC45DC224B2B
:1021A0006912293C98E3998A42AFF355FB39A87B21
:1021B0004B3E5EF6D3EF31FAC52F69EC799736F6D0
:1021C000BABDBBDB70FD9A3FE0A6517C48F883F0B6
:1021D000BFC3BE28D2E5B3D63E3C9D63C41E10B437
:1021E000B6B478DB46F0FC09249A63EA259895B8E2
:1021F000BEB6B69EE10109F7268F04C0CC7EB0B70B
:10220000D7ECAEB55B8B08EEADA4BFB38E39AE2D67
:102210009240D340921611B3A672AAC51F6920033B
:10222000B1B19C1AF857F685F81BAD7C0FFD9DFEE9
:10223000247C7CF17C16F6FF0010BC3FE36D3BE292
:1022400014E9A74CD710E8BE1CD0EEFC98F4FB7D37
:10225000A06F07433A833AED199F52B92000540CFE
:102260008F0D1B78FE196B9A978BB43F176A1FB4BA
:1022700057ED3D7CBE2CB0F0AF85B5B9B47D774647
:10228000D32CC85D2219AF626416369656C2369AB0
:1022900049CF94F73737518499A610BC1B1FA16B07
:1022A0002063C53ABCF3F659F097C40F01FC0CF05B
:1022B000FE93F14BC5D61E3AF1E5B42C756D6ACB91
:1022C0004D4D3E1B9919CB0558D02A9F2D4AC7E684
:1022D000048FCCD9BFCB8F7145F43A0028A28A0075
:1022E00028A28A0028A28A0028A28A0028A28A009E
:1022F00028A28A0028A28A0028A28A0028A28A008E
:1023000028A28CD00145231E299E76436DC120ED65
:10231000EBD0FBD4EA038C800A479B68E99FEB5F14
:10232000941FF074E7EDF1FB477EC15F02FC15AA34
:102330007C1ED46CBC39E0DF165CCFA46BDE20B70A
:10234000B2F3755D2EF02892DE38E47252349A3181
:10235000300E10B0689B0CA4AE79AFF82037FC1C8F
:10236000312FED296FE1DF823FB424BFD83F15AE96
:102370002D221E18F105EAF936FE3881B09102715E
:10238000B7ED676B0DC0ED98A9C61F2A680F24FF33
:102390000082867FC1D41F11FF0065BFF82A549FB9
:1023A0000C6DFC1BA1E87F0D7E19F8AFFB33C52433
:1023B0004AB7FA8F886CC00AF223EDDB6F8573226F
:1023C000A282FB9555987CCB5FBA1E12F13E9FE32B
:1023D0003F0C69FAC6937706A1A56AB6F1DE59DC0F
:1023E000C0C1A3B886450E8EA7B82A41AFE71FFE2D
:1023F0000A6DFB0741FB56FF00C1C3DFB42FC23893
:10240000ADE15F117C58F0126B5E0DB898AC662D93
:102410005AD74BB4BA8D030F9764CD63710B1976FD
:102420006D1296C928A5FECAFF0083477FE0A3135B
:102430007C79FD93756F80BE2B99E1F1A7C156F2AF
:10244000F4F8AE895B8BAD22491F6A95201DD6D268
:1024500066223F851A11401EBDFF00075C7C37FFD6
:102460000084DFFE08AFF10AF45BB4F3785F55D166
:10247000B558CAC5E6347FE9F0DBB36720A8097018
:10248000D9600F19C800965FC71FDA33F6ADF86D33
:10249000FF000538FF0082737ECF3F02FC05F07716
:1024A000C63F12BF69CF04F872D7458BC43A4DBB03
:1024B000D9DBE811473A87B7913E6FB5A3C11757EB
:1024C000D91C4D26F571F3C67F7FBFE0B95F0AEED8
:1024D000FE36FF00C1253E3D786F4FB0BAD5350BB3
:1024E0008F0BCB756B676B68D7534F35BC91DC2274
:1024F000A46A4166DD08C63241C101B183E23FF002
:102500006C37EC79E31FD917FE09B767A6FC45F8CD
:10251000770F80FC65A86B7797AC67891753BFB3BB
:1025200090AB42D718CB2119655424614038049CE4
:10253000807C03FF0004CFFF00829FF8EBE05F89FF
:10254000F55FD81BF6DCF0A6BF75A6EB56B1F86EAA
:10255000C2F6EA237D7DA3C7711442DADE7F2B70B9
:102560009AD76B2324CA58C648CE57253EB8FF00D9
:102570008375BFE0929F1FBFE0969F187E3369FE70
:1025800033D47414F84BE23B911E9165F6BFB45FEF
:102590005F5C5BC8C20BF454CA42AD0B3A3AB61941
:1025A000C88CE3082BF52AE3E1B787EF3C716BE2B7
:1025B00069B43D226F1258DB3D9DB6AAF6719BDBD4
:1025C000781C82F124D8DEA8C40CA83838AAFF00F1
:1025D00014FE29F85FE08781351F1478CBC43A2FA9
:1025E000857C37A4C7E6DEEA9ABDE4767696AA48EB
:1025F00000BC9210A324803279240193C500695C49
:10260000F86EC67D62CF529ACACE6D46C23786DA60
:10261000EE4855A78124DBBD51CFCCA1B6AE403CDE
:10262000ED19E958FF0017BE36F83FF67AF879A899
:1026300078B3C75E26D0FC21E19D29435D6A9ABD2F
:10264000E47676B0E78505DC80598F01472C480099
:102650001240AF84F58FF82C4FC4AFDBA757BAF008
:10266000DFEC49F0A64F1F58A3B4175F15FC6D1C93
:10267000DA2F8274C60769302305B9D41948642B50
:1026800012A9460ADB5D326B73E0FF00FC10CF43FA
:10269000F1E7C41B0F891FB5678F35AFDA93E25599
:1026A00091F32D23D7A1167E13D018F052CB478C6F
:1026B000F9006000C650CAEC81FCB47E801CE5EFD6
:1026C000FC15BBE2EFFC1412F26D0FF627F853264F
:1026D000BBE1C790C137C61F8830CFA3F84ED704DF
:1026E000866B3B5651757C54864F9554A48A374669
:1026F000CBCD759F037FE0855E13D4FE23DA7C4C3F
:10270000FDA5BC63AD7ED4DF162DD8BC17DE2B85AE
:1027100021F0EE8A4F54B1D1D09B6890E1721C3801
:102720002C8AEAA878AFBAAC74DB7D2EC61B5B6836
:1027300063B7B6B78D628628942471228C2AAA8E3C
:102740001400000074C54CABB4500476B6CB6912CB
:10275000471AAA471A845551B5540E0003B0F6A97A
:1027600068A2800A28A2800A28A2800A28A2800AD9
:1027700028A2800A28A2801B2062BF2F5AF967F680
:10278000D0FF00823DFC1DFDB47C656FE37BAB0D8B
:102790005BE1EFC5AD2CF99A5FC43F045F368BE275
:1027A0004B2936840ED3C436CFF20D98995C842C15
:1027B000AA577135F5451401F999178E3F6A3FF80C
:1027C00025B78F2EBC4DF14FE1AE93FB59782CDA33
:1027D0002D85CFC4FF0000E876DA6FC42B1B146D83
:1027E000C22BFD34717B1AB6D0BE4380AB1B49238C
:1027F0001638AF9D7FE0BBBF14BC5DFF0005CBFD6D
:10280000887C2F6FFB1D6B3A1FC57F02F87F5093AA
:1028100057F1DE83A65E1B6F144732E23B247D3AFC
:10282000611CE2243F6962A4132308D91488F71FAE
:10283000DBBF2573DEBE4BFDB47FE08D3F07FF009D
:102840006BEF1D278F2D61D73E15FC62B3632D8F73
:10285000C43F02DEB68DAEC321001333C784B90571
:102860004053E72B36CCAABA6E3401F8A3FF00061A
:10287000917FC12F751F8A9FB6AF883E3178E3459F
:10288000BCD3F4BF81F2FD8AC2C751B56864935DC1
:102890009A3600346F82AD6D113210C32AF2C047F0
:1028A000238FD76FF83863FE0A41FF000EDFFF0069
:1028B0008275F89354D1B505B4F885E3ACF873C2CA
:1028C000CA0FEF239A5189EE8707FD4425DC1E9B32
:1028D000CC63BD71A3F6A1FDAE3FE09772DC2FC7BC
:1028E0000F02C7FB4F7C2A49434BF123E1C6971DDA
:1028F0008F8A2C13685F3352D101DB2FCA146FB754
:102900006DB1C7165DD8902BF3D7FE0BB7F01FE261
:102910001FFC176B5FD1FE357ECC9E30F09FC74FFA
:10292000859E07D256C62F0A6813B43E24F0E4925F
:1029300090D7135C584E1262F33A0C2801CA4298A1
:1029400042016201F94FFF0004D2FD87F5AFF8287C
:10295000D7EDBBE03F849A4CB35B2F89AF4BEA774E
:10296000C8A1BFB3AC22532DD5C1CF195891B6829F
:102970007E6728BD580AFED9BC01E02D1FE16781A2
:10298000745F0C78774F8349D07C3F650E9BA759C5
:10299000C0088ED6DE24548E35CE4E15540E79E204
:1029A000BF227FE0D0DFF8261DE7ECCFFB3BF89796
:1029B000E3778D745BAD2FC67F12657D274AB4BF68
:1029C000B6682EF4AD2ED6774977236191A7B84229
:1029D00048650765B44470D93FA57FB717ED95A04A
:1029E000FEC3FF0005A4F156AD6B71AC5FDCDC47A4
:1029F00063A4E8D6AC45C6A970EC32015562914695
:102A00009BA59642A42471B1393804027F0BD85992
:102A1000EA1FB5A78AA6D6A249358B1D36C4F8741D
:102A2000CEA0F9564C8E2E1A0CF01CCFB9652BF3A4
:102A30006D1086E0AE73FE3A49A4FECD075AF881C8
:102A4000A54D63A4EADE24862D21ECE62B0596AB8A
:102A5000A8492AADB5CCEDC6D6883485DC7263278B
:102A6000767CB5C7A47C4CF86BE17F1F6910AF89F9
:102A700074DD3EFA0B493304972763DB3B90BFBB01
:102A80009321919890BF2904E71CE715E77E38F859
:102A90002F7FE08F12786756F09E87A5EB9A0F8400
:102AA000ECEF228BC3724E6DE5F3AE587997114D62
:102AB00021649252BE626C9760C4CE778DDC7B3805
:102AC0007C4539D58F3B6959271D145A4B457E9754
:102AD000693D55936DDEE7CC637075E9D19AA71413
:102AE000DF339292BB945C9EB2E54AEF9536959B9C
:102AF0006D24AD6B9BDA478DB54D3F4C9AC7E225EF
:102B00008F87D74BBA3058DBEB167701F4ED69AEFF
:102B10006410C709B7933246CE5D46C2654218FEBF
:102B2000F08E2B8FF097EC411FC2BFDACF5AF8A579
:102B3000E0BF1A788B418FC79762F3C73E1DBB8EEB
:102B40002D52C3C4B2476C6082449A706E6CDE2F03
:102B5000936AC32F91B50A8846EDC39FF88BF0376F
:102B6000FE1611F1068FE1AF0FB787B4AF02D8366A
:102B7000A9A559184A4173E229E212C5220CEDDBDE
:102B80006C8146633B0BDD38E0C66B5A3F8F12FC0D
:102B9000558FC4DE38D27C4171E1EF04F84F4154C7
:102BA000B7BA4B75B85BCBEB88E2B8918C4C4093CD
:102BB000C84F2A25538CC93CA382B4EAE5F1A895F5
:102BC0004A2EDDD5B6BD94766EEE57BD95EDADB609
:102BD000230D9C4E83747109BFE577D656E6E777DF
:102BE0006A3A42D6BB4AFA5DEA99F42C673D69F528
:102BF000E33E1BFDA4752F87BE1BD163F8A9A7D99F
:102C0000E83AE6A9019D57475B8D422112221966D9
:102C1000991632D6C91B4888C58BA82C3E7C1E3D10
:102C200053C3FE25B3F166896DA96977967A869FAD
:102C300078BBE0B9B595658665FEF2B2E430FA5727
:102C40009B88C2D4A3ACD69D1F47D347B1EE60F397
:102C50000A1895FBB7ADAEE2F492BF74F546951431
:102C6000D0FCD2AB66B9CEE168A28A0028A28A0065
:102C700028A28A0028A28A0028A28A0028A28A0004
:102C800028A28A5700A28CD79FFC71FDAA3E1B7E0A
:102C9000CCF6B6771F113C7FE0DF03C3A8314B565B
:102CA000D735782C7ED0C06E213CC605B03938CEE1
:102CB000075A3703BE3201EB5E23FB6B7FC1467EB2
:102CC0000C7FC13DFC11FDBBF167C75A4F86639570
:102CD00049B5B12C67D47502319105B266490F230D
:102CE000242E06792057C7FF00F07137EDEFF1AFC2
:102CF000F665FF00827968FF0015BF66DF10785E19
:102D0000EBC2B79A87D8BC43E26B148B5496C2DAF5
:102D10007658ADAE6D24CB41B0CFBA17660F86960C
:102D200020003923E3CFF8250FFC13C3F651F887B1
:102D3000FB23695FB66FED4FF149FE296B5AD4B2A0
:102D400036A5378E75068B4CD22F6291E36B568574
:102D50009CBDE483E4C23965236ED88714C0FDB2FC
:102D6000D6FC6B1FC69FD9BEF75EF01EB4D347E2F8
:102D70006F0E4D7BE1FD52C00989335B16B79A3166
:102D80009F9882CA40CF5E38AFE563FE097FFF009F
:102D9000052EFDA83F60CD43C45FB485BDC7887EC6
:102DA00024FC2D9FC416DA1FC44B5D5F556BA379BD
:102DB000712AE62691A42F25BCE5576C73E319C24E
:102DC0001C83B6BFA50FF826CFFC1477E09FFC1438
:102DD0006FE1B788A7F82B71249E1DF01EA0BA04DE
:102DE000D652E99FD9EB147E58689E283036DBC84E
:102DF000BB826429FDDB02AA462BF9DDFF00826954
:102E00007EDF175FF04C6F8A7FB547C13B5F82570B
:102E1000DF1B35AF891ACA681A7F859AD9D6DD8D2E
:102E200095CDF4527DA231E6C863F2E707600C72DB
:102E300083F78A32C403F7AB51F147C19FF8385B7F
:102E4000FE097BE28D23C33AD25E786FC79A6FD9B1
:102E50002532262FBC2FAAC652587CE8F822486794
:102E600058DB8F96455386656C9FC32FF826EFEC91
:102E700089A57EDF1E1AF1B7EC57F1624FF857DFD4
:102E8000B437C16BDBEBCF861E2331917366D14B18
:102E90003C97FA34CCA46FB51727ED4846597CE926
:102EA000DD0E06D6A1F09BF657FDB83FE0819AA64D
:102EB00083FB47E95E035D13C37E26BAFB3EBFE199
:102EC0005B1B86D42D62B669D161B2D4225691E3E0
:102ED000591A40B13ABBBAB0E5C31C37E94F8AFF73
:102EE00000E0929E2BFF00828C7EDEDF047F6D7FF0
:102EF00087F71AB7ECEDAD5EDA41A878D346F11644
:102F000096CDAB457D681208FCA8721648EE2DF7E9
:102F100042CCCC80C712360B4842807C05FB26FC95
:102F20005FF8EDF0CBFE0E2DFD9C741FDA2B4BFEEF
:102F3000CFF889E0423C0B2EA9B1A19BC4360F6D9E
:102F4000776B6D7524EA08BB5226204C47EF028050
:102F5000E4104AFE9A683FF0425F1A7C1EFF00822E
:102F6000F6DC7ED39F0CFC5DA0783FE1CEB4ADA92A
:102F70006B9A4340F24F7F73731B457F68B18C2877
:102F80008E570B73E6337CB239017E402BF4A75782
:102F9000F849E15F10F8FF004EF156A1E1DD0EFBAC
:102FA000C4DA3C2F6DA7EAD3D8C525ED8C4FCB24CE
:102FB0007291BD14E4F008EA7D4D5CF1A78C747F3A
:102FC000875E19BED73C41AB699A1687A64467BC99
:102FD000D4351BA4B5B5B48C75792590855519EAFF
:102FE000C40E68034D82C4771F5FCAB27C7FF12391
:102FF000C3FF0009FC19A87893C53ADE93E1BF0F1F
:103000006931F9D7BA9EA9771D9D9DA2642EE92545
:103010009085519206491C902BE0DF197FC16CB559
:10302000EFDA9FC4F79E0DFD8B7E17DF7C74D62CE4
:10303000EE3EC77FE39D57CCD27C07A049C1264B0B
:10304000A70B25DB28C93143B4B0C1467E017F8080
:10305000BFE088B77FB42F8C6C3C73FB657C4AD48F
:10306000BF688F15585C7DAF4FF0B46874CF02F81D
:1030700079F1B42C1A7C7B45C301F29926C798A339
:10308000E7463924029F893FE0B39E34FDB1F5FB4A
:10309000EF09FEC4BF0AEE7E2D4D6F29B5BCF89531
:1030A000E2859B45F02E8D20C062AEEAB3DF329000
:1030B000CA638421E8CA645EBA7F0BFF00E08676AB
:1030C000FF00197C7963F10BF6BEF889AB7ED31E45
:1030D00039B36135968D7F17D83C15E1E623056D30
:1030E00074A8C88E4F970ACF30224DA19A3DDCD7E5
:1030F000DE5E1BF0A697E0ED06CF4AD1F4EB1D2B68
:103100004BD3E210DAD9D9C0905BDB46380891A8DE
:103110000AAA3D0002AFAAEC14302A689A25AF87AC
:1031200034AB5B0D3ED6D6C34FB18960B7B5B68818
:10313000450DBC6A36AA222801540000000000ABED
:10314000945140051451400514514006714DF33916
:10315000C51BFE56CF635199403F5E8050049E6A66
:10316000D219941AF923F6C9FF0082C37C2AFD9272
:10317000AFAEB4386E2E3C6BE31B5E1F49D21959BB
:103180002D5B8E279CFEEE23839C72DFECD7C0FF65
:103190000016BFE0BF1F1BBC6B7B2AF866D7C2BE00
:1031A00006B1DC4224369FDA5738E9F34B2E149CE3
:1031B000E4E444BD7BD7978CCE70B87769CAEFB290
:1031C000D4FD5F847C15E2DE21A4B1184C3725279D
:1031D000F6EA3E45AF5574E4D79A8B3F6C3CD51464
:1031E00079C2BF9F63FF000565FDA4249DA46F8B7A
:1031F0007AD73CED5B0B20A3F0F22BBFF85BFF000E
:1032000005D1FDA03C05770FF6B6A9E1DF1959AF4E
:103210000F06A9A5AC12B8CF6960D8437B95603F73
:10322000BB5C34F89F072959A6BCEC7DBE33E8BDD2
:10323000C5F4A939D29529B5D14DDDFA5E297DEDC8
:103240001FB94B2866C7A53B3CD7CB7FF04E6FF824
:10325000297787FF00E0A01A36B36F0E932785FC0D
:1032600055E1E113DF6952DC8B80F148582CF148BD
:1032700002EF8F7295395054F04720993E067FC176
:10328000482CFE347C72B7F0AC7E13BAD3F4FD4BFD
:10329000CA7B1D48DD9794C7710CD3DA34D098C02F
:1032A0004F363B69895491CC4542B80DB82FBB4687
:1032B000B42AC154A6EE99F82E7592E3B28C6CF242
:1032C000FCC69BA7560ED28BE9D7A68EFE47D41418
:1032D00051456A796145145001451450036404AFA7
:1032E000CBD6BE3DFDB13FE08A1F09FF006A0F88C3
:1032F0004DF117C3526B9F053E3444CD35B78FFC5B
:10330000057674AD51E538DDF6A44C4574AF801FE9
:10331000CC1BD946D0EA09AFB128A00FCE19FF00C7
:103320006D1FDAC3FE098B1793FB46780D7F686F1C
:1033300085B6A79F8A3F0D74F10EB3A74433993524
:103340004D170170720992D98471A2124BB3606853
:103350007C47D7BC23FF00052EFD9DFE317C5AF82B
:103360003BE37D1FE39EA173E1E8B42F04687A2B51
:103370000B5BAF0DDAC8D6F35D5B4B0DC3A343798E
:1033800079716E59A4B848888ADE05002AB97FD0C1
:10339000C58557A67F3AF8CFF6B4FF0082247C2C6F
:1033A000F8EDF1224F895F0FEFB5EF805F1A915C66
:1033B000DBF8E3C0737F67DC4EED8245E5B29586AE
:1033C000ED1881BC305771C17C500717F18D35CD98
:1033D0007BF6BFF87BE26F8E5E26B5D3F41F85FACD
:1033E00066ABF15B5BF0BE9D70F2787FC17616B183
:1033F000B5BE9ED74CA81F50BE79E47B8595D424DA
:103400006FA6C82DE31867966FD9A3E3DF8BAE755F
:10341000CD4FC57E38F8B3E22F85BE30DD75E2DFD3
:103420001B7C39F88FA1A2E8DA4686B2058FFB3AF9
:10343000E018BCA16F65F67592782E6784CFBDE663
:10344000816591C57897ED1FF15FE3A7ECC1E01DA1
:1034500073C33FB5E7C39BAF88DF0EF538B4E177A0
:10346000F1DBE0F58C51EAD69169F79F6DB56D5BA4
:103470004C643B238A7F9DF629B6DB2489B25DEE3E
:10348000B5EE7AA7C624FDB73FE09E91F883C33E10
:103490003FF0BFED1DA47877C5FA06B9A81F09E96A
:1034A00062DAFF0059D16CF55B3BBB9B6BAD3DA471
:1034B0002C97822865730058CCDE4AAAC40C9E5D06
:1034C000007B8784FF00E0A6BF0B7C59E27D074F9D
:1034D00099FC75E19B7F165E2D8E81AB789BC11A9E
:1034E000BE87A4EB33B7FAB8E2BBBBB68E20D29E40
:1034F0002259190CC4A88F796507B49FF671D3744B
:10350000CF0FF847C31A3476DA5F837C3FA8B6A79B
:1035100077A685666BD75769A24CF4DA2E1BCD6C63
:10352000F528A3A572FAE7C5CF803FF050AF851A02
:10353000DFC39FF84EBC0BE3AD17C77A25CC37BA73
:103540003D8EBB0B5F4966405964F295C4F0B445AB
:1035500094962AAD13853F2B015E43FB307FC14912
:10356000BC1FACDB7C50F1CF8E3C7F79A2F87C890C
:10357000B55F0A683AED99D3E43E1CD3EDD87F6A73
:103580005A3491A35E9BD292DD1689A40A8F02E180
:103590000839D69E22A5256A6FFCAFAABDBBABBB7E
:1035A0003E973971183A35FF008B1BF4F3B5D36B96
:1035B000D1B4AEBADACCF46F094BA97C48F8D7E2A3
:1035C000CD734EF162785FC750CAFA6D9787756BFD
:1035D000212A7F6640CCA8D242DB242B348249FCCE
:1035E000C81C0DAD1862DB001C5F883E392DF789C1
:1035F0007C6D7FE1AD47C61A1EA3A3C4A3C21A7691
:1036000093A3CD75A56B685A7DD2BC11A3C6C6EA3B
:10361000F12E17736C7090ABAB80CE4FD0DE08BF2D
:103620008FE30FC29F0DF89BC55E159FC27AB6A5AA
:10363000A525D49A76A122FDBFC3EF73081241E7F6
:10364000260C7280FB18A1539E339A3C3BF0820FEC
:10365000047C4AB1D53456874FD1ADBC3C9A049A0C
:103660007A02176C1286B529CFFCB357B85E79225F
:1036700041CF06BDBA39A51D65521AD924B4B2B5D9
:10368000AEAF6D6E9595D6CDEBADCF99C4E4389FB6
:1036900076346A68E4DC9EB77CD7D52E64934DDD22
:1036A000F2B4AEA2EDA58EC34DBD9BFB1A1B8D429D
:1036B00038ECA6F2164BA8FCD0CB6EDB4161BF8084
:1036C000429CF3DC0CD3B43F11E9FE23D2E3BED31A
:1036D0006F2D750B3989D93DB4CB344F8383865216
:1036E00041E41EFDABE5FF00DA8FC23A3FC7EFDBD6
:1036F000D7E16FC31F8836F0DF7C3C9BC2DABF8AFC
:103700002CF43BB9BFD03C55ACDA5DD846B15CC2B5
:103710004EDB85B58266996170C8C65F30AFEE0139
:10372000AA7F103E17F83BF63FFDB4BE09CDF0CF9F
:1037300049D0FC09FF000B22FF0056D2FC5DA2E835
:10374000F6E9A7E9DAA6956BA3DDDD8D426B78F685
:10375000C425B5BA8ACA217057705BD68CB6245C72
:103760007CFF005B9F60B4563EBAA2BE75FD95FF1C
:10377000006E1F127ED1571A1EA17DF08FC51A0749
:1037800082FC742E6F7C21E26B7BA8B51B2BEB04B3
:10379000F35ADE6BE8D424D60F71046B344AC92483
:1037A0004CB346A65595BCA1F4446DB96801D451FB
:1037B0004500145145001451466800A28A2800A211
:1037C000918E0579C7C74FDAFBE16FECC96F1C9F7B
:1037D00010FE23782BC13E6ED11AEB5AC4166F2609
:1037E000E60AB857604E491D07AFA1A9D40F46326B
:1037F00001F9E2BCA7F6B5FDB8FE13FEC31F0FE446
:10380000F137C56F1C687E0ED2F07C95BB9B75D5D9
:10381000E30FE18205CC92B73D114E3A9C0C9AF928
:103820001FFE0A71FB627ED47F116CBE1EE83FB1A1
:103830002F877C1BE3BD0FE245ADCBCFF11ADF51E3
:1038400082FEC7406859372B364C11E51C15772E80
:1038500058EF558F72D7E2DFED65FB2B7893FE09A9
:10386000BFFF00057BF843AD7EDBDA82FC7CF0779E
:103870008BCC77BAD6A77573752DA4F138304FB7B6
:103880002CAEC2CA492294C41551D542EDC362A8D8
:103890000FD1EFF82A37FC17C7E2178E3FE096DA10
:1038A0006FC79FD9361161E1393C4B73E16F14EA60
:1038B000DACE961F56F0F9CA2DA5C43112D0AC72DB
:1038C000B6F52EE18AB4B00DA198E3C77FE09C7FE6
:1038D000F06FF7C2BFF82B0FEC730FED05F18BE320
:1038E000A7C44F887E38F1FDA4D25CEA4B789027BC
:1038F000866E226911E293CDF30CA6360090C513B3
:1039000068C2AA8E6BF67BE307EC91F0EFE3F7EC6D
:1039100097E20F83F73A1E936BF0EBC53A2BE9223F
:10392000C74B82382DEDA175CC72DBAA0DAAC8DB7E
:103930002442070CAA457F2EFF00B21FECC3F1AA58
:103940000FDBA758FF00827F789BE376ADF07BC347
:1039500037DE23BA4D5E3851E483549A287CD88CE4
:1039600028AC85BED30AA3A069150AC809DC7E521B
:1039700001F647FC1AB7F0EF50F8F9A0FED65FB396
:10398000778CAEAEBC6DF039AC23D364921944BAD7
:103990007C17125C5D43E65A3E58234CAAD3A940DB
:1039A000466057E081BBE3AFD827FE09ADE09F0F2B
:1039B0007FC167E7FD963F6A0D43C411E9BA0EA3C4
:1039C0007567A7C165746D6CF52BAF285C5BC8C4C7
:1039D00092628AE6DFCB9015E486504F39AFA4FCA3
:1039E00043F00BF6B8FF008354FE31DF7897C052E6
:1039F00047F163F67DF115EA9BEC5895B5BE21635E
:103A00000A2F625DF2595C8C948E5466460A4F39D7
:103A1000641F597EDE7FF047F8FF00E0E2683E0C4D
:103A2000FC7FF0DD96B9F00F5ABAB4B8D2BC63632C
:103A3000E2BD2648F5596CA373F659228D70B23257
:103A4000B0902B9203C73C672BE5ED201DFF00C70C
:103A5000EFF82E87EC6FFF000474F0F45F0B7E0923
:103A6000F86B4FF1C7882C664B793C3DE028D3ECCE
:103A7000D090E377DA2FF0CB24A159C85532BEE5B8
:103A80002ADB339AE43FE094FF00F04C2F8A7F0951
:103A90007FE0B85F1ABF6888F44B3D27E0CF8D9B6D
:103AA000536D1E7BB90DA5DEA71DFB43771C90DA75
:103AB000E5D822BFCA4C9B3D540FBB5F5EFF00C1DF
:103AC0003A7FE084BFB3D7FC136ECED2F3C2BE13ED
:103AD0008FC43E34853F7BE29D7916EAFCB73931CD
:103AE0000236403920796036382C6BEC0D6756B3BE
:103AF000F0EE9B717D7F756F636367134D7171731A
:103B0000288E1823504B3BBB10154004924E0014D6
:103B1000013CD6EAF1E1D438C838619190720E3D8B
:103B20004119AABE21F1469BE0CF0FDF6ABAC5FD5D
:103B30009E95A5E9B0B5CDDDEDE4EB05BDAC4A320F
:103B4000CF248E42AAA819258800735F06FC54FF73
:103B50000082E75AFC60F1DDFF00C3DFD90FE1DE30
:103B6000B1FB4E78EACCF9579ABE9B27D87C17E177
:103B7000F7232AD77AAC988A4F972CA909224D852A
:103B80005640DC0CDF0E7FC119BC6DFB666BB67E48
:103B90002AFDB6BE2B5CFC57960759ACFE1B784D30
:103BA000E6D17C09A4383901914ADC5FB2B056599C
:103BB0002628472AC245C5005CF883FF0005BCBA29
:103BC000FDA13C65A8780FF636F867A9FED13E2A1C
:103BD000B33E45F78A99CE9BE06F0F4A7A7DA3509A
:103BE0009368B82065BCB848F300C2393C08BC1DD6
:103BF000FF00044CF10FED55E28B2F197EDA7F1494
:103C0000AFFE396B16730B9B1F02E9065D1FC07A6E
:103C10001B8E816D50AC978C30BFBC9B6961F2BA32
:103C200038E4FDE7F0FF00E1BF87FE1378334FF083
:103C3000E785743D23C33E1ED262F26C74BD2ACE6A
:103C40003B3B3B34C93B638A301106493850393518
:103C5000B406280327C15E07D1FE1BF866C743F0F0
:103C6000F691A5E83A1E99179367A769B6A96B6BF9
:103C7000689D76C71200AAB9278000E6B5A8A28081
:103C80000A28A2800A28A2800A28A2800A0D1450BD
:103C9000057925DB5F94FF00F0575FF82B66A72FAF
:103CA00089353F853F09F56974FB6D3DCDAF88BC13
:103CB00047672812CD20C6FB3B561F7429CAC92866
:103CC00039DC0AA91C96FAC3FE0AF5FB625D7EC8C0
:103CD000DFB276A12E8973F67F1778BA51A3E8CEAA
:103CE0000FCD6CCC3335C0F78E2DC47FB453E95F54
:103CF00083B0C2B6D12AAEEDAA3192D927DF3CE714
:103D000027927DF3D6BE5F887369515F57A2F57B1A
:103D1000BECBB7CCFEACFA39F84F87CE272E23CDD9
:103D2000A1CD469CAD4E0F69496F277D1A4F44BB0C
:103D3000DDBD8934AD2A5B9B8B6B1B0B5927B8B853
:103D4000904505B5BC65E49E473C2A22825D98F605
:103D50001924FA926BAEF8C5F007C6DFB3E6BB676D
:103D6000A6F8E7C2FABF85EF3508BED16B1DEC405F
:103D70002DCA0C676B025495C8CA83B973C815FA6B
:103D800013FF000428FF00827EB5D5CC1F1CBC5D4C
:103D9000A7B2AAEF8BC1F693AE187DF8E5BF2BEF63
:103DA000929164703738FBCAD5F6AFFC1433F63401
:103DB000B1FDB7FF00672D43C2ADE4DB7886CD854A
:103DC000FE81A848BCD95E2F033FEC48BBA371D34A
:103DD0006B67A815E5E1F876A55C33AD27693D5220
:103DE000FF0033F53E26FA4760F29E2A864B429C3E
:103DF0006785A6D42AD4EA9BD1F2A5A5A1D7BBBDDD
:103E0000B63F9F3AB9E1BF0C6A3E36F1258E8FA3CB
:103E1000E9D79AB6ADA94C20B4B3B485A69EE1CF3C
:103E200045545049EE7D8024F009A8F5DD12FF00CD
:103E3000C23ACDF699ACDAC9A56A9A4CD25B5F5A00
:103E4000DC0C35ACC8DB5D1BFDD20F23A8E6BF5BE5
:103E5000FF00E0885FF04F997E0F78287C5CF18648
:103E60009EF0F8B3C4D6C5744B4B84C49A4583679F
:103E70002E57AACB38DA4E79540ABC65F3E4E5B97B
:103E80006CF155BD9BD97C5E5E47EAFE267899822F
:103E9000E14C8FFB56EAA4EA694A3FCEDA4D3D3E3B
:103EA000CA4D36FB69D4FCE5F867E30F889FF04DF7
:103EB000AFDAA346D7350D0755F0FF0089FC3AC2AB
:103EC0004BAD26F53CBFED3B29462584372AEB2236
:103ED000F4652407543D457EE9FECFBA37C32F8AE7
:103EE0007A268FF14FC13A3E92DFF093DBCB7F69A8
:103EF000A8C5005963FB430373B4748A47913F7D9F
:103F0000B402EF1FCF922BC77FE0AF3FB091FDB15E
:103F1000FF0067DFED2D06CD66F1F782564BDD1B06
:103F20001C35FC67699ECC9EFBD57299E048ABEFCF
:103F30005F18FF00C1097F6E9FF854BF129BE10F0D
:103F400088EF1A3F0EF8C6E1A5D0A49CEC5D2F5176
:103F5000018C9060F413E33838DB2AE393271F5574
:103F600083BE5B895859BBC27F0B7D1F63F9378DB8
:103F70002A51F123867FD6AC1D350C7E0FDDAF08AC
:103F8000EBCD4F56A496ED2B36AF7D3996BA1FB1C7
:103F90008C485F5A54248E462A249326A553915F59
:103FA000507F2D8B4514500145145001451450018C
:103FB000451450035D770AF8A7F69CFF00821C7C2D
:103FC00037F89DF12A6F899F08F5AD7BF66FF8CC25
:103FD0001731F8B3C08C2DADEF5B8E2FB4FCADBDA7
:103FE000D4679DCB846933F33B018AFB628A00FC72
:103FF000A7F8B5FB4F7C67FD8E7C0FE28F0AFED9D8
:104000001F0A5BC4BF0FFC5361268FA9FC76F841E1
:1040100067FBE4B291446EDAA59AA7DA2D7E560AC0
:10402000D22009F36D8D1C8CD7BF7C62F11FC3DFDA
:10403000DBDBE0AFC2ED63E1ABF86FE287C03F06C8
:104040006A63C43AEDB786625D4F52B87D31229300
:104050004BD22D6D36EE8DDEEBC97903F96563B475
:10406000D8D8594B2FDB06207FC2BE1DFDA3BFE071
:10407000869E02F10FC49B8F899F017C4DAF7ECC41
:104080003F1898890EBFE0A455D275561D1750D21F
:104090004916D731FDF24288CB339672FD2803C70B
:1040A0007F6E0B7F8E9F11B58F0BF88BE337817579
:1040B0002D1BC1B73E36F071F07E93E19F12C3799C
:1040C000A77842E64F1269A92378850189EEAEE40C
:1040D0008F7246F0FDA2CE03332EDDE12E1FEACF14
:1040E000DB13E33FC4EF0A7ED3BF09BC1BF086FBA2
:1040F00041D4BC49E228754D4B5BF0F6BF0EDD2480
:10410000E916B1A6EBD96EA146B9B59BED32DADB63
:10411000C455644737129689FCA247CA3F15FF0071
:104120006ECF8B9FB28F85ADBC1FFB74FC29BAD5B7
:104130003E1E586B7A5EAD07C64F8631CD7BA20915
:104140006C2FEDEFED25D4AC557ED365B6E20803B8
:1041500090A56462CA8847CC7DF3C2FAEB78FF0071
:10416000E1E7C64F8F5F027C5FE1DF8CDE32F8B49F
:10417000FA6E83E13BDD2A58A4B0F0CD843B6DADEF
:10418000E190976F92D67BABEBFB856C3334922E2C
:10419000C042AD00745ABFED01F05FF6D3F10DBF20
:1041A000C33F1BE9FA958F882C7597B5D22E1D6FEA
:1041B000B4FB7B9D66D2126EC687AD4421325C5B38
:1041C00037DA21630491CD88A7F93CBC930FC57FF2
:1041D000F82646837DF0F356D1BC1B71AA2EB5F1AB
:1041E000025B3D07C67E2DF12789351D63C412F899
:1041F0006D66125E58DB5D5CC92C91F9F1A79023C6
:10420000468E35F39A5E5D067E65F01FC20D63F63D
:1042100067F829F10B4AF16FC52D77C61F0D7F6432
:10422000DF1DC7A8D9F835744B3FEDAD66E2286DA8
:10423000357D1E37D4D70E5659B50B577262323CB6
:104240008AEAD218CBA37D493780BF6A8F0EF82641
:104250004F197FC2C3F04F88BC656F035F49F0F10F
:104260003C3A967E1EB8F94B1D3A1D437B5E47379C
:1042700048D6F242F1971BCDB056D8A01EBDF01F14
:10428000F653F05FECCDA96B8DE07D3EEBC3BA4EEB
:10429000BBE5336836D7D37F6269CF199497B3B241
:1042A0002DE45A17F34EF10222BEC4C8CAD7A45750
:1042B0009CFC15FDA9FC1BF1DBC1BF0F758D1F54C4
:1042C0008E16F8A1E1CFF84AB40D3EEF115EDCD8AE
:1042D000AA5B34AFE5E4F311BCB757C1215A5519B5
:1042E0003915E8D9A0028A28A0028A28A000B6D1F0
:1042F00051BCB85E14B7E15F38FF00C14D3FE0A686
:104300003E09FF008263FECFEFE33F164736ABA9BD
:104310006A137D8F40D02DA511DD6BB75C1644620A
:104320000844453BDE4230AA3A12403FCE9FED772B
:10433000FF0005C6FDA5FF006C4F105D4FA87C4433
:10434000D63C0FE1F926F320F0F784EE9B4FB580C1
:10435000020AABCC989A72081CB3019C9DBDA96F50
:10436000B81FD5D4736E1F32B291EBFE34E4903D8A
:104370007F1D7F0ABF6F9F8F7F04753FEDEF09FCA4
:1043800063F8ADA3FD96716B25D36BB777764D2996
:10439000C110C8B39920918FDE28C09E724649276C
:1043A000F6D3FE0883FF00070B4DFB67F8D6D3E179
:1043B00027C698F49D1FE255C46C745D76CD3ECF40
:1043C00065E2628177C2F163105D7DE60AA763A8AA
:1043D0003B402304B01F767FC14DFF006A4D43F67A
:1043E00027FD81BE2A7C54D26CE3BED5BC19A0CD7A
:1043F00079610C8A5A3372C56284B800FCAB248A96
:10440000CDC630A7381935F84FFF00049FFD85FF52
:104410000066DFF82A0FC1AF187C7CFDB0BE3F7F7D
:104420006E7C46D62FEEA2BCD3751F17DAE8AFA27A
:10443000C48C156E5D490E59FAC6A02C4A3036362A
:10444000463FA36F1EF82349F895E08D5BC37AFEC3
:104450009D6BAC687AF59CDA76A363749BE1BCB77C
:10446000950A49138EEACAC41F635F8A7FB4EFFCC2
:104470001BBDFF0004EBF83BFB4A687E17F157C6F3
:104480002F137C3DF1278EAE9D34AF089F145A92B6
:1044900085D4B263CC81E5822E1823CEE159B6A82B
:1044A000663F2B303E92FF0082127C0BFD963FE070
:1044B0009FBA7F883E1F7C27FDA6F47F8B5E2DF17F
:1044C00055DA4B7D64FE27B531978CBAA7D92C23DA
:1044D00072AAFB4857705D9CA8E40014769FF071A7
:1044E00067FC13707FC145FF00E09E7AEC3A2E9F77
:1044F000F6AF885F0F777883C345466499900FB411
:10450000DA8E47FAD843003A6F0879C57E357FC105
:104510007F7FE09BBFB337FC139E7F8651FECE3E6C
:1045200032D7A5F8B971ADBF9FA1DB6AEDABDC2432
:104530004A14C570AF18CC1324E115533B9FCC240B
:104540000F90D7F4A7FB2FC3E2A1FB37F803FE13AC
:1045500085917C663C3B6035D5760ECB7BF678FC4E
:10456000F0C70327CCDD9E2803F3CFFE0D4CFF00E0
:104570008291FF00C3677EC0B1FC39F105F4973E1C
:104580003DF823E4E8F70D3BE65BED264DFF0061C7
:104590009BDFCB447B738C91E42163990666FF001B
:1045A00082CA7FC10275DFF82827EDABF0A7E33799
:1045B000C2EF18691F0DFC57A0E2DFC4BAB4F1497D
:1045C00024B225B1592C6E618D31E64C8C2489833F
:1045D00032E50C5C80983F537EC61FF0488F81FF08
:1045E00000B08FC74F1C7C47F87FE1CBAB1F17781B
:1045F000FA7B892FAEE6BD7916D619A5599EDA0841
:10460000C61121F3155B0412081838E2BE9AB99559
:10461000604791D952345DCCCC70AA07526802BD74
:10462000A69D245A4C56F79225F48B12C534AD182A
:104630005139C60B14E47279C7BD4D73A845A7590B
:10464000CD717122430C0A649649182A44A064B1C2
:1046500027000032493C57C2FF001DFF00E0BA9E10
:1046600011BDF88B75F0D7F66DF07EBBFB537C5611
:1046700080EC9EC3C212A47E1FD149E15AFF0058AC
:104680007CDB42870C0152E372156286B95B3FF80E
:1046900024BFC5FF00F8281DD43ACFEDADF159B5C0
:1046A0008F0E9904F17C20F8773CFA3F84E019CA18
:1046B000ADEDD061757CC0856F9997CB753B646516
:1046C00038A00E83E32FFC173741F1AFC41BCF870F
:1046D0003FB2AF8175AFDA97E24D9B7977927876EA
:1046E00075B6F09E804FDD7BDD6241F67008C951E2
:1046F0001175728CA6446C0AE7F48FF823A7C4CF17
:10470000DBB353B7F117EDB9F1624F1D69EB22DC52
:104710005AFC29F03493E8BE09D39810409DD596F1
:10472000E6FD9582B2B48CAC8C186E7538AFBC7E49
:104730000E7C10F077ECF3F0FAC7C27E03F0BE8572
:10474000E0FF000D69A08B6D3347B28ECED6227983
:104750006211000598F258F2C79249E6BA955DA237
:104760008039DF857F093C2FF037C0F61E18F067CF
:1047700087744F09F86F4B4F2ECF4BD22CA3B3B396
:10478000B65CE4ED8E30146492490393C9E6BA2A0C
:1047900028A0028A28A0028A28A0028A28A0028AC9
:1047A00028A0028A28A002834507A5007E37FF00C3
:1047B000C1C3FF0012EE3C41FB527837C2A26FF436
:1047C0002F0C680D7BE50FF9EF7736198FFDB3B726
:1047D000880FAB57C77F093F667F1A7C76F0478DFD
:1047E000B5CF0BE8936ADA5F80B4F5BFD59D01C9F8
:1047F000566C08E318CBC9E5EF90A820EC8BD4A841
:104800003F5E7FC166FE05789BE31FFC151743F0F2
:10481000D7866C3FB435BF1A683629A6C449553BC4
:104820001A659247619DB1C615999B1C007B915FEB
:10483000A6DFB1BFEC91E1DFD8CFE02697E07D05A0
:1048400052E96DD4CDA95F3C2164D5AE9C7EF6794A
:10485000073F78F017242A0551C0AF8B794CF1B986
:104860008559D5D229DBD74563FB5B0FE2BE1782A2
:1048700078032AC265A94F13562A4E2F68C5CEF376
:1048800072F36EF18F9DDF467CB3FF00042DFDBAFD
:10489000D7E33FC2493E16F886F164F147826D8343
:1048A000E97348C376ABA6127663D5E0C88DB1D55F
:1048B0007CB6EE6BEFE57638CE7BF23B57E22FED20
:1048C000F5FB3DF887FE0959FB70E8BE3EF8771707
:1048D000D87C3BA95DC9AAF86C807C8B7976E2EF25
:1048E0004D948FF966CAED8EFE5C981CC79AFD7CCC
:1048F000FD993F68AF0FFED4DF04340F1D78665674
:10490000934CD720DE62908F36D255252486403ACC
:104910003A3AB291ED5EE6518A934F095BE383B771
:10492000AAE8CFC3FC5AE1BC2A9D1E2CC917FB1E66
:1049300037DEFF00AF75379C1F6D6EFEFEC7E727A1
:10494000FC17C3F6125D3AFBFE1767872CF6D9DF1A
:10495000F9761E2F8A15F991F0B15BDF607FC06296
:1049600072076898F0188FA9FF00E0919FB75AFE70
:10497000D8BFB3C8B3D72E55BC7DE09F2ECB5A5EAF
:10498000035DA36E105D85E38915086C0E1D1C7A0E
:1049900067E9EF1AF8274BF88BE0ED4F40D72C6111
:1049A000D5346D6ADA4B3BDB498652E22752AEA71B
:1049B000BF209E4723A8E40AFC37D46C7C5BFF0031
:1049C000045EFF008284ACB0FDBB52D16C1B31127F
:1049D000428F126893F0509E9E6C673F496053C2AD
:1049E000B66B9715FEC38958A8AF726ED2F5E8CFA3
:1049F000A6E14ACB8EB8527C2B887FEDD824EA61A1
:104A0000A4DEB387DAA5F25B7972FF0029FBB99DBA
:104A1000FB76E772F4CD7E2FFF00C16E3F61A93FA8
:104A2000679F8D91FC4EF0CDBC96BE14F1C5DF9B07
:104A3000706D731AE8BAB2ED6DC08FBA2620C884C3
:104A4000749164E84AE7F61BE1D7C43D27E29F81F1
:104A5000F49F126817916A3A2EBB6C979657319C57
:104A6000ACD138CAB7B7D0F20E4561FED0FF000016
:104A7000FC3FFB4CFC1BD7FC0DE28B73368DE20B2D
:104A80006304A50E24B77043472A1ECE8EA1D4FA24
:104A9000AFE15E9663818E2E8385F5DD3EC7E6DE4F
:104AA0001CF1A62384B3D8E2E516E9EB0AB07D60D9
:104AB000F4926BBC775E6ADD59E2FF00F04AEFDBEF
:104AC0009E3FDB63F675B7B8D52E233E3AF0BECDD8
:104AD0003FC471280BE64841315D281C04991777C3
:104AE0001F7583AFF0D7D4519F97AF7ED5F843FBA6
:104AF000235E78FF00FE09C5FF000537D27C1F78D2
:104B0000BE66A536B30786358B600C76FAD595D38D
:104B1000AAC13A7B7EF1264233860CA7F8ABF77A1E
:104B2000218079CF3D6B3CA3193AD45C6AAB4A2F04
:104B300095FCBAFCCF4FC5EE0FC1E479CAAD95C95B
:104B40004B0B8A8AAB4ADD2326F4F44F6F2B754C4E
:104B5000764FA9A327D4D1457A87E52193EA68C97E
:104B6000F5345140064FA9A327D4D14500390E454D
:104B70003A9B1F43F5A750014514500145145004BA
:104B800077502DD40D1C8AB247202AE8C372B02377
:104B900004107A8AF853E3B7FC10A7C236BF11EFAE
:104BA0007E267ECD9E30D77F65BF8B571879AFFCB0
:104BB000251ABF87B5961D12FF0047722DA64E58C5
:104BC000808106E72EC1DABEEFA2803F2BFE2B7E4E
:104BD000DC9E38FD9BFE1EF8B3E1CFEDE3F067FBF2
:104BE0001FC17E38B23A46A1F1A7E185BC9A8787FA
:104BF000EF94A79714F7B12A1BBB099018C23B2B5F
:104C0000E6503646A8A08FA33C07E29F8E1FB5A7AB
:104C1000C0BB5B3F04FC54F81FAF7837C416CD64AB
:104C20007E2BF86659E7D4E784A14924834B557B52
:104C3000586F413B496BB648DC16F27FE58AFD7D33
:104C40007BA7C1A9594D6F710C73DBDC218E58A471
:104C500050C92A9182AC0F0411C107AD7C1FF19796
:104C6000FE0867A0F82BE22DFF00C47FD95BC75A6E
:104C7000DFECBBF132F3125D2787A15B9F09EBCC20
:104C8000BD12FB4773F672B8C8531045467326C76A
:104C90007EA01E6FF067C056FF000FFC69F0E7F6BC
:104CA00095B5B2D4741F87BE19F15E9FF0A7C21AE2
:104CB0005DEC8D6EDA47818C5368715CCA250AD928
:104CC000BBD666B4BE6671BBC88ADB27E5663EB15B
:104CD000F0B7F6FCF116A5E34D2BC47A86A9A6D849
:104CE000783FE265F6A1E30806BC52DECBC0FE01C8
:104CF000D3205B64D4A47CA309F51BA30CD1991D1C
:104D00009563BBCEDCC2EA7C57E3D7EDF9E23F0204
:104D1000FC24D77E0BFF00C1447E0CDC786BC09E68
:104D200030B71A4DD7C50F027DA354F05EAA8CEBA5
:104D3000B4CDB01BAD3642E1157782C5C160A8A0E5
:104D40001AF5AF8B1F05745F1DFC17F127C64F04C2
:104D50006AFA4FC62F0DF89FC69E13D6EE2D3C2D36
:104D60001A5DDAC9E10D12F2DCAE97691C4ECB3741
:104D7000D99BED778D1273339922084B2AD007BC4B
:104D8000782FFE0A63F0ABC65E2FF0EE90F3F8D3F7
:104D9000C3ABE31B85B4F0F6A3E24F066AFA1E9795
:104DA000AECCEBBA38ADEEEEEDA385A471F7119958
:104DB0005A43C206C8CFBE79CB9FE2FCBA5786EBF6
:104DC000FF0011BE05FF00C1433E156ADF0F21F150
:104DD000BF827C77A4F8D74991E5D374BD76DE6BAA
:104DE000E6B7564FF488E34732C6F0C86260FB412D
:104DF0008A40878602B81F825E2FF8BDF113F6BC89
:104E0000F1B3378EED0699E07F1B4DA1F887C0778F
:104E1000BA6DBC76969A04BA6F9FA66A163731C2ED
:104E20006E64BA9A47B792432CAD0B6EBB842C6D5F
:104E30000A9001F5951451401FCD07FC1C07E3DFD4
:104E40001C7EDC3FF05A0D47E16F866CEFBC457964
:104E5000E0F6B0F06784F468888BCCBAB9B682EA21
:104E6000E9B2C70BB9E505E438023B704F0B9AF283
:104E7000CFDA03FE096DE0BFD9DBE1478E66D43F90
:104E80006AAF827A97C58F86E8A75EF02C06585CD9
:104E9000CCF9DB676976E47DAAEB2AC1824202364F
:104EA00015B6FDE3EA9FF05B283C69FF0004E9FFCB
:104EB0000082EDEADF16FC36B696DA86A97569E35C
:104EC0005F0DDD5D5A79B6B3BFD852D2E62923C84B
:104ED000DDB5D5B3B482448A73B8313F517C1A3FF3
:104EE00012BF690F1DF807C75A97FC13A7F6736F17
:104EF00002FC679C6BBE23F18CB796776B0E9D26E8
:104F00003ED57F2C8F81048D1399630C0B3FCFC648
:104F1000E762A014FF00E096DE2983E2A7FC1123DC
:104F2000E187C36D73E0EDE7C70F01F883E26EA977
:104F3000E0FF0015693A64664D53448A4B97BE837F
:104F40005388A6DD8B6EECA58C8EAC15976BED00AF
:104F50001F857FE0A75FF04A9F88DFF0493F89BA4D
:104F60007F8ABC3FA9DE78AFE1CC37A975E15F1C31
:104F7000DA1F9ED2E60F276C37CD165609FCF728AC
:104F80008D9DB2ED24618151EADFB44FFC146BE1D9
:104F9000A7ECB7F01FF6A0FD9F7F67DD4BC6567AE2
:104FA0002F8BBE2543A9F8335CD03518934BD374AF
:104FB000E586C8EA112DC890CD2C124F0DDC512486
:104FC000608D8C8C5C0187F83EC7C69F10BC79E071
:104FD0003D3BE15E8BE22F196A9A26A7AA0FECBF30
:104FE0000AC7AACEF6171A9DC3244920B50DB1A54C
:104FF0002E170C41DA46E183C900FEC43F667F8B61
:1050000009F1F7F677F01F8DA359117C5DE1FB1DC7
:10501000636B2856533C0921040E3AB1E9C7A71522
:10502000F2B7FC1513FE0DFDF817FF000554F14D06
:10503000A78A7C5B1EBBE12F1CDAC3F677F10787DA
:1050400065861B8D4230A8B1A5CAC91BACA23080B1
:1050500021C0600919C600FAA7F66AF83F1FECFFE5
:1050600000FB3DF80FC0EB22CC3C1FA058E8DE62ED
:105070007DD90C10246587B12B9FC6BBCCD007C04F
:105080003FF04FBFF836D7F669FF00827A7C43B70E
:10509000F19E8DA2EB5E38F19E9D2F9BA6EAFE2924
:1050A000BB5BA6D28E080D0C31A24224C1FF005872
:1050B000C8CC0F2A57A57DF68DB7E53F7ABE29FDEE
:1050C000A6BFE0B8FF000E3E1A7C479BE1AFC21DB1
:1050D000175EFDA47E32A8603C27E0302EA1B065AB
:1050E00020335F6A0035BDAC6A490C7E7646186491
:1050F0005EB5E73FF0EDDFDA2BFE0A52AB7FFB5ED9
:105100007C4CFF00842FE1FDE47BBFE14E7C33BC8F
:105110007B3B3954E3316ABA98265BAE00DD1C6CE8
:1051200063DDCA3AF2080773FB45FF00C1737C07D1
:10513000A07C45B8F86BF00FC2FAFF00ED3FF1829A
:105140003043E85E09657D2B49390036A1AA906D90
:10515000ADD33B812A642ACBB5C2641AE1ADFF000E
:10516000E0963F1DBFE0A39247AA7ED99F150D8F01
:105170008366612A7C1CF86B732E99A085ED1EA5B1
:105180007C1BED17A78525030547526390038AFB17
:105190008FF676FD97BE1DFEC93F0E2D7C23F0CF06
:1051A000C1BA07827C3B6806DB3D2AD160591BFBF4
:1051B000F230F9A590F7790B31EE4D776ABB071401
:1051C00001C67C05FD9DBC0FFB2EFC3AB3F08FC3DE
:1051D000BF09F87FC17E19B1C98B4ED22CD2DA102B
:1051E000C7ABB0519776EACEC4B31E4926BB4A2856
:1051F000A0028A28A0028A28A0028A28A0028A285F
:10520000A0028A28A0028A28A0028A28A00283D2AB
:105210008A2803919FE11F876EBE2B5BF8DA5D261B
:10522000CE4F155AE9CDA4C3A930CCD15AB3EF68FB
:1052300094F652DC9C726BA271B581FAF23D6A69F8
:1052400006D27BF3F957CC3FF0548FDBD6DFF6194B
:10525000F817F68D35A0B9F1DF8983DA7876CA4E72
:105260005772EDF36E5C7FCF385581C7F13322FF63
:1052700000164655AAC28C1D59E8B767AD93E5588C
:10528000ECE31D472DC2273A951A8C576BFE496AED
:10529000DF65767C71FF0005FBFDB0745F1AEB9A49
:1052A00027C1BD1FCABEBCF0CDF2EAFAF5DAFCCBCD
:1052B000633984886D54FF007CC73177E780507F65
:1052C00011C7977FC116FF006ECFF8665F8E27C0AB
:1052D000FE24BD5B7F02F8F6754124CD88B49D475E
:1052E00004452F3C2A4DC44DFED7944F727E32BFE9
:1052F000D4EEB5BD4AE6FB50BCBAD42FEFA56B8BFC
:10530000ABAB990C935D4AE4B3C8EC792CC4E4FBD5
:105310009F4A826896E2231B7DD6E320E3F107A82B
:1053200023AE457E6F53369CB1FF005D5FD23FD206
:105330004CB7C1FCB69705FF00AA35BDE525772F10
:10534000FA7AF5E78F6B3D97F2FA9FD436EC27D2C5
:10535000BF38BFE0E22D73C063E0F783B4FD4A3786
:1053600093E241D4249BC3ED030F32DAD3E4176DEB
:10537000377F25879631DE45423EE9213F61CFF8F0
:105380002DCF82347FD95E3B3F8B5AD5F43E3BF024
:105390008DBB5BEC8ED259E5F12C6A4F91246541AF
:1053A0005F399762B8623E705B853C7E6AFED3BF10
:1053B000B47788BF6B4F8DFAD78F3C4CFF00E9BAAA
:1053C000B48160B457DF06996A83115B47FECA8CCB
:1053D0009271F3333377AFA5CE338A2F07CB4ECDFF
:1053E000CD6DDBD4FE6DF06FC1ACF287187B7CC253
:1053F00032A34F072BF36ABDA3E8A0FAC64B593D71
:1054000055B47AB3EE5FF820C7EDD4BE10F10C9F0F
:10541000047C4B79E5E9BAB4925DF84E595FE5B783
:10542000B83E64B71679E8039DD220CE0B1900E48C
:10543000815FAC922E4FF88AFE6034DD52FB42D47D
:10544000AD6FB4FBAB9D3F50B09A3BAB5BA81B6C00
:10545000B6D323874914FF00795B907F9F43FBFD00
:10546000FF0004E0FDB56CFF006DEFD9CF4FF114E4
:10547000CD6B6FE2AD348B0F10D8C24E2D6E941CE5
:105480003A83CEC9536C8BE8188ED470DE65ED2953
:10549000FD5A7F1476F4FF00801F494F0C5E598F30
:1054A000FF00593030FDCD676A892D2351FDAF25AE
:1054B0003FFD2AFDD1B9F163F625F06FC60FDA671B
:1054C000E1FF00C55D4A0D9E26F87A6E3C9D8A3646
:1054D0006A0B246CB12CC3BF92EC648CF50C4D7B31
:1054E00035B0223E7AF7A708F1ED4E0302BE9A349A
:1054F000E31BF2ADF57EA7F30E231D89C4429D3A4E
:10550000F3728D35CB14DFC2AEDD9795DB614514A8
:10551000551CA14514500145145003A3E87EB4EA7C
:105520006C7D0FD69D400514514005145140051463
:105530005140051451401575AD1AD7C45A4DC58553
:10554000F5ADB5F58DE46D0DC5B5C44258678D81D7
:105550000C8EAD90CA41C104608AF827E29FFC100E
:10556000C2D7E1178F2FFE217EC87F10F58FD99704
:10557000C7978E26BCD1F4D8C5EF82B5F603016E6D
:10558000B4A933127CB955784011EE2CB196E6BF20
:105590004028A00FC9FF008B3FB796A7F0B7C2BA4B
:1055A000E7C38FDB73E13DE7C03D5BC5C22B187ECF
:1055B00036FC3AB53A97862FEE629927B69CDC08FE
:1055C000E49ECDC4F1C2562B959558AB19022640E6
:1055D000FB73F627F85ACFAC78A3E2F5F7C52F0C8A
:1055E000FC5CD4BE2859E9B6906BBE19D322B0D169
:1055F0004E9DA7FDA85BA40B1DC5CF98DE65DDD130
:10560000794CCD92C140508057BA788BC29A678B43
:10561000F41BBD2B57D3ECB56D2EFE330DD59DE499
:105620000B3DBDCA1EAAE8C0AB29F4208AF827E2C8
:1056300037FC110EE3F67DF1A6A1E3BFD8DFE256F9
:10564000A9FB3B78B2FA73777FE1728752F02F881B
:105650001F1B4ACFA6BEE58188E04908FDD8276216
:105660000382003F41A8AFCF3F07FF00C16C3C451C
:10567000FB2B78A6CFC1BFB6A7C2EBEF81FAB5D49A
:10568000FF0064B2F1EE8E24D5BC05AF49C9052EEA
:105690005434968CC36E229B715192ED1F41F7B723
:1056A00081FC73A37C4AF09586BDE1ED5F4BD7B4D6
:1056B0004D52213D9EA3A6DDC777697719E8F1CB4E
:1056C0001928EA71D5491401F30FFC15CFFE094FD3
:1056D000E17FF82A5FC028743BEBC4F0EF8DBC3546
:1056E00023DEF85FC44B079AD613B4655A2957AB2B
:1056F000DBCA301D41C8C2B2F2A33FCEAFED55FFA9
:105700000004EFFDA7BF625D36FF00C0FE32F08FE0
:10571000C465F03B4F90FA04F79A9F85EFC23009B9
:105720002058498C7DF0D8963460DC919008FEB703
:1057300059438E7EB4C683E5C2E57E86803F8CDF0A
:10574000849FB2AFC52F8F5E218347F047C33F1EB2
:1057500078935098F951C167A1CEAAB8E09691C24A
:10576000C68A0705998019C673C57EE37FC10DBF40
:10577000E0DECBEFD90FC6F63F18BE36369779F18B
:1057800016C50BF87F40B390DC5BF869D95D1A79D8
:1057900065C049AE4A3E06176C7D4124E47EB6479B
:1057A000163FD9EBD3EB4F550A38A006A27CABBB12
:1057B000B735CE7C5DF841E1CF8F1F0EF56F08F84D
:1057C000BF47B3F1078675E83ECF7FA75DA9686E36
:1057D00053706C10083C32A9041041008C115D35E7
:1057E0001401F99BA4FF00C11EBE2E7FC12EF58DB2
:1057F00063C45FB0FF008F34C87C35AADC7DBB5525
:10580000F84BF1001BED1B5170A147D8F5118BAB84
:105810006902EEDA1DD83395DF26D18AF4CFD9D7C5
:10582000FE0B9BE03D73E235BFC34F8F9E17D7BF82
:1058300065FF008BF2001342F1B3AA693AB1C905C2
:10584000B4FD54016D7299DA016319666DA81F04E5
:10585000D7DCCCBB8735C1FED11FB2F7C3CFDAD7B7
:10586000E1CDD7847E25F83B40F1B7876EC1DD6777
:10587000AADA2CEB1B118DF1B1F9A290769232AE1F
:10588000A70411401DD2C9BBD7FC69D5F9BFFF00E1
:105890000EDBFDA2BFE09ACCD7FF00B21FC4DFF839
:1058A0004D3E1F59A16FF853BF132F1EF2C6251985
:1058B000FDD695A99225B4EA76C72111EE3B9DDF6E
:1058C000A0F47FD99FFE0B8DF0E7E247C4683E1A33
:1058D000FC5FD0F5EFD9B7E3236D53E14F1E05B55B
:1058E0008350662406B0D4085B7BA438014E6367FE
:1058F000638556EB401F6CD14668CD0014514500BE
:1059000014514500145145001451450014DDFF00A9
:10591000CF14AEDB457C09FF000535FF008382BE56
:1059200019FF00C1337E3FE99F0E757F0AF8B3C6A9
:105930009E2092C63D57565D1CC31A68F6F296101B
:10594000E4CCCA2595F63B045230A0124640201FF5
:105950007E515C6FC0BF8E5E1DFDA3FE107867C7D1
:105960009E0FD4A3D5BC2FE2ED3E1D4F4DBA552A54
:1059700065864191B94F2AC390CA7956041E41A841
:10598000FF00686F8FFE19FD977E09F8A3E2178C60
:10599000F50FECAF0B783F4F9353D4AE446D2B24EF
:1059A000483A2A2F2CEC485551C96603BD0076D4DD
:1059B00057C17FF04C3FF82FCFC38FF829D7C6CD02
:1059C00073C01A3F85FC51E09F11585836ABA6C3EF
:1059D000AC9864FED7B6460B295313308E48F72196
:1059E00028DD438218ED6C7DE025E3A500494533B1
:1059F000CEF6A3CEFF0064D0027944AE3DABC97FA2
:105A00006BFF00D8C7C13FB69FC336F0D78CAC59E7
:105A1000FC9264D3F51B6212F74A98FF00CB485FF3
:105A20001C6700329CAB0E0835EB9E6FB5318EFFC4
:105A300000CEA651525CB2D8EBC0E3F1382C443111
:105A40007849B85483BC6517669F74CFC0DFDAFB12
:105A5000FE0945F163F648D4A7B9FECAB8F1A78498
:105A6000D0FEE75BD16D8CAC8BC7FC7C5B2E648970
:105A7000BD480C871F7B3C0F9960BB8AE5374724E4
:105A80006DD8E181C7AE7E9E9DB15FD431887F74B1
:105A90007CDDBD6BC93E2F7EC07F067E3B5DBDD7E2
:105AA0008A3E1BF85752D424397BC4B316F72C71A5
:105AB0008E658F6B9E07726BE5719C2D4E4F9A849D
:105AC000B97CBA1FD63C1FF4ACC661A8C68710616A
:105AD000BDB35A73C1F2C9FAC5AB37DECD7A1FCE5A
