:020000040000fa
:10000000f0ff0320dd570000a1700000a570000084
:10001000ad700000b1700000b5700000000000007d
:100020000000000000000000000000001b6f000046
:10003000a9700000000000001b6f00001b6f000093
:100040001b6f00001b6f00001b6f00001b6f000088
:100050001b6f00001b6f00001b6f00001b6f000078
:100060001b6f00001b6f00001b6f00001b6f000068
:100070001b6f00001b6f00001b6f00001b6f000058
:100080001b6f00001b6f00001b6f00001b6f000048
:100090001b6f00001b6f00001b6f00001b6f000038
:1000a0001b6f00001b6f00001b6f00001b6f000028
:1000b0001b6f00001b6f00001b6f00001b6f000018
:1000c0001b6f00001b6f00001b6f00001b6f000008
:1000d0001b6f00001b6f00001b6f00001b6f0000f8
:1000e0001b6f00001b6f00000000000000000000fc
:1000f000000000001b6f00001b6f00001b6f000062
:100100001b6f00001b6f00001b6f00001b6f0000c7
:100110001b6f00001b6f00001b6f00001b6f0000b7
:100120001b6f00001b6f00001b6f00001b6f0000a7
:100130001b6f00001b6f00001b6f00001b6f000097
:100140001b6f00001b6f00001b6f00001b6f000087
:100150001b6f00001b6f00001b6f00001b6f000077
:100160001b6f00001b6f00001b6f00001b6f000067
:100170001b6f00001b6f00001b6f00003538000074
:100180001b6f00001b6f00001b6f00001b6f000047
:100190001b6f00001b6f00001b6f00001b6f000037
:1001a0001b6f00001b6f00001b6f00001b6f000027
:1001b0001b6f00001b6f00001b6f00001b6f000017
:1001c0001b6f00001b6f00001b6f00001b6f000007
:1001d0001b6f00001b6f00001b6f00001b6f0000f7
:1001e0001b6f00001b6f00001b6f0000596c0000ac
:1001f0001b6f00001b6f00001b6f00001b6f0000d7
:100200001b6f00001b6f00001b6f00001b6f0000c6
:100210001b6f00001b6f00001b6f0000316c0000a3
:100220001b6f00001b6f00001b6f00001b6f0000a6
:100230001b6f00001b6f00001b6f00001b6f000096
:100240001b6f00001b6f00001b6f00001b6f000086
:100250001b6f00001b6f00001b6f00001b6f000076
:040260001b6f000010
:020000040000fa
:10026400f8b500bff8bc08bc9e467047596700004b
:10027400f8b500bff8bc08bc9e467047356700005f
:020000040000fa
:100284002de9f04ff549f64cf64ac4f824274ff00f
:10029400080a4ff003094ff000570025b7ee006a33
:1002a40040f6cd4001234ff00f0b01f2022801f27a
:1002b400044ea4f816a784f818974ff0210a4ff4b7
:1002c4008049c4f8ac10c4f844714ff4a47c02f51e
:1002d40000720a2147f6ff7784ed3b6aa264c4f8f2
:1002e400bc80c4f8cce0a4f842c1c4f81c57a4f8fc
:1002f4002057a4f84250a4f84450a4f86850c4f815
:100304002c51a4f83051a4f84851a4f85000a4f892
:100314005600a4f85c00a4f87a00a4f88a00a4f8b3
:100324009a00a4f85001a4f8627084f86d3084f83f
:100334007cb084f88cb084f89cb0a4f82aa1ca4e8e
:10034400a4f85e914ff00d02a4f83613c749dfed0f
:10035400c87a9fedc87adfedc86a84f86021c4f8d2
:10036400381340f2ae7240f2666141f69a1e43f2cf
:1003740033374ff4404ca4f86e21a4f89011c4e92b
:100384006a660e21bd4eb74a84ed707a42f2666801
:1003940083b0c4ed7e6ac4ed866ac4ed8a6ac4ed96
:1003a4009a7ac4ed9e7ac4eda27ac4eda67ac4ed1d
:1003b400aa7adfedb35a84f87e31a4f88401c4f834
:1003c400b05184f8b45184f8363784f8ca3284f8ca
:1003d400da32a4f81c53a4f82283a4f868e1a4f840
:1003e4008a71a4f806c284f80812c4f83862c4f802
:1003f4004862c4f858624ff01508c4edae7aa4f808
:1004040056a3a4f80ce4dff88ca284f8a01447f6f1
:10041400ff7ea4f880e4a4f8aec484f8b01404f514
:10042400836c02f20226a4f8be74c4f858a304f53f
:100434009a67a4f8f08304f59c6a47f6715848f269
:100444008f2e312102f206228ced007ac7ed007a5c
:10045400caed005ac4f83c5384f84053c4f85c53c2
:1004640084f86053a4f82054a4f83c57a4f86e54bc
:10047400a4f8705484f87b54a4f88654a4f88c54db
:1004840084f89134a4f89e9484f8c0b484f8f134c8
:10049400c4f87464a4f80e15a4f89283a4f8a28393
:1004a400a4f894e3a4f8a4e3019204f5b96282edfc
:1004b400007a43f2a402a4f8642547f6b862a4f8cb
:1004c400bc25704aa4f83a0504f5a5614ff0620e04
:1004d400a4f83894a4f84694a4f8dc0584f810b67b
:1004e4006948c4f85027694e694a81ed006a44f6a8
:1004f400cd4a4ff6fd794ff00d0c40f28f2840f2b3
:10050400666740f2ae7b6ff00041a4f8d0e5c4f812
:100514005c26c4f81065c4f8145584f81855c4f85a
:100524003c55a4f8405584f848c4a4f86a55a4f886
:10053400707584f88235c4f8fc5584f8005648f286
:10054400010cc4f85457c4f85857a4f856b684f8a4
:100554006336a4f86856a4f8d6a5a4f80e96a4f8b1
:1005640058864027c4f8f4050626c4f8f80584f82c
:100574007a3647f6ff70019bc4f80037c4f8c456b6
:1005840084f8c856a4f8d606c4f8f856a4f8fc565d
:10059400a4f80857a4f8d8c6a4f8f27684f8f46648
:1005a400c4f8bc16c4f8c01604f14e0b06f090fc57
:1005b40004f17803c4e9013b04f1c803c4f894309e
:1005c400f433c4f8e4306e3bc4f8f830563304f521
:1005d400ee6204f15409c4f8fc30483bc4f8102717
:1005e400c4f8189004f10c02a3f11c09c4e9419267
:1005f40004f1880aa9f5927204f1980804f15a0edc
:1006040004f1a800c4f8003104f21473c4e9098e9b
:1006140004f5c47c04f5947704f5c77604f1b801b5
:10062400c4f814a0606704f5be7a04f5b670c4f883
:100634000c2102f24c78a3f5dd62c4f85c57c4f8cf
:100644006057c4f86457c4f86857c4f86c57a4f8e2
:100654007057c4f834c0a7631ee000bf800e0000ca
:10066400500000206008002034ec0a0000400f0e07
:100674000000003800000000cdcc8c400000404158
:1006840000803b457017e02e4e621000cd4c0f0edb
:10069400640a002000500f0de663c4f88410c4f807
:1006a400a4a0c4f8b4a0c4f8c4a0c4e93588c4f8ac
:1006b400f430c4f81021c4f83c0104f1400004f102
:1006c400dc01c4f8980104f29c40c4f85811c4f841
:1006d4002c0704f5ec6100f5077004f5b376c4f853
:1006e4003007c4f8c811c4f8dc11c4f87012a0f2c1
:1006f400544004f55f71c4f83861c4f8f00104f59e
:1007040001769438c4f880123a32023104f25e73ee
:1007140004f1e80e04f1600c04f5c177c4f89c21df
:10072400c4f89062c4f8a01200f5a576063202312e
:1007340004f2667b04f51d7a04f52579c4f814e106
:10074400c4f820c104f5217e04f52d7cc4f824717d
:10075400c4f8a02104f5297704f58662c4f8c062c0
:10076400c4f8cc3104f26476c4f8d831c4f86032e9
:10077400c4f8b01204f564734c39c4f878b1c4f801
:10078400000204f5487bc4f810a2c4f8209204f5d2
:10079400557a04f50d79c4f830e204f5fa78c4f812
:1007a40040c204f5117ec4f8507204f5097c04f5c6
:1007b400157704f50570c4f87461c4f8e02104f5f4
:1007c4006876c4f8c41204f54571c4f87023c4f8fb
:1007d4006c3304f20a4204f57f73c4f8d0b2c4f84f
:1007e400d4a204f5367b04f5327ac4f8e092c4f856
:1007f400e48204f23a7904f5f278c4f8f0e2c4f839
:10080400f4c204f5f37e04f53a7cc4f80073c4f82a
:10081400040304f5427704f53e70c4f86863c4f831
:10082400741304f2144604f56d71c4f87823c4f803
:10083400103304f57172c4f83033c4f8503304f241
:100844003473c4e9f506c4f88cb3c4f89ca3c4f8a3
:10085400ac93c4f8b083c4f8c0e3c4f8ccc3c4f800
:10086400d073c4e9f766c4e9ca11c4e9d222c4f852
:10087400bc3304f25c52c4f8e463c4f8e86304f5de
:10088400ed6604f57b7ac4f8c864c4f84c65c4f812
:10089400ec24303304f28442543e04f21e4904f240
:1008a400d45804f5a76e04f2da5c04f5b06704f2d8
:1008b400cc4004f27a41c4f82834c4f8506404f5f6
:1008c400aa6304f2ac4bc4f804a4c4f8fc2404f5f1
:1008d4009e6aa6f534768832c4f82c94c4f86084f1
:1008e40004f2c45904f27e48c4f864e4c4f868c449
:1008f40004f2ce5e04f2b45cc4f89874c4f8b8642c
:1009040004f58b6704f23646c4f8d804c4f8e81436
:1009140004f24a7004f26e51c4f8f834c4f804b511
:1009240004f2dc4304f5e96bc4f808a5c4f87c259b
:1009340004f2ba5a503ac4f82095c4f83085c4f881
:1009440034e5c4f848c5c4f84074c4f85464c4f821
:100954005805c4f87815c4f88835c4f8f8b3c4f851
:10096400a8a4c4f800a5c4f89025683204f59266da
:10097400c4f8b025b83a04f5c561c4f8e425c4f850
:10098400ec6502f5e47204f21c6604f5ad6304f54b
:10099400ed6004f2625904f5be6804f28a47c4f8b3
:1009a4000826c4f81816c4f8306604f2d46104f5b5
:1009b400cf66703204f5de6e04f2666cc4f83c0651
:1009c400c4f87406c4f8949504f58c70c4f898853a
:1009d40004f2546a04f2626904f5d168c4f8e87553
:1009e400c4f8481604f2067704f2e461c4f88426d5
:1009f400c4f89c350c3ac4f8a035c4f8a435c4f83e
:100a0400a835c4f8ac35c4f8906604f26a73c4f827
:100a1400e06604f55f76c4f84437c4f89416c4f865
:100a2400a016c4f824b6c4f84ce6c4f870c6c4f8da
:100a34008006c4f8aca6c4f8b496c4f8d086c4f84a
:100a44005076c4f8b076c4f8ec26a3f13607c4f89f
:100a54008867023604f5c86e04f20c6c04f20c705c
:100a6400c4f87c77c4f88c6736370236c4f874e768
:100a7400c4f878c7c4f880b7c4f88477c4f890671a
:100a840004f0fefa204605f0affc04f1100005f076
:100a9400abfc04f1200005f0a7fc04f1300004f0e5
:100aa40073fd04f14c0005f063fc04f1520005f001
:100ab4005ffc04f1580005f05bfc04f15e0005f0f6
:100ac40057fc04f1640005f053fc04f16a0005f0de
:100ad4000dfe04f1700004f02dff04f1800004f019
:100ae40029ff04f1900004f025ff04f1a00005f0b3
:100af400cdfc04f1b00005f0c9fc04f1c00005f020
:100b0400c5fc04f1d00005f01df904f1e00004f087
:100b1400e1fd04f1f00005f059fa04f58e7004f0db
:100b24006bf904f59a7004f067f904f5a67005f002
:100b34001ffc04f5aa7004f0fdfe04f5b27005f084
:100b440017fc04f5b57005f013fc04f5b87005f056
:100b540099fa04f5c07005f00bfc04f5c37005f0b8
:100b640007fc04f5c67005f003fc04f5ca7003f035
:100b7400b5fc04f5dc7005f05df904f5e56005f0fd
:100b840081fa04f5e27005f02ffc04f5ea7004f034
:100b94000bfb04f5f67004f08dff04f5fe7004f011
:100ba400c9fe04f5037004f085ff04f5077004f032
:100bb40081ff04f50b7004f07dff04f50f7004f061
:100bc40079ff04f5137004f075ff04f5177004f051
:100bd400edfe04f51b7004f0e9fe04f51f7004f04b
:100be400e5fe04f5237004f0e1fe04f5277004f03b
:100bf400ddfe04f52b7004f0d9fe04f52f7005f02a
:100c040041fa04f5337005f03dfa04f5377005f048
:100c1400dbfd04f53b7005f0d7fd04f53f7005f0ee
:100c2400d3fd04f5437005f0f1ff04f5467005f0bb
:100c34009ffb04f21e3005f09bfb04f5497003f0a2
:100c4400bffe04f5517003f0bbfe04f5597003f0c8
:100c5400e5f904f5627004f071ff04f5667004f0c0
:100c64006dff04f56a7005f0e7fb04f56e7005f09e
:100c7400e3fb04f5727003f03ff804f57d7005f0b2
:100c84004fff04f5806005f065fe04f5816005f012
:100c94006ffb04f5826005f0cdf804f21c4005f00a
:100ca40067fb04f2244005f0b1fe04f5e76005f0ab
:100cb4005ffb04f25c4004f067fc04f58f6005f010
:100cc40015fd04f27c4005f053fb04f2824005f06c
:100cd4004ffb04f5916005f04bfb04f28e4005f0e8
:100ce40005fd04f2944004f025fe04f2a44004f04f
:100cf40021fe04f2b44004f01dfe04f2c44004f0ea
:100d040055fe04f2d44004f0d5fe04f2e44005f0ac
:100d14008bf904f2f44003f089fc04f21c5004f053
:100d2400d9fc04f22c5004f067f804f2445005f0a6
:100d340083fb04f2344005f01bfb04f23c4004f056
:100d4400f9fd04f24c4005f077fb04f2545005f031
:100d5400e7fe04f5ac6005f00bfb04f2665005f009
:100d640007fb04f26c5005f003fb04f2745005f029
:100d740089f904f2845005f0edfd04f28c5005f07d
:100d840025f904f5b76005f0f3fa04f5b86005f049
:100d940051f804f2cc5005f0ebfa04f2d25005f00d
:100da400e7fa04f5bb6005f0e3fa04f5bc6003f070
:100db40095fb04f2046004f0bdfd04f2146005f038
:100dc40025ff04f5c46005f0abfe04f22c6005f0c9
:100dd4008dfe04f5e86003f0fffe04f5c76005f03e
:100de400b9fe04f2446004f0cffb04f5cc6005f0d6
:100df4007dfc04f2646005f0bbfa04f26c6005f05b
:100e040041f904f27c6004f09dff04f28c6004f06c
:100e140099ff04f29c6005f0c5fd04f5d56003f06c
:100e24005dfb04f2cc6004f089fe04f2dc6005f0a2
:100e3400d5fd04f5dd6004f023f904f2047005f037
:100e440097fa0848084c094f05f086f808480949fc
:100e54000368094a5c601f6019635a639d6303b0a9
:100e6400bde8f08fe8070020042300002c1f0000d9
:0c0e7400ec330020fc5e00001c66000057
:020000040000fa
:100e800000006efedcfc4bfbbaf92af89cf60ff56d
:100e900084f3faf173f0eeee6cededeb70eaf7e847
:100ea00082e711e6a3e43ae3d5e174e019dfc3dd9c
:100eb00072dc26dbe0d9a0d866d732d605d5dfd3e1
:100ec000bfd2a6d194d08acf87ce8ccd98ccadcbd3
:100ed000c9caeec91bc950c88fc7d5c625c67ec5ad
:100ee000dfc44ac4bec33bc3c1c251c2ebc18ec141
:100ef0003bc1f1c0b1c07bc04fc02cc014c005c005
:100f000000c005c014c02cc04fc07bc0b1c0f1c030
:100f10003bc18ec1ebc151c2c1c23bc3bec34ac4b7
:100f2000dfc47ec525c6d5c68fc750c81bc9eec94c
:100f3000c9caadcb98cc8ccd87ce8acf94d0a6d160
:100f4000bfd2dfd305d532d666d7a0d8e0d926db0d
:100f500072dcc3dd19df74e0d5e13ae3a3e411e606
:100f600082e7f7e870eaedeb6cedeeee73f0faf184
:100f700084f30ff59cf62af8baf94bfbdcfc6efe05
:100f8000000092012403b5044606d6076409f10a5d
:100f90007c0c060e8d0f1211941213149015091764
:100fa0007e18ef195d1bc61c2b1e8c1fe7203d22ef
:100fb0008e23da24202660279a28ce29fb2a212c8a
:100fc000412d5a2e6c2f7630793174326833533478
:100fd00037351236e536b03771382b39db39823a7e
:100fe000213bb63b423cc53c3f3daf3d153e723eca
:100ff000c53e0f3f4f3f853fb13fd43fec3ffb3fe6
:101000000040fb3fec3fd43fb13f853f4f3f0f3f98
:10101000c53e723e153eaf3d3f3dc53c423cb63bf2
:10102000213b823adb392b397138b037e53612363d
:101030003735533468337432793176306c2f5a2e09
:10104000412d212cfb2ace299a2860272026da243c
:101050008e233d22e7208c1f2b1ec61c5d1bef1923
:101060007e18091790151314941212118d0f060e85
:101070007c0cf10a6409d6074606b50424039201e4
:1010800000000000004000400040004000400040e0
:101090000040004000400040004000400040004050
:1010a0000040004000400040004000400040004040
:1010b0000040004000400040004000400040004030
:1010c0000040004000400040004000400040004020
:1010d0000040004000400040004000400040004010
:1010e0000040004000400040004000400040004000
:1010f00000400040004000400040000000000000b0
:1011000000000000000000000000000000000000df
:1011100000000000000000000000000000000000cf
:1011200000000000000000000000000000000000bf
:1011300000000000000000000000000000000000af
:10114000000000000000000000000000000000009f
:10115000000000000000000000000000000000008f
:10116000000000000000000000000000000000007f
:10117000000000000000000000000000000000006f
:10118000000000000000000000000000000000005f
:10119000000000000000000000000000000000004f
:1011a000000000000000000000000000000000003f
:1011b000000000000000000000000000000000002f
:1011c000000000000000000000000000000000001f
:1011d000000000000000000000000000000000000f
:1011e00000000000000000000000000000000000ff
:1011f00000000000000000000000000000000000ef
:1012000000000000000000000000000000000000de
:1012100000000000000000000000000000000000ce
:1012200000000000000000000000000000000000be
:1012300000000000000000000000000000000000ae
:10124000000000000000000000000000000000009e
:10125000000000000000000000000000000000008e
:10126000000000000000000000000000000000007e
:10127000000000000000000000000000000000006e
:101280000000000000003303cd04660600089a0940
:10129000330bcd0c660e00109a113313cd14661665
:1012a00000189a19331bcd1c661e00209a21332387
:1012b000cd24662600289a29332bcd2c662e0030ab
:1012c0009a313333cd34663600389a39333bcd3cce
:1012d000663e0040663ecd3c333b9a390038663668
:1012e000cd3433339a310030662ecd2c332b9a29ee
:1012f00000286626cd2433239a210020661ecd1cab
:10130000331b9a1900186616cd1433139a11001066
:10131000660ecd0c330b9a0900086606cd04330324
:101320009a01000000000000000000000000000022
:1013300000000000000000000000000000000000ad
:10134000000000000000000000000000000000009d
:10135000000000000000000000000000000000008d
:10136000000000000000000000000000000000007d
:10137000000000000000000000000000000000006d
:10138000000000000000000000000000000000005d
:10139000000000000000000000000000000000004d
:1013a000000000000000000000000000000000003d
:1013b000000000000000000000000000000000002d
:1013c000000000000000000000000000000000001d
:1013d000000000000000000000000000000000000d
:1013e00000000000000000000000000000000000fd
:1013f00000000000000000000000000000000000ed
:1014000000000000000000000000000000000000dc
:1014100000000000000000000000000000000000cc
:1014200000000000000000000000000000000000bc
:1014300000000000000000000000000000000000ac
:10144000000000000000000000000000000000009c
:10145000000000000000000000000000000000008c
:10146000000000000000000000000000000000007c
:10147000000000000000000000000000000000006c
:0814800000000000000000bfa5
:020000040000fa
:101488002de9f047044690f82b00012851d1bd4db5
:10149800002704266069c3689847002800f08882fe
:1014a80094f82a10062900f2ae82dfe811f0d10084
:1014b8009b00b700800056003600070094f82c10f7
:1014c800552900f06581022900f06281606903688e
:1014d800984760694569a847002084f82b0084f87c
:1014e8002900a94e002760698568a84718b3606974
:1014f800b4f824804368a4f82680984794f8291003
:101508000546062900f22081dfe811f021011801c3
:101518000801f500d700ca00b70060690021026819
:10152800904794f8301094f82b0084f82a1001287a
:10153800b0d00028d5d0e68c1eb9a78c84f82960d5
:10154800e784924e3568a96a29b1ab6a93f84d20b1
:10155800042a00f08881bde8f087e368b4f82e809b
:1015680094f82c0013f8081005f04afc6369e26847
:10157800b4f82e9084f82c0012f809101a6818464e
:101588009047e08db4f808a0e168431c53450a5c15
:10159800c0f22781552a00f0f781022a00f0f48171
:1015a800062184f82a10e38594f82b00bfe72389e5
:1015b80094f82c001a0a11462a7005f021fc636978
:1015c80084f82c0029781a681846904729785529f4
:1015d80000f0fa80022900f0f78084f82a6094f875
:1015e8002b00a4e794f8281094f82c0005f008fcc8
:1015f800636984f82c0094f828101a6818469047f4
:1016080094f82810552900f0d380022900f0d080e2
:10161800022184f82a1094f82b0088e7217a94f89c
:101628002c00297005f0ecfb636984f82c002978fc
:101638001a68184690472978552900f0cf80022962
:1016480000f0cc80032084f82a0094f82b006ee781
:1016580005f012fd552184f82c0005f0d1fb6369d3
:1016680084f82c0055211846e7851a68904701210f
:1016780084f82a1094f82b0059e794f82c20552a5e
:1016880074d0022a72d0954276d1e3681d781a2d5b
:1016980000f294812169204651f82520904706e000
:1016a800002840f0c48094f8300084f8290094f8a9
:1016b8002b0000283ff417af3de7014694f82c00b3
:1016c80005f09efbb4f82e80e36884f82c0003f83c
:1016d8000850e18d2289013188b28242e08500f20a
:1016e8009b80552d00f05a81022d00f05781062568
:1016f80084f82950dbe7b6f80090b4f80aa009eba3
:10170800002c1ffa8cf8c245a6f8008072d2e56852
:1017180015212f70204605f011fcc8e7014694f802
:101728002c00358005f06cfb552d84f82c0034d046
:10173800022d32d0032184f82910b8e720b194f89b
:1017480028a0824500f0458184f82970afe7552824
:10175800add105f091fc294684f82c0005f050fb2a
:10176800012284f82c0084f82920a0e7d043c2b2d3
:10177800954284f82c2088d01321204605f0defb02
:1017880095e700bfc3320020c2310020ec330020af
:10179800ca43d1b284f82c1098e64ff0030e4ff0ec
:1017a800050984f8315084f830e084f829907ee700
:1017b8004ff0020e052084f82a0084f8311084f8ce
:1017c80030e094f82b00b2e6052084f82a0084f86b
:1017d800311084f8306094f82b00a8e64ff0030e1f
:1017e800e8e7552a00f0c880022a00f0c58084f88e
:1017f8002a60d8e60146a4f8088094f82c0005f081
:10180800fffa552de78584f82c0007d0022d05d066
:10181800042384f829304ae7552df7d104220520fe
:1018280084f8315084f8302084f829003fe794f890
:101838003190b9f1550f87d194f828a0824583d10a
:1018480005f01afc494684f82c0005f0d9fa294617
:1018580084f82c0005f0d4fa4ff0020c84f82c0020
:1018680084f829c023e76069af6a016997f85c507a
:1018780088470435854280f2a6803068836a826a88
:10188800b3f85870b2f85650af42c0f09c80816ae5
:10189800606900270368a1f85870022198476069b9
:1018a80094f828100268904735686069a96a036847
:1018b80091f85c1098476069394602689047356826
:1018c8006069a96a036891f85a1098473268606994
:1018d800956a0368b5f85a10090a984705f0ccfbd1
:1018e800022105f08dfa94f8281005f089fa32687b
:1018f800956a95f85c1005f083fa394605f080fa88
:101908003368996a91f85a1005f07afa3268956a3c
:10191800b5f85a30190a05f073fa8146306800257f
:101928004fea8708816a6069414402684b6813f886
:1019380005a0514690475146484605f061fa814650
:101948003068816a3944013591f824201ffa85fcf2
:101958006245e7d8856a013795f855101ffa87fe62
:101968007145dcd86069b9f1020f14bf4946fd2101
:101978000368bde8f0471847052084f8312084f84b
:10198800306084f82a000ee606204ff0050c84f833
:10199800312084f8300084f82ac004e606214ff08c
:1019a800050e84f8315084f8301084f829e07ee67a
:1019b80094f82b0000283ff494adbce52121204683
:1019c80005f0bcfa73e6134c266801362660bde8bc
:1019d800f087014694f82c0005f012fa552d84f88a
:1019e8002c0006d0022d04d04ff0020c84f829c038
:1019f8005de64ff00208052384f8315084f8308002
:101a080084f8293053e6002684f82b6084f829608e
:081a180067e500bfc4320020a5
:020000040000fa
:101a20002de9f04f032a87b03ad94b785c1e072c7a
:101a300036d8002580f84d5080f85550a0f85a50ff
:101a400005650e460392ca78897880f8545004469a
:101a500001eb022087b2a8460020002167f30f089f
:101a6000c4e9100167f31f484ff0020984f8685079
:101a70006566c4f8568084f85c907378002b00f09b
:101a80004c82dff8a4a44ff0040816f8087008f19f
:101a90000102d0b2032f03d8dfe807f0b46e4c0781
:101aa0000127384607b0bde8f08f06eb000bdaf8e7
:101ab00000709bf803c09bf802e0786b0eeb0c21e2
:101ac00089b20df1160204f0ddfb0028e8d1daf846
:101ad0000030bdf816905a6b02ebc9005ffa85f929
:101ae000476804eb890c3968ccf80410a1449bf8d2
:101af00004b089f824b094f8542094f85c105a4447
:101b0000d0b28b444ff40053b3fbf0f700fb07f760
:101b100084f85cb084f854002767013596f801908a
:101b20005ffa85fc08f10602e1455ffa82fb7fd986
:101b3000d846aae706eb000bdaf800209bf803e092
:101b40009bf80230106b03eb0e27b9b20df11602b1
:101b500004f098fb0028a3d1daf80000bdf81610b5
:101b6000026b5ffa85f902ebc10c04eb890edcf81d
:101b70000430cef80430b9e706eb000b16f80090fd
:101b80009bf803c09bf80210daf800209bf801e0f4
:101b9000106801eb0c2399b209eb0e2c0df1160223
:101ba0001ffa8cf904f096fb00287ff47aafdaf87c
:101bb0000000bdf816200168406801ebc20e0df16f
:101bc0001602def804300093198804f009fb00289f
:101bd0007ff467afdaf80000bdf816c041680098de
:101be0000ceb4c0201ebc20e4946def8143098476c
:101bf0005ffa85f904eb890cccf8040000287ff427
:101c000075af4ee706eb000b375c9bf802209bf8a4
:101c100001909bf80310100400eb09235ffa85f98b
:101c20003b4404eb890c03eb0167ccf804705de7df
:101c300008f1070508f108015ffa85fad946cbb229
:101c40005d46725d84f84c2016f80a70032f3ff64b
:101c500027afdfe807f0995b3d023344b24d93f8bc
:101c6000038093f802a028680aeb0823406b99b21e
:101c70000df1160204f006fb00287ff411af2f6867
:101c8000bdf816e0796b94f84c2001ebce0cdcf833
:101c900004502868a06402f00f0b09f106000bf154
:101ca000ff37c3b2072f3ff6fbae01a050f827f075
:101cb000d11e0000bd1e0000a11a0000991e0000e8
:101cc000a11a0000a11a0000a11a0000a71d00001f
:101cd0003344954d93f803b093f802802a6808ebdb
:101ce0000b23106b99b20df1160204f0cbfa002809
:101cf0007ff4d6ae2f68bdf816a0396b94f84c204f
:101d000001ebca0edef80400a064c4e716f80380f5
:101d1000854d33442a6893f803c093f802b093f8d2
:101d200001a010680beb0c2399b20df1160204f020
:101d3000d1fa00287ff4b5ae2868bdf81610026805
:101d4000406802ebc10e0df11602def804b0bbf8dc
:101d5000001004f045fa00287ff4a3ae2d68bdf80a
:101d600016c068680ceb4c0300ebc30208eb0a28b2
:101d70001ffa88f158465569a847a06400283ff427
:101d800090ae94f84c2086e7f71816f803a0b878c0
:101d900097f801b0f978030403eb0b2cd4440ceb57
:101da0000165a56477e7f51800216878af78cde97b
:101db000000100994fea00284fea074a18eb0a0c85
:101dc0004fea116e4fea17474eeb0701f05cef78d0
:101dd0001ceb000a4ff000084fea076041eb080ccb
:101de0004ff0000e1aeb00004fea17274ceb0707e5
:101df000297910eb0e08687947eb0101000218eb16
:101e00000e0741eb000ca879ed79010417eb0e08e1
:101e10004ceb0107280618eb0e0a47eb0001c4e95a
:101e20000ea111064cbf03eb0b0909f10a095ffa79
:101e300089f958bf42f0200206eb090b58bf84f81d
:101e40004c2016f809c09bf801809bf802209bf8f3
:101e500003300ceb082a0aeb024101eb0360206619
:101e600005f066f809f10405e066efb209f1050036
:101e7000039bf25d84f874205ffa80f999452cd2b7
:101e800016f80910012928d0727884f85520367880
:101e900084f84d60002704e6f51816f803e0af78e3
:101ea00095f801c095f80380380400eb0c2af24441
:101eb0000aeb08610025c4e90e15b2e7f71816f819
:101ec00003e078780eeb0020c117c4e90e01a8e703
:101ed000f05c0021c4e90e01a3e794f84c50a76c14
:101ee00005f00f0e0ef1ff30072813d8dfe800f0e1
:101ef0000f0c120912121204d7e90023c4e91023af
:101f0000c2e73a680023f9e73a880023f6e73a780f
:101f10000023f3e700220023f0e70425a946062367
:0c1f20004ff0050a8de600bfec330020f6
:020000040000fa
:101f2c00010000005c0700200200000050000020af
:101f3c00030000006000002004000000700000207e
:101f4c000500000080000020060000009c0000201e
:101f5c0007000000a200002008000000a8000020dc
:101f6c0009000000ae0000200a000000b4000020b0
:101f7c000b000000ba0000200c000000c000002084
:101f8c000d000000d00000200e000000e00000203a
:101f9c000f000000f00000201000000000010020e5
:101fac001100000010010020120000002001002090
:101fbc00130000003001002014000000400100203c
:101fcc00150000006c0100201600000084010020a8
:101fdc00170000009c01002018000000a401002044
:101fec0019000000b40100201a000000ba01002002
:101ffc001b000000c00100201c000000d0010020cc
:10200c001d000000d60100201e000000dc01002095
:10201c001f000000e4010020200000000802002046
:10202c00210000007807002022000000140200208c
:10203c002300000024020020240000003c020020a9
:10204c00250000004c020020260000005c0200204d
:10205c00270000006c020020280000007c020020f9
:10206c00290000008c0200202a0000009c020020a5
:10207c002b000000ac0200202c000000bc02002051
:10208c002d000000cc0200202e000000dc020020fd
:10209c002f000000ec02002030000000fc020020a9
:1020ac00310000000c030020320000001c03002053
:1020bc00330000002c030020340000003c030020ff
:1020cc00350000004c030020360000005c030020ab
:1020dc003700000068030020380000006e03002069
:1020ec0039000000740300203a0000009403002023
:1020fc003b000000b40300203c000000d80300208b
:10210c003d000000e80300203e000000f803002022
:10211c003f000000080400204000000018040020cc
:10212c004100000044040020420000005004002044
:10213c00430000005804002044000000600400200c
:10214c00450000006c0400204600000074040020d0
:10215c00470000008807002048000000ac04002065
:10216c0049000000c80400204a000000cc040020f4
:10217c004b000000d20400204c000000d8040020ca
:10218c004d000000de0400204e000000e40400209e
:10219c004f000000f4040020500000000405002053
:1021ac0051000000140500205200000024050020fe
:1021bc0053000000340500205400000044050020aa
:1021cc00550000006c050020560000007c05002026
:1021dc0057000000940500205800000084040020e3
:1021ec00590000008c0400205a0000009c040020c0
:1021fc005b000000a40500205c000000b00500207e
:10220c005d000000b60500205e000000bc0500204b
:10221c005f000000c405002060000000d405002011
:10222c0061000000dc0500206200000008060020b0
:10223c006300000010060020640000001c06002053
:10224c006500000022060020660000002806002021
:10225c0067000000300600206800000054060020d3
:10226c0069000000640600206a000000700600206f
:10227c006b0000007c0600206c0000009007002022
:10228c006d000000880600206e00000094060020ff
:10229c006f000000b006002070000000b4060020a3
:1022ac0071000000bc06002072000000cc0600206b
:1022bc0073000000dc06002074000000ec06002017
:1022cc0075000000f8060020760000001c070020b6
:1022dc00770000002c070020780000003807002051
:1022ec0079000000540700208d000000e807002052
:0822fc000000000000000000da
:020000040000fa
:102304003f0000007d700000f1660000fd660000e3
:10231400116700002967000011000000095900003e
:1023240039590000455900006559000081590000e1
:10233400b6000000dd6a0000f16a00005d70000074
:1023440065700000fd6a000013000000a55a00003b
:10235400b95a0000c55a0000e95a0000115b000098
:102364006100000059440000e1440000f944000009
:102374003545000071450000c1000000955900007a
:10238400b1590000bd590000e1590000095a00008c
:10239400d0000000a5560000d9560000e556000004
:1023a4000957000031570000b11300009169000083
:1023b400a96900005d70000065700000b569000047
:1023c40091000000796000008960000095600000c1
:1023d400a9600000b9600000c3120000c93b0000fe
:1023e400fd3c0000093d0000293d0000413d000086
:1023f400310000007d7000007563000081630000ff
:102404009d630000b9630000ef000000056c00004c
:10241400116c00005d700000657000001d6c000010
:10242400910c000031490000c5490000dd4900005d
:10243400094a0000314a00009f0000001d600000ae
:102444002d600000396000004d6000005d600000f8
:1024540051000000255b0000415b00004d5b000063
:10246400715b0000915b0000a10000006564000046
:10247400916400005d700000657000009d640000c0
:10248400a10c000095450000314600004d460000b7
:1024940079460000a1460000810000005d5500005f
:1024a4008d5500009d550000c1550000e155000008
:1024b400c1010000754b0000dd4b0000f54b00002e
:1024c400354c0000694c0000a1010000914d000052
:1024d400fd4d00000d4e00003d4e0000694e000011
:1024e40053130000b5670000cd6700005d70000065
:1024f40065700000d96700008113000015640000b6
:102504003d6400005d7000006570000049640000d7
:10251400e051000021510000ad5100005d70000049
:1025240065700000c1510000330000007d700000a0
:10253400395e0000455e0000695e0000915e0000a7
:10254400a11300004d50000085500000b150000060
:10255400d15000000d51000031130000456b000004
:10256400596b00005d70000065700000656b000031
:10257400b8000000116b0000256b00005d700000c6
:1025840065700000316b000091010000bd5f000028
:10259400d15f00005d70000065700000dd5f000029
:1025a400f0510000013f0000214000005d70000078
:1025b400657000003540000061130000c563000031
:1025c400ed6300005d70000065700000f9630000b9
:1025d40021130000c9690000e16900005d7000007a
:1025e40065700000ed690000430100007d7000008b
:1025f4005969000061690000657000008569000088
:1026040071130000016a0000116a00005d7000008f
:10261400657000001d6a000051130000015d000098
:10262400495d00005d70000065700000555d0000ac
:10263400ffff0000a12900005d5f0000a952000017
:10264400211a00009d70000000000000000000003e
:102654000000000000000000000000000000000076
:020000040000fa
:10266400f0b4c26843895179947901eb0425a9b285
:102674004e1c9e421bdad478977892f801c01379e5
:10268400d579260406eb072464441e0605f1ff3cb5
:10269400a319bcf1070f00f27e81dfe81cf04000b3
:1026a400b8007c0131017c017c017c010c00152106
:1026b400f0bc04f045bc002451b3a5b22a441f5910
:1026c4009770c2681e592a44370ad770c2681e59c7
:1026d4002a44370c1771c2681e592a44370e5771a1
:1026e400c6681a192e445768b771c66857682e44cd
:1026f4003f0af771c668d7882e4408343772c66813
:10270400d77935441ffa84fc6f726145c268d4d806
:1027140002310026018156704168f0bc0847002947
:10272400f6d0a45d9470012903f101026dd08f1ecf
:1027340013fa87f60236b51a15f00704c3f101033c
:1027440030d0012c27d0022c20d0032c19d0042cfb
:1027540012d0052c0bd0062c04d0c76812f8015bec
:102764001744fd54c46812f8017b1444e754c46848
:1027740012f8015b1444e554c76812f8014b17447e
:10278400fc54c76812f8015b1744fd54c46812f87e
:10279400017b1444e75412f8015bc4681444b24248
:1027a400e55432d01546c76815f801cbef196c1cf7
:1027b40007f803c0c76892f801c02744ac1c07f8a7
:1027c40003c0c76895f801c03c44151d04f803c054
:1027d400c468d7782c44551de754c4681779254438
:1027e400941def54c56857792c44d51de754c4682b
:1027f4009779254402f1080cef54c468d579a444b0
:102804000832b2420cf80350ccd1c26880e70029e8
:102814003ff47eafa55b9570a65bc468320a0229bb
:1028240003f10203e270f0d9c7681d883d7133f8e3
:10283400024bc668220a72710422cf1e9142c7f36a
:102844004105e2d92eb236b3012e16d0022e08d09d
:10285400c2681c88947133f8025bc7682e0afe7143
:102864000622c4681f881444a770c66833f8025b44
:1028740016442c0a023292b2f470c7681e881744b8
:10288400be70c46833f8025b1444023292b22f0a59
:102894009142e770b9d9c4681e8814449c46a67056
:1028a400c5683cf8027b15443c0aec70c6685d8838
:1028b400023294b22644a21cb570c6685f883444c0
:1028c4003d0ae570c468bcf8027092b2a618941c64
:1028d400b770c768bcf802503a442e0ad670c26872
:1028e400dd88a4b22244a71c9570c268de88144413
:1028f400bab2350a9142e57003f10803cbd884e7f4
:1029040000293ff405af4d1e6d074ff000044ff052
:10291400040626d51c6894701a68c768150afd70e9
:10292400c2685c881471c768dd787d71b142344631
:102934007ff66bafc26814e0c7689d583744141d16
:10294400bd70c5689f5835443f0aef70c5689f58ed
:1029540035443f0c2f71c5689a582e44170e777171
:10296400c2681e591ffa84fc62449670c7681d59d8
:1029740067442a0afa70c7681e596744350c3d71ca
:10298400c2681f599444221d96b23c0eb1428cf881
:0c2994000540d1d839e714218ae600bfc5
:020000040000fa
:1029a000f8b590f84d30591e044607292dd8dfe8b8
:1029b00011f08b00c2002c00fb00060106012d0067
:1029c0007400d2e9006732463b46204600f016fc10
:1029d000002800f0518194f86810002900f04c8123
:1029e000236e002bc0f25181206d002800f047813a
:1029f000b4f85860002e40f0468194f85420811ab3
:102a000061664ff0070c84f84dc0f8bdb0f858501f
:102a1000b0f856206e1caa42a0f85860f5d8036d95
:102a200090f854701f440021b7f5005f4ff0000c80
:102a3000a0f8581084bf01650b46664604eb860774
:102a4000581c7d68e26a206595f90010d15426442f
:102a500096f82430012b0dd90123226d7868e16aa4
:102a6000551c2565c0568854013396f82420dbb2e6
:102a70009a42f2d80cf1010c94f85570236d5ffa6c
:102a80008cf6b742dad8d4e91815e81a884200f271
:102a9000c980002784f84d70f8bdb0f85840b0f8f0
:102aa0005630661ca342a0f85860aed8456e90f828
:102ab000547000222f4497424766a0f85820a4dba8
:102ac000022180f84d10f8bdb0f85860b0f856e01b
:102ad000711cb645a0f8581000f28780016d90f87f
:102ae00054300b440022b3f5005f4ff0000ea0f805
:102af000582084bf026511467746002304eb070c7b
:102b00001a4604eb870700e0216d7d68e06a4e1ce1
:102b10002665aa56425401339cf82410dab2914239
:102b2000f2d80ef1010e94f855305ffa8ef7bb42e1
:102b300054d9216de1e7b0f85870b0f856207e1cea
:102b4000ba42a0f8586029d80027be46a0f85870ad
:102b5000002304eb070c1a4604eb8707216d7d6800
:102b6000e06a4e1c2665aa56425401339cf8241094
:102b7000dab29142f2d80ef1010e94f855305ffab4
:102b80008ef7bb42e4d894f854c0256dac44bcf534
:102b9000005f84bf4ff0000c84f84dc0b4f85a00b9
:102ba0000130a4f85a00f8bdb0f85a40b0f85850b7
:102bb00001340135a0f85a40a0f85850f8bd90f8fb
:102bc0004ce0866c0ef00f0c0cf1ff33072b50d845
:102bd000dfe803f049464f434f4f4f37e06e256d16
:102be000854224bf012084f8680094f84c60a26cf0
:102bf00006f00f0c0cf1ff3ebef1070f36d801a115
:102c000051f82ef03d2c0000372c00006d2c0000f8
:102c1000312c00006d2c00006d2c00006d2c00008c
:102c2000c3290000226f10448142fff4eeae30e76a
:102c300016680027c7e616880027c4e6167800271e
:102c4000c1e6d6e9006732463b46204600f0d6fa98
:102c500090b1042184f84d10f8bd36680027f2e7e2
:102c600036880027efe736780027ece700260027b4
:102c7000a9e600260027e6e7c4e91067f8bd94f846
:102c80005470256fe81b6066bbe600270825636665
:082c9000276584f84d50f8bde2
:020000040000fa
:102c9800f0b5b24c94f91010012983b004d0022980
:102ca80040d099b103b0f0bdad4804f065f9ad4b23
:102cb8001b7800212174002b59d1ab4a0093117a5b
:102cc80052f8040c02f0d2fd03b0f0bda54b1e78fb
:102cd8005a78002e3ad062b993f8217093f82050b0
:102ce80007f1ff3c0135c82183f821c083f8205043
:102cf8005970d978ca07d5d59c4a106940f2f2773d
:102d08000126b842267400f0ac8040f2f477b8424d
:102d18006ed0b0f5fe6f7cd00222227421f0010142
:102d2800d970bfe78e4804f027f98e48057800234c
:102d3800237445b18e4a02f10801101f03b0bde8a3
:102d4800f04003f0adbe8b4a2b46f4e7cab9997838
:102d58004e1c01299e7074d04fb29fb3022928d00f
:102d680001229a700126142526745d709ae7824a1a
:102d780000910b4652f8040c117a02f077fd03b06b
:102d8800f0bdda78d1078dd57c48076940f2f37c2d
:102d9800674500f0c18040f2f576b74200f0aa809e
:102da80040f2f174a74200f0848022f00102da7048
:102db80078e7724f40f2f4710820c7e901223960c0
:102dc8003873cde79d686d492e0ebc4666f3070c37
:102dd8002a0c280a62f30f2c60f3174c65f31f6c5a
:102de8004ff4fe660825c1e901c70e600d73b9e707
:102df800002040f2f576082493f8205093f82170cb
:102e0800166014735071d080108190721571d7724a
:102e180084e7507d92f814c0d67d5d69040404eb04
:102e28000c67907ddc69374407eb00269e612fba5a
:102e380040f2f17625ba0820576095601660107345
:102e48006ce74f4f4d4ab888f9883d68556046bad7
:102e58004fba082040f2f271168111601073578141
:102e680080e7547e167e4648957e92f81bc004eb98
:102e7800062600270ceb052c66f30f074589068903
:102e88008489c0896cf31f47dff8f8c076ba6dba39
:102e980064ba40baccf8047096805769d58040f27d
:102ea800f3760825ccf800701481508116601573ec
:102eb80034e70668b6f5fe6f7ff477af057f082d17
:102ec8007ff473af477d417e90f814c0067ec57dc0
:102ed8003c0404eb0c6c0f04c47e07eb0661867d92
:102ee800807eac4421440ceb062701eb0025c3e9a6
:102ef80003755ae7056840f2f4718d427ff455afc7
:102f0800077f082f7ff451af90f814c0c07e83f874
:102f180020c083f8210048e7046840f2f275ac420b
:102f28007ff443af067f082e7ff43fafc57d077e51
:102f3800447e90f816c0017d467d05eb0c2c04eb11
:102f48000725877ec07e06eb01260e4900eb072485
:102f58000e81a1f80ac08d81cc8126e708000020e7
:102f6800ad660000e02c0020482d0020042d002034
:102f7800182d0020582d0020082d0020442d002059
:082f8800342d0020242d00204f
:020000040000fa
:102f90008548864a864912882de9f843854b864c38
:102fa000b0f90070854db3f80080b1f90030d4f865
:102fb000a06129888248d4f8a051824cd21b824f4c
:102fc000a8eb0303c900b7f800900778a4f87017be
:102fd00016f4007f4fea031347f6ff7c4fea021610
:102fe000a4f86e971bb20ffa86f90cbf0021614658
:102ff000a4f85e37a4f86a17a4f860972fbb73494a
:103000000e78c5f38025ae4203d00d70002d40f040
:103010008d80d4f87807b0f9007077b36c4d6d4ea1
:103020006d482d883188b0f900006c4ea4f86457c3
:103030004b445d423288a4f86257a4f86617a4f89e
:103040006807a4f85c27bde8f883654d2e78013643
:10305000f7b2092f2f70dcd9b4f96c1700260029bc
:10306000067018bf4ff0000cd4f87807a4f86cc7ae
:10307000b0f900702e70002fd0d103f0a7fe594e8a
:10308000b0f5404fb080f288b6f80c8046d2b2f569
:10309000404f06d3b0f5804f3cbf08f188021ffabd
:1030a00082f8dff85091504ff080a9fb082399096e
:1030b0004ff0c80c0cfb11851ffa85f84044a9fba2
:1030c0000012a7fb00e3950999094ff47a7e0cfbe7
:1030d0001503464a30610efb110ccceb0c41c3ebdf
:1030e0000340a9fb0005a7fb01031088dff8e0906f
:1030f000384fa6f80c80c5f38f15c3f38f116328e2
:1031000035817181a9f80050398014d8324eb4f954
:103110005e37b6f90000b4f9609786e7b2f5804fe4
:10312000bfd208f1400e1ffa8ef8bae72c4e0121eb
:10313000377001706de70021118003f047fe35887c
:103140002b4a431b19b207ee901ab8eee70a0ffaa2
:1031500080f8118010ee100aa6f8028003f00cfd32
:103160000fa3d3e9002301f04bfb03f0a1f907ee15
:10317000100afdeec70a3988dff87ce0dff858c096
:10318000b9f80050b4f95e37b4f96097a6f800803a
:1031900010ee907a38b28eed007aacf8000044e779
:1031a0001904560e2d6260401034002016340020a1
:1031b0000e34002014340020008000411834002018
:1031c0001d34002050000020123400201e34002046
:1031d000c40c0020a40c0020a60c0020d02c002041
:1031e0001c340020a80c0020d34d62101a3400209b
:0c31f0000a3400201f85eb51f033002052
:020000040000fa
:1031fc00f8b51f4690f84c30014613f040001646c7
:10320c0003f00f041cd0042c50d0082c36d1d1e97b
:10321c00102391f87400d1e90e4501281946104687
:10322c002b46224659d003f001fc40b132463b46b6
:10323c002046294603f050fb003018bf0120f8bd92
:10324c009b0604f1ff321bd5072af8d801a353f8cb
:10325c0022f000bfdd330000bb3300004b32000016
:10326c009f3300004b3200004b3200004b32000009
:10327c0077330000f1ee10fa00f1b4800020f8bdb5
:10328c00072afbd801a353f822f000bf63330000d8
:10329c0045330000893200002b33000089320000d6
:1032ac0089320000893200000333000091f8746009
:1032bc0091ed107ad1ed0e7a012e06ee902ab4ee35
:1032cc00e77ad7d0f1ee10fad8ddf4eee67af1ee2b
:1032dc0010faacbf01200020f8bd03f0c3fb00289e
:1032ec00add032463b462046294603f0d7fa003093
:1032fc0018bf0120f8bd91f874000128d1e91045e0
:10330c00d1e90e2300f08280ab4208bfa242b5d2b5
:10331c00bb4208bfb2422cbf01200020f8bd91f87f
:10332c0074500f6c886b012d0ed08742a6d9b04219
:10333c0034bf00200120f8bd91f87430b1f8407012
:10334c00088f012bb6b2f0d1874297d2b0428cbf16
:10335c0000200120f8bd91f8744091f8407091f86c
:10336c003800012cf6b2e0d1eee791f874c0bcf154
:10337c00010fd1e91045d1e90e233bd0a24273ebea
:10338c000501bff65cafb242bb41acbf01200020cf
:10339c00f8bd91f874500a6c896b012d10d08a42db
:1033ac007ff74dafb142b4bf00200120f8bd91f8ba
:1033bc007470b1f94020b1f93810012f36b2eed14a
:1033cc008a42bff63cafb142ccbf00200120f8bd11
:1033dc0091f8743091f9402091f93810012b76b2a4
:1033ec00ddd1ede7f4eee67af1ee10fa94bf0120b0
:1033fc000020f8bd944275eb0301bff620af964256
:10340c0077eb0303acbf01200020f8bd9d4208bf41
:10341c009442bff433af9f4208bf96422cbf0120a9
:04342c000020f8bdc7
:020000040000fa
:103430000000240348066a098c0cab0fc812e21581
:10344000f9180b1c1a1f2322282526281f2b112ea2
:10345000fb30df33ba368c39563c173fce417a44c5
:103460001c47b4493f4cbf4e33519b53f55542580e
:10347000825ab35cd75eeb60f162e864cf66a668ff
:103480006d6a236cc96d5e6fe2705472b57304751a
:1034900041766b77847889797c7a5c7b297ce37cc4
:1034a000897d1d7e9c7e097f617fa67fd87ff57f09
:1034b000ff7ff57fd87fa67f617f097f9c7e1d7e81
:1034c000897de37c297c5c7b7c7a897984786b7745
:1034d00041760475b5735472e2705e6fc96d236cea
:1034e0006d6aa668cf66e864f162eb60d75eb35c94
:1034f000825a4258f5559b533351bf4e3f4cb44905
:103500001c477a44ce41173f563c8c39ba36df33dc
:10351000fb30112e1f2b2628282523221a1f0b1cb7
:10352000f918e215c812ab0f8c0c6a09480624037f
:103530000000dcfcb8f996f674f355f038ed1eea9d
:1035400007e7f5e3e6e0ddddd8dadad7e1d4efd15d
:1035500005cf21cc46c974c6aac3e9c032be86bb1a
:10356000e4b84cb6c1b341b1cdae65ac0baabea7b1
:103570007ea54da329a1159f0f9d189b31995a97a0
:103580009395dd933792a2901e8fac8d4b8cfc8a65
:10359000bf8995887c8777868485a484d7831d839b
:1035a0007782e3816481f7809f805a8028800b8036
:1035b00001800b8028805a809f80f7806481e3819e
:1035c00077821d83d783a484848577867c879588ba
:1035d000bf89fc8a4b8cac8d1e8fa2903792dd93f5
:1035e00093955a973199189b0f9d159f29a14da32b
:1035f0007ea5bea70baa65accdae41b1c1b34cb69a
:10360000e4b886bb32bee9c0aac374c646c921cca1
:1036100005cfefd1e1d4dad7d8dadddde6e0f5e3a6
:1036200007e71eea38ed55f074f396f6b8f9dcfcbe
:04363000000000bfd7
:020000040000fa
:10363400b83300201c00000000000000000000203f
:10364400080000000000000008000020380000000e
:1036540000000000400000200800000000000000fe
:10366400480000200200000000000000c3320020d7
:103674000100000000000000c23100200200000030
:1036840000000000c432002004000000000000001c
:10369400c83200206c000000000000000834002044
:1036a400020000000100000009000000500000209a
:1036b4001008000000000000bc2d002006040000db
:1036c4000000000060080020060400000000000064
:1036d400c4310020ff00000000000000d4330020ab
:1036e40018000000000000008433002034000000b3
:1036f40000000000ec330020040000000100000082
:10370400680c0020680c00203c0000000000000051
:103714001c34002001000000000000001d340020c3
:1037240001000000000000000a3400200200000034
:1037340000000000f033002004000000000000003e
:103744001e34002001000000010000000100000000
:10375400a40c00202800000000000000cc0c002075
:1037640000200000000000000c34002002000000d3
:10377400000000000e3400200200000000000000e1
:10378400f433002004000000000000001034002086
:103794000200000000000000f833002004000000d4
:1037a40000000000fc3300200400000000000000c2
:1037b4001234002002000000000000001434002035
:1037c4000200000000000000163400200200000087
:1037d4000000000018340020020000000000000077
:1037e4001a3400200200000000000000cc2c00204d
:1037f4000a00000000000000e02c0020dc000000b3
:10380400000000000034002004000000000000005c
:103814003433002050000000000000000434002075
:103824000400000000000000000000000000000090
:020000040000fa
:10383400f0b56e4b6e4c1d6dae0185b00ad5626954
:103844004ff00070ff21186521741ab1a069002699
:1038540090472674e8077ed4eb060ad56348102700
:103864000765466d26f010014165d0f8b42057066f
:103874001bd105f40067ad050fd55c4d4ff4007204
:103884002a656e6d26f400716965d5f8d800c00705
:1038940003d5d5f8e030d90734d4002f3bd194f9bf
:1038a4001060032e4fd005b0f0bdd0f8b430266ab6
:1038b4006068c3f305273a0106eb020cb158b3580c
:1038c4004e004cbf23f06043c3f38a43036049486e
:1038d400dcf804600fc80df1100e0ee90f00c6f3fa
:1038e400034272440cf1080112f8106ca0683246cd
:1038f40003f006fbe1683d480e700323c0f8b8707e
:103904002374b6e7d5f8e020032622f00101c5f8b8
:10391400e0102674bfb103f069fb002860d1364f74
:10392400fd690135fd61314e4ff400623265d6f810
:10393400c410d6f8c470c1f30425c7f3044085420b
:10394400add2032323746269002aacd0a06905b008
:10395400bde8f040104703f049fb274f00283bd156
:103964007b6901337b61214801210165466d26f0a5
:1039740001074765d0f8a43059063ff46dafd0f87d
:10398400a400e2696168c0f305273e0102eb060c5e
:10399400905993594200174a4cbf23f06043c3f334
:1039a4008a430b600fca0df1100e0ee90f00dcf80c
:1039b4000460c6f3034070440cf1080110f8106c65
:1039c400a068324603f09cfae168084a0e700323ab
:1039d400c2f8a87023743fe77a6801327a60c2e7bc
:1039e40005488368013383609de700bf00040042fb
:0c39f40008000020906f0000e02c002074
:020000040000fa
:103a00004189c2682e2910b440f2b38003460021d8
:103a10002f2018815170d8686a4a06248470d868ab
:103a2000c1701268d968148c0c71118cd8680c0a9a
:103a30004471d968588988715c89d868210ac17134
:103a4000dc6820202072d96882244c72d968442016
:103a50008872dc686521e172dc6863202073dc68b1
:103a600032216173d86833248473d868c173d868ed
:103a700030240474d8684174dc68a174d86831219a
:103a8000c174dc682175d86834214175dc68a17582
:103a9000506a002875d0546ad9682078c875546a6d
:103aa000d96860780876546ad968a0784876546aec
:103ab000d96820798876546ad9686079c876546a5a
:103ac000d968e0790877546ad968207a4877546ac7
:103ad000d968607a8877546ad968a07ac877546ab6
:103ae000d96894f80bc081f820c0506adc68017b6b
:103af00084f82110506adc68817b84f82210506ab7
:103b0000dc68c17b84f82310dc68117b84f8241006
:103b1000dc68b2f80ec084f825c0d189d8680c0ad8
:103b200080f82640d968106981f827001469d868a0
:103b3000210a80f828101469d868210c80f829100f
:103b40001469d868210e80f82a10dc6884f82b20cc
:103b5000d968100a81f82c00dc68110c84f82d104b
:103b6000d868120e80f82e2059685df8044b18466c
:103b70000847152402230381547042685df8044b02
:103b80001047d8682d2480f82340d96881f8224056
:103b9000d86880f82140d96881f82040d868c47777
:103ba000d9688c77d8684477d9680c77d868c47698
:103bb000d9688c76d8684476d9680c76d868c4758c
:083bc000a2e700bfec33002076
:020000040000fa
:103bc800038d03f00302012a6ad0022a09bf426862
:103bd800dfed477ad2ed007af1ee677ac3f381021e
:103be800012a57d0022a5fd0c3f30112012a4bd011
:103bf800022a65d0c3f38112012a3fd0022a59d084
:103c0800c3f30122012a33d0022a65d0c3f38122eb
:103c1800012a27d0022a59d0c3f30132012a11d030
:103c2800022a5fd09b0b012b14d0022b02d0c0edcf
:103c3800097a7047036a93ed007a77eec77ac0ed88
:103c4800097a7047c2699b0b92ed007a012b77eed7
:103c5800877aead1036a93ed007a77ee877ac0ed26
:103c6800097a7047826992ed007a77ee877ad3e70e
:103c7800426992ed007a77ee877ac7e7026992ed9a
:103c8800007a77ee877abbe7c26892ed007a77ee22
:103c9800877aafe7826892ed007a77ee877aa3e7b2
:103ca8004268d2ed007a99e7826892ed007a77ee61
:103cb800c77a99e7026992ed007a77eec77a9fe7ab
:103cc800c26892ed007a77eec77a93e7826992ed3f
:103cd800007a77eec77a9fe7426992ed007a77ee2d
:103ce800c77a93e7c26992ed007a77eec77a99e7c7
:103cf80000000000002341f2c322028043627047a3
:103d0800012b0bd9038d0b70038d10b41b0a0224f1
:103d18004b70002014805df8044b704701207047f9
:103d2800022a01d0012070474a780b7803eb02235e
:103d380003850020704700bf0139082918d8dfe83b
:103d480001f007090b0d0f111315050024307047fa
:103d58004068704780687047c0687047006970475e
:103d68004069704780697047c0697047006a70474a
:043d78000020704770
:020000040000fa
:103d7c0010b55e4c204601f063f9a4f29c5002f0a1
:103d8c0075f9a4f26c6002f067fba4f25c6002f0bf
:103d9c0063fba4f24c6002f05ffba4f29c6001f0a8
:103dac00adfda4f28c6001f0a9fda4f27c6001f0e1
:103dbc00a5fda4f20c7002f0fffaa4f2fc6002f074
:103dcc00fbfaa4f2ec6002f0f7faa4f22c6001f01a
:103ddc0063fca4f53a7002f00dfea4f5a76001f0a7
:103dec0099f9a4f23c6001f085ffa4f5597002f03a
:103dfc000bfb04f1340000f0b7fea4f1a00002f0bc
:103e0c0035f9a4f5b76001f079fda4f5467002f020
:103e1c0079fea4f1ec0002f075fea4f1300002f082
:103e2c00cdfda4f21c6002f0c3f8a4f57a7000f08a
:103e3c0079fda4f1f80002f0dffea4f1800001f09e
:103e4c0059ffa4f1700002f09dfda4f58a6002f008
:103e5c000df9a4f5806002f0cffea4f1e00002f0b1
:103e6c0037fea4f1900001f045ffa4f1240001f00d
:103e7c00e7f8a4f55d7001f04ffea4f5cc7002f0ec
:103e8c00f5f8a4f5847001f039fda4f1d40002f02a
:103e9c0053fea4f1400001f03ffea4f51e7001f0aa
:103eac002dfda4f1c80001f053fba4f1640000f057
:103ebc00cdfa04f11c0002f0d9f8a4f5557002f00b
:103ecc00a3faa4f5727000f02dfda4f5886002f041
:103edc00cdf8a4f5617001f01ffea4f56a7000f036
:103eec0009f80348bde81040fef754bd5c070020fc
:043efc00e8070020b3
:020000040000fa
:103f000003691b78002b71d1c3688268b3f9001074
:103f100043682de9f0418cb2b3f90060b2f900704a
:103f2000dff8f8e03c4dc4f58043c3f307235a1c87
:103f30004fea142c3ef912803ef913203ef91c3052
:103f40000cf1010c49423ef91ce0a8eb0208c9b291
:103f500001fb08f1aeeb030ee4b202eb212204fbfd
:103f60000ef412b203eb242302fb07f11cb206fb92
:103f700002f206fb041646f3cf3607fb142446f67e
:103f8000da6144f3cf3416fb01f1c1f3cf31c4f34e
:103f90004f03cf1a3fb2bc420b44c3f1000321468a
:103fa000b8bf3946bc421bb209b22246a8bf3a4646
:103fb00012b29942b8bf19469a424fea6101a8bfae
:103fc0001a4601eb62029b1aa11abf1a05fb01f106
:103fd00005fb07f705fb03f5bf138b13ad13c48374
:103fe0000684038347838583bde8f0814369b3f981
:103ff0000030a3eba3031bb24bf69a1244f26661a6
:1040000013fb02f213fb01f343f38f33921302838a
:1040100043838383704700bf9ab9ffff30340000a9
:10402000002345f2f0120280038343838383c3831a
:1040300003847047013909291ad8dfe801f007091c
:104040000b0d0f111315170520307047406870478e
:1040500080687047c0687047006970474069704762
:10406000183070471a3070471c3070471e30704748
:044070000020704775
:020000040000fa
:1040740070b50289c368042a82b007d002261422cc
:1040840006815a704368984702b070bd59789e788b
:104094004e4add78126801eb06260446b1b28db1b2
:1040a400556b002d00f08b800df10602284602f0be
:1040b400e7f820bbbdf8062005ebc20cdcf80400d1
:1040c40006680ee0156b002d72d00df1060228462d
:1040d40002f0d6f898b9bdf8060005ebc00cdcf880
:1040e40004609cf80230e16803f1ff3ebef1070f63
:1040f40048d8dfe80ef0443e4732474747110128cd
:104104004ad002284cd0e5680223ff2223816a703a
:1041140066682046b047b7e7d6e900628e70e56866
:10412400300ae870e168350c0d71e068360e4671ae
:10413400e1688a71e568100ae871e668110c317269
:10414400e568120e6a72e068002141700233656806
:1041540023812046a84702b070bd36688e70e1689e
:10416400300ac870e568320c2a71e168360e4e7167
:10417400e9e730888870e568020aea70e3e7367890
:104184008e70e0e74ff0020c2323a4f808c04b70b4
:1041940062682046904777e7e56802234322b5e743
:1041a400e6682081402070706168204688476be78c
:1041b40002244521048159704368984764e7022426
:1041c4004621048159704568a8475de7ec33002017
:020000040000fa
:1041d400f0b50289c368022a83b007d802241422e6
:1041e40004815a704568a84703b0f0bd5d78494e14
:1041f4009f78316805eb072295b204460df106025b
:104204000868294602f064f8002863d13368bdf8d1
:1042140006c01f68996807ebcc0edef80470c1b1c4
:104224009a681188a94270d09a68118821b96ee001
:104234009a6832f8301041b1013080b29a6832f88d
:104244003010a9424feac00cf2d1986830f80c50f3
:104254002dbb586839880df1060201f0bfff002814
:1042640030d13668bdf806307068b4f808e0e1680b
:1042740003eb430200ebc20caef103053846aab2cd
:10428400dcf810700331b847e66878b302201422d2
:104294002081727061682046884703b0f0bd9e6833
:1042a400b4f808e0e1686644aef1030c736838467c
:1042b4001ffa8cf203319847002895d0e668022053
:1042c4004222e5e70128e6681cd0022818d0022023
:1042d400ff22dde70128e6680fd00228f7d1402548
:1042e4002081757067682046b8477de702212181e7
:1042f400707063682046984776e702204322c7e738
:104304004125ede702204422c2e784469de78c461e
:084314009be700bfec33002021
:020000040000fa
:10431c00464b474a4749002030b410741d469962f9
:10432c006c68e406fcd442224049c5f88420d1f8dc
:10433c0084305806fbd54048002577248563844695
:10434c004463dcf83c205107fbd402233a498cf837
:10435c003030c86b8307fcd4374d2c6c04f003024f
:10436c00032afad1354901234b71c878c507fcd50e
:10437c002e4d334c2c626a685407fcd4314b2b49bc
:10438c006b6248680007fcd44125284cc1f8a45046
:10439c00d4f8a4205106fbd541232449c4f8ac30f1
:1043ac00d1f8ac004206fbd54125204cc1f8dc50bd
:1043bc00d4f8dc205306fbd540231c49c4f8e43068
:1043cc00d1f8e4004506fbd54125184ac1f8f05058
:1043dc00d2f8f0406406fbd541231449c2f8fc30f6
:1043ec00d1f8fc004006fbd54125104ac1f82051fc
:1043fc00d2f820416106fbd541230c49c2f8243187
:10440c00d1f824014306fbd50c4b0f486ff07f45c8
:10441c0044f2ff344ff402514ff4c0721d615c61e1
:10442c00986130bcd9611a62704700bf001c004013
:10443c00001400400601300000100040000800404d
:0c444c000701010007010200d68a0100f0
:020000040000fa
:10445800c3681b7803b390f82020a2b14168b0f973
:10446800102010b4b1f90040a21a002a27dd4169d2
:10447800b2eb214f19dc22040482c26180f820309b
:104488005df8044b70478268b2f90020028212047a
:10449800c26180f8203070474268b2f90020028279
:1044a8001204c26180f820307047c26980f8203059
:1044b80011440a14c16102825df8044b7047ddd0d3
:1044c80081695242b2eb214fd5ddc269511a0a14f3
:1044d800c1610282d2e700bf6122028083680022a4
:1044e8000282b3f9003080f820201b04c3617047b2
:1044f800072b19d943690b7043691b124b70b0f92c
:1045080016308b7090f91730cb7083690b71836903
:104518001b124b71b0f91a308b7190f91b30cb71ab
:10452800082313800020704701207047082a01d013
:10453800012070478b78ca7830b44d780c781b040a
:1045480003eb0523234403eb026343618b794d7925
:104558000c79ca791b0403eb0523234403eb02639c
:10456800836130bc00207047013903290bd8dfe88c
:1045780001f00806040210307047c0687047806870
:104588007047406870470020704700bf43691a7839
:10459800fab190f8243070b4fbb1046a4168838b97
:1045a800b1f9006090f91f50c16813fb06f32b4165
:1045b800b1f9001003ebe4358d4214dd8b42d4bf12
:1045c800cb1a4b1adb030362018380f8242070bcea
:1045d8007047028380f8242070478368b3f900404d
:1045e800e4030462dae70169b1f900108d420adade
:1045f8008b42acbfcb1a4b1adb030362018380f8f2
:10460800242070bc7047438b90f91e1080f824203a
:1046180013fb06f6c1f10f039e4034442946046299
:10462800018370bc704700bf40f6a14202808368d6
:1046380000220283b3f9003080f82420db030362f0
:10464800704700bf052b11d9438b0b7090f91b30b5
:104658004b70838b8b7090f91d30cb70837f0b71ff
:10466800c37f4b71062313800020704701207047d9
:10467800062a01d0012070474a780b7803eb022301
:104688004383ca788b7803eb022383830b79837780
:104698004b79c377002070470139052910d8dfe826
:1046a80001f00507090b0d03183070474068704783
:1046b80080687047c06870470069704740697047f4
:0446c8000020704717
:020000040000fa
:1046cc0010b54b4c204600f05dfb04f5826000f009
:1046dc0059fb04f54c7001f097fea4f1ec0000f0ce
:1046ec0037ff04f5507000f033ff04f5487001f00b
:1046fc0005f904f1180000f045fb04f17800fff710
:10470c00a5fe04f5667001f0f9f804f5806000f080
:10471c00c3ff04f2c440fff799fe04f1a80001f0b6
:10472c004bfe04f58e6001f043fc04f1e00001f057
:10473c00e5f804f5856001f067fe04f5a07001f062
:10474c0023f904f5a87001f01ff904f5b87001f015
:10475c001bf904f5627001f0d1f804f5876002f0e2
:10476c00d1f904f1d00001f097f904f1f00001f057
:10477c0093f904f5807001f08ff904f5727001f073
:10478c0047fc04f56a7001f0fff804f57670fff74a
:10479c00fbfe04f56e7001f07ff904f5b07001f0ca
:1047ac00f3f804f5c07001f0eff804f5c87001f0ef
:1047bc00ebf804f5887001f06ff904f5907001f0d6
:1047cc006bf904f5987001f067f904f5e07001f0ed
:1047dc00ebff04f5e87001f0e7ff04f5f07001f071
:1047ec00e3ff04f52b70bde81040fff7e7b900bffd
:0447fc006c0100202c
:020000040000fa
:10480000f0b540f2ff7681ea030c16ea115e1ebf96
:10481000b64516ea1355b54252d021ea465141f445
:104820008011a1fb024723ea465343f48013ae44b0
:10483000a0fb03650cf0004c36197d41a1fb03473a
:1048400047f10003a0fb0217f619654153f100037d
:10485000094218bf46f0010640f2fe74b3f5007f2e
:1048600013d2aef5806ea64523d24cea033128035d
:1048700041ea155140ea16503203450872f10042f0
:1048800050f1000051eb0e51f0bdaef2ff3ea645d7
:104890000fd24ceac321e80241ea555140ea565092
:1048a000f202450872f1004250f1000051eb0e5146
:1048b000f0bd1eea0e0f2dd50cf000410020f0bd1a
:1048c00016ea115f04bf01f000410020004218bf4a
:1048d00041f0010116ea135f04bf03f00043002218
:1048e000124218bf43f0010306ea1354b44218bf42
:1048f000b64503d00cf000410020f0bd21f000418e
:1049000023f00043b1eb065f0cd8b3eb065f09d888
:1049100041b13bb10cf0004141f0fe4141f4700166
:104920000020f0bd40f20001c7f6f8710020f0bd94
:020000040000fa
:10493000c3681a78f2b1037f70b4f3b18469416837
:10494000838ab1f9006090f9171013fb06f30b414d
:1049500003ebe435b5f5004f15db47f6ff718b42ed
:10496000d4bfcb1a4b1adb0383610b460382027759
:1049700070bc70470282027770478368b3f90040c9
:10498000e4038461dbe70e498d420ada8b42acbf57
:10499000cb1a4b1adb0383610b460382027770bc90
:1049a0007047438a90f91610027713fb06f6c1f19f
:1049b0000f039e4034442bb28461038270bc704765
:1049c0000180ffff40f6914202808368002202824c
:1049d000b3f900300277db0383617047052b11d9ef
:1049e000438a0b7090f913304b70838a8b7090f967
:1049f0001530cb70837d0b71c37d4b710623138003
:104a00000020704701207047062a01d0012070471e
:104a10004a780b7803eb02234382ca788b7803eb46
:104a2000022383820b7983754b79c375002070470d
:104a3000013903290bd8dfe801f008060402103021
:104a40007047c068704780687047406870470020b2
:044a5000704700bfec
:020000040000fa
:104a5400f8b53a4cd4f87c37b3f9000028b9d4f847
:104a64007817b1f9001000295cd004f5f16c9ce8ca
:104a74000e00b1f90010b3f90060b2f90070304dc6
:104a840047f6ff7040f6b833411ac21b03fb01f12d
:104a9400871b03fb02f2080c03fb07f3294e2a4f82
:104aa40028600021120c1b0c08463a60336002f0a7
:104ab4008dfa2d682548d4f8784725f07f410167a1
:104ac4003f68b4f9003027f07f424267366826f029
:104ad4007f458567fbb91e48048814b31d49202708
:104ae4004f710b69002bfcd11b4a1c4e1c4d1d4cf5
:104af4001d491e4893814ff0000e1361c2e9013332
:104b0400136033802b802380c1f800e00380bde86c
:104b1400f84002f049b90e4f02f066f942f2107300
:104b24003b80f8bd064d084f064e40f2db5277201d
:104b34002a603a60326002f049fabae75000002075
:104b4400c00c0020bc0c0020c80c002000600141f7
:104b54000c340020001c0042a80c0020c40c0020cf
:104b6400a40c00200a340020f0330020a60c0020fe
:020000040000fa
:104b7400f0b54668b6f90020002a29d0b0f91a30f9
:104b840023b3038b028a458a848ab0f816e047f679
:104b9400ff714ff6ff779a4294bf0a4600229d4266
:104ba40094bf0d4600259c4294bf0c4600249e45ac
:104bb40088bf0021bb4201d00133038302814581b8
:104bc4008481c181b6f900304383f0bd0383d9e702
:104bd400114614461546f1e7002340f2c112028043
:104be400038143818381c38103834383704700bf6f
:104bf400072b1ad9038a0b70038a1b0a4b70438a4a
:104c04008b70438a1b0acb70838a0b71838a1b0abd
:104c14004b71c38a8b71c38a10b40824e340cb71ef
:104c2400002014805df8044b70470120704700bfda
:104c3400082a01d0012070474a780b7803eb02233d
:104c44000382ca788b7803eb022343824a790b7977
:104c540003eb02238382ca798b7903eb0223c38299
:104c640000207047013904290ed8dfe801f0050758
:104c7400090b03000e3070474068704708307047d6
:0c4c84000a3070470c3070470020704769
:020000040000fa
:104c900000070e091c1b1215383f363124232a2d1c
:104ca00070777e796c6b6265484f464154535a5d0c
:104cb000e0e7eee9fcfbf2f5d8dfd6d1c4c3cacdfc
:104cc00090979e998c8b8285a8afa6a1b4b3babdec
:104cd000c7c0c9cedbdcd5d2fff8f1f6e3e4edeadc
:104ce000b7b0b9beabaca5a28f88818693949d9acc
:104cf0002720292e3b3c35321f18111603040d0abc
:104d00005750595e4b4c45426f68616673747d7aab
:104d1000898e878095929b9cb1b6bfb8adaaa3a49b
:104d2000f9fef7f0e5e2ebecc1c6cfc8dddad3d48b
:104d3000696e676075727b7c51565f584d4a43447b
:104d4000191e171005020b0c21262f283d3a33346b
:104d50004e49404752555c5b7671787f6a6d64635b
:104d60003e39303722252c2b0601080f1a1d14134b
:104d7000aea9a0a7b2b5bcbb9691989f8a8d84833b
:104d8000ded9d0d7c2c5cccbe6e1e8effafdf4f32b
:020000040000fa
:104d90008368828a4168f0b41f88c489038a154eeb
:104da0004ff4804514fb075402ebe43292b21344f3
:104db0009bb21c0a671c36f9144036f917608282d0
:104dc000dbb2321b03fb02f30988b0f912200a4e52
:104dd00004eb232311fb035302ebe333b342b8bfcd
:104de000334647f6ff729342a8bf13468381f0bc57
:104df000704700bf303400000180ffff002340f205
:104e0000a112028083818382704700bf052b12d9d3
:104e1000c3890b7090f90f304b70038a8b7090f937
:104e20001130cb70438a0b7190f913304b7106230c
:104e30001380002070470120704700bf062a01d070
:104e4000012070474a780b7803eb0223c381ca78ac
:104e50008b7803eb022303824a790b7903eb02235d
:104e600043820020704700bf022909d0032905d0e2
:104e7000012901d000207047406870470c3070470e
:044e8000806870478f
:020000040000fa
:104e840070b50289c368032a82b007d002241426ad
:104e940004815e704268904702b070bd304d59780d
:104ea4009e780446286801eb062291b200680df151
:104eb400060201f00dfa58b10128e6683fd0022835
:104ec4003ad140212081717065682046a847e3e704
:104ed4002e68bdf806c03368706803ebcc0e0df184
:104ee4000602def80460318801f078f9f8b92d681b
:104ef400bdf806206868b4f80ac0e16802eb420312
:104f040000ebc30eacf10202304693b2def80c6043
:104f1400023104f10802b047a0b1e668022014226d
:104f24002081727063682046984702b070bd0128e2
:104f3400e66812d002280ed00220ff22f0e70220f9
:104f44004322ede72189e5680231218168706368b5
:104f540020469847a0e74121b4e702204422dfe736
:044f6400ec3300200a
:020000040000fa
:104f680038b501f083ff2e4b2e4d2f4c4ff00062c9
:104f7800c3f8982002f050f82c49088002f058f83d
:104f88004ff0070c012320804ff4c05185f82ec044
:104f9800062085f82c3001f0abfe0e204ff4c051ee
:104fa80001f0b8fe287d40f002022a7501f0d0ff1a
:104fb80095f82e10ccb2012cfad102f039f81c4b1e
:104fc800188002f029f81b4a4ff4c05110800020c5
:104fd80001f08efe4ff4c051002001f09bfe1649ef
:104fe80085f82d40072085f82e000d88134c0135d3
:104ff8000d8002f001f823880bb15a1e228001f0bf
:10500800adfe074d0e4900eb800044004ff00063f1
:105018000c80c5f89430bde8384001f033bf00bfbc
:1050280000800041001c0043163400201434002086
:1050380012340020183400201a3400200c340020c8
:04504800d02c002048
:020000040000fa
:10504c00818a8269036930b4446832f91150b4f929
:10505c0000405b1b2344036122f81140828a418982
:10506c00013292b2914282829cbf00228282027be8
:10507c001341038130bc7047002210b48169028156
:10508c0041f2a134134604800261828221f813207c
:10509c00838a01339bb2ff2b8382f7d982825df81e
:1050ac00044b7047022b0ad943890b7043891b0aa6
:1050bc004b70037b8b7003231380002070470120ff
:1050cc00704700bf032a01d0012070474a780b7843
:1050dc0003eb022310b443818b78846903730022a1
:1050ec0013460261828224f81320838a01339bb217
:1050fc00ff2b8382f7d982825df8044b0020704726
:10510c00012905d0022901d10830704700207047d1
:10511c0040687047c368f0b5b3f90040d0f804e0bc
:10512c0083681e4e1988bef90030a5b2c5f58047bc
:10513c00c7f307277a1c01eb63012b0a36f912c05f
:10514c0036f917205f1c36f9133036f9176009b29f
:10515c006442aceb0207edb2f61ac182e4b204fb76
:10516c0007f405fb06f6bef8005002eb242203eb15
:10517c00262346f6da6412b21bb215fb04f4e413d0
:10518c0001fb03f502fb01f104fb131304fb0252b8
:10519c00d213db13028243828482f0bd30340000d0
:1051ac00002345f2e0120280038243828382c38291
:1051bc00704700bf0139062913d8dfe801f0060853
:1051cc000a0c0e1004001630704740687047806857
:1051dc007047c068704710307047123070471430f9
:0851ec0070470020704700bf6e
:020000040000fa
:1051f40030b50289c368032a83b007d0022414217e
:10520400048159704368984703b030bd244d5978e0
:1052140093f802c00446286801eb0c2291b2806b1b
:105224000df1060201f07cf840bb2b68bdf8065076
:10523400986bb4f80ae0e16800eb451caef1020299
:1052440093b2dcf81050dcf80800023104f10802d3
:10525400a84748b1e5680220492120816970656842
:105264002046a84703b030bd2189e368023121817b
:10527400587062682046904703b030bd0128e56845
:1052840004d0022805d00220ff21e6e702204721ae
:10529400e3e7402320816b70626820469047b3e7c0
:0452a400ec330020c7
:020000040000fa
:1052a8001c2b54d990f84d300b7090f855304b703a
:1052b800b0f856308b70b0f856301b0acb70036dbf
:1052c8000b71036d1b0a4b71b0f852308b7190f85b
:1052d8005330cb71c36a0b72c36a1b0a4b72c38dfe
:1052e8008b7290f82f30cb72036e0b73036e1b1208
:1052f8004b73b0f962308b7390f96330cb73436ea4
:105308000b74436e1b124b74b0f966308b7490f9b2
:105318006730cb74036f0b75036f1b0a4b75b0f8be
:1053280072308b7590f87330cb75036b0b76036b0b
:105338001b0a4b76438e8b7690f83300c8764ff075
:105348001d0c832008770020a2f800c070470120b8
:04535800704700bfdb
:020000040000fa
:10535c002de9f041c168284bce788d781c684a78cd
:10536c000f79330403eb052890443f06666838f840
:10537c0007c03588654547443cd06268168886b1bd
:10538c00002303e0656835f8322052b101339bb23b
:10539c0003eb4302656835f832e0e6454feac20696
:1053ac00f0d163689d5b05b36468804640892644f0
:1053bc00821e93b2f6680231384608f10802b047f3
:1053cc0068b9b8f80810d8f80c700231a8f80810b1
:1053dc007870d8f804304046bde8f0411847404694
:1053ec001421bde8f04101f0a7bd4121bde8f04119
:0c53fc0001f0a2bd0026d4e7ec33002035
:020000040000fa
:1054080030b50289c368022a83b007d8022414255c
:1054180004815d704168884703b030bd224d5978da
:1054280093f802c00446286801eb0c2291b2806b05
:105438000df1060200f072ff20bb2b68bdf8065084
:10544800986bb4f808e0e26800eb451caef1030382
:105458009bb2dce90215dcf804000332a847e368d4
:1054680040b10220482520815d706268204690473f
:1054780003b030bd022121815870626820469047f0
:1054880003b030bd0128e36804d0022805d002200b
:10549800ff25e8e702204725e5e7402120815970ec
:0c54a800636820469847b7e7ec3300200b
:020000040000fa
:1054b4002de9f041c168274bce788d781c684a7875
:1054c4000f79330403eb052890443f06666838f8e7
:1054d40007c03588654547443ad06268168886b166
:1054e400002303e0656835f8322052b101339bb2e2
:1054f40003eb4302656835f832e0e6454feac2063d
:10550400f0d163689d5bf5b16468804600892644e8
:10551400a0f1050c3669053138461ffa8cf2b04704
:1055240058b9d8f80c100227a8f808704870d8f8b1
:1055340004204046bde8f041104740461421bde830
:10554400f04101f0fdbc4121bde8f04101f0f8bc9f
:085554000026d6e7ec3300202d
:020000040000fa
:10555c008368b0f91220b3f900309a420addb0f931
:10556c0014209a42cabfc36883698361b3f90030bf
:10557c000382704743688361b3f90030038270473c
:10558c0081210022c368018002828361704700bfc1
:10559c00032b0dd9438a0b7090f913304b70838a0f
:1055ac008b7090f91530cb7004231380002070475a
:1055bc0001207047042a01d0012070474a780b78eb
:1055cc0003eb02234382ca788b7803eb022383829a
:1055dc0000207047013903290bd8dfe801f00806d9
:1055ec00040210307047c06870478068704740688c
:0855fc0070470020704700bf5a
:020000040000fa
:1056040030b4264b012255240521222566204ff073
:10561400060c83f8422083f8462083f8482083f858
:10562400492083f84a2083f84c2083f84d2083f8de
:10563400502083f8512083f8522083f8312083f8d6
:10564400332083f8344083f83510032483f836502c
:105654004ff0406183f83800772583f839c04ff064
:10566400020cc3f8801083f8c82083f8cc2083f898
:10567400cd2083f8b42083f8b65083f8504183f8e2
:10568400514183f8380183f8c02183f8c9c183f8f4
:10569400cac183f8b02130bc704700bf008000410c
:020000040000fa
:1056a400436890ed037ad3ed007a67ee877a82b08f
:1056b400fdeee77a6ff07e02cded017abdf904309c
:1056c4009342b8bf13467f2ba8bf7f23037202b057
:1056d400704700bfd022002302800372704700bfce
:1056e400032b0cd9c3680b70c3681b0a4b70c389a6
:1056f4008b70c37bcb700423138000207047012080
:10570400704700bf042a01d0012070478b78ca7803
:1057140030b44d780c781b0403eb0523234403ebce
:105724000263c36030bc0020704700bf012905d06c
:10573400022901d108307047002070474068704743
:020000040000fa
:10574400f8b53c220021044601f060fc1e4b012206
:105754009a619869c207fcd599691c4d1c4804f1eb
:10576400100c41f00206a2b21ffa8cf104f12007da
:105774002a43294304f1300e9e61c3f8a020beb22f
:10578400c3f8b0101ffa8ef104f1380546f08072a8
:1057940041f48036c3f8c020c3f8f060a063a8b217
:1057a40040f48032c3f884209e690a4926f001003f
:1057b400cc61054cc1f820c08f62c1e90be598614a
:1057c400a369db07fcd4f8bd00040042000001809b
:0857d400ff07f00f08000020a0
:020000040000fa
:1057dc0008b51d4b03b198471c4800b18047eff347
:1057ec00108172b61a4ad2f8884044f47003c2f899
:1057fc008830bff34f8fbff36f8f01b962b6154c72
:10580c002020606000f004f9134921f07f03104a56
:10581c00936012488047a16821f00103a360e268fd
:10582c0012f0010ffbd10b48416841f004034360b7
:10583c00012484600a4a02b190470a4800b18047ab
:10584c0000f00afffee700bf0000000000000000af
:10585c0000ed00e00060004100000000d560000099
:08586c00000000000000000034
:020000040000fa
:10587400f8b59df81840012c01d90020f8bd1f4b44
:10588400d3f8c450ad02f8d4d3f8c4701c4ec7f397
:105894000445d6f828e04fea051cb0f5006f0eeb7e
:1058a4000c071cd280044ef80c00082928bf0821dc
:1058b4000b047b60d4b15ef80c1041f000524ef83a
:1058c4000c200e4c0120307400fa05f6c4f8e06098
:1058d400c4f8d060656d45f400776765f8bd20f0c5
:1058e400604343f080404ef80c00dee7964607f133
:1058f40008000a46714601f003fbe2e70004004297
:045904000800002077
:020000040000fa
:10590800436890f90c101b88084a10b4448913fbab
:1059180004f30b419342b8bf134647f6ff72934214
:10592800a8bf134603815df8044b70470180ffff51
:105938001122002302800381704700bf022b0ad97d
:1059480043890b7090f90b304b70037b8b700323ea
:105958001380002070470120704700bf032a01d040
:10596800012070474a780b7803eb022343818b7838
:1059780003730020704700bf012905d0022901d117
