:020000040000fa
:10000000f0ff032011a40000b1b00000b5b0000063
:10001000bdb00000c1b00000c5b00000000000008d
:1000200000000000000000000000000093b000008d
:10003000b9b000000000000093b0000093b00000d1
:1000400093b0000093b0000093b0000093b00000a4
:1000500093b0000093b0000093b0000093b0000094
:1000600093b0000093b0000093b0000093b0000084
:1000700093b0000093b0000093b0000093b0000074
:1000800093b0000093b0000093b0000093b0000064
:1000900093b0000093b0000093b0000093b0000054
:1000a00093b0000093b0000093b0000093b0000044
:1000b00093b0000093b0000093b0000093b0000034
:1000c00093b0000093b0000093b0000093b0000024
:1000d00093b0000093b0000093b0000093b0000014
:1000e00093b0000093b0000000000000000000008a
:1000f0000000000093b0000093b0000093b0000037
:1001000093b0000093b0000093b0000093b00000e3
:1001100093b0000093b0000093b0000093b00000d3
:1001200093b0000093b0000093b0000093b00000c3
:1001300093b0000093b0000093b0000093b00000b3
:1001400093b0000093b0000093b0000093b00000a3
:1001500093b0000093b0000093b0000093b0000093
:1001600093b0000093b0000093b0000093b0000083
:1001700093b0000093b0000093b0000093b0000073
:1001800093b0000093b0000093b0000093b0000063
:1001900093b00000d58b000093b0000093b0000036
:1001a00093b0000093b0000093b0000093b0000043
:1001b00093b0000093b0000093b0000093b0000033
:1001c00093b0000093b0000093b0000093b0000023
:1001d00093b0000093b0000093b0000093b0000013
:1001e00093b0000093b0000093b0000093b0000003
:1001f00093b0000093b0000093b0000093b00000f3
:1002000093b0000093b0000093b0000093b00000e2
:1002100093b0000093b0000093b00000598d00002f
:1002200093b0000093b0000093b0000093b00000c2
:1002300093b0000093b0000093b0000093b00000b2
:1002400093b0000093b0000093b0000093b00000a2
:1002500093b0000093b0000093b0000093b0000092
:0402600093b0000057
:020000040000fa
:10026400f8b500bff8bc08bc9e4670477dac0000e2
:10027400f8b500bff8bc08bc9e46704759ac0000f6
:020000040000fa
:08028400788300000100000076
:020000040000fa
:10028c00000000409841d73f0883ae3f26c4853f0d
:10029c00ca045d3fcb44343f00840b3f40c2e23e76
:1002ac0063ffb93e3f3b913eac75683e81ae3f3e2d
:1002bc0094e5163ebd1aee3dd14dc53da97e9c3d43
:1002cc001bad733dfdd84a3d2502223d6b28f93c00
:1002dc00a44bd03ca76ba73c49887e3c61a1553c04
:1002ec00c5b62c3c49c8033cc4d5da3b0cdfb13b4a
:1002fc00f4e3883b53e45f3bfddf363bc8d60d3b54
:10030c0087c8e43a0eb5bb3a349c923aca7d693a36
:10031c00a559403a992f173a79ffed3918c9c439c4
:10032c00498c9b39df487239acfe483982ad1f3994
:10033c003355f63891f5cc386d8ea338991f7a3831
:10034c00e4a85038202a27381ca3fd37a913d4372a
:10035c00957baa37b1da8037ca305737b07d2d3745
:10036c0031c1033719fbd936372bb0365851863685
:10037c00476d5c36d27e3236c4850836e781de3571
:10038c000873b435f0588a35693360353c0236351c
:10039c0034c50b35177ce134ae26b734c1c48c346c
:1003ac001556623472da37349e510d345cbbe2332d
:1003bc007217b833a5658d33b6a5623369d7373359
:1003cc0080fa0c33bd0ee232df13b732a7098c3240
:1003dc00d4ef603225c63532588c0a322942df31cf
:1003ec0055e7b331977b8831aafe5c3147703131c8
:1003fc0028d00531051eda309459ae308b8282300c
:10040c00a1985630899b2a30f68afe2f9b66d22ff4
:10041c00292ea62f4fe1792fbe7f4d2f2209212f98
:10042c00297df42e7edbc72ecb239b2eba556e2e48
:10043c00f270412e1a75142ed661e72dcb36ba2ddb
:10044c009cf38c2de8975f2d4f23322d7095042d46
:10045c00e6edd62c4c2ca92c3b507b2c4c594d2c1e
:10046c0012471f2c2319f12b10cfc22b6968942b28
:10047c00bde4652b9843372b8384082b07a7d92a17
:10048c00abaaaa2af08e7b2a5a534c2a66f71c2a4e
:10049c00927aed2958dcbd292f1c8e298c395e29c6
:1004ac00e1332e299e0afe282fbdcd28fe4a9d2819
:1004bc0070b36c28ebf53b28cd110b287306da27ab
:1004cc0036d3a8276d77772768f24527774314270b
:1004dc00e269e226f164b026e6337e26fdd54b2692
:1004ec00704a19267390e62537a7b325e48d80252d
:1004fc00a2434d2590c71925c918e6246136b224ac
:10050c00681f7e24e6d24924dd4f15244a95e0234a
:10051c0022a2ab2351757623bf0d4123496a0b23cd
:10052c00c789d522076b9f22cd0c6922d76d322249
:10053c00d88cfb217868c42157ff8c210950552198
:10054c0017591d21ff18e520318eac2013b77320ed
:10055c00fc913a20351d0120f856c71f723d8d1fa6
:10056c00bece521fe708181fe5e9dc1e9f6fa11ec7
:10057c00e997651e8160291e10c7ec1d28c9af1da7
:10058c004364721dc495341def5af61cf0b0b71cb1
:10059c00d394781c8503391cd0f9f81b5d74b81bf7
:1005ac00ae6f771b1ce8351bd7d9f31ae140b11a93
:1005bc000c196e1af45d2a1a000be6195a1ba119b4
:1005cc00ef895b19665115191c6cce1820d486184e
:1005dc002c833e189e72f5176f9bab172ff6601786
:1005ec00f77a15175f21c91677e07b16b4ae2d1676
:1005fc00e781de15284f8e15c80a3d1537a8ea1479
:10060c00f01997145e514214ba3eec13e8d09413cf
:10061c0050f53b13ab97e112c9a1851255fb27127c
:10062c008089c811a72e6711e3c9031181369e106a
:10063c005e4b361021dacb0f38ae5e0fa88bee0e68
:10064c00782d7b0eb243040ec670890d12460a0d2e
:10065c00273f860c4cbbfc0b35f46c0b79f0d50aa0
:10066c00f36e360a1ec68c095eadd608cada1008bf
:10067c00d4413607f0613e06caa518056a399a03bb
:10068c00000000000040d73faf3f863f5d3f343f46
:10069c000c3fe33eba3e913e683e403e173eee3d77
:1006ac00c53d9c3d743d4b3d223df93cd03ca73ca7
:1006bc007f3c563c2d3c043cdb3bb23b893b603bd6
:1006cc00373b0e3be53abc3a933a693a403a173a13
:1006dc00ee39c5399c39723949392039f638cd385b
:1006ec00a4387a3851382738fe37d437aa378137af
:1006fc0057372d370437da36b03686365c36323615
:10070c000936df35b4358a35603536350c35e1348c
:10071c00b7348d34623438340d34e333b8338d331d
:10072c00633338330d33e232b7328c3261323632c6
:10073c000b32df31b43188315d3131310631da3091
:10074c00ae30833057302b30ff2fd22fa62f7a2f7d
:10075c004d2f212ff42ec82e9b2e6e2e412e142e93
:10076c00e72dba2d8d2d602d322d052dd72ca92cd2
:10077c007b2c4d2c1f2cf12bc32b942b662b372b46
:10078c00092bda2aab2a7c2a4c2a1d2aed29be29f0
:10079c008e295e292e29fe28ce289d286d283c28de
:1007ac000b28da27a927772746271427e226b02615
:1007bc007e264c261926e725b42581254d251a259c
:1007cc00e624b2247e244a241524e123ac23762388
:1007dc0041230b23d6229f2269223222fc21c421e1
:1007ec008d2155211d21e520ad2074203b200120b9
:1007fc00c71f8d1f531f181fdd1ea11e661e291e2d
:10080c00ed1db01d721d351df61cb81c791c391c54
:10081c00f91bb81b771b361bf41ab11a6e1a2a1a5d
:10082c00e619a1195c191519ce1887183f18f51778
:10083c00ac1761171517c9167c162e16df158e15f9
:10084c003d15eb1497144214ec1395133c13e21260
:10085c0086122812c911671104119e103610cc0f84
:10086c005f0fef0e7b0e040e890d0a0d860cfd0b2f
:10087c006d0bd60a360a8d09d708110836073e06c5
:10088c0019059a0300000000404040403f3f3f3fa5
:10089c003f3f3e3e3e3e3e3e3d3d3d3d3d3d3c3c74
:1008ac003c3c3c3c3c3b3b3b3b3b3b3a3a3a3a3a8c
:1008bc003a393939393939383838383838383737a6
:1008cc0037373737363636363636353535353535be
:1008dc0034343434343433333333333332323232da
:1008ec00323231313131313130303030302f2f2ff5
:1008fc002f2f2f2e2e2e2e2e2e2d2d2d2d2d2c2c12
:10090c002c2c2c2c2b2b2b2b2b2a2a2a2a2a2a292f
:10091c002929292928282828282727272727262650
:10092c002626262625252525242424242423232372
:10093c002323222222222221212121202020202097
:10094c001f1f1f1f1e1e1e1e1d1d1d1d1c1c1c1cc3
:10095c001b1b1b1b1a1a1a1a1919191918181817f4
:10096c00171716161616151515141414131313122f
:10097c001211111110100f0f0e0e0e0d0d0c0b0b82
:10098c000a0a090807060504000000000000000020
:10099c0068be2800f87c5100da3b7a0036fba200d6
:1009ac0035bbcb00007cf400c03d1d019d00460111
:1009bc00c1c46e01548a97017f51c0016c1ae901c0
:1009cc0043e511022fb23a0257816302e5528c02c1
:1009dc000327b502dbfddd0295d706035cb42f03bc
:1009ec0059945803b77781039f5eaa033b49d303fd
:1009fc00b737fc033c2a2504f4204e040c1c770466
:100a0c00ad1ba0040320c9043829f20479371b0557
:100a1c00f24a4405cc636d05368296055ba6bf058c
:100a2c0067d0e80587001206e8363b06b773640604
:100a3c0021b78d065401b7067e52e006cdaa0907f0
:100a4c006f0a330793715c0767e085071c57af0784
:100a5c00e0d5d807e45c020857ec2b086b845508ea
:100a6c004f257f0836cfa8085082d208cf3efc080d
:100a7c00e7042609c9d44f09a8ae7909b992a3098c
:100a8c002e81cd093c7af709197e210af88c4b0a84
:100a9c0010a7750a97cc9f0ac4fdc90acc3af40a70
:100aac00e9831e0b52d9480b3f3b730beba99d0bf3
:100abc008e25c80b62aef20ba4441d0c8ee8470cbd
:100acc005b9a720c4a5a9d0c9728c80c8005f30c43
:100adc0043f11d0d21ec480d59f6730d2c109f0d93
:100aec00db39ca0da873f50dd7bd200eab184c0e13
:100afc006984770e5601a30eb98fce0ed82ffa0e3d
:100b0c00fbe1250f6ca6510f757d7d0f5f67a90f5b
:100b1c007764d50f0a75011065992d10d7d159102e
:100b2c00b11e86104280b210def6de10d7820b1199
:100b3c008224381135dc641146aa91110e8fbe1136
:100b4c00e68aeb112a9e181235c94512640c7312f1
:100b5c001868a012b1dccd12906afb121a1229137c
:100b6c00b4d35613c5af8413b4a6b213eeb8e013c6
:100b7c00dde60e14f0303d1497976b14431b9a145a
:100b8c0068bcc8147d7bf714f958261555555515b6
:100b9c0010718415a6acb3159a08e3156e85121660
:100bac00a8234216d1e3711674c6a1161fccd11618
:100bbc0062f50117d142321702b56217904c9317a8
:100bcc00150ac41733eef4178df92518ca2c5718cb
:100bdc0093888818980dba1889bceb181e961d19a5
:100bec000f9b4f191acc8119032ab41990b5e61929
:100bfc008d6f191ac9584c1a1c727f1a5ebcb21a26
:100c0c007038e61a37e7191b9fc94d1b98e0811bfa
:100c1c001a2db61b23b0ea1bb66a1f1cde5d541cd2
:100c2c00af8a891c41f2be1cb795f41c39762a1d7b
:100c3c00f994601d33f3961d2992cd1d2873041e63
:100c4c0088973b1ea900731ef7afaa1ee9a6e21ee9
:100c5c0001e71a1fcf71531fed488c1f046ec51f7f
:100c6c00cbe2fe1f08a938208ec272204231ad2083
:100c7c0019f7e7201b16232161905e2117689a2132
:100c8c007f9fd621f0381322d8365022bd9b8d225f
:100c9c003c6acb2211a50923104f48232d6b8723c7
:100cac007bfcc62330060724a38b47245290882450
:100cbc00e417ca2429260c251fbf4e25f4e69125de
:100ccc000ca2d52500f51926a6e45e261176a426dd
:100cdc009aaeea26e4933127e02b7927d47cc127fe
:100cec00628d0a2891645428d1099f280985ea2825
:100cfc00a1de3629891f84294c51d229197e212a3b
:100d0c00d8b0712a38f5c22ac957152b10e6682bb2
:100d1c00a2aebd2b46c1132c182f6b2cb00ac42cc1
:100d2c0055681e2d375e7a2dab04d82d8076372e64
:100d3c0059d1982e1d36fc2e7fc9612fa2b4c92f14
:100d4c00df253430c851a1305874113188d2843128
:100d5c004ebcfb313a8f7632eeb9f532d9c07933cd
:100d6c00b4440334cb0b9334870f2a350d91c9351a
:100d7c00e2397336a25229373625ef372cbec938e3
:100d8c00109ec139365ae73a96c6653c00000040c1
:100d9c000000290051007a00a300cc00f4001d01d2
:100dac0046016f019801c001e90112023b02640285
:100dbc008c02b502de020703300359038103aa0338
:100dcc00d303fc0325044e047704a004c904f204e5
:100ddc001b0544056d059705c005e90512063b0684
:100dec0064068e06b706e0060a0733075c0786071b
:100dfc00af07d90702082c0856087f08a908d308a2
:100e0c00fc08260950097a09a409ce09f709210a18
:100e1c004c0a760aa00aca0af40a1f0b490b730b78
:100e2c009e0bc80bf30b1d0c480c730c9d0cc80cc3
:100e3c00f30c1e0d490d740d9f0dca0df50d210ef1
:100e4c004c0e780ea30ecf0efa0e260f520f7d0ffe
:100e5c00a90fd50f01102e105a108610b310df10e9
:100e6c000c11381165119211bf11ec1119124612a7
:100e7c007312a012ce12fb12291357138513b3133e
:100e8c00e1130f143d146c149a14c914f71426159d
:100e9c0055158415b415e315131642167216a216c1
:100eac00d2160217321763179317c417f5172618a3
:100ebc0057188918ba18ec181e1950198219b41938
:100ecc00e719191a4c1a7f1ab31ae61a1a1b4e1b79
:100edc00821bb61beb1b1f1c541c8a1cbf1cf51c55
:100eec002a1d611d971dce1d041e3c1e731eab1ebc
:100efc00e31e1b1f531f8c1fc51fff1f39207320a0
:100f0c00ad20e82023215f219a21d72113225022e2
:100f1c008e22cb220a2348238723c7230724482465
:100f2c008924ca240c254f259225d6251a265f26fe
:100f3c00a426eb2632277927c1270b2854289f2873
:100f4c00eb2837298429d229212a722ac32a152b66
:100f5c00692bbe2b142c6b2cc42c1e2d7a2dd82d4a
:100f6c00372e992efc2e622fca2f3430a13011311e
:100f7c008531fc317732f6327a33033493342a35a7
:100f8c00ca3573362937ef37ca38c239e73a663c67
:100f9c0000400000000000000101010101010202fb
:100fac000202020203030303030304040404040403
:100fbc0004050505050505060606060606070707ca
:100fcc000707070808080808080809090909090992
:100fdc000a0a0a0a0a0a0b0b0b0b0b0b0c0c0c0c57
:100fec000c0c0d0d0d0d0d0d0e0e0e0e0e0e0f0f1d
:100ffc000f0f0f0f101010101011111111111112e1
:10100c0012121212121313131313141414141414a3
:10101c001515151515161616161616171717171764
:10102c00181818181819191919191a1a1a1a1a1a23
:10103c001b1b1b1b1c1c1c1c1c1d1d1d1d1d1e1edf
:10104c001e1e1e1f1f1f1f2020202020212121219a
:10105c00222222222323232324242424252525254c
:10106c0026262626272727272828282929292a2af9
:10107c002a2a2b2b2b2c2c2c2d2d2d2e2e2f2f2f9b
:10108c00303031313232323333343535363637381d
:10109c00393a3b3c4000000000000000bf2a24030a
:1010ac007cd9470649906a095ed38b0c2b27ab0f72
:1010bc006e10c8124414e2153cb8f8186a820b1c66
:1010cc007bf9191fc5a423225d0c282528b92628d5
:1010dc00eb341f2b620a112e4dc5fb3087f2de3329
:1010ec001320ba3632dd8c3970ba563cb749173feb
:1010fc00641ece4150cd7a44e6ec1c473315b449fe
:10110c00f3df3f4ca4e8bf4e94cc3351ef2a9b53f2
:10111c00d2a4f55554dd42589979825adf20b45c3b
:10112c00897cd75e2f38ec60ac01f2622589e864cb
:10113c001f81cf66809ea668a3986d6a5f29246c78
:10114c00140dca6db1025f6fc5cbe270842c557261
:10115c00d0ebb57344d304753caf4176da4e6c7763
:10116c0013848478b0238a795a057d7a9d035d7b3c
:10117c00edfb297cb1cee37c3f5f8a7de9931d7e3c
:10118c00fb559d7ec391097f8e36627fb336a77f58
:10119c008d87d87f8121f67fffffff7f8121f67f2e
:1011ac008d87d87fb336a77f8e36627fc391097f38
:1011bc00fb559d7ee9931d7e3f5f8a7db1cee37c1e
:1011cc00edfb297c9d035d7b5a057d7ab0238a79e2
:1011dc0013848478da4e6c773caf417644d3047533
:1011ec00d0ebb573842c5572c5cbe270b1025f6f36
:1011fc00140dca6d5f29246ca3986d6a809ea66835
:10120c001f81cf662589e864ac01f2622f38ec604f
:10121c00897cd75edf20b45c9979825a54dd4258c0
:10122c00d2a4f555ef2a9b5394cc3351a4e8bf4e6e
:10123c00f3df3f4c3315b449e6ec1c4750cd7a44f0
:10124c00641ece41b749173f70ba563c32dd8c391b
:10125c001320ba3687f2de334dc5fb30620a112eed
:10126c00eb341f2b28b926285d0c2825c5a4232276
:10127c007bf9191f6a820b1c3cb8f8184414e21550
:10128c006e10c8122b27ab0f5ed38b0c49906a09da
:10129c007cd94706bf2a24030000000041d5dbfca3
:1012ac008426b8f9b76f95f6a22c74f3d5d854f000
:1012bc0092ef37edbceb1deac44707e7967df4e3ec
:1012cc008506e6e03b5bdcdda3f3d7dad846d9d75d
:1012dc0015cbe0d49ef5eed1b33a04cf790d21cce9
:1012ec00eddf45c9ce2273c69045a9c349b6e8c007
:1012fc009ce131beb03285bb1a13e3b8cdea4bb6d4
:10130c000d20c0b35c1740b16c33ccae11d564acbe
:10131c002e5b0aaaac22bda767867da521df4ba355
:10132c00778328a1d1c7139f54fe0d9ddb76179ba5
:10133c00e17e3099806159975d679295a1d6db93d8
:10134c00ecf235924ffda0903b341d8f7cd3aa8dcf
:10135c0030144a8cbc2cfb8ac450be8926b19388ad
:10136c00ed7b7b8750dc7586a6fa828563fca284b4
:10137c001304d6834f311c83c1a07582176ce28194
:10138c0005aa62813d6ef68072c99d804dc9588058
:10139c00737827807fde0980010000807fde098062
:1013ac00737827804dc9588072c99d803d6ef68038
:1013bc0005aa6281176ce281c1a075824f311c8332
:1013cc001304d68363fca284a6fa828550dc75864e
:1013dc00ed7b7b8726b19388c450be89bc2cfb8add
:1013ec0030144a8c7cd3aa8d3b341d8f4ffda090ba
:1013fc00ecf23592a1d6db935d679295806159979b
:10140c00e17e3099db76179b54fe0d9dd1c7139f5f
:10141c00778328a121df4ba367867da5ac22bda7ce
:10142c002e5b0aaa11d564ac6c33ccae5c1740b100
:10143c000d20c0b3cdea4bb61a13e3b8b03285bb5e
:10144c009ce131be49b6e8c09045a9c3ce2273c613
:10145c00eddf45c9790d21ccb33a04cf9ef5eed121
:10146c0015cbe0d4d846d9d7a3f3d7da3b5bdcdd78
:10147c008506e6e0967df4e3c44707e7bceb1dea7e
:10148c0092ef37edd5d854f0a22c74f3b76f95f6d4
:10149c008426b8f941d5dbfc0000000000002403d1
:1014ac0048066a098c0cab0fc812e215f9180b1c14
:1014bc001a1f2322282526281f2b112efb30df3341
:1014cc00ba368c39563c173fce417a441c47b44946
:1014dc003f4cbf4e33519b53f5554258825ab35c27
:1014ec00d75eeb60f162e864cf66a6686d6a236c28
:1014fc00c96d5e6fe2705472b573047541766b778b
:10150c00847889797c7a5c7b297ce37c897d1d7e5f
:10151c009c7e097f617fa67fd87ff57fff7ff57f5b
:10152c00d87fa67f617f097f9c7e1d7e897de37cb1
:10153c00297c5c7b7c7a897984786b77417604751d
:10154c00b5735472e2705e6fc96d236c6d6aa668d8
:10155c00cf66e864f162eb60d75eb35c825a4258a6
:10156c00f5559b533351bf4e3f4cb4491c477a44fd
:10157c00ce41173f563c8c39ba36df33fb30112e37
:10158c001f2b2628282523221a1f0b1cf918e215bd
:10159c00c812ab0f8c0c6a09480624030000dcfc53
:1015ac00b8f996f674f355f038ed1eea07e7f5e353
:1015bc00e6e0ddddd8dadad7e1d4efd105cf21cc06
:1015cc0046c974c6aac3e9c032be86bbe4b84cb6e1
:1015dc00c1b341b1cdae65ac0baabea77ea54da3e0
:1015ec0029a1159f0f9d189b31995a979395dd93bf
:1015fc003792a2901e8fac8d4b8cfc8abf8995883c
:10160c007c8777868485a484d7831d837782e38146
:10161c006481f7809f805a8028800b8001800b802a
:10162c0028805a809f80f7806481e38177821d83b4
:10163c00d783a484848577867c879588bf89fc8a28
:10164c004b8cac8d1e8fa2903792dd9393955a974d
:10165c003199189b0f9d159f29a14da37ea5bea75f
:10166c000baa65accdae41b1c1b34cb6e4b886bbe8
:10167c0032bee9c0aac374c646c921cc05cfefd18e
:10168c00e1d4dad7d8dadddde6e0f5e307e71eeae8
:10169c0038ed55f074f396f6b8f9dcfc0000000058
:1016ac00000306090c101316191c1f2225282b2ebb
:1016bc00313336393c3f414447494c4e51535558d0
:1016cc005a5c5e60626466686a6b6d6f707173748d
:1016dc00757678797a7a7b7c7d7d7e7e7e7f7f7f46
:1016ec007f7f7f7f7e7e7e7d7d7c7b7a7a7978762c
:1016fc0075747371706f6d6b6a68666462605e5c42
:10170c005a585553514e4c494744413f3c39363356
:10171c00312e2b2825221f1c191613100c09060319
:10172c0000fdfaf7f4f0edeae7e4e1dedbd8d5d220
:10173c00cfcdcac7c4c1bfbcb9b7b4b2afadaba8eb
:10174c00a6a4a2a09e9c9a9896959391908f8d8c0e
:10175c008b8a888786868584838382828281818135
:10176c008181818182828283838485868687888a2f
:10177c008b8c8d8f9091939596989a9c9ea0a2a4f9
:10178c00a6a8abadafb2b4b7b9bcbfc1c4c7cacdc4
:10179c00cfd2d5d8dbdee1e4e7eaedf0f4f7fafde1
:0417ac00000000bf7a
:020000040000fa
:1017b0009fed010a704700bf17b7d1382de9f04ff0
:1017c000f64af74cdff8e893dff8e8e3c4f8ac90aa
:1017d00002f50077082609f2022c09f20448a764f2
:1017e000a4f81667032540f28f2340f21f5a40f2f7
:1017f0003331212740f2ae7684f818574ff4a4799c
:101800000025c4f8bcc0c4f8cc804ff0a40c47f647
:10181000ff78c4f82a31c4f842a1012340f6cd4a2a
:10182000c4f84611a4f85e710f214ff07e57a4f85a
:101830006e6140f2666683b0c4f82427c4f81c5772
:10184000a4f82057c4f84250a4f86850c4f82e51a8
:10185000a4f85090a4f856c0a4f85cc0a4f850c1f5
:10186000a4f8628084f86d30a4f87aa0a4f88aa065
:10187000a4f89aa084f87c1084f88c1084f89c104a
:1018800084f86011c4f8ec7042f2666ca4f86861e8
:10189000c4f8f8e1c4f818e2c4f828e2dff818e365
:1018a000c04aa4f890914ff060504ff44049a4f81a
:1018b00022c3c4f838e24ff00e0cc4f848e2c4f872
:1018c00058e24ff0c50e84f87e31a4f884a1a4f844
:1018d0008a61c4f8b05184f8b451c4f8c07184f876
:1018e000363784f8ca3284f8da32a4f81c53c4f8c4
:1018f0003c5384f84053c4f8a8210192c4f8ac21a9
:10190000a4f8069284f808c2c4f86802c4f8780201
:10191000c4f88802c4f89802c4f8a802c4f8b8024f
:10192000a4f836e39d4aa4f856e3dff890e2a4f861
:1019300080844ff0150884f8a0c484f8b0c4a4f8db
:10194000f08343f2333c04f59a68c4e9d6e5c4f861
:1019500038e3a4f8bec402f2022e04f5a56cdfed54
:10196000927ac8f80000c4f874e404f58360dff8e4
:1019700050e2c4f810e504f59c68dff848e2ccf8c2
:101980000070884ac8ed007a4ff4804741f69a1cef
:101990004ff0000b84f86053a4f82054a4f83c578f
:1019a000c4f86e5484f87b54a4f88654a4f88c547c
:1019b00084f89134a4f8ae9484f8c01484f8f13417
:1019c000c4f8145584f81855c4f86a55c0f800b026
:1019d000c4f892e3c4f8a2e3a4f80cc4c4f866c542
:1019e000a4f89e7484f8ae35c4f8e025c4f8e42564
:1019f00084f8633684f87a36684aa4f800a647f675
:101a0000b8636220a4f8bc354ff00d0b04f5b96340
:101a100043f2a40aa4f80e05a4f83874a4f8467496
:101a2000dff8a4e1a4f89c65dff8a0c1a4f8f405f0
:101a300002f50177402002f2062284f8101684f89d
:101a400048b40621a4f890a544f6cd496ff0004aa9
:101a50004ff6fd78554ec4f850e74ff0804bc4f870
:101a600056c6a4f8f20684f8f416c3f800b0a4f839
:101a70009655c4f8e85584f8ec55c4f85457c4f8a2
:101a80005857a4f86856c4f8c45684f8c856a4f841
:101a9000fa95a4f80e86c4f85c76c4f8d666c4f845
:101aa000bca6c4f8c0a6c4f8f856c4f80027a4f829
:101ab000fc56a4f8085709f0bdfa04f1b80304f580
:101ac000ee6b04f1780a04f14e0904f1880804f180
:101ad000540e04f1980c04f15a0704f5c47604f589
:101ae0009470c4f85c57c4f86057c4f86457c4f8dd
:101af0006857c4f86c57a4f87057c4f8843004f5dc
:101b0000de7504f1c80304f5c77104f1a802c4f836
:101b100010b7c4f804a004f5a77b04f5d27ac4f882
:101b20000890c4f8148004f5ae7904f5a078c4f8e0
:101b300018e0c4f824c004f10c0e04f11c0ca762d8
:101b4000666304f12c0704f5be76a063c4f89430f4
:101b500004f5ed60c4f8e45003f24c6304f5b3758a
:101b6000e1636267c4f8f8b004f1e802c4f8fca0cd
:101b7000c4f80091c4f80481c4f808e1c4f80cc1a9
:101b8000c4f8a460c4f8b460c4f8c460c4e9350003
:101b9000c4f8f430c4f810711ae000bf1028002017
:101ba000002000209cc4200000803b45ff7f018076
:101bb00044640000cdcc8c400000404100680f0c14
:101bc000cd4c0f0e717d8f82b80b7017ae078f0250
:101bd000c4f8385104f5257504f5c17104f266792d
:101be00004f1400804f1660e04f5d767c4f8142127
:101bf000c4f8205204f5197204f55f75a3f2b463ba
:101c000004f5b67b04f1dc0a04f16c0c04f29c468a
:101c1000c4f82031c4f8241104f5e87304f51d71eb
:101c2000c4f87891c4f8988104f5297904f501780d
:101c3000c4f89ce1c4f8307704f21a3e04f5ec676e
:101c4000c4f8f021c4f8805204f25e720235c4f880
:101c50003cb1c4f858a104f5217b04f52d7ac4f8f1
:101c6000a0c1c4f82c6704f54d7c04f26476c4f876
:101c70000032c4f8101204f5866304f56071c4f8ec
:101c80005092c4f8908204f5557904f50d78c4f8a3
:101c9000c0e2c4f8c87104f5fa7ec4f8dc71c4f877
:101ca0007072c4f8cc2104f51177c4f8d821c4f8b7
:101cb0006022c4f8a05204f5097204f51575c4f841
:101cc000b012c4f830b2c4f840a2c4f8746104f58c
:101cd000487ac4f8e031c4f8c4c2c4f8703304f5db
:101ce000687c04f50573c4f8d492c4f8e08204f566
:101cf000647904f54578c4f8e4e2c4f8f07204f2bb
:101d00000a4e04f53677c4f8f422c4f8005304f5fb
:101d1000327204f23a75c4f8d0a2c4f8043304f560
:101d2000f27a04f21443c4f868c3c4f86c9304f55f
:101d3000f37c04f53a79c4f87483c4f878e304f5c5
:101d4000427804f53e7ec4f88c73c4f89c23c4f832
:101d5000ac5304f57f7204f2347504f56d7b04f521
:101d60007177c4f8b0a3c4f8c0c3c4f8cc93c4f866
:101d7000d08304f57b7904f21e48c4f8d4e3c4e9a7
:101d8000f63304f5bf6ec4f8e033c4f81023c4f88a
:101d90003023c4f8502304f2645cc4e9cabbc4e92c
:101da000d277c4f8bc5304f2ac57c4f8e433c4f897
:101db000e83304f2cc4304f2fe5ac4f82864c4f8b1
:101dc000049404f27a46c4f82c84c4f860e404f560
:101dd000b16804f27c52c4f864c404f2ac4e04f25c
:101de000844cc4f8987404f2c45904f59e67c4f88e
:101df000d83404f2bc4304f2444bc4f868a4c4f8d9
:101e0000e86404f28e5ac4f8ec8404f2dc56c4f898
:101e1000f82404f2245804f5e962c4f8fcc4c4f8b8
:101e200004e504f27e4c04f2f25ec4f80875c4f8ce
:101e3000209504f2545704f2ba59c4f8303504f22c
:101e40009453c4f8f823c4f8c804c4f8b8b4c4f868
:101e500034a5c4f8386504f58b6ac4f85085c4f815
:101e60005cc504f2364804f24a7cc4f860e504f22a
:101e70009a56c4f8a894c4f8009504f20c5ec4f80d
:101e80003c35c4f84035c4f84435c4f84835c4f886
:101e90004c35c4f8747504f2147304f26c4704f200
:101ea000dc49c4f8503404f5926b04f28a43c4f858
:101eb00040a4c4f8548404f2346a04f5c568c4f834
:101ec00084c5c4f8a465c4f8a8e504f2d46604f592
:101ed000de6c04f2666ec4f8d07504f58c77c4f835
:101ee0007805c4f83c06c4f87406c4f8b49504f246
:101ef0001c60c4f8d43504f2a46904f5d163c4f8b5
:101f0000d8b5c4f808a604f2546b04f2626ac4f8a7
:101f10001886c4f8486604f5d36804f26a76c4f8f3
:101f20004cc6c4f870e604f2067c04f5cf6ec4f823
:101f3000807604f2e467c4f82426c4f8d036c4f8e6
:101f400050c6c4f8b0c6c4f890e6c4f8e0e6c4f8d9
:101f50003006c4f88496c4f8acb6c4f8b4a6c4f885
:101f60004467c4f89476c4f8a076c4f8ec86c4f844
:101f70007c5704f55f7504f20c6904f5c86b04f234
:101f80000c70c4f888570235c4f88027c4f890173d
:101f9000c4f88467c4f88c57c4f87897c4f874b749
:101fa00007f0a6fe204608f03dfd04f1100008f001
:101fb00039fd04f1200008f035fd04f1300008f08f
:101fc0002df804f14c0008f0f1fc04f1520008f087
:101fd000edfc04f1580008f0e9fc04f15e0008f0a3
:101fe000e5fc04f1640008f0e1fc04f16a0008f08b
:101ff00011fe04f1700008f0ddf904f1800008f032
:10200000d9f904f1900008f0d5f904f1a00008f026
:1020100081fd04f1b00008f07dfd04f1c00008f07e
:1020200079fd04f1d00008f097fb04f1e00008f01e
:102030004bf804f1f00008f0dffb04f58e7007f0b8
:10204000f7fd04f59a7007f0f3fd04f5a67008f0ab
:10205000adfc04f5aa7008f0adf904f5b27008f013
:10206000a5fc04f5b57008f0a1fc04f5b87008f003
:102070001ffc04f5c07008f099fc04f5c37008f06b
:1020800095fc04f5c67008f091fc04f5ca7007f0e1
:10209000bdf804f5dc7008f073fb04f5e56008f0aa
:1020a00007fc04f5e27008f0bdfc04f5ea7007f0e7
:1020b000b3fe04f5f67008f03dfa04f5fe7008f082
:1020c00079f904f5037008f035fa04f5077008f0a3
:1020d00031fa04f50b7008f02dfa04f50f7008f0d2
:1020e00029fa04f5137008f025fa04f5177008f0c2
:1020f000e1f904f51b7008f0ddf904f51f7008f034
:10210000d9f904f5237008f0d5f904f5277008f023
:10211000d1f904f52b7008f0cdf904f52f7008f013
:10212000c7fb04f5337008f0c3fb04f5377008f003
:10213000bffd04f53b7008f0bbfd04f53f7008f0ef
:10214000b7fd04f5437008f065ff04f5467008f02c
:102150002dfc04f21e3008f029fc04f5497007f04c
:10216000c9fa04f5517007f0c5fa04f5597006f084
:1021700097fe04f5627008f021fa04f5667008f025
:102180001dfa04f56a7008f075fc04f56e7008f02d
:1021900071fc04f5727006f029fc04f57d7008f0fe
:1021a000c1fe04f5806008f0f1fd04f5816008f0df
:1021b000fdfb04f5826008f0e3fa04f21c4008f02d
:1021c000f5fb04f2244008f03dfe04f5e76008f05a
:1021d000edfb04f25c4007f021ff04f58f6008f08e
:1021e00019fd04f27c4008f0e1fb04f2824008f0a3
:1021f000ddfb04f5916008f0d9fb04f28e4008f095
:1022000009fd04f2944008f0d5f804f2a44008f067
:10221000d1f804f2b44008f0cdf804f2c44008f05c
:1022200049f904f2d44008f085f904f2e44008f0da
:1022300011fb04f2f44007f02df904f21c5007f0f2
:1022400043ff04f22c5008f0d7fa04f5ab6007f016
:10225000effc04f5ae6008f00dfc04f2344008f029
:10226000a5fb04f23c4008f0a5f804f24c4008f04d
:1022700001fc04f5b06008f055fe04f28c5008f043
:1022800095fb04f2925008f091fb04f5b36008f05e
:102290008dfb04f5b46008f00bfb04f5b66008f0a4
:1022a00075fd04f5b76008f081fb04f5b86008f02f
:1022b00067fa04f2cc5006f0a9ff04f5be6008f0fe
:1022c00075fb04f2f65008f071fb04f2fc5008f0c4
:1022d0006dfb04f2046008f06df804f2146008f07d
:1022e00099fe04f5c46008f01dfe04f22c6008f0ad
:1022f000fffd04f5e86007f079fa04f5c76008f01f
:102300002bfe04f2446007f089fe04f5cc6008f06f
:1023100081fc04f2646008f049fb04f26c6008f090
:10232000c7fa04f27c6008f017fa04f28c6008f037
:1023300013fa04f29c6008f051fd04f5d56006f034
:1023400065ff04f2cc6008f039f904f2dc6008f0b3
:1023500061fd04f5dd6007f0cbfc04f2047008f0c9
:1023600025fb04f5f36001f0adf9094b094a1b6840
:1023700002f5587502f5e76402f5f36002f5fc61b9
:102380005a601d601c635863996303b0bde8f08f09
:10239000f82e0020903f000010b55f4c04f20c7046
:1023a00007f08afc04f5b87008f07afa04f1a0008e
:1023b00008f09afb04f1b00008f096fb04f1c000ad
:1023c00008f092fb04f1700007f0dcff04f18000dc
:1023d00007f0d8ff04f1900007f0d4ff204608f082
:1023e0000dfb04f1100008f009fb04f1200008f0d7
:1023f00005fb04f1e00007f04dfe04f2244008f074
:1024000019fd04f5ea7007f0c1fc04f1d00008f0f2
:102410007ff904f56a7008f019fb04f5e86007f02d
:10242000b1f904f26c6008f03bfa04f5aa7007f009
:10243000a9ff04f57d7008f06bfd04f5c46008f099
:1024400067fd04f2dc6008f0d9fc04f1f00008f04c
:10245000c9f904f5497007f003f904f2146008f0b3
:10246000d3fd04f28c6008f053f904f29c6008f08c
:10247000a9fc04f52f7008f013fa04f5437008f076
:10248000c3fd04f22c6008f029fd04f27c6008f022
:102490003ff904f5dd6007f00ffc04f5667008f005
:1024a0007ff804f5b46008f0fbf904f2046007f06b
:1024b00069ff04f5c76008f045fd04f2cc6008f040
:1024c0006ff804f2944007f05dff04f2446007f0f7
:1024d0008dfd04f5d56006f055fe04f5e56008f0c5
:1024e000dff904f56e7008f0b1fa04f5517007f0e9
:1024f000b7f804f5337008f0d3f904f5627008f00a
:102500004ff804f5597006f03bfc04f5f360bde8a4
:10251000104001f00db900bf0020002010b54b4c59
:1025200004f58e7007f04efb04f5ab6007f04afb34
:1025300004f24c4008f08afa04f1300007f056fd2e
:1025400004f25c4007f052fd04f23c4007f01aff31
:1025500004f59a7007f036fb04f5ca7006f012fe17
:1025600004f2b44007f00eff04f21c5007f092fd95
:1025700004f2cc5006f006fe04f5e27008f03efad4
:1025800004f22c5008f02ef904f5fe7007f0fafe64
:1025900004f5ae6008f05afa04f5177007f07cfff6
:1025a00004f51b7007f078ff04f5237007f074ff43
:1025b00004f2a44007f0e6fe04f5b06008f0a8fcc1
:1025c00004f5f67007f0acff04f5037007f0a8ff00
:1025d00004f5077007f0a4ff04f2e44008f032f9b4
:1025e00004f2c44007f058ff04f2f44006f004ff80
:1025f00004f2d44007f094ff04f51f7007f04cff7d
:1026000004f5277007f048ff04f52b7007f044ff2e
:1026100004f50b7007f084ff04f50f7007f080ffde
:1026200004f5137007f07cff04f5377008f034fbf5
:1026300004f53b7008f030fb04f53f7008f02cfb0c
:1026400004f57270bde8104006f036b90020002095
:1026500010b5084cfff7a0fe238813b1013b23807f
:1026600010bd0a232380fff759ff2388013b2380f5
:0826700010bd00bf002f002087
:020000040000fa
:10267800ffffff7fffffff7fffffff7fffffff7f62
:10268800ffffff7fffffff7fffffff7fffffff7f52
:10269800ffffff7fffffff7fffffff7fffffff7f42
:1026a800ffffff7fffffff7fffffff7fffffff7f32
:1026b800ffffff7fffffff7fffffff7fffffff7f22
:1026c800ffffff7fffffff7fffffff7fffffff7f12
:1026d800ffffff7fffffff7fffffff7fffffff7f02
:1026e800ffffff7fffffff7fffffff7fffffff7ff2
:1026f800ffffff7fffffff7fffffff7fffffff7fe2
:10270800ffffff7fffffff7fffffff7fffffff7fd1
:10271800ffffff7fffffff7fffffff7fffffff7fc1
:10272800ffffff7fffffff7fffffff7fffffff7fb1
:10273800ffffff7fffffff7fffffff7fffffff7fa1
:10274800ffffff7fffffff7fffffff7fffffff7f91
:10275800ffffff7fffffff7fffffff7fffffff7f81
:10276800ffffff7fffffff7fffffff7fffffff7f71
:10277800ffffff7fffffff7fffffff7fffffff7f61
:10278800ffffff7fffffff7fffffff7fffffff7f51
:10279800ffffff7fffffff7fffffff7fffffff7f41
:1027a800ffffff7fffffff7fffffff7fffffff7f31
:1027b800ffffff7fffffff7fffffff7fffffff7f21
:1027c800ffffff7fffffff7fffffff7fffffff7f11
:1027d800ffffff7fffffff7fffffff7fffffff7f01
:1027e800ffffff7fffffff7fffffff7fffffff7ff1
:1027f800ffffff7fffffff7fffffff7fffffff7fe1
:10280800ffffff7fffffff7fffffff7fffffff7fd0
:10281800ffffff7fffffff7fffffff7fffffff7fc0
:10282800ffffff7fffffff7fffffff7fffffff7fb0
:10283800ffffff7fffffff7fffffff7fffffff7fa0
:10284800ffffff7fffffff7fffffff7fffffff7f90
:10285800ffffff7fffffff7fffffff7fffffff7f80
:10286800ffffff7fffffff7fffffff7fffffff7f70
:10287800ffffff7fc2be807f23f6027fee9e867e2b
:1028880021b20b7ee928927da0fc197dce26a37c7f
:1028980023a12d7c7b65b97bd86d467b63b4d47a44
:1028a8006b33647a64e5f479e4c48679a2cc197947
:1028b80078f7ad785f4043786ea2d977dc187177e6
:1028c800fb9e09773a30a37624c83d765d62d975b8
:1028d800a4fa7575d18c1375d414b274b38e51746f
:1028e8008df6f1739648937318813573729cd8727c
:1028f80017977c728e6d2172721cc7716fa06d71f3
:1029080044f61471c21abd70cc0a667053c30f70b6
:102918005c41ba6ff981656f4c82116f873fbe6e5b
:10292800e9b66b6ec2e5196e6ec9c86d565f786df3
:10293800f0a4286dc297d96c5b358b6c587b3d6cc5
:102948006267f06b2bf7a36b7428586b08f90c6b54
:10295800ba66c26a6c6f786a07112f6a7e49e6699f
:10296800d0169e69057756692b680f695ee8c868b6
:10297800c0f582687c8e3d68c5b0f867d85ab467e0
:10298800f98a7067733f2d679b76ea66cb2ea86637
:1029980066666666d61b25668c4de465fff9a365f9
:1029a800ae1f64651ebd2465dad0e5647559a76459
:1029b80085556964aac32b6487a2ee63c6f0b16328
:1029c80016ad75632bd63963c26afe629869c36215
:1029d80073d188621da14e6264d714621d73db61d6
:1029e8002073a26149d669617c9b31619ec1f960ff
:1029f8009b47c260602c8b60e26e5460170e1e60ad
:102a0800fc08e85f905eb25fd60d7d5fd515485f24
:102a18009975135f302cdf5eac38ab5e239a775e16
:102a2800af4f445e6c58115e7ab3de5dfd5fac5dfe
:102a38001b5d7a5dfda9485dd145175dc72fe65c32
:102a48001167b55ce6ea845c7dba545c13d5245cf6
:102a5800e539f55b35e8c55b46df965b5e1e685b6e
:102a6800c7a4395bcc710b5bbb84dd5ae4dcaf5a7d
:102a78009a79825aff7fff7fff7fff7fff7fff7f6b
:102a8800ff7fff7fff7fff7fff7fff7fff7fff7f4e
:102a9800ff7fff7fff7fff7fff7fff7fff7fff7f3e
:102aa800ff7fff7fff7fff7fff7fff7fff7fff7f2e
:102ab800ff7fff7fff7fff7fff7fff7fff7fff7f1e
:102ac800ff7fff7fff7fff7fff7fff7fff7fff7f0e
:102ad800ff7fff7fff7fff7fff7fff7fff7fff7ffe
:102ae800ff7fff7fff7fff7fff7fff7fff7fff7fee
:102af800ff7fff7fff7fff7fff7fff7fff7fff7fde
:102b0800ff7fff7fff7fff7fff7fff7fff7fff7fcd
:102b1800ff7fff7fff7fff7fff7fff7fff7fff7fbd
:102b2800ff7fff7fff7fff7fff7fff7fff7fff7fad
:102b3800ff7fff7fff7fff7fff7fff7fff7fff7f9d
:102b4800ff7fff7fff7fff7fff7fff7fff7fff7f8d
:102b5800ff7fff7fff7fff7fff7fff7fff7fff7f7d
:102b6800ff7fff7fff7fff7fff7fff7fff7fff7f6d
:102b7800ff7fff7fff7f817f037f877e0c7e927db3
:102b88001a7da37c2e7cb97b467bd57a647af5794d
:102b980087791a79ae784378da7771770a77a376e6
:102ba8003e76d97576751475b2745274f273937350
:102bb8003673d9727d722172c7716e711571bd70cd
:102bc80066701070ba6f666f126fbe6e6c6e1a6e9a
:102bd800c96d786d296dda6c8b6c3d6cf06ba46bec
:102be800586b0d6bc26a786a2f6ae6699e695669e6
:102bf8000f69c96883683e68f967b46771672d67ac
:102c0800ea66a86666662566e465a4656465256562
:102c1800e664a76469642c64ef63b26376633a631d
:102c2800fe62c36289624f621562db61a2616a61fa
:102c38003261fa60c2608b6054601e60e85fb25f08
:102c48007d5f485f135fdf5eab5e785e445e115e5a
:102c5800df5dac5d7a5d495d175de65cb55c855c02
:102c6800555c255cf55bc65b975b685b3a5b0b5b09
:102c7800de5ab05a825a00007f7f7f7f7f7f7f7f36
:102c88007f7f7f7f7f7f7f7f7f7f7f7f7f7f7f7f4c
:102c98007f7f7f7f7f7f7f7f7f7f7f7f7f7f7f7f3c
:102ca8007f7f7f7f7f7f7f7f7f7f7f7f7f7f7f7f2c
:102cb8007f7f7f7f7f7f7f7f7f7f7f7f7f7f7f7f1c
:102cc8007f7f7f7f7f7f7f7f7f7f7f7f7f7f7f7f0c
:102cd8007f7f7f7f7f7f7f7f7f7f7f7f7f7f7f7ffc
:102ce8007f7f7f7f7f7f7f7f7f7f7f7f7f7f7f7fec
:102cf8007f7f7f7f7f7f7f7f7f7f7f7f7e7e7d7de2
:102d08007c7c7b7b7a7a7a7979787877777776762c
:102d18007575757474747373727272717171707081
:102d2800706f6f6f6e6e6e6d6d6d6d6c6c6c6b6bc6
:102d38006b6a6a6a6a696969696868686767676700
:102d48006666666665656565646464646363636333
:102d580063626262626161616161606060605f5f5d
:102d68005f5f5f5e5e5e5e5e5d5d5d5d5d5d5c5c82
:102d78005c5c5c5b5b5b5b5b5b0000000000000015
:102d8800334f500b00000010148e9813669ea01647
:102d98003b584c19e87ab61b11eaee1d00000020da
:102da8009aedf02137efc623b3f88525281c312783
:102db800becaca2854ff542aa45bd12bcd3c412d4e
:102dc8001bcaa52e000000304ab8503176b09832a0
:102dd800948ed83328e5103539364236d1f56c371c
:102de800008c91388956b0393caac93a23d4dd3bc6
:102df800731aed3c63bdf73dd7f7fd3e0000004078
:102e0800d907fe409b3df8411fccee4233dbe1433e
:102e1800e98fd144d20cbe453e72a7466ede8d477f
:102e2800c36d7148e43a5249e55e304a65f10b4b8f
:102e3800b108e54bd6b9bb4cc118904d5038624e1d
:102e4800672a324f000000503fc9cb507c959551fe
:102e580056735d52b9702353ef9ae753a7fea954ee
:102e680001a86a5593a2295675f9e65649b7a2579b
:102e78003de65c581690155934becc599a79825a59
:102e8800efca365b86bae95b61509b5c37944b5d51
:102e9800768dfa5d4643a85e91bc545f00000060e1
:102ea8000214aa60cefe526164c6fa619470a162ef
:102eb800fa0247630583eb63f9f58e64eb603165cd
:102ec800cdc8d265663273665aa21267291db167ea
:102ed8002ea74e68a844eb68b4f9866950ca216adf
:102ee8005ebabb6aa6cd546bd107ed6b726c846c6d
:102ef80001ff1a6de1c2b06d5abb456ea1ebd96ee8
:102f0800d5566d6f0000007018ea91700018237193
:102f18008a8cb371754a43726d54d27212ad607364
:102f2800ee56ee7382547b743aa8077578549375fd
:102f38008d5b1e76bfbfa8764383327746a8bb77e2
:102f4800e4304478311fcc7834755379e634da7933
:102f58003a60607a15f9e57a53016b7bc57aef7ba5
:102f68003467737c5dc8f67cf79f797daeeffb7d97
:102f780026b97d7efbfdfe7ec0bf7f7fffffff7f02
:102f8800c0bf7f7ffbfdfe7e26b97d7eaeeffb7d59
:102f9800f79f797d5dc8f67c3467737cc57aef7bd3
:102fa80053016b7b15f9e57a3a60607ae634da7991
:102fb80034755379311fcc78e430447846a8bb7710
:102fc80043833277bfbfa8768d5b1e76785493759e
:102fd8003aa8077582547b74ee56ee7312ad60738f
:102fe8006d54d272754a43728a8cb371001823717a
:102ff80018ea917000000070d5566d6fa1ebd96e7c
:103008005abb456ee1c2b06d01ff1a6d726c846cdb
:10301800d107ed6ba6cd546b5ebabb6a50ca216a64
:10302800b4f98669a844eb682ea74e68291db167d4
:103038005aa2126766327366cdc8d265eb603165f5
:10304800f9f58e640583eb63fa0247639470a16215
:1030580064c6fa61cefe52610214aa6000000060e4
:1030680091bc545f4643a85e768dfa5d37944b5dfc
:1030780061509b5c86bae95befca365b9a79825ae3
:1030880034becc59169015593de65c5849b7a2573d
:1030980075f9e65693a2295601a86a55a7fea954c0
:1030a800ef9ae753b970235356735d527c95955147
:1030b8003fc9cb5000000050672a324f5038624e4b
:1030c800c118904dd6b9bb4cb108e54b65f10b4b17
:1030d800e55e304ae43a5249c36d71486ede8d4769
:1030e8003e72a746d20cbe45e98fd14433dbe1439b
:1030f8001fccee429b3df841d907fe40000000403e
:10310800d7f7fd3e63bdf73d731aed3c23d4dd3b95
:103118003caac93a8956b039008c9138d1f56c3738
:103128003936423628e51035948ed83376b0983241
:103138004ab85031000000301bcaa52ecd3c412da5
:10314800a45bd12b54ff542abecaca28281c312795
:10315800b3f8852537efc6239aedf021000000204b
:1031680011eaee1de87ab61b3b584c19669ea0166c
:10317800148e981300000010334f500b000000000d
:103188000000500b00109913a1164c19b61bef1d27
:103198000020f121c72386253127cb28552ad12b9a
:1031a800412da62e003051319932d933113542368e
:1031b8006d379238b039ca3ade3bed3cf83dfe3ef9
:1031c8000040fe40f841ef42e243d244be45a746e4
:1031d8008e4771485249304a0c4be54bbc4c904dd8
:1031e800624e324f0050cc5096515d522353e853f3
:1031f800aa546b552a56e756a3575d581659cd5908
:10320800825a375bea5b9b5c4c5dfb5da85e555f51
:103218000060aa605361fb61a1624763ec638f643d
:103228003165d36573661367b1674f68eb68876963
:10323800226abc6a556bed6b846c1b6db16d466e72
:10324800da6e6d6f007092702371b4714372d2722e
:103258006173ee737b74087593751e76a976337760
:10326800bc774478cc785379da79607ae67a6b7be4
:10327800ef7b737cf77c7a7dfc7d7e7eff7e807f92
:10328800ff7f807fff7e7e7efc7d7a7df77c737c6e
:10329800ef7b6b7be67a607ada795379cc7844787d
:1032a800bc773377a9761e76937508757b74ee73b1
:1032b8006173d2724372b4712371927000706d6f32
:1032c800da6e466eb16d1b6d846ced6b556bbc6a26
:1032d800226a8769eb684f68b16713677366d365bd
:1032e80031658f64ec634763a162fb615361aa6037
:1032f8000060555fa85efb5d4c5d9b5cea5b375bdd
:10330800825acd5916595d58a357e7562a566b5518
:10331800aa54e85323535d529651cc500050324f73
:10332800624e904dbc4ce54b0c4b304a52497148ab
:103338008e47a746be45d244e243ef42f841fe40dd
:103348000040fe3ef83ded3cde3bca3ab0399238cb
:103358006d3742361135d933993251310030a62ea6
:10336800412dd12b552acb2831278625c723f1217a
:103378000020ef1db61b4c19a11699130010500b15
:1033880000000000000b101417191c1e2022242610
:1033980027292a2c2d2f30313334353637393a3b0b
:1033a8003c3d3e3f40414243444546474848494ae0
:1033b8004b4c4d4e4e4f50515252535455555657f3
:1033c8005858595a5b5b5c5d5d5e5f5f6061616226
:1033d80063636465656666676868696a6a6b6b6c6f
:1033e8006d6d6e6e6f6f70717172727373747475c8
:1033f80076767777787879797a7a7b7b7c7c7d7d2d
:103408007e7e7f7f7f7f7f7e7e7d7d7c7c7b7b7adf
:103418007a79797878777776767574747373727247
:103428007171706f6f6e6e6d6d6c6b6b6a6a6968c7
:10343800686766666565646363626161605f5f5e55
:103448005d5d5c5b5b5a59585857565555545352f5
:103458005251504f4e4e4d4c4b4a494848474645ad
:1034680044434241403f3e3d3c3b3a393736353490
:103478003331302f2d2c2a2927262422201e1c19cf
:083488001714100b000000bf37
:020000040000fa
:10349000f8b51f4690f84c30014613f04000164630
:1034a00003f00f041cd0042c50d0082c36d1d1e9e5
:1034b000102391f87400d1e90e45012819461046f1
:1034c0002b46224659d007f0d1fc40b132463b464c
:1034d0002046294607f03cfc003018bf0120f8bd0b
:1034e0009b0604f1ff341bd5072cf8d801a353f831
:1034f00024f000bf713600004f360000df340000ba
:1035000033360000df340000df340000df34000019
:103510000b360000f1ee10fa00f1b4800020f8bd87
:10352000072cfbd801a353f824f000bff7350000a7
:10353000d93500001d350000bf3500001d350000e5
:103540001d3500001d3500009735000091f87430de
:1035500091ed107ad1ed0e7a012b06ee902ab4eea1
:10356000e77ad7d0f1ee10fad8ddf4eee67af1ee94
:1035700010faacbf01200020f8bd07f093fc002832
:10358000add032463b462046294607f0c3fb00300b
:1035900018bf0120f8bd91f874000128d1e9104549
:1035a000d1e90e2300f08280ab4208bfa242b5d21f
:1035b000bb4208bfb2422cbf01200020f8bd91f8e9
:1035c00074200b6c886b012a0ed08342a6d9b042be
:1035d00034bf00200120f8bd91f87420b1f84030cc
:1035e000088f012ab6b2f0d1834297d2b0428cbf85
:1035f00000200120f8bd91f8742091f8403091f836
:103600003800012af6b2e0d1eee791f874c0bcf1bf
:10361000010fd1e91045d1e90e233bd0a24273eb53
:103620000501bff65cafb242bb41acbf0120002038
:10363000f8bd91f874400a6c8b6b012c10d09a4243
:103640007ff74dafb342b4bf00200120f8bd91f821
:103650007440b1f94020b1f93830012c36b2eed1c6
:103660009a42bff63cafb342ccbf00200120f8bd68
:1036700091f8744091f9402091f93830012c76b2dc
:10368000ddd1ede7f4eee67af1ee10fa94bf012019
:103690000020f8bd944275eb0301bff620af9642bf
:1036a00077eb0303acbf01200020f8bd9d4208bfab
:1036b0009442bff433af9f4208bf96422cbf012013
:1036c0000020f8bd02464ff6ff7300f1240170b4ec
:1036d00022f8043b0c46002342f8043ba24201f8c6
:1036e000013bf9d1104a114c1168c4620025002435
:1036f0004ff400520126c0e90e45c0e9104580f89c
:1037000074608364a0f84c30c0e91433836580f89a
:103710005c30c0e9183380f86830c3660267026322
:1037200070bc8862704700bff82e002000000020a7
:10373000f8b590f84d30013b0446072b2cd8dfe854
:1037400013f08000b7002b00f000fb00fb002c0002
:103750006900d2e9006732463b462046fff798fef3
:10376000002800f0438194f86830002b00f03e817f
:10377000236e002bc0f24381236d002b00f03981b2
:10378000b4f85820002a40f0388194f854209b1a4d
:103790006366072384f84d30f8bdb0f85830b0f8b0
:1037a0005620591c9a42a0f85810f5d8016d90f88f
:1037b00054300b440022b3f5005f964688bf114693
:1037c000a0f858201746002304eb070c1a4604eb18
:1037d000870700e0216d7d68e06a4e1c2665aa56c9
:1037e000425401339cf82410dab29142f2d80ef11f
:1037f000010e94f85530216d5ffa8ef7bb42e2d886
:10380000d4e91823591a914200f2c680002384f8a3
:103810004d30f8bdb0f85830b0f85620591c9a42d7
:10382000a0f85810b8d8416e90f8543000220b44dc
:1038300093424366a0f85820aedb022380f84d3057
:10384000f8bdb0f85830b0f85620591c9a42a0f88c
:10385000581000f28680016d90f854300b4400221d
:10386000b3f5005f4ff0000ea0f8582084bf02654a
:1038700011467746002304eb070c1a4604eb870732
:1038800000e0216d7d68e06a4e1c2665aa56425410
:1038900001339cf82410dab29142f2d80ef1010ef5
:1038a00094f855305ffa8ef7bb4253d9216de1e7aa
:1038b000b0f85830b0f85620591c9a42a0f8581069
:1038c00029d800239e46a0f858301f46002304eb59
:1038d000070c1a4604eb8707216d7d68e06a4e1cd1
:1038e0002665aa56425401339cf82410dab291425c
:1038f000f2d80ef1010e94f855305ffa8ef7bb4204
:10390000e4d894f85430226d1344b3f5005f84bfbb
:10391000002384f84d30b4f85a300133a4f85a30fb
:10392000f8bdb0f85a20b0f8583001320133a0f891
:103930005a20a0f85830f8bd90f84c30826c03f053
:103940000f03013b072b4ed8dfe803f047444d41fe
:103950004d4d4d35e36e226d9a4224bf012384f80c
:10396000683094f84c30a26c03f00f03013b072b36
:1039700036d801a151f823f0b1390000ab3900006d
:10398000e1390000a5390000e1390000e13900000b
:10399000e139000053370000236f19448a42fff4d5
:1039a000fbae33e716680027d5e616880027d2e677
:1039b00016780027cfe6d2e9006732463b4620461c
:1039c000fff766fd90b1042384f84d30f8bd16680a
:1039d0000027f2e716880027efe716780027ece7c4
:1039e00000260027b7e600260027e6e7c4e91067af
:1039f000f8bd94f85420236f9b1a6366c9e6002132
:103a000008226366216584f84d20f8bd1c2b52d92d
:103a100090f84d300b7090f855304b70b0f8563030
:103a20008b70b0f856301b0acb70036d0b71036db1
:103a30001b0a4b71b0f852308b7190f85330cb7138
:103a4000c36a0b72c36a1b0a4b72c38d8b7290f8e8
:103a50002f30cb72036e0b73036e1b124b73b0f9d6
:103a600062308b7390f96330cb73436e0b74436e8b
:103a70001b124b74b0f966308b7490f96730cb74bd
:103a8000036f0b75036f1b0a4b75b0f872308b75a3
:103a900090f87330cb75036b0b76036b1b0a4b7678
:103aa000438e8b7690f83330cb7683201d230877b6
:103ab0000020138070470120704700bf2de9f04fb0
:103ac000032a87b034d94b78013b072b30d8002626
:103ad00080f84d6080f85560a0f85a6006658b78d4
:103ae0000392ca7880f8546004460d4600200021f5
:103af00003eb0223c4e910019bb20222a4f8563062
:103b0000a4f8583084f86860666684f85c206b78a6
:103b1000002b00f031824ff0040815f8087008f10e
:103b20000103dbb2032f03d8dfe807f0ab664707da
:103b30000127384607b0bde8f08f05eb030ab24f06
:103b40009af803309af802103a6801eb0321506b9f
:103b500089b20df1160203f0cdfa0028e8d13b68d6
:103b6000bdf816205b6b03ebc2035ffa86f95a6857
:103b700004eb890312685a60a1449af8042089f87a
:103b8000242094f8543094f85c101344dbb21144b0
:103b90004ff40052b2fbf3f203fb02f284f854300c
:103ba000226784f85c1001366978f2b208f10603e6
:103bb0009142dbb27ad99846afe705eb030a924f00
:103bc0009af803309af802103a6801eb0321106b5f
:103bd00089b20df1160203f08dfa0028a8d13b68d6
:103be000bdf816201b6b5ffa86f903ebc20304ebea
:103bf00089025b685360bfe7dff80cb215f80390e9
:103c0000dbf8002005eb030a10689af802109af816
:103c100003209af8013001eb022109eb032989b254
:103c20000df116021ffa89f903f08cfa002880d1f1
:103c3000dbf80020bdf816101368506803ebc103d1
:103c40000df116025b680093198803f0f7fa00285b
:103c50007ff46fafdbf80010bdf816204968009bb9
:103c600002eb420201ebc2021846494653699847eb
:103c70005ffa86f904eb8903586000287ff47caf73
:103c800057e705eb030aea5c9af802309af801005c
:103c90009af803101b0403eb00235ffa86f9134420
:103ca00004eb890203eb0163536065e7994608f171
:103cb000070108f10803c9b2dbb24a46aa5c84f8de
:103cc0004c206f5c032f3ff633afdfe807f08f54d3
:103cd00039022b444c4edf789978326801eb07218a
:103ce000506b89b20df1160203f004fa00287ff43c
:103cf0001faf3368bdf816105b6b94f84c2003ebd4
:103d0000c1035b681b68a36402f00f0609f1060398
:103d1000711edbb207293ff60baf01a050f821f06e
:103d2000313f00001f3f0000313b0000ff3e00001c
:103d3000313b0000313b0000313b00000d3e0000f4
:103d40002b44314edf789978326801eb0721106bf4
:103d500089b20df1160203f0cdf900287ff4e8ae28
:103d60003368bdf816101b6b94f84c2003ebc103ad
:103d70005b68a364c8e7244e15f8038032682b44bf
:103d800010689978da7893f801a001eb022189b2e2
:103d90000df1160203f0d6f900287ff4caae32689e
:103da000bdf816101368506803ebc1030df116023d
:103db000d3f804b0bbf8001003f040fa00287ff4f9
:103dc000b8ae3268bdf81630526803eb430302eb1d
:103dd000c30308eb0a2189b258465b699847a0647f
:103de00000283ff4a6ae94f84c208de7e918e85c73
:103df0008b784e78c9781b0403eb0623034403eb4e
:103e00000163a36480e700bff82e0020ef180021b3
:103e1000787897f802a0cde900014fea002c0098cd
:103e20004fea0a411ceb010c4fea106e4fea1a4aa6
:103e30004eeb0a0ee85c97f803a01ceb000c4ff069
:103e400000014fea0a684eeb01004fea1a2a1ceb08
:103e500008084ff0000e40eb0a0c3979787997f892
:103e600006a018eb0e084ceb010c000218eb0e0834
:103e70004ceb000c4fea0a4097f807a018eb0e0134
:103e80004ceb00004fea0a6a11eb0e0140eb0a000e
:103e9000c4e90e10120674d494f84c3009f10a09e2
:103ea00043f020035ffa89f984f84c3005eb0903ed
:103eb00015f8090059789a78db7800eb012000ebbf
:103ec000024000eb0360206603f0d6f809f104031a
:103ed000dbb2e066eb5c039a84f8743009f1050903
:103ee0005ffa89f3934228d2eb5c012b25d06b78e3
:103ef00084f855302b7884f84d30002719e6e818ff
:103f0000ef5c817890f801c0c078090401eb0c21c6
:103f1000394401eb00610020c4e90e10bae7e9184a
:103f2000e85c497800eb0120c117c4e90e01b1e754
:103f3000e85c0021c4e90e01ace794f84c30a26cb7
:103f400003f00f03013b072b13d8dfe803f00f0c3e
:103f5000120912121204d2e90023c4e91023c6e7a1
:103f600012680023f9e712880023f6e7127800238d
:103f7000f3e700220023f0e70422914606230521ff
:103f80009ce603eb06095ffa89f98fe7002070478a
:020000040000fa
:103f90003f0000001570000015ac000021ac0000cf
:103fa00035ac00004dac00001100000085a30000fe
:103fb000b5a30000c1a30000e1a30000fda3000021
:103fc000b6000000ddae0000f1ae00001970000088
:103fd00021700000fdae00001300000021a50000cc
:103fe00035a5000041a5000065a500008da50000d5
:103ff00061000000859100000d92000025920000f4
:10400000619200009d920000c100000099a4000090
:10401000b5a40000c1a40000e5a400000da50000a7
:10402000d000000095a00000c9a00000d5a00000ad
:10403000f9a0000021a10000b1130000c5ad0000ef
:10404000ddad00001970000021700000e9ad000036
:1040500091000000a1a80000b1a80000bda80000c8
:10406000d1a80000e1a80000c3120000b988000038
:10407000ed890000f9890000198a0000318a0000ea
:104080003100000015700000ada90000b9a90000c2
:10409000d5a90000f1a90000ef00000009b0000060
:1040a00015b00000197000002170000021b0000060
:1040b000910c000061960000f59600000d9700003d
:1040c00039970000619700009f00000045a800009c
:1040d00055a8000061a8000075a8000085a8000090
:1040e00051000000a1a50000bda50000c9a5000069
:1040f000eda500000da60000a1000000e9aa000047
:1041000015ab0000197000002170000021ab000009
:10411000a10c0000f993000095940000b1940000f8
:10412000dd9400000595000081000000ed9f000077
:104130001da000002da0000051a0000071a00000f3
:10414000c101000085970000ed9700000598000070
:104150004598000079980000a1010000c59b00006f
:10416000319c0000419c0000719c00009d9c00005f
:104170005313000099ac0000b1ac000019700000ae
:1041800021700000bdac0000811300004daa0000aa
:1041900075aa0000197000002170000081aa0000bb
:1041a000e05100008d9d0000199e00001970000074
:1041b000217000002d9e00003300000015700000eb
:1041c00081a700008da70000b1a70000d9a70000bb
:1041d000a1130000b99c0000f19c00001d9d00008f
:1041e0003d9d0000799d00003113000045af0000a7
:1041f00059af0000197000002170000065af000089
:10420000b800000011af000025af000019700000d9
:104210002170000031af000091010000e5a700000f
:10422000f9a70000197000002170000005a8000027
:10423000f0510000818d0000a18e00001970000077
:1042400021700000b58e000061130000fda9000080
:1042500025aa0000197000002170000031aa00009a
:1042600021130000fdad000015ae00001970000024
:104270002170000021ae0000430100001570000015
:104280008dad000095ad000021700000b9ad0000bb
:104290007113000035ae000045ae0000197000003b
:1042a0002170000051ae00005113000011a7000062
:1042b00059a70000197000002170000065a70000d8
:1042c000ffff000031370000c53600000d3a000046
:1042d000bd3a00008d3f000000000000000000001b
:1042e00000000000000000000000000000000000ce
:1042f000010000000c270020020000000020002028
:1043000003000000102000200400000020200020f6
:104310000500000030200020060000004c20002096
:104320000700000052200020080000005820002054
:10433000090000005e2000200a0000006420002028
:104340000b0000006a2000200c00000070200020fc
:104350000d000000802000200e00000090200020b2
:104360000f000000a020002010000000b02000205e
:1043700011000000c020002012000000d02000200a
:1043800013000000e020002014000000f0200020b6
:10439000150000001c210020160000003421002020
:1043a000170000004c2100201800000054210020bc
:1043b00019000000642100201a0000006a2100207a
:1043c0001b000000702100201c0000008021002044
:1043d0001d000000862100201e0000008c2100200e
:1043e0001f0000009421002020000000b8210020c0
:1043f000210000002827002022000000c421002006
:1044000023000000d421002024000000ec21002023
:1044100025000000fc210020260000000c220020c6
:10442000270000001c220020280000002c22002071
:10443000290000003c2200202a0000004c2200201d
:104440002b0000005c2200202c0000006c220020c9
:104450002d0000007c2200202e0000008c22002075
:104460002f0000009c22002030000000ac22002021
:1044700031000000bc22002032000000cc220020cd
:1044800033000000dc22002034000000ec22002079
:1044900035000000fc220020360000000c23002024
:1044a0003700000018230020380000001e230020e1
:1044b00039000000242300203a000000442300209b
:1044c0003b000000642300203c0000008823002003
:1044d0003d000000982300203e000000a82300209b
:1044e0003f000000b823002040000000c823002047
:1044f00041000000f42300204200000000240020be
:104500004300000008240020440000001024002084
:10451000450000001c240020460000002424002048
:104520004700000038270020480000005c240020dd
:1045300049000000782400204a0000007c2400206c
:104540004b000000822400204c0000008824002042
:104550004d0000008e2400204e0000009424002016
:104560004f000000a424002050000000b4240020cc
:1045700051000000c424002052000000d424002078
:1045800053000000e424002054000000f424002024
:10459000550000001c250020560000002c2500209e
:1045a000570000005825002058000000702500200a
:1045b00059000000342400205a0000003c24002050
:1045c0005b0000004c2400205c00000080250020df
:1045d0005d0000008c2500205e0000009225002078
:1045e0005f0000009825002060000000a02500204a
:1045f00061000000b025002062000000b825002006
:1046000063000000c025002064000000cc250020cd
:1046100065000000f025002066000000f62500205f
:1046200067000000fc250020680000000426002030
:1046300069000000142600206a00000020260020e7
:104640006b0000002c2600206c000000402700209a
:104650006d000000382600206e0000004426002077
:104660006f0000006026002070000000642600201b
:10467000710000006c260020720000007c260020e3
:10468000730000008c260020740000009c2600208f
:1046900075000000a826002076000000cc2600202f
:1046a00077000000dc26002078000000e8260020cb
:1046b00079000000042700208d00000098270020ca
:1046c00000000000000000007a0002005c270020cb
:1046d0007b0002005e2700207c0002006027002093
:1046e0007d000200622700207e0002006427002077
:1046f0007f0002006627002080000200682700205b
:10470000810002006a270020820002006c2700203e
:10471000830002006e270020840002007027002022
:104720000000000000000000850002007827002043
:10473000860002007c2700208700020080270020de
:1047400088000200842700208900020088270020ba
:104750008a0002008c2700208b0002009027002096
:104760008c00020074270020000000000000000000
:104770000000000000000000000000000000000039
:104780000000000000000000000000000000000029
:104790000000000000000000000000000000000019
:0847a000000000000000000011
:020000040000fa
:1047a8000221c2680181212151704368184700bf66
:1047b80010b4c2685378052b2dd8dfe803f00f1426
:1047c8001a202603154b1b68052119730023537003
:1047d8000222436802815df8044b18470f490968b3
:1047e80000240c73f3e70d4b1b6801211973002398
:1047f800ede70a4b1b68022119730023e7e7074b13
:104808001b68032119730023e1e7044b1b6804218b
:1048180019730023dbe72223d9e700bff82e002015
:10482800c168074a10b400244c701168c268097b3b
:1048380091700322028143685df8044b184700bf5a
:10484800f82e002030b50289c368032a83b007d048
:104858000221142201815a704368984703b030bd81
:10486800234d9a7859780446286801eb0221806b19
:1048780089b20df1060202f089fc30bb2b68bdf845
:1048880006009a6b6389e16800eb800002eb800206
:10489800023b156990689bb2023104f10802a847ef
:1048a80048b1e3680221492221815a706368204691
:1048b800984703b030bd2389e268023323815070e2
:1048c80063682046984703b030bd0128e36804d0e8
:1048d800022805d00221ff22e6e702214722e3e76a
:1048e800402220815a70636820469847b6e700bf87
:1048f800f82e002030b50289c368022a83b007d891
:104908000221142201815a704368984703b030bdd0
:10491800214d9a7859780446286801eb0221806b6a
:1049280089b20df1060202f031fc18bb2b68bdf804
:104938000610986b2389e26801eb810100eb810086
:10494800033bd0e902159bb240680332a847e368ed
:1049580040b10221482221815a7063682046984755
:1049680003b030bd02222281587063682046984700
:1049780003b030bd0128e36804d0022805d0022125
:10498800ff22e8e702214722e5e7402220815a700a
:10499800636820469847b9e7f82e002070b5028969
:1049a800c368042a82b007d00221142201815a70f8
:1049b8004368984702b070bd9e7859784b4add78b5
:1049c800126801eb0621044689b285b1556b002daa
:1049d80000f084800df10602284602f087fbf8b942
:1049e800bdf8063005ebc3056b6818680de0156b5c
:1049f800002d6cd00df10602284602f077fb78b93d
:104a0800bdf8063005ebc3056868ab78e1685a1e47
:104a1800072a48d8dfe802f0443e473247474711a3
:104a2800012848d002284ad0e3680221ff222181c8
:104a38005a70636820469847bce7d0e900528d70e9
:104a4800e168280ac870e168280c0871e1682d0e31
:104a58004d71e1688a71e168100ac871e168100c4b
:104a68000872e168120e4a72e2680021517002333e
:104a7800626823812046904702b070bd02688a7040
:104a8800e168100ac870e168100c0871e168120e3c
:104a98004a71e9e702888a70e168120aca70e3e796
:104aa80002788a70e0e70222232322814b70636830
:104ab800204698477ee7e36802214322b7e7e36888
:104ac800208140225a7063682046984772e7022185
:104ad800452201815a70436898476be702214622b4
:104ae80001815a704368984764e700bff82e002098
:104af80070b50289c368032a82b007d00221142244
:104b080001815a704368984702b070bd2e4d9a785b
:104b180059780446286801eb0221006889b20df132
:104b2800060202f00bfb58b10128e3683bd00228cb
:104b380036d1402220815a70636820469847e3e7bf
:104b48002a68bdf806101368506803ebc1030df11d
:104b580006025e68318802f06dfbe0b92b68bdf88b
:104b6800062058686389e16802eb420200ebc20242
:104b7800023bd56830469bb2023104f10802a847cf
:104b8800a0b1e3680221142221815a70636820468b
:104b9800984702b070bd0128e36812d002280ed0f1
:104ba8000221ff22f0e702214322ede72389e26890
:104bb800023323815070636820469847a4e7412256
:104bc800b8e702214422dfe7f82e0020f0b5028979
:104bd800c368022a83b007d80221142201815a70bf
:104be8004368984703b0f0bd9a78454e5d783168c0
:104bf80005eb0225adb204460df106020868294608
:104c080002f09cfa00285bd13368bdf806701a6878
:104c1800996802ebc7025768c1b19a681288aa421c
:104c280069d09a68128822b967e09a6832f8302009
:104c380042b1013080b29a6832f83020aa424fea75
:104c4800c00cf2d19a6832f80c200abb586839882f
:104c58000df1060202f0eefa50bb3268bdf80630dc
:104c680050682289e16803eb430300ebc303033a6e
:104c78001b69384692b203319847e36860b3022152
:104c8800142221815a7063682046984703b0f0bd0a
:104c980098682289e1686044033a436892b23846ca
:104ca8000331984700289dd0e36802214222e8e7b3
:104cb8000128e3681cd0022818d00221ff22e0e76f
:104cc8000128e3680fd00228f7d1402220815a70ca
:104cd80063682046984785e70222228158706368f6
:104ce800204698477ee702214322cae74122ede7a2
:104cf80002214422c5e78446a4e79446a2e700bf00
:104d0800f82e00204189c2682e2970b440f2b18083
:104d1800034600212f2018815170da685d4c062067
:104d28009070da68d1702268d968108c0871118c7b
:104d3800d868090a4171d968588988715989d86829
:104d4800090ac171d96820200872d968822048727e
:104d5800d9684d208872d9686120c872d9687220d4
:104d68000873d86832214173d86838258573d868a4
:104d7800c173dd6830202874dd686974dd68342605
:104d8800ae74dd683126ee74dd682875d868332581
:104d98004575d8688175516a002971d0506ad968fb
:104da8000078c875506ad96840780876506ad9681a
:104db80080784876506ad96800798876506ad968c8
:104dc8004079c876506ad968c0790877506ad96836
:104dd800007a4877506ad968407a8877506ad968e3
:104de800807ac877506ad968c07a81f82000506afa
:104df800d968007b81f82100506ad968807b81f8e6
:104e08002200506ad968c07b81f82300d968107bda
:104e180081f82400d968d08981f82500d189d8681b
:104e2800090a80f82610d968106981f827001169e5
:104e3800d868090a80f828101169d868090c80f820
:104e480029101169d868090e80f82a10d96881f8e4
:104e58002b20d968100a81f82c00d968100c81f829
:104e68002d00d968120e81f82e205a68184670bc99
:104e780010470224152104815170436870bc1847fb
:104e880023222d20d9688854013a162afad122689b
:104e9800bce700bff82e0020c26810b402240481c9
:104ea800517043685df8044b184700bf054b06492d
:104eb80003f16c0243f8041f9342fbd1034b0361d7
:104ec800704700bf9c2d0020a9470000a02d00209e
:104ed80030b4036908490948094a0a4d0a4c186060
:104ee80059600a480a499a600a4a5a65c3e911454d
:104ef800c3e9130130bc7047294800000d4d00007c
:104f0800b9470000d54b0000f94a0000a549000048
:084f1800fd4800004d480000b7
:020000040000fa
:104f20000000000061d8280070b05100dc877a00d2
:104f3000535ea3008433cc001c07f500cbd81d01c1
:104f40003ea8460126756f01303f98010b06c1014e
:104f500068c9e901f488120260443b025bfb63020a
:104f600095ad8c02be5ab5028702de029fa40603ed
:104f7000b9402f0384d65703b3658003f7eda80328
:104f8000026fd10387e8f903375a2204c7c34a04e2
:104f9000ea247304537d9b04b6ccc304c912ec0409
:104fa000404f1405d1813c0531aa640518c88c0511
:104fb0003bdbb40553e3dc0516e004063ed12c06ca
:104fc00082b654069d8f7c06485ca4063e1ccc0627
:104fd00039cff306f5741b072e0d4307a0976a0718
:104fe0000a1492072882b907bae1e0077d3208085f
:104ff00032742f089aa6560874c97d0883dca40869
:1050000089dfcb0849d2f20886b419090486400921
:1050100088466709d8f58d09ba93b409f51fdb09ed
:10502000509a010a9402280a8b584e0afc9b740a73
:10503000b4cc9a0a7deac00a23f5e60a72ec0c0b9e
:1050400039d0320b44a0580b645c7e0b6704a40b70
:105050001d98c90b5817ef0be981140ca2d7390c16
:1050600058185f0cde43840c085aa90cad5ace0cbc
:10507000a145f30cbd1a180dd8d93c0dca82610d9b
:105080006c15860d9991aa0d2bf7ce0dfd45f30dec
:10509000ec7d170ed49e3b0e93a85f0e089b830eeb
:1050a0001176a70e8e39cb0e60e5ee0e6879120fe1
:1050b00089f5350fa459590f9da57c0f58d99f0f1d
:1050c000bbf4c20faaf7e50f0de20810c9b32b100d
:1050d000c76c4e10f00c71102b9493106302b61035
:1050e0008257d8107493fa1023b61c117ebf3e115c
:1050f0006faf6011e7858211d242a41120e6c5117d
:10510000c06fe711a4df0812bb352a12f8714b12e9
:105110004c946c12ab9c8d12088bae12575fcf1261
:105120008c19f0129eb91013813f31132dab51131e
:1051300097fc7113b93392138950b2130153d213f0
:105140001a3bf213cd08121415bc3114ed5451144e
:1051500050d370143a379014a880af1496afce1481
:1051600002c4ed14eabd0c154c9d2b1528624a159e
:105170007b0c6915489c87158d11a6154b6cc415c1
:1051800084ace2153ad200166edd1e1623ce3c1614
:105190005ca45a161d607816690196164588b316e8
:1051a000b4f4d016bd46ee16657e0b17b19b2817da
:1051b000a79e45174f876217ae557f17cd099c17dd
:1051c000b3a3b8176723d517f388f1175fd40d1869
:1051d000b4052a18fa1c46183d1a621885fd7d1878
:1051e000ddc699185076b518e80bd118b087ec18c1
:1051f000b4e90719003223199f603e199e755919a9
:105200000a717419ee528f19581baa1955cac4197c
:10521000f45fdf1940dcf919493f141a1d892e1a71
:10522000c9b9481a5dd1621ae8cf7c1a78b5961ac6
:105230001c82b01ae535ca1ae2d0e31a2253fd1acd
:10524000b5bc161bac0d301b1846491b0866621b0b
:105250008d6d7b1bb85c941b9a33ad1b44f2c51b50
:10526000c898de1b3727f71ba39d0f1c1cfc271caf
:10527000b642401c8171581c9188701cf787881cad
:10528000c66fa01c0f40b81ce7f8cf1c5f9ae71c44
:105290008924ff1c7a97161d43f32d1df837451df1
:1052a000ad655c1d737c731d5f7c8a1d8465a11dcb
:1052b000f537b81dc6f3ce1d0a99e51dd527fc1d8f
:1052c0003ba0121e4f02291e264e3f1ed383551ea1
:1052d0006aa36b1effac811ea6a0971e747ead1e36
:1052e0007b46c31ed1f8d81e8a95ee1eb91c041f3a
:1052f000748e191fcdea2e1fdb31441fb063591f76
:1053000061806e1f0388831faa7a981f6a58ad1f99
:105310005821c21f88d5d61f0f75eb1f0000002033
:10532000000000200000290052007b00a300cc00f8
:10533000f5001e0147016f019801c101ea01130246
:105340003b0264028d02b502de0207032f035803fd
:105350008003a903d103fa0322044b0473049b04c2
:10536000c404ec0414053d0565058d05b505dd0592
:1053700005062d0655067d06a406cc06f4061b0779
:1053800043076b079207ba07e10708082f08570879
:105390007e08a508cc08f3081a09410967098e0997
:1053a000b509db09020a280a4e0a750a9b0ac10ad6
:1053b000e70a0d0b330b590b7e0ba40bca0bef0b3b
:1053c000150c3a0c5f0c840ca90cce0cf30c180dc8
:1053d0003d0d620d860dab0dcf0df30d170e3c0e7e
:1053e000600e840ea70ecb0eef0e120f360f590f64
:1053f0007d0fa00fc30fe60f09102c104e10711077
:105400009410b610d810fb101d113f1161118311bb
:10541000a411c611e71109122a124b126d128e1235
:10542000af12cf12f01211133113521372139213e1
:10543000b213d213f21312143214511471149014c3
:10544000b014cf14ee140d152c154a1569158815d6
:10545000a615c415e31501161f163d165b16781622
:105460009616b416d116ee160b17291746176317a2
:105470007f179c17b917d517f2170e182a18461858
:1054800062187e189a18b518d118ed180819231942
:105490003e19591974198f19aa19c519df19fa1962
:1054a000141a2f1a491a631a7d1a971ab11aca1aae
:1054b000e41afd1a171b301b491b621b7b1b941b34
:1054c000ad1bc61bdf1bf71b101c281c401c581ce7
:1054d000711c891ca01cb81cd01ce81cff1c171dcb
:1054e0002e1d451d5c1d731d8a1da11db81dcf1de0
:1054f000e61dfc1d131e291e3f1e561e6c1e821e1d
:10550000981ead1ec31ed91eef1e041f1a1f2f1f8b
:10551000441f591f6f1f841f981fad1fc21fd71f25
:10552000eb1f00200020000000000000010101012d
:105530000101020202020202030303030303040443
:10554000040404040405050505050506060606060b
:1055500006060707070707070808080808080809d4
:1055600009090909090a0a0a0a0a0a0a0b0b0b0b9c
:105570000b0b0b0c0c0c0c0c0c0d0d0d0d0d0d0d67
:105580000e0e0e0e0e0e0e0f0f0f0f0f0f0f0f1031
:1055900010101010101011111111111111121212fe
:1055a00012121212121313131313131313141414cd
:1055b000141414141415151515151515151616169d
:1055c0001616161616161717171717171717171870
:1055d0001818181818181818191919191919191943
:1055e000191a1a1a1a1a1a1a1a1a1a1b1b1b1b1b17
:1055f0001b1b1b1b1b1c1c1c1c1c1c1c1c1c1c1def
:105600001d1d1d1d1d1d1d1d1d1d1e1e1e1e1e1ec4
:105610001e1e1e1e1e1f1f1f1f1f1f1f1f1f1f1f9f
:0c5620001f20202020202020200000bfa0
:020000040000fa
:10562c00ffffff7fffffff7fffffff7fffffff7f7e
:10563c00ffffff7fffffff7fffffff7fffffff7f6e
:10564c00ffffff7fffffff7fffffff7fffffff7f5e
:10565c00ffffff7fffffff7fffffff7fffffff7f4e
:10566c00ffffff7fffffff7fffffff7fffffff7f3e
:10567c00ffffff7fffffff7fffffff7fffffff7f2e
:10568c00ffffff7fffffff7fffffff7fffffff7f1e
:10569c00ffffff7fffffff7fffffff7fffffff7f0e
:1056ac00ffffff7fffffff7fffffff7fffffff7ffe
:1056bc00ffffff7fffffff7fffffff7fffffff7fee
:1056cc00ffffff7fffffff7fffffff7fffffff7fde
:1056dc00ffffff7fffffff7fffffff7fffffff7fce
:1056ec00ffffff7fffffff7fffffff7fffffff7fbe
:1056fc00ffffff7fffffff7fffffff7fffffff7fae
:10570c00ffffff7fffffff7fffffff7fffffff7f9d
:10571c00ffffff7fffffff7fffffff7fffffff7f8d
:10572c00ffffff7fffffff7fffffff7fffffff7f7d
:10573c00ffffff7fffffff7fffffff7fffffff7f6d
:10574c00ffffff7fffffff7fffffff7fffffff7f5d
:10575c00ffffff7fffffff7fffffff7fffffff7f4d
:10576c00ffffff7fffffff7fffffff7fffffff7f3d
:10577c00ffffff7fffffff7fffffff7fffffff7f2d
:10578c00ffffff7fffffff7fffffff7fffffff7f1d
:10579c00ffffff7fffffff7fffffff7fffffff7f0d
:1057ac00ffffff7fffffff7fffffff7fffffff7ffd
:1057bc00ffffff7fffffff7fffffff7fffffff7fed
:1057cc00ffffff7fffffff7fffffff7fffffff7fdd
:1057dc00ffffff7fffffff7fffffff7fffffff7fcd
:1057ec00ffffff7fffffff7fffffff7fffffff7fbd
:1057fc00ffffff7fffffff7fffffff7fffffff7fad
:10580c00ffffff7fffffff7fffffff7fffffff7f9c
:10581c00ffffff7fffffff7fffffff7fffffff7f8c
:10582c006cac162f3138752fcc81d42fb88a34300c
:10583c00775495308ce0f6307c305931d145bc3101
:10584c0018222032dfc68432ba35ea323e70503329
:10585c000478b733a84e1f34c9f587340b6ff13475
:10586c0013bc5b358adec6351cd832367baa9f3614
:10587c0058570d376be07b376d47eb371e8e5b3817
:10588c003cb6cc388ec13e39dbb1b139ef88253a04
:10589c009a489a3aaef20f3b0289863b710dfe3b59
:1058ac00d881763c19e8ef3c1b426a3dc691e53d38
:1058bc0007d9613ed019df3e16565d3fd18fdc3fd4
:1058cc00ffc85c40a103de40bb4160415685e3410b
:1058dc0080d067424925ed42c885734314f4fa43de
:1058ec004d72834494020d4510a79745ea612346f7
:1058fc005235b0467c233e479e2ecd47f6585d4828
:10590c00c3a4ee484b148149d8a9144ab867a94ad4
:10591c003e503f4bc265d64b9faa6e4c3821084d6a
:10592c00f2cba24d37ad3e4e77c7db4e271d7a4fdb
:10593c00c0b01950c084ba50aa9b5c5107f8ff51f3
:10594c00659ca452558b4a5370c7f15353539a54c8
:10595c009f314455fd64ef5518f09b56a4d549571b
:10596c005818f957f0baa95830c05b59df2a0f5aaa
:10597c00cbfdc35ac83b7a5bafe7315c5d04eb5c93
:10598c00b894a55da99b615e221c1f5f1819de5f90
:10599c0086959e606f946061dc182462d925e9625b
:1059ac007bbeaf63dce577641e9f416567ed0c66db
:1059bc00e4d3d966c955a8674f767868b8384a6970
:1059cc004ba01d6a55b0f26a2a6cc96b25d7a16c25
:1059dc00a8f47b6d1bc8576eee54356f989e1470ef
:1059ec0094a8f5706776d8719d0bbd72c86ba373c4
:1059fc00809a8b74689b7575277261766d224f77d0
:105a0c00efaf3e786d1e3079ac71237a79ad187b8f
:105a1c00aad50f7c1bee087db0fa037e56ff007fe3
:105a2c00ffffff7fff7fff7fff7fff7fff7fff7ffa
:105a3c00ff7fff7fff7fff7fff7fff7fff7fff7f6a
:105a4c00ff7fff7fff7fff7fff7fff7fff7fff7f5a
:105a5c00ff7fff7fff7fff7fff7fff7fff7fff7f4a
:105a6c00ff7fff7fff7fff7fff7fff7fff7fff7f3a
:105a7c00ff7fff7fff7fff7fff7fff7fff7fff7f2a
